:100000000C9472000C9491000C9491000C9491004B
:100010000C9491000C9491000C9491000C9491001C
:100020000C9491000C9491000C9491000C94AC16DB
:100030000C9491000C9491000C9491000C949100FC
:100040000C9491000C9491000C9491000C949100EC
:100050000C9491000C9491000C9491000C949100DC
:100060000C9491000C9491000C9491000C949100CC
:100070000C9491000C9491000C9491000C949100BC
:100080000C9491000C9491000C949100C309D00938
:10009000E409F309030A120A220A330A430A4D0A41
:1000A000510A5B0A610A6B0A6F0A7A0A7E0A890A98
:1000B0008D0A980A9C0AA70AAB0ABA0ABE0ACF0A96
:1000C000D30ADE0AE20AED0AF10AFD0A030B130B5A
:1000D0001D0B330B3D0B530B5D0B730B7D0B930B08
:1000E0009D0BAB0B11241FBECFEFD0E4DEBFCDBF05
:1000F00013E0A0E0B1E0EEE8F3E300E00BBF02C0E4
:1001000007900D92A63CB107D9F713E0A6ECB3E037
:1001100001C01D92AE3EB107E1F70E94B2060C94F9
:10012000C5190C940000482F883058F481E090E005
:1001300002C0880F991F4A95E2F7982FE9E2F0E094
:1001400036C0803178F4282F30E02850304081E0EC
:1001500090E002C0880F991F2A95E2F7982FE3E2FA
:10016000F0E025C0883178F4282F30E0205130406D
:1001700081E090E002C0880F991F2A95E2F7982F3E
:10018000E6E2F0E014C0803220F090E0E0E0F0E041
:100190000EC02FE130E0281B310981E090E002C061
:1001A000880F991F2A95E2F7982FE0E2F0E080810E
:1001B00089230895FC0120E030E08081882311F438
:1001C00021E030E0C9010895FC0181E080830895B9
:1001D000089508950F931F93F901D801893091056F
:1001E00031F18A3091055CF487309105A9F08830AF
:1001F00091050CF03FC0069709F052C02CC08B301F
:10020000910549F18B309105ECF08C30910559F155
:100210000D9709F045C039C0118210828091C70343
:1002200081608093C7038091C6038F7737C081E0D8
:1002300090E08D939C93918380838091C60380622C
:100240008F7E2CC0118210821D921C928091C80357
:100250008F7B806217C08091C60380618093C60344
:1002600081E090E016C0118210828091C6038F77E2
:100270008093C60381E090E08D939C938091C803A6
:1002800080648F7D8093C8030BC081E090E08D93E4
:100290009C93918380838091C60380628093C60380
:1002A0001F910F910895EF92FF92F901D7018331C9
:1002B0009105B9F1843191059CF48031910509F4DF
:1002C0003DC08131910524F40F9709F068C015C035
:1002D0008131910509F441C0429709F060C014C012
:1002E00085319105D1F1853191050CF1863191056A
:1002F000C9F1479709F053C049C01182108280911B
:10030000C70388608B7F3FC0118210821D921C92B0
:100310008091C9038E7F8093C9038091C803806850
:1003200019C08091C6038F7E8093C6032FC01182AF
:1003300010828091C7038B7F8093C70381E090E098
:100340008D939C938091C90381608093C9038091B0
:10035000C8038F778093C80322C081E090E08D931B
:100360009C9316C01D921C92118210828091C90329
:100370008E7F8093C9038091C80380688093C803EF
:100380008091C703877F8093C70309C081E090E015
:10039000918380838091C60380628093C603FF901F
:1003A000EF900895CF92DF92CF93DF93EA01F901A6
:1003B000D6018D31910509F457C08E319105A4F411
:1003C0008A31910569F18B3191053CF488319105B1
:1003D00009F1499709F090C068C08B31910579F116
:1003E0004C9709F089C038C08032910509F45DC08E
:1003F000813291053CF48E319105D9F14F9709F086
:100400007BC04CC08132910509F45EC0829709F02F
:1004100073C069C0118210828091C903877F0CC0AC
:1004200081E090E0918380838091C6038062809315
:10043000C6038091C90388608093C9035DC011829F
:1004400010828091C70380648F7D8093C70381E011
:1004500090E08D939C9350C081E090E08D939C93AD
:100460008091C9038D7FE8CF81E090E08D939C93CC
:1004700023C081E090E0918380838091C6038062F5
:100480008093C6031D921C928091C7038F7B80933B
:10049000C7038091C90382608B7FCECF1182108207
:1004A0008091C803877F80611BC08091C6038F7EC7
:1004B0008093C60381E090E0918380838091C6039E
:1004C00080628093C60318C0118210828091C60397
:1004D0008F7D84608093C6038091C80388608F7E7F
:1004E0008093C80309C08091C6038D7F8093C603A3
:1004F00081E090E099838883DF91CF91DF90CF9066
:1005000008950F931F93CF93DF938C01EB018881A4
:100510009981892B69F480E00E949300882341F03F
:100520001093CF030093CE0381E090E099838883FA
:10053000888199810197F9F48091CE039091CF033E
:100540009801281B390B2031310574F080E00E949E
:100550009300882381F41093CD030093CC0382E0B1
:1005600090E09983888307C080E00E9493008823ED
:1005700011F419821882888199810297D9F480E058
:100580000E949300882349F081E090E0998388835A
:100590001093CF030093CE030DC08091CC039091B4
:1005A000CD03081B190B0031110524F019821882A4
:1005B00081E001C080E0DF91CF911F910F910895FC
:1005C000CF93DF93DC01862FFA01B901109719F45C
:1005D000882321F13CC0A130B105B1F4421B530B7B
:1005E0002091AB033091AC0380919D0390919E03C9
:1005F000EC012C9FC0012D9F900D3C9F900D11246C
:1006000084179507B4F423C0A230B105B1F0A3302C
:10061000B10521F42091CA03269508C0A430B10584
:1006200041F42091CA0326952695269520952170A0
:100630000FC0159711F020E00BC020E0E61BF70B70
:1006400080918D0390918E038E179F070CF421E00B
:10065000822FDF91CF910895CF93DF93FC01DA01D0
:1006600086309105B9F4AB014A1B5B0B2091AF03B7
:100670003091B00380919F039091A003EC012C9FD7
:10068000C0012D9F900D3C9F900D1124841795075C
:10069000BCF575C08730910559F49B01241B350BBF
:1006A00080918F03909190038217930764F567C040
:1006B0008830910559F49B01241B350B80918D03E3
:1006C00090918E0382179307ACF559C0893091053C
:1006D000B9F4AB014A1B5B0B2091A7033091A8032F
:1006E00080919F039091A003EC012C9FC0012D9F4E
:1006F000900D3C9F900D11248417950734F53FC051
:10070000EA30F105D1F0EB30F105A1F440E06A1BCD
:100710007B0B8091A7039091A80320919F033091B8
:10072000A003FC01E29FC001E39F900DF29F900D9A
:10073000112422C0EC30F10541F440E06A1B7B0B30
:1007400080918D0390918E0317C03D9711F040E08A
:1007500017C040E06A1B7B0B8091A7039091A80310
:1007600020919F033091A003EC01C29FC001C39F61
:10077000900DD29F900D1124861797070CF441E03D
:10078000842FDF91CF910895CF93DF93FC01DA019D
:100790008F30910559F49B01241B350B80918F03F9
:1007A0009091900382179307C4F590C08031910512
:1007B00061F49B01241B350B80918D0390918E0376
:1007C000821793070CF043C081C081319105B9F4C1
:1007D000AB014A1B5B0B2091A7033091A8038091CA
:1007E0009F039091A003EC012C9FC0012D9F900DC1
:1007F0003C9F900D11248417950764F567C08231E2
:10080000910559F49B01241B350B80918D03909128
:100810008E0382179307ACF559C0E331F105B9F4A3
:10082000AB014A1B5B0B2091A7033091A803809179
:100830009F039091A003EC012C9FC0012D9F900D70
:100840003C9F900D11248417950734F53FC0E43187
:10085000F105D1F0E531F105A1F440E06A1B7B0B15
:100860008091A7039091A80320919F033091A0034A
:10087000FC01E29FC001E39F900DF29F900D1124B7
:1008800022C0E631F10541F440E06A1B7B0B809108
:100890008D0390918E0317C0779711F040E017C039
:1008A00040E06A1B7B0B8091B3039091B4032091CD
:1008B0009F033091A003EC01C29FC001C39F900D24
:1008C000D29F900D1124861797070CF441E0842FD6
:1008D000DF91CF910895CF93DF93FC01DA01883146
:1008E000910561F49B01241B350B8091910390913C
:1008F0009203821793070CF045C0CEC08931910551
:10090000B9F4AB014A1B5B0B2091A9033091AA03F8
:1009100080919F039091A003EC012C9FC0012D9F1B
:10092000900D3C9F900D112484179507D4F5B4C009
:100930008A319105B9F4AB014A1B5B0B2091B503D9
:100940003091B60380919F039091A003EC012C9FFE
:10095000C0012D9F900D3C9F900D11248417950789
:10096000D4F59AC08B31910569F4CB01821B930BAE
:100970009C0180918F0390919003821793070CF054
:1009800044C08AC0EC31F10561F49B012A1B3B0B8A
:1009900080918D0390918E03821793070CF040C0D5
:1009A0007BC0ED31F105B9F4AB014A1B5B0B209123
:1009B000A9033091AA0380919F039091A003EC01B9
:1009C0002C9FC0012D9F900D3C9F900D11248417EA
:1009D0009507ECF561C0EE31F105B9F4AB014A1BA6
:1009E0005B0B2091B7033091B80380919F039091E6
:1009F000A003EC012C9FC0012D9F900D3C9F900DFA
:100A000011248417950774F547C0EF31F10541F4BF
:100A100040E06A1B7B0B695E73400CF43EC03CC037
:100A2000E032F105A1F440E06A1B7B0B8091AD033D
:100A30009091AE0320919F033091A003EC01C29FDF
:100A4000C001C39F900DD29F900D112422C0E132AE
:100A5000F10541F440E06A1B7B0B80918D0390917E
:100A60008E0317C0B29711F040E017C040E06A1B38
:100A70007B0B8091AB039091AC0320919D0330914F
:100A80009E03FC01E29FC001E39F900DF29F900D39
:100A90001124861797070CF441E0842FDF91CF9142
:100AA0000895AF92BF92CF93DF93EA01F9018330AB
:100AB000910509F482C08430910554F48130910588
:100AC000D9F1823091050CF058C0892B69F083C0B0
:100AD0008530910509F46BC0853091050CF45AC03E
:100AE000069709F078C069C08091CA039091C60347
:100AF00082FF07C09F7E9093C6038091C803877FC3
:100B000053C09F7D9093C603118210828091C803C9
:100B10008F7E88608093C803F5018081882309F463
:100B20005AC080E061E00E94001480E091E00E94E1
:100B30002E15F50110824FC02091C803322F3E7F41
:100B4000CB0168EC70E00E94D1178436910524F443
:100B50002C7F2093C80303C032603093C80381E028
:100B600090E0998388838091C6038D7F8460809311
:100B7000C6038091C8038B7F17C08091C803817E14
:100B800086618093C803198218828091C6038062AF
:100B90008B7F1FC0118210828091C6038F7D80934E
:100BA000C6038091C80388608093C80314C08091F5
:100BB000C8038F7E8093C80309C08091C6038061FB
:100BC0008093C60381E090E0918380838091C60387
:100BD00080628093C603DF91CF91BF90AF9008955C
:100BE0006F927F928F929F92AF92BF92CF92DF923D
:100BF000EF92FF920F931F93CF93DF934C013A0133
:100C0000E901FC01E61BF70B60919D0370919E03C7
:100C1000CF010E94D1172091930330919403821742
:100C2000930734F4CD2B21F08091C603816003C07B
:100C30008091C6038E7F8093C60360919F0370915D
:100C4000A003CF010E94D117209195033091960304
:100C50008217930734F4012B21F08091C60388603A
:100C600003C08091C603877F8093C6036091A10370
:100C70007091A203CF010E94D11720919703309168
:100C800098038217930734F4EF2821F08091C6036C
:100C9000806403C08091C6038F7B8093C6036091FC
:100CA000A3037091A403CF010E94D117209199034F
:100CB00030919A038217930734F4CD2821F0809164
:100CC000C703826003C08091C7038D7F8093C703F1
:100CD0006091A5037091A603C401861997090E942B
:100CE000D11720919B0330919C038217930734F412
:100CF000AB2821F08091C703806103C08091C703B6
:100D00008F7E8093C70380E40E94D71182E00E9407
:100D100030128091C6030E9430128091C7030E9456
:100D200030120E94281282E40E94D71182E00E94B1
:100D300030128091C8030E9430128091C9030E9432
:100D400030120E942812DF91CF911F910F91FF90D6
:100D5000EF90DF90CF90BF90AF909F908F907F905B
:100D60006F9008952F923F924F925F926F927F9271
:100D70008F929F92AF92BF92CF92DF92EF92FF92AB
:100D80000F931F93DF93CF93CDB7DEB768970FB65E
:100D9000F894DEBF0FBECDBF1C8A1B821A821D8253
:100DA0001C821F821E82198618861B861A8684E67C
:100DB00090E090938E0380938D03909390038093A3
:100DC0008F03909392038093910381E090E090933E
:100DD0009403809393039093960380939503909349
:100DE00098038093970390939A0380939903909329
:100DF0009C0380939B0382E090E090939E038093FA
:100E00009D039093A00380939F039093A2038093EC
:100E1000A1039093A4038093A3039093A6038093CC
:100E2000A50381E089831D861C861092C60380E895
:100E30008093C7038FEF8093C8038093C9031092F8
:100E4000CA031092CB030E9422148EE091E00E940C
:100E50002E1580E061E00E9400148FE191E00E9475
:100E60002E1580ED97E00E9417170E94221487E24A
:100E700091E00E942E1588EE93E00E9417170E94C1
:100E8000D1118EE291E00E942E1580E40E94D711CC
:100E9000C82E0E94281282E40E94D711082F0E94B7
:100EA000281284E40E94D711E82E0E9428120E9482
:100EB000221484E391E00E942E1510E0DD240C2919
:100EC0001D29FF240E291F29012B61F08BE391E0DE
:100ED0000E942E150E94281284E491E00E942E1593
:100EE0000C94A5118AE491E00E942E1582E591E010
:100EF0000E942E1580E40E94D71186E00E943012D5
:100F000080E00E94301280E00E9430120E9428127D
:100F100080E40E94D71182E00E9430128091C603C3
:100F20000E9430128091C7030E9430120E94281242
:100F300082E40E94D71186E00E94301280E00E9475
:100F4000301280E00E9430120E94281282E40E9437
:100F5000D71182E00E9430128091C8030E943012A3
:100F60008091C9030E9430120E9428128091C70309
:100F70008F778093C70380E40E94D71182E00E949C
:100F800030128091C6030E9430128091C7030E94E4
:100F900030120E94281288EE93E00E9417170E94D8
:100FA000221489E591E00E942E15EE24FF24C7014A
:100FB000BE01645F7F4F0E948102182F0894E11CDC
:100FC000F11C81E090E00E941717112381F30E9429
:100FD000221483E00E949300882309F4EBC389E67E
:100FE00091E00E942E1588EE93E00E9417170E9450
:100FF00022148FE691E00E942E15EE24FF24C701F3
:10100000BE01645F7F4F0E948102182F0894E11C8B
:10101000F11C81E090E00E941717112381F30E94D8
:10102000221466247724442455242224332499242A
:1010300093942FEF3FEF3B8B2A8B84E40E94D711D0
:1010400080E00E94301285E40E94D7110E94421273
:101050008093CA030E944C128093CB030E942812F3
:10106000C201BE01645F7F4F0E948102182F81E0A0
:101070000E9493008823D9F482E00E949300882381
:10108000B1F46A897B89672B91F00E9422148AE768
:1010900091E00E942E1580E061E00E940014662419
:1010A000772471E07C8B992493941B8A1A8A81E0BF
:1010B0000E9493008823F1F082E00E94930088232D
:1010C000C9F48A899B890197A9F00E94221482E8B9
:1010D00091E00E942E1580E061E00E94001468E01B
:1010E000662E712C91E09C8B9924939421E030E042
:1010F0003B8B2A8B81E00E949300882321F582E0BC
:101100000E9493008823F9F06A897B896230710517
:10111000D1F00E9422148AE891E00E942E1580E00E
:1011200061E00E9400148091C60384608093C6032E
:1011300050E2652E712C71E07C8B9924939482E0AF
:1011400090E09B8B8A8B81E00E949300882311F4AE
:101150000C94AB1182E00E949300882311F40C944C
:10116000AB112A893B892330310511F40C94AB1162
:101170000E94221482E991E00E942E1580E061E035
:101180000E9400148091C60380628093C603809100
:10119000C70381608093C7034AE2642E712C9924AF
:1011A000939463E070E07B8B6A8B1B821A821D82B2
:1011B0001C821F821E82198618861B861A868FEF54
:1011C0008093C8038093C9038A899B8902970297F9
:1011D00020F01092C6031092C7031C8A112309F451
:1011E000C5C078E0671671046CF480E061E00E948D
:1011F00000140894611C711C88E06816710409F0E1
:10120000B2C01BC090E269167104DCF460FC09C036
:101210008DE061E00E9400148EE991E00E942E159D
:1012200004C080E061E00E9400140894611C711CFD
:1012300020E26216710409F096C00E9422140C94F8
:10124000C41183010F5F1F4F3AE2631671040CF063
:101250005FC060FC09C08BE061E00E94001482EA7C
:1012600091E00E942E1513C00632110571F107326C
:1012700011053CF40232110561F00432110539F414
:1012800014C00832110569F10A321105B1F13801B3
:101290006AC080E061E00E9400148091C6038B7FE9
:1012A00080628093C6031201CAC180E061E00E949F
:1012B00000148091C6038F7D8093C6038091C7037D
:1012C00081608093C7031201DAC180E061E00E946F
:1012D00000148091C7038E7F88608093C70312013A
:1012E000EEC180E061E00E9400148091C703877F17
:1012F00080648093C703120102C20E94221480916D
:10130000C7038F7B8093C7031B861A860C94C41176
:1013100038010B32110521F00C32110521F511C0F5
:1013200080E061E00E9400149091C7039E7F80914D
:10133000C60380628093C60398609093C70312012E
:101340000CC20E9422148091C6038F7D8093C60335
:101350008091C703877F8093C7031D821C821986F3
:1013600018860C94C411120199249394F301EC3261
:10137000F10508F002C2EA5BFF4FEE0FFF1F059078
:10138000F491E02D0994992021F088EA91E00E94DF
:101390002E158FE061E00E9400146091CA030DC019
:1013A000992021F081EB91E00E942E158FE061E001
:1013B0000E9400146091CA036695617070E080E03D
:1013C00090E00E949B14C5C1992021F08AEB91E026
:1013D0000E942E158FE061E00E9400146091CA0304
:1013E00066956695EACF992021F083EC91E00E9402
:1013F0002E158FE061E00E9400146091CA0366958B
:1014000066956695DACF992021F08CEC91E00E94E8
:101410002E158FE061E00E9400146091CA0362956E
:101420006F70CBCF992021F085ED91E00E942E15B1
:101430008FE061E00E9400146091CA036295669596
:101440006770BBCF992021F08EED91E00E942E15A0
:101450008FE061E00E9400146091CA036295669576
:1014600066956370AACF992021F087EE91E00E94E3
:101470002E158FE061E00E9400146091CA03661F80
:101480006627661F9BCF992021F080EF91E00E9494
:101490002E158091C8038E7F7FC08091C803816024
:1014A0000DC0992021F081E092E00E942E158091DC
:1014B000C8038D7F71C08091C80382608093C80388
:1014C0005CC1992021F083E192E00E942E15809169
:1014D000C8038B7F61C08091C8038460EFCF9920DF
:1014E00021F084E292E00E942E158091C803877F4C
:1014F000806152C08091C8038860E0CF992021F0BC
:1015000085E392E00E942E158091C80388608F7E4B
:1015100043C08091C8038061D1CF992021F086E437
:1015200092E00E942E158091C8038F7D806434C0A4
:101530008091C8038062C2CF992021F087E592E0B4
:101540000E942E158091C8038F7B806225C08091F8
:10155000C8038064B3CF992021F088E692E00E940E
:101560002E158091C8038F778093C8038091C9039B
:10157000816040C08091C8038068A0CF992021F08D
:1015800089E792E00E942E158091C9038E7F809397
:10159000C9038091C80380688093C803DAC0809132
:1015A000C90381602DC0992021F08AE892E00E9451
:1015B0002E158091C9038D7F84601CC08091C90362
:1015C00082601EC0992021F08BE992E00E942E15C6
:1015D0008091C9038B7F82600DC08091C9038460B4
:1015E0000FC0992021F08CEA92E00E942E15809184
:1015F000C903877F8093C903ACC08091C903886009
:101600008093C903BAC0992021F08DEB92E00E942B
:101610002E158091C6038D7F8093C60381E090E0F4
:101620009B838A8396C08091C60382608093C603A1
:1016300081E090E09B838A83A0C0992021F08EEC0A
:1016400092E00E942E158091C6038F7E8093C60380
:1016500081E090E09D838C831B821A82992432E280
:10166000632E712C8AC08091C60380618093C6036B
:1016700081E090E09D838C8380C0992021F08FEDE4
:1016800092E00E942E158091C6038F778093C60347
:1016900081E090E09F838E831D821C82992424E246
:1016A000622E712C6AC08091C60380688093C60345
:1016B00081E090E09F838E8360C0992021F080EFCD
:1016C00092E00E942E158091C7038B7F8093C70301
:1016D00081E090E0998788871F821E82992496E294
:1016E000692E712C4AC08091C70384608093C70320
:1016F00081E090E09987888740C0992021F081E0BF
:1017000093E00E942E158091C7038F7D8093C703BD
:1017100081E090E09B878A8719861886992488E261
:10172000682E712C2AC08091C70380628093C70302
:1017300081E090E09B878A8720C0992021F082E198
:1017400093E00E942E1581E090E09D838C839F831F
:101750008E83992412C0992021F083E293E00E94A5
:101760002E1581E090E09D838C831F821E829987D5
:10177000888799240BE2602E712C2A813B810C8191
:101780001D81EE80FF80C884D984AA84BB84C201F5
:10179000B10140E050E00E94F00581E090E00E943D
:1017A00017178CE26816710409F4B5C50894411C3A
:1017B000511C43CC84E393E00E942E1588EE93E005
:1017C0000E9417170E9422148BE393E00E942E15AB
:1017D000EE24FF24C701BE01645F7F4F0E94810297
:1017E000182F0894E11CF11C81E090E00E9417176B
:1017F000112381F30E94221488E493E00E942E15A5
:101800008091C60380628093C60381E00E949300AA
:10181000882309F0A7C582E00E949300882309F07D
:10182000A1C587E060E00E9400148FE493E00E946D
:101830002E1581E090E09D838C838091C6038062A9
:101840008093C6038824992466247724442455244D
:101850001E8A1D8A222423943324339484E40E9414
:10186000D71180E00E94301285E40E94D7110E94B7
:1018700042128093CA030E944C128093CB030E94B1
:10188000281281149104D1F03320C1F086E061E088
:101890000E94001487E593E00E942E1580E061E02D
:1018A0000E9400148DE593E00E942E15B401882754
:1018B00077FD8095982F0E94FE143324C301BE014A
:1018C000645F7F4F0E948102682FC401A3019201CF
:1018D0000E94E002882331F00894811C911C2301AE
:1018E00033243394C401B301A2010E942C03882342
:1018F00071F00894811C911C9AE089169104E1F121
:101900002DE082169104C1F12301332433943EE08B
:101910008316910471F493012419350980918D0384
:1019200090918E03821793074CF52301332433944F
:1019300004C067E18616910409F5A301441955090D
:101940002091B9033091BA0380919F039091A00335
:10195000BC01269FC001279F900D369F900D11243A
:10196000841795072CF4230118E1812E912C04C0D3
:10197000B7E18B2E912C02C033243394C401B30100
:10198000A2012D893E890E946B04882379F0089476
:10199000811C911C7AE18716910429F47E8A6D8A54
:1019A000332433940FC023013324339483E2881605
:1019B000910441F4C301841995090B971CF0A4E22A
:1019C0008A2E912CC401B301AE014E5F5F4F9E0180
:1019D0002C5F3F4F8E010A5F1F4FF8E0EF2EF12C76
:1019E000EC0EFD1EEAE0CE2ED12CCC0EDD1E5E01EB
:1019F0000894A11CB11C0E945105C401B301AE01A1
:101A00004E5F5F4F9E012C5F3F4F8E010A5F1F4F5D
:101A1000B8E0EB2EF12CEC0EFD1EAAE0CA2ED12C64
:101A2000CC0EDD1E0E94EA009EE08916910459F456
:101A30001F821E821D821C828091C8038F7B806260
:101A40008093C80312C027E18216910471F480913B
:101A5000C60361E070E07D836C8380638093C6037E
:101A60008091C7038E7F8093C703C401B301AE0189
:101A70004E5F5F4F9E012C5F3F4F8E010A5F1F4FED
:101A8000F8E0EF2EF12CEC0EFD1EEAE0CE2ED12C6C
:101A9000CC0EDD1E0E94D20173E28716910481F400
:101AA0001B821A828091C6038B7F8093C6032220FB
:101AB00039F00E94221484E693E00E942E1522241D
:101AC0002A813B810C811D81EE80FF80C884D984EE
:101AD000AA84BB84C301B2014D895E890E94F005CE
:101AE00081E090E00E94171784E28816910409F4BF
:101AF00012C40894611C711CB1CE82E00E94930054
:101B0000882309F035C487E060E00E94001481E773
:101B100093E00E942E1581E090E09D838C8380915C
:101B2000C60380628093C6038824992466247724A0
:101B300044245524198A188A222423943324339464
:101B400084E40E94D71180E00E94301285E40E9454
:101B5000D7110E9442128093CA030E944C128093B4
:101B6000CB030E94281281149104D1F03320C1F0DC
:101B700086E061E00E94001487E593E00E942E1544
:101B800080E061E00E9400148DE593E00E942E1534
:101B9000B401882777FD8095982F0E94FE14332486
:101BA000C301BE01645F7F4F0E948102682FC401A0
:101BB000A30192010E94E002882331F00894811C65
:101BC000911C23013324339496E089169104E1F4A7
:101BD000A301441955092091BB033091BC038091A6
:101BE0009F039091A003BC01269FC001279F900DE9
:101BF000369F900D11248417950734F42301BFE01C
:101C00008B2E912C33243394C401B301A2010E9482
:101C1000C403882331F00894811C911C23013324D0
:101C20003394C401B301A201288939890E946B044D
:101C3000882379F00894811C911C7AE1871691041D
:101C400029F4798A688A332433940FC0230133241A
:101C5000339483E28816910441F4C30184199509F1
:101C60000B971CF0A4E28A2E912CC401B301AE01A3
:101C70004E5F5F4F9E012C5F3F4F8E010A5F1F4FEB
:101C8000F8E0EF2EF12CEC0EFD1EEAE0CE2ED12C6A
:101C9000CC0EDD1E5E010894A11CB11C0E945105F2
:101CA00096E08916910449F48091C60321E030E062
:101CB0003D832C8380638093C603C401B301AE01CE
:101CC0004E5F5F4F9E012C5F3F4F8E010A5F1F4F9B
:101CD000B8E0EB2EF12CEC0EFD1EAAE0CA2ED12CA2
:101CE000CC0EDD1E0E945301C401B301AE014E5F54
:101CF0005F4F9E012C5F3F4F8E010A5F1F4FF8E040
:101D0000EF2EF12CEC0EFD1EEAE0CE2ED12CCC0EE7
:101D1000DD1E0E94D20133E28316910481F41B82FE
:101D20001A828091C6038B7F8093C603222039F0EC
:101D30000E94221484E693E00E942E1522242A8118
:101D40003B810C811D81EE80FF80C884D984AA84E8
:101D5000BB84C301B201488959890E94F00581E022
:101D600090E00E94171764E28616910409F4D3C22A
:101D70000894611C711CE4CE82E00E9493008823C9
:101D800009F4FCC287E060E00E9400148AE793E057
:101D90000E942E1581E090E09D838C838091C60384
:101DA00080628093C603882499246624772444247F
:101DB00055241F861E86222423943324339484E4DE
:101DC0000E94D71180E00E94301285E40E94D71152
:101DD0000E9442128093CA030E944C128093CB034C
:101DE0000E94281281149104D1F03320C1F086E0C2
:101DF00061E00E94001481E893E00E942E1580E0CB
:101E000061E00E9400148DE593E00E942E15B4015C
:101E1000882777FD8095982F0E94FE143324C301F4
:101E2000BE01645F7F4F0E948102682FC401A3013D
:101E300092010E94E002882331F00894811C911CD9
:101E4000230133243394C401B301A2010E942C0363
:101E5000882371F00894811C911C7AE08716910404
:101E6000C9F08DE088169104A9F02301332433943E
:101E70009EE08916910481F493012419350980911B
:101E80008D0390918E038217930734F423010FE0A2
:101E9000802E912C33243394C401B301A2010E94FB
:101EA000C403882331F00894811C911C230133243E
:101EB0003394C401B301A2012E853F850E946B04B7
:101EC000882379F00894811C911C2AE182169104E0
:101ED00029F47F866E86332433940FC02301332484
:101EE000339433E28316910441F4C30184199509B4
:101EF0000B971CF014E2812E912CC401B301AE01AA
:101F00004E5F5F4F9E012C5F3F4F8E010A5F1F4F58
:101F1000B8E0EB2EF12CEC0EFD1EAAE0CA2ED12C5F
:101F2000CC0EDD1E5E010894A11CB11C0E9451055F
:101F3000C401B301AE014E5F5F4F9E012C5F3F4F66
:101F40008E010A5F1F4FF8E0EF2EF12CEC0EFD1E04
:101F5000EAE0CE2ED12CCC0EDD1E0E94EA006EE00F
:101F60008616910451F41F821E821D821C8280916C
:101F7000C8038F7B80628093C803C401B301AE01A4
:101F80004E5F5F4F9E012C5F3F4F8E010A5F1F4FD8
:101F9000B8E0EB2EF12CEC0EFD1EAAE0CA2ED12CDF
:101FA000CC0EDD1E0E945301C401B301AE014E5F91
:101FB0005F4F9E012C5F3F4F8E010A5F1F4FF8E07D
:101FC000EF2EF12CEC0EFD1EEAE0CE2ED12CCC0E25
:101FD000DD1E0E94D20173E28716910481F41B82F8
:101FE0001A828091C6038B7F8093C603222039F02A
:101FF0000E94221484E693E00E942E1522242A8156
:102000003B810C811D81EE80FF80C884D984AA8425
:10201000BB84C301B2014E855F850E94F00581E05B
:1020200090E00E94171784E28816910409F473C1A6
:102030000894611C711CC3CE82E00E949300882327
:1020400009F469C187E060E00E94001489E691E02C
:102050000E942E1581E090E09D838C838091C603C1
:1020600080628093C6038824992466247724188E7E
:102070001F8A44245524222423943324339484E453
:102080000E94D71180E00E94301285E40E94D7118F
:102090000E9442128093CA030E944C128093CB0389
:1020A0000E94281281149104D1F03320C1F086E0FF
:1020B00061E00E94001487E593E00E942E1580E005
:1020C00061E00E9400148DE593E00E942E15B4019A
:1020D000882777FD8095982F0E94FE143324C30132
:1020E000BE01645F7F4F0E948102182FC401612FDF
:1020F000A30192010E94E002882339F0230135E216
:10210000832E912C10E033243394C401B301A20137
:102110000E942C03882371F49EE08916910481F4B7
:1021200093012419350980918D0390918E038217B4
:10213000930734F4230125E2822E912C3324339427
:10214000C401B301A2010E94C403882331F023011A
:1021500095E2892E912C33243394C401B301A2015A
:1021600020E030E00E946B04882321F02301332417
:10217000339411C023E28216910449F4C3018419F7
:1021800095090B9754F184E2882E912C26C035E2F4
:102190008316910411F5112321F405E2802E912C70
:1021A00012C06F89788D6F5F7F4F788F6F8B65322C
:1021B000710521F04B01332433940FC015E2812EB9
:1021C000912C332433941B821A821D821C821F821D
:1021D0001E82198618861B861A86C401B301AE01B9
:1021E0004E5F5F4F9E012C5F3F4F8E010A5F1F4F76
:1021F000B8E0EB2EF12CEC0EFD1EAAE0CA2ED12C7D
:10220000CC0EDD1E5E010894A11CB11C0E9451057C
:10221000C401B301AE014E5F5F4F9E012C5F3F4F83
:102220008E010A5F1F4FF8E0EF2EF12CEC0EFD1E21
:10223000EAE0CE2ED12CCC0EDD1E0E94EA007EE01C
:102240008716910451F41F821E821D821C82809188
:10225000C8038F7B80628093C803C401B301AE01C1
:102260004E5F5F4F9E012C5F3F4F8E010A5F1F4FF5
:10227000B8E0EB2EF12CEC0EFD1EAAE0CA2ED12CFC
:10228000CC0EDD1E0E945301C401B301AE014E5FAE
:102290005F4F9E012C5F3F4F8E010A5F1F4FF8E09A
:1022A000EF2EF12CEC0EFD1EEAE0CE2ED12CCC0E42
:1022B000DD1E0E94D20183E28816910481F41B8204
:1022C0001A828091C6038B7F8093C603222039F047
:1022D0000E94221484E693E00E942E1522242A8173
:1022E0003B810C811D81EE80FF80C884D984AA8443
:1022F000BB84C301B20140E050E00E94F00581E0E0
:1023000090E00E94171794E28916910421F0089436
:10231000611C711CB4CE8091C6038B7D8093C60373
:102320008091C703867B8093C70380E40E94D71106
:1023300082E00E9430128091C6030E943012809188
:10234000C7030E9430120E94281289E893E00E947D
:102350002E150C94CD062C89222311F40C94EE0832
:102360000C94D50881E00E949300882309F0C5CB26
:1023700081E00E949300882309F4FECC81E00E9452
:102380009300882341F258CE1201992493948CE251
:10239000682E712CF2C90E94FE1808950E945118EF
:1023A00008951092B9008CE08093B8000895982F9A
:1023B00084EA8093BC008091BC0087FFFCCF8091B1
:1023C000B900887F883021F0803111F081E00895D4
:1023D0009093BB0084E88093BC008091BC0087FF91
:1023E000FCCF9091B900987F983111F480E0089566
:1023F00080E0903409F081E00895982F44EA34E8B1
:1024000024E94093BC008091BC0087FFFCCF809101
:10241000B900887F883011F0803199F79093BB0024
:102420003093BC008091BC0087FFFCCF8091B90045
:10243000887F803211F0883539F42093BC00809178
:10244000BC0084FDFCCFDDCF08950E94D711089514
:1024500084E98093BC008091BC0084FDFCCF08958A
:102460008093BB0084E88093BC008091BC0087FF10
:10247000FCCF8091B90090E0887F883209F091E02C
:10248000892F089584EC8093BC008091BC0087FF65
:10249000FCCF8091BB00089584E88093BC008091BC
:1024A000BC0087FFFCCF8091BB000895089508957C
:1024B00080E090E00895EF92FF920F931F9367B131
:1024C0003D982898299AE090D403F090D503009184
:1024D000D6031091D70320E030E041E050E0CA017C
:1024E0006F9364E06A95F1F76F910197C9F72A9AA3
:1024F000CA016F9364E06A95F1F76F910197C9F78C
:1025000086B12A98FA016F9364E06A95F1F76F91AA
:102510003197C9F72A9AFA016F9364E06A95F1F747
:102520006F913197C9F72A982C5F3F4F85FF09C0FB
:10253000C901A0E0B0E08E159F05A007B10708F41F
:10254000CECFC901A0E0B0E08E159F05A007B1076E
:1025500028F082E390E0A0E0B0E004C080E395E7DB
:10256000A0E0B0E08093D4039093D503A093D6036A
:10257000B093D70367B91F910F91FF90EF90089523
:1025800028B190E08F709070880F991F880F991F65
:10259000237C282B28B92A9A81E090E0FC016F93D4
:1025A00064E06A95F1F76F913197C9F72A986F93B4
:1025B00064E06A95F1F76F910197C9F708958091EA
:1025C000D0039091D103009711F00E94FE188091E2
:1025D000BD0390E001972091BE0330E0AC01429F23
:1025E000C001439F900D529F900D11240E945118DD
:1025F0009093D1038093D003009729F160E070E2BB
:1026000008C0E091D003F091D103E40FF51F70836F
:102610006F5F462F50E08091BD0390E001972091BD
:10262000BE0330E0FC01E29FC001E39F900DF29FEA
:10263000900D11244817590724F384E495E168E5C7
:1026400072E10E94561908958093BE036093BD0302
:102650000E94DF1208958093BE036093BD030E9421
:10266000DF1208950E94DF1208953D98459A80E395
:1026700095E7A0E0B0E08093D4039093D503A093B6
:10268000D603B093D703209A219A229A8EE190E044
:102690000E94171783E00E948A1686E090E00E944D
:1026A000171783E00E948A1682E090E00E941717B5
:1026B00083E00E948A1682E090E00E94171782E071
:1026C0000E948A1682E090E00E94171788E20E941A
:1026D000D41388E00E94D41381E00E94D41386E0D2
:1026E0000E94D4138CE00E94D41308958091D803E3
:1026F000882329F481E08093D8030E94351308953C
:10270000FF920F931F93082F162FF42E0E9476131B
:102710000E945B1237B128B12998112311F0289A31
:1027200001C0289887B18C6387B981E0F816E1F081
:1027300088B1902F92959F70990F990F837C982B59
:1027400098B92A9A81E090E0FC016F9364E06A9561
:10275000F1F76F913197C9F72A986F9364E06A9502
:10276000F1F76F910197C9F788B10F70000F000F53
:10277000837C802B88B92A9A81E090E0FC016F93DA
:1027800064E06A95F1F76F913197C9F72A986F93D2
:1027900064E06A95F1F76F910197C9F737B928B9E5
:1027A0001F910F91FF90089560E042E00E94801316
:1027B00008950F931F93082F162F08C0002311F4BC
:1027C00080E101C084E10E94D41311501123B1F7BC
:1027D0001F910F9108950E94D91308958CE00E94D3
:1027E000D41308950E94EE130895813011F48FE000
:1027F00001C08EE00E94D41308950E94F51308953D
:10280000A4E0B0E0E6E0F4E10C941418182F062FD1
:1028100080E8898380EC8A8384E98B8384ED8C83D0
:10282000FE01E60FF11D8181810F0E94D4131093E8
:10283000D3030093D2032496E4E00C9430180E9452
:102840000014089581E00E94D4138091D0039091E8
:10285000D103892B19F160E070E208C0E091D00348
:10286000F091D103E40FF51F70836F5F462F50E0A6
:102870008091BD0390E001972091BE0330E0FC0100
:10288000E29FC001E39F900DF29F900D1124481725
:10289000590724F31092D3031092D20308950E9493
:1028A0002214089561E042E00E94801308950F937E
:1028B0001F93CF93DF9300E010E8C82FD0E0812F63
:1028C00090E08C239D23892B11F081E301C080E3EC
:1028D0000E9452140F5F083011F01695F0CFDF916F
:1028E000CF911F910F9108950E94571408958A3037
:1028F00010F4805D01C0895C0E94521408951F93FA
:10290000182F82958F700E947714812F8F700E94EC
:1029100077141F9108951F93182F892F0E947F14F9
:10292000812F0E947F141F9108950E948B14089597
:102930000E947F1408956F927F928F929F92AF9220
:10294000BF92CF92DF92FF920F93DF93CF93CDB7D9
:10295000DEB72A970FB6F894DEBF0FBECDBF5B017E
:102960006C010AE03E010894611C711CFA2CC6013E
:10297000B5012AE030E040E050E00E94E417C901D0
:10298000DA015C016D0101504301800E911C80E36E
:10299000F80EC601B5012AE030E040E050E00E94A8
:1029A000B217F61AF401F082A114B104C104D104E3
:1029B000E9F608C0F601E00FF11D80810E94521473
:1029C0000F5F04C06E010894C11CD11C0A3090F343
:1029D0002A960FB6F894DEBF0FBECDBFCF91DF9120
:1029E0000F91FF90DF90CF90BF90AF909F908F900E
:1029F0007F906F9008950E949B140895EF92FF922C
:102A00000F931F937B018C0197FF0BC010950095CE
:102A1000F094E094E11CF11C011D111D8DE20E9457
:102A20005214C801B7010E949B141F910F91FF908F
:102A3000EF9008950E94FE140895CF93DF93EC0168
:102A400003C00E9452142196FE0184918823C9F785
:102A5000DF91CF9108950E941D150895CF93DF93C4
:102A6000EC0103C021960E94521488818823D1F77B
:102A7000DF91CF9108950E942E1508950E9452145F
:102A800008950E9452140895A0E0B0E0EAE4F5E150
:102A90000C941018E82E8091D0039091D103892BCB
:102AA00009F405C12AE0E21609F446C038E0E3164D
:102AB000C9F48091D30381508093D3038F3F51F4A5
:102AC0008091D20381508093D2038091BE038150C4
:102AD0008093D3038091D2038F3F09F0E2C010921C
:102AE000D203DDC08E2D0E9452142091D2032223E6
:102AF000C9F030E0215030408091BE0390E0AC013D
:102B0000249FC001259F900D349F900D112420918A
:102B1000D303E091D003F091D103E80FF91FE20F46
:102B2000F11DE0828091D3038F5F8093D303909156
:102B3000BE03891709F0BBC04091D203242F30E0B7
:102B40008091BD0390E001972817390709F0A4C0D0
:102B5000C0E0D0E044C080E06C2F0E940014FF244D
:102B60006E010894C11CD11C35C00F2D10E090E0FF
:102B70009C01C29FC001C39F900DD29F900D112454
:102B8000E091D003F091D103E00FF11FE80FF91F9E
:102B900080810E945214E091D003F091D103809182
:102BA000BE0390E0C89FD001C99FB00DD89FB00D63
:102BB0001124E00FF11FAE0FBF1FAC01C49EC00176
:102BC000C59E900DD49E900D1124E80FF91F8081B1
:102BD0008C93F3948091BE03F81638F2E60160916D
:102BE000BD03862F90E00297C817D9070CF4B3CF26
:102BF000623008F440C0625080E00E940014FF245C
:102C000040E2D42E34C00F2D10E08091BD0390E03F
:102C1000029730E0AC01429FC001439F900D529F4C
:102C2000900D1124E091D003F091D103E00FF11F3A
:102C3000E80FF91F80810E9452142091BD0330E0FB
:102C4000225030408091BE0390E0AC01249FC0012F
:102C5000259F900D349F900D1124E091D003F091A9
:102C6000D103E00FF11FE80FF91FD082F3942091F8
:102C7000BE03F21640F26091BD03615080E00E94F5
:102C8000001400E004C080E20E9452140F5F8091A3
:102C9000BE030817C0F303C04F5F4093D2031092E6
:102CA000D3038091D3036091D2030E9400142E2D90
:102CB000332727FD3095C901CDB7DEB7E8E00C9486
:102CC0002C18EF92FF920F931F93CF93DF937C0109
:102CD000062F10E053E0000F111F5A95E1F7C0E0F6
:102CE000D0E09E01200F822F80640E94D413F70150
:102CF000EC0FFD1FE4918E2F0E9452142196C830D4
:102D0000D10579F7CDB7DEB7E6E00C942E180E9416
:102D10006116089560E041E00E94801308950F93CA
:102D20001F93CF93DF93082F162FEA010BC00023C8
:102D300011F488E101C08CE10E94D413CE010E94FD
:102D400017171150112399F7DF91CF911F910F9110
:102D500008950E948F1608952F928F939F932FB6F8
:102D60008091DA039091DB0301968093DA039093CC
:102D7000DB0390E08091DC03891F8093DC0390915A
:102D8000E2039C5F9093E2038091E10380519742BC
:102D9000C0F09093E2038093E1038091DD03909172
:102DA000DE0301968093DD039093DE0390E0809133
:102DB000DF03891F8093DF038091E003891F8093E5
:102DC000E0032FBE9F918F912F9018956F5F7F4FDB
:102DD0008F4F9F4F660F771F881F991F25E030E0A8
:102DE00040E050E00E94E417CA01B901089528EEBE
:102DF00033E009C0F9016F9364E06A95F1F76F91D0
:102E00003197C9F701970097A9F708956F5F7F4F32
:102E10008F4F9F4F660F771F881F991F25E030E067
:102E200040E050E00E94E417CA01B901089528EE7D
:102E300033E009C0F9016F9364E06A95F1F76F918F
:102E40003197C9F701970097A9F70895A0E7B0E077
:102E50008C918E7F8C93E0EBF0E0808183608083A7
:102E6000E1EBF0E08081807F8083808182608083DD
:102E7000B89A8C9181608C93789408958091E30343
:102E8000882329F481E08093E3030E9426170895A4
:102E90000E943E17E0E7F0E080818E7F80832091E2
:102EA000DD033091DE034091DF035091E003808128
:102EB00081608083B901CA0108950E94481708956E
:102EC0000E943E17809170008E7F80937000609109
:102ED000B2008091D9039091DA03A091DB03B09105
:102EE000DC03B89905C0262F30E040E050E011C067
:102EF0008091B2002091D9033091DA034091DB0335
:102F00005091DC0320503F4F4F4F5F4F90E0A0E0C7
:102F1000B0E0282B392B4A2B5B2B8091700081600D
:102F200080937000B901CA0108950E946017089546
:102F30000E943E17E0E7F0E080818E7F8083109250
:102F4000DD031092DE031092DF031092E003109273
:102F5000E2031092E10380818160808308950E94E2
:102F600098170895629FD001739FF001829FE00D32
:102F7000F11D649FE00DF11D929FF00D839FF00DF8
:102F8000749FF00D659FF00D9927729FB00DE11DA4
:102F9000F91F639FB00DE11DF91FBD01CF01112481
:102FA000089597FB092E07260AD077FD04D065D037
:102FB00006D000201AF4709561957F4F0895F6F7BA
:102FC000909581959F4F0895A1E21A2EAA1BBB1BD5
:102FD000FD010DC0AA1FBB1FEE1FFF1FA217B307E5
:102FE000E407F50720F0A21BB30BE40BF50B661FFB
:102FF000771F881F991F1A9469F7609570958095BF
:1030000090959B01AC01BD01CF0108952F923F9295
:103010004F925F926F927F928F929F92AF92BF92E8
:10302000CF92DF92EF92FF920F931F93CF93DF9394
:10303000CDB7DEB7CA1BDB0B0FB6F894DEBF0FBEF1
:10304000CDBF09942A88398848885F846E847D843E
:103050008C849B84AA84B984C884DF80EE80FD8040
:103060000C811B81AA81B981CE0FD11D0FB6F894B6
:10307000DEBF0FBECDBFED010895AA1BBB1B51E102
:1030800007C0AA1FBB1FA617B70710F0A61BB70BD8
:10309000881F991F5A95A9F780959095BC01CD017D
:1030A0000895CF93DF93BC018230910510F462E064
:1030B00070E0A091E603B091E703ED01E0E0F0E0FD
:1030C00040E050E021C0888199818617970769F414
:1030D0008A819B81309719F09383828304C09093F7
:1030E000E7038093E603FE0134C06817790738F4DC
:1030F0004115510519F08417950708F4AC01FE013C
:103100008A819B819C01E9012097E9F641155105CF
:10311000A9F1CA01861B970B049708F4BA01E0E0F5
:10312000F0E02AC08D919C91119784179507F9F4CE
:103130006417750781F412968D919C9113973097BF
:1031400019F09383828304C09093E7038093E6038E
:10315000FD0132964FC0CA01861B970BFD01E80F97
:10316000F91F6193719302978D939C9343C0FD0166
:10317000828193819C01D9011097A1F68091E4038B
:103180009091E503892B41F48091C1039091C20392
:103190009093E5038093E4034091C3035091C403EB
:1031A0004115510541F44DB75EB78091BF03909131
:1031B000C003481B590B2091E4033091E503241709
:1031C0003507B0F4CA01821B930B8617970780F06E
:1031D000AB014E5F5F4F8417950750F0420F531FAE
:1031E0005093E5034093E403F9016193719302C0A6
:1031F000E0E0F0E0CF01DF91CF910895CF93DF932E
:10320000009709F450C0EC0122971B821A82A0910A
:10321000E603B091E703109709F140E050E0AC17E6
:10322000BD0708F1BB83AA83FE0121913191E20F12
:10323000F31FAE17BF0779F48D919C911197280F5A
:10324000391F2E5F3F4F3983288312968D919C91B1
:1032500013979B838A834115510571F4D093E7033B
:10326000C093E60320C012968D919C911397AD01F7
:10327000009711F0DC01D3CFFA01D383C2832191EF
:103280003191E20FF31FCE17DF0769F4888199812E
:10329000280F391F2E5F3F4FFA01318320838A8127
:1032A0009B8193838283DF91CF9108950F931F9326
:1032B000CF93DF938C01EB01009731F46115710519
:1032C00019F420E030E038C081E090E06EE070E07A
:1032D0000E94A219FC019C01009771F180E8838390
:1032E000209771F0D387C28781E883838091E803B8
:1032F0009091E903892B21F4F093E903E093E8032B
:1033000001151105C9F011870087838182608383CD
:103310008091EA039091EB03892B71F4F093EB0316
:10332000E093EA038091EC039091ED03892B21F463
:10333000F093ED03E093EC03C901DF91CF911F916E
:103340000F9108950F931F93CF93DF93689F800190
:10335000699F100D789F100D1124C8010E9451180B
:10336000EC01009729F060E070E0A8010E94BE190E
:10337000CE01DF91CF911F910F910895DC0101C023
:0E3380006D9341505040E0F70895F894FFCF50
:10338E005055534820544F205354415254004441F9
:10339E0053434820434C45414E4552203263005220
:1033AE0045563A20333100424547494E2000494E9A
:1033BE004954200053544152542000493243204274
:1033CE004144200053544F502000493243204F4B6C
:1033DE00200042494E49542000494E505554205227
:1033EE00554E2F44454255470044454255470049E6
:1033FE004E505554204D4F444500494E5055545350
:10340E0020004F555450555453004D4F544F525366
:10341E0020004D554C5449204D4F544F52004F46AD
:10342E0046004241434B200053454E534F522030ED
:10343E000053454E534F5220310053454E534F5279
:10344E0020320053454E534F5220330053454E53B6
:10345E004F5220340053454E534F522035005345A2
:10346E004E534F5220360053454E534F5220370085
:10347E00414320504F57455220202020204F4E20B0
:10348E0000424C4F574552202020202020204F4EE6
:10349E00202000504C4154452053544F50202020A2
:1034AE004F4E2000504C4154452052414953452027
:1034BE00204F4E2000504C415445204C4F57455202
:1034CE0020204F4E20004252555348312052414940
:1034DE005345204F4E2000425255534831204C4FF9
:1034EE00574552204F4E20004252555348322052DB
:1034FE0041495345204F4E200042525553483220E9
:10350E004C4F574552204F4E2000504150455220AF
:10351E00524149534520204F4E20005041504552B4
:10352E00204C4F57455220204F4E200041495220EB
:10353E004B4E494645202020204F4E20004C4F41F7
:10354E0044494E472020202046524F4E54004452AC
:10355E0049564520202020202046524F4E540042EE
:10356E005255534831202020202046524F4E5400B1
:10357E00425255534832202020202046524F4E545E
:10358E0000504150455220202020202046524F4EC0
:10359E005400464958545552452026204252555300
:1035AE00483100464958545552452026204252551E
:1035BE00534832004E4F524D414C0053454C4543FB
:1035CE0054204359434C45004359434C453A004619
:1035DE0049525354204200202020202000535441B1
:1035EE0054452000454E44204F46204359434C45F8
:1035FE00005345434F4E44204200424F5448204210
:10360E00002020202020202000454E44006400642D
:10361E00006400010001000100010001000200022F
:10362E0000020002000200E803D007D007D007D046
:10363E0007D007D007D007D007D007D00702102039
:06364E0000EE0300000085
:00000001FF
