:100000000C9400010C941F010C941F010C941F010F
:100010000C941F010C941F010C941F010C941F01E0
:100020000C941F010C941F010C941F010C94B91C1B
:100030000C941F010C941F010C941F010C941F01C0
:100040000C941F010C941F010C941F010C941F01B0
:100050000C941F010C941F010C941F010C941F01A0
:100060000C941F010C941F010C941F010C941F0190
:100070000C941F010C941F010C941F010C941F0180
:100080000C941F010C941F010C941F01E204F30453
:100090000B051E053205450559056E0582059505BA
:1000A0009905A905AD05BB05BF05CD05D105E00541
:1000B000E405F205F50504060806270618062B06D2
:1000C0002F063D0640064F0653066106670680066A
:1000D0008C06A906B506D206DE06FB060707220730
:1000E000B809DE09000A430A0D0A180A230A2D0A74
:1000F000380A7D0A5B0A430A490A000B5B0A040BB3
:10010000040B040B040B040B040B040B040B660A16
:10011000750A7D0A870A8B0A9A0A000BA00AB00AA0
:10012000BC0AC90ADE0AEB0A580D7F0DA10DAE0DFF
:10013000B80DC30DCE0DAD0EAD0EAD0EAD0EAD0EA8
:10014000AD0EAD0EAD0ED20DD90DA90EE80DF30D0D
:10015000FD0DA90E110EA90E230E2B0E350E390E14
:10016000460EA90E4C0E5A0E660E730E880E950E94
:100170008411AA11CC110912D911E411EF11F31154
:10018000FE115112251209121312071325123012F3
:1001900037120713461251125B1207136F1207131F
:1001A0008112891293129712A4120713AA12B8127D
:1001B000C412D112E612F312DF15061628166316C2
:1001C00035163E1649164D1658160B177F16631630
:1001D0006D1643177F168A1691164317A0160B1734
:1001E000AB164317BF164317D116D716E116E516FF
:1001F000F2164317F81606170B17151724172E17A4
:1002000011241FBECFEFD0E4DEBFCDBF13E0A0E0CE
:10021000B1E0E8EAFFE300E00BBF02C007900D92F7
:10022000AE33B107D9F713E0AEE3B3E001C01D92DE
:10023000A636B107E1F70E948C020C94D21F0C94F1
:100240000000482F883058F481E090E002C0880F09
:10025000991F4A95E2F7982FE9E2F0E036C0803125
:1002600078F4282F30E02850304081E090E002C040
:10027000880F991F2A95E2F7982FE3E2F0E025C056
:10028000883178F4282F30E02051304081E090E030
:1002900002C0880F991F2A95E2F7982FE6E2F0E056
:1002A00014C0803220F090E0E0E0F0E00EC02FE1DA
:1002B00030E0281B310981E090E002C0880F991FCF
:1002C0002A95E2F7982FE0E2F0E0808189230895F3
:1002D000FC0120E030E08081882311F421E030E04F
:1002E000C9010895FC0181E080830895089508956F
:1002F0000F931F93CF93DF938C01EB01888199813A
:10030000892B69F480E00E942101882341F0109339
:1003100047030093460381E090E0998388838881B6
:1003200099810197F9F480914603909147039801D0
:10033000281B390B2031310574F080E00E94210127
:10034000882381F4109345030093440382E090E0F6
:100350009983888307C080E00E942101882311F4DB
:1003600019821882888199810297D9F480E00E94CD
:100370002101882349F081E090E0998388831093DC
:100380004703009346030DC08091440390914503B9
:10039000081B190B0031110524F01982188281E025
:1003A00001C080E0DF91CF911F910F9108952F92AE
:1003B0003F924F925F926F927F928F929F92AF92F5
:1003C000BF92CF92DF92EF92FF920F931F93DF9332
:1003D000CF93CDB7DEB72C011A013901FC01E61B22
:1003E000F70BCF01B4010E94DE1D2D8D3E8D8217CB
:1003F000930734F4672821F080913E03816003C0A5
:1004000080913E038E7F80933E03CF016D897E896C
:100410000E94DE1D2F8D38A18217930734F4012B23
:1004200021F080913E03886003C080913E03877F66
:1004300080933E03CF016F89788D0E94DE1D29A134
:100440003AA18217930734F4EF2821F080913E03FC
:10045000806403C080913E038F7B80933E03CF0175
:10046000698D7A8D0E94DE1D2BA13CA18217930716
:1004700034F4CD2821F080913F03826003C0809145
:100480003F038D7F80933F03C201821993096B8DD7
:100490007C8D0E94DE1D2DA13EA18217930734F4AE
:1004A000AB2821F080913F03806103C080913F031E
:1004B0008F7E80933F0380E40E94E41782E00E94D5
:1004C0003D1880913E030E943D1880913F030E9499
:1004D0003D180E94351882E40E94E41782E00E94D1
:1004E0003D18809140030E943D18809141030E9475
:1004F0003D18CF91DF911F910F91FF90EF90DF900A
:10050000CF90BF90AF909F908F907F906F905F90B3
:100510004F903F902F9008952F923F924F925F926D
:100520006F927F928F929F92AF92BF92CF92DF9203
:10053000EF92FF920F931F93DF93CF93CDB7DEB768
:10054000CE54D0400FB6F894DEBF0FBECDBF1A8296
:10055000198210923E0310923F038FEF8093400365
:100560008093410310924203109243030E942F1A7A
:1005700080E091E00E943B1B88EE93E00E94241DE6
:100580000E94DE1787E091E00E943B1B80E40E94FE
:10059000E417C82E0E94351882E40E94E417082F41
:1005A0000E94351884E40E94E417E82E0E94351852
:1005B0000E942F1A8DE091E00E943B1B10E0DD2489
:1005C0000C291D29FF240E291F29012B61F084E12C
:1005D00091E00E943B1B0E94351889E191E00E9446
:1005E0003B1B0C94AD178FE191E00E943B1B84E212
:1005F00091E00E943B1B80E40E94E41786E00E9489
:100600003D1880E00E943D1880E00E943D180E9445
:10061000351882E40E94E41786E00E943D1880E0CD
:100620000E943D1880E00E943D180E94351888EE17
:1006300093E00E94241D0E942F1A83E00E94210152
:10064000882309F462C48BE291E00E943B1B88EE90
:1006500093E00E94241D0E942F1A87E391E00E94DC
:100660003B1BEE24FF24C701BE016F5F7F4F0E943A
:100670007801182F0894E11CF11C81E090E00E94A1
:10068000241D112381F30E942F1A4424552466242B
:10069000772423961FAE1EAE23972FEF3FEF3AAF7E
:1006A00029AF29961FAE1EAE29972D961FAE1EAEFE
:1006B0002D972F961FAE1EAE2F972B961FAE1EAEF8
:1006C0002B97222433241C821B8284E40E94E4178B
:1006D00080E00E943D1885E40E94E4170E944F18B4
:1006E000809342030E945918809343030E94351857
:1006F000C101BE016F5F7F4F0E947801182F81E01A
:100700000E9421018823C9F482E00E9421018823EC
:10071000A1F449AD5AAD452B81F00E942F1A83E414
:1007200091E00E943B1B80E061E00E940D1A44248E
:100730005524662477241AAE19AE81E00E94210167
:100740008823E1F082E00E9421018823B9F489AD79
:100750009AAD019799F00E942F1A8BE491E00E94C4
:100760003B1B80E061E00E940D1A98E0492E512C5D
:1007700066247724A1E0B0E0BAAFA9AF81E00E947F
:1007800021018823E9F482E00E9421018823C1F03D
:1007900029AD3AAD2230310599F00E942F1A83E538
:1007A00091E00E943B1B80E061E00E940D1A80E214
:1007B000482E512C6624772442E050E05AAF49AFCE
:1007C00081E00E9421018823D9F082E00E9421016A
:1007D0008823B1F089AD9AAD039791F00E942F1A4A
:1007E00083E491E00E943B1B80E061E00E940D1ACF
:1007F0004424552466247724A3E0B0E0BAAFA9AF1F
:10080000112309F4D2C0B8E04B1651040CF580E076
:1008100061E00E940D1A0894411C511C28E0421608
:10082000510409F0BCC00E942F1A49AD5AAD452BA6
:1008300011F40C94CD178BE491E00E943B1B80E0F7
:1008400061E00E940D1A23963FAE2EAE23975DC144
:10085000C2018170907050E2451651048CF5892BCD
:1008600049F48DE061E00E940D1A8BE591E00E9451
:100870003B1B04C080E061E00E940D1A0894411CFB
:10088000511C80E24816510409F089C00E942F1AB9
:10089000A9ADBAAD119711F40C94CD1780913E0318
:1008A000846080933E038FE591E00E943B1B80E0D3
:1008B00061E00E940D1A23963FAE2EAE23970AC226
:1008C00082010F5F1F4F892B49F48BE061E00E948A
:1008D0000D1A86E691E00E943B1B14C006321105FA
:1008E000A9F1073211053CF40232110569F0043216
:1008F000110541F418C008321105B9F10A32110589
:1009000009F442C028014BC080E061E00E940D1A4A
:1009100080913E038B7F806280933E0323963FAE9F
:100920002EAE2397FCC180E061E00E940D1A8091F9
:100930003E038F7D80933E0380913F0381608093CF
:100940003F0323963FAE2EAE239712C280E061E0B4
:100950000E940D1A80913F038E7F886080933F0331
:1009600023963FAE2EAE23972CC280E061E00E941A
:100970000D1A80913F03877F806480933F03239605
:100980003FAE2EAE239746C20E942F1A80913F039E
:100990008F7B80933F031C821B820C94CD17239680
:1009A0003FAE2EAE239766247724F201EA32F1059A
:1009B00008F051C2EA5BFF4FEE0FFF1F0590F49164
:1009C000E02D09946114710439F48CE691E00E94E1
:1009D0003B1B01E0602E712C8FE061E00E940D1A3C
:1009E0006091420311C06114710439F485E791E00C
:1009F0000E943B1B11E0612E712C8FE061E00E9490
:100A00000D1A609142036695617070E080E090E09D
:100A10000E94A81A20C26114710439F48EE791E093
:100A20000E943B1BB1E06B2E712C8FE061E00E94B5
:100A30000D1A6091420366956695E6CF61147104C4
:100A400039F487E891E00E943B1BA1E06A2E712CEB
:100A50008FE061E00E940D1A6091420366956695F1
:100A60006695D2CF6114710439F480E991E00E9457
:100A70003B1BF1E06F2E712C8FE061E00E940D1A9C
:100A80006091420362956F70BFCF6114710439F4B5
:100A900089E991E00E943B1BE1E06E2E712C8FE012
:100AA00061E00E940D1A609142036295669567703D
:100AB000ABCF6114710439F482EA91E00E943B1BD0
:100AC00071E0672E712C8FE061E00E940D1A609139
:100AD0004203629566956695637096CF61147104C2
:100AE00039F48BEA91E00E943B1B61E0662E712C89
:100AF0008FE061E00E940D1A60914203661F662735
:100B0000661F83CF6114710439F484EB91E00E9475
:100B10003B1B51E0652E712C809140038E7F8093AA
:100B2000400348E0442E512C96C1809140038160DF
:100B30000DC06114710439F485EC91E00E943B1BF7
:100B400031E0632E712C809140038D7F80934003B0
:100B500082C1809140038260F9CF6114710439F43D
:100B600087ED91E00E943B1B21E0622E712C809169
:100B700040038B7FEBCF809140038460E7CF61140B
:100B8000710439F488EE91E00E943B1B91E0692EDC
:100B9000712C80914003877F15C08091400388604D
:100BA000D5CF6114710439F489EF91E00E943B1BA9
:100BB00081E0682E712C8091400388608F7EC6CFC3
:100BC000809140038061C2CF6114710439F48AE0DE
:100BD00092E00E943B1B01E0602E712C809140034B
:100BE0008F7D14C0809140030DC06114710439F4ED
:100BF0008BE192E00E943B1B11E0612E712C8091F1
:100C000040038F7B8062A2CF8091400380649ECF9F
:100C10006114710439F48CE292E00E943B1BB1E054
:100C20006B2E712C809140038F778093400313C00B
:100C30006114710439F48DE392E00E943B1BA1E042
:100C40006A2E712C809141038E7F809341038091A5
:100C5000400380687BCF80914103816035C061147F
:100C6000710439F48EE492E00E943B1BF1E06F2E98
:100C7000712C809141038D7F14C0809141030DC080
:100C80006114710439F48FE592E00E943B1BE1E0AE
:100C90006E2E712C809141038B7F826015C08091F4
:100CA0004103846011C06114710439F480E792E05B
:100CB0000E943B1B71E0672E712C80914103877F5E
:100CC00003C080914103886080934103C4C06114D4
:100CD000710439F481E892E00E943B1B61E0662ECA
:100CE000712C80913E038D7F80933E0321E030E0A4
:100CF0002F963FAF2EAF2F9750E2452E512CABC011
:100D000080913E03826080933E0341E050E02F9645
:100D10005FAF4EAF2F979FC06114710439F482E921
:100D200092E00E943B1B41E0642E712C80913E03B7
:100D30008F7E80933E0381E090E02D969FAF8EAF33
:100D40002D972F961FAE1EAE2F9732E2432E512CB9
:100D500082C080913E03806180933E03A1E0B0E0B9
:100D60002D96BFAFAEAF2D9776C06114710439F4E4
:100D700083EA92E00E943B1B21E0622E712C80915D
:100D80003E038F7780933E032D961FAE1EAE2D97A8
:100D900021E030E02B963FAF2EAF2B9794E2492E07
:100DA000512C59C080913E03806880933E0341E0FE
:100DB00050E02B965FAF4EAF2B974DC0611471047E
:100DC00039F484EB92E00E943B1B81E0682E712C89
:100DD00080913F038B7F80933F0381E090E02996D1
:100DE0009FAF8EAF29972B961FAE1EAE2B9706E2B4
:100DF000402E512C30C080913F03846080933F038C
:100E0000A1E0B0E02996BFAFAEAF299724C061142E
:100E1000710439F485EC92E00E943B1B11E0612ED5
:100E2000712C80913F038F7D80933F0329961FAEE5
:100E30001EAE299721E030E03C832B83B8E24B2E95
:100E4000512C09C080913F03806280933F0341E0B1
:100E500050E05C834B838DB79EB742970FB6F894F2
:100E60009EBF0FBE8DBFEDB7FEB7319682E090E01A
:100E7000ADB7BEB712969C938E93119793838283DE
:100E8000958384839783868381E090E09187808730
:100E9000938782879587848797878687918B808BB6
:100EA000C10123966EAD7FAD239740E050E02F96B1
:100EB0002EAD3FAD2F972D960EAD1FAD2D972B96D6
:100EC000EEACFFAC2B972996CEACDFAC2997AB806C
:100ED000BC80A2E08A2E912C0E94D7012DB73EB78C
:100EE0002E5E3F4F0FB6F8943EBF0FBE2DBF81E080
:100EF00090E00E94241D3AE24316510411F40C9430
:100F000093170894211C311CE0CB86ED92E00E94DF
:100F10003B1B88EE93E00E94241D0E942F1A8DED4A
:100F200092E00E943B1BEE24FF24C701BE016F5FCD
:100F30007F4F0E947801182F0894E11CF11C81E07A
:100F400090E00E94241D112381F30E942F1A8AEE43
:100F500092E00E943B1B80913E03806280933E039F
:100F600081E00E942101882311F00C94B31782E0E4
:100F70000E942101882311F00C94B31787E060E0F0
:100F80000E940D1A81EF92E00E943B1B6624772499
:100F900018861F8241E050E05CAF4BAF222433241F
:100FA0005EAF4DAF1CA21BA21C8E1B8E1C8A1B8A1F
:100FB0004424552427961FAE1EAE279784E40E9432
:100FC000E41780E00E943D1885E40E94E4170E9427
:100FD0004F18809342030E945918809343030E9444
:100FE00035186114710479F080E061E00E940D1AF7
:100FF00089EF92E00E943B1BB301882777FD809523
:10100000982F0E940B1BC201BE016F5F7F4F0E9491
:1010100078016114710429F4882309F440C0120195
:1010200004C051E06516710431F48091420380FDE3
:1010300043C0120104C082E06816710449F4C20181
:1010400082199309853691050CF446C0120104C03B
:1010500093E06916710449F4C20182199309815A17
:101060009F400CF449C0120104C0B4E06B16710437
:1010700049F4C20182199309895E93400CF44CC073
:10108000120104C035E06316710449F4C2018219EB
:101090009309853691050CF44DC0120104C046E059
:1010A0006416710461F4C20182199309815A9F4048
:1010B0000CF450C0120107C0F1E06F2E712C87E0D4
:1010C0006816710461F4C20182199309853691058D
:1010D0000CF450C0120107C0E2E06E2E712C98E0B3
:1010E0006916710461F4C20182199309853691056C
:1010F0000CF44EC0120107C073E0672E712CA9E0FA
:101100006A16710461F4C20182199309815D9740E6
:101110000CF44EC0120107C064E0662E712C2AE068
:101120006216710451F4C201821993098536910542
:1011300044F44EC055E0652E712C3BE063167104FB
:1011400061F4C20182199309815D97400CF450C08B
:10115000120107C046E0642E712C5CE06516710434
:1011600061F4C20182199309853691050CF44EC0D1
:10117000120107C037E0632E712C8DE068167104F0
:1011800051F4C20182199309815D974044F44FC024
:1011900028E0622E712CBEE06B16710461F4C2016E
:1011A00082199309853691050CF453C0120107C0CA
:1011B00099E0692E712C27E16216710461F4C20175
:1011C00082199309815A9F400CF453C0120107C041
:1011D0008AE0682E712C48E16416710461F4C20142
:1011E00082199309853691050CF451C0120107C08C
:1011F0000BE0602E712C59E16516710451F4C201A7
:1012000082199309815A9F4044F451C01CE0612E19
:10121000712CBAE16B16710469F4C2018219930949
:10122000815A9F400CF453C058864F8207C0BDE0DE
:101230006B2E712C3BE16316710471F4C2014F8176
:101240005885841B950B853691050CF450C012010E
:1012500007C0AEE06A2E712C5CE16516710461F482
:10126000C20182199309853691050CF450C0120110
:1012700007C0F7E16F2E712C8DE16816710451F4EF
:10128000C20182199309815A9F4044F450C0E8E199
:101290006E2E712CBEE16B16710461F4C2018219CD
:1012A0009309815A9F400CF453C0120107C079E1A1
:1012B000672E712C3FE16316710461F4C20182193B
:1012C0009309895E93400CF44BC1120107C06AE197
:1012D000662E712C50E26516710461F4C201821908
:1012E0009309815A9F400CF447C1120107C05BE18A
:1012F000652E712CB1E26B16710461F4C201821982
:101300009309853691050CF444C1120107C04CE1E4
:10131000642E712C22E26216710461F4C2018219FA
:101320009309815A9F400CF446C1120107C03DE168
:10133000632E712C43E26416710469F4C2018219B0
:1013400093090B970CF444C124E2622E712C5CC10A
:101350009EE1692E712CF301E432F10508F054C1CD
:10136000E059FF4FEE0FFF1F0590F491E02D099417
:101370008091420320913E039091400382FF07C079
:101380002F7E20933E03977F9093400361C02F7D73
:1013900020933E039F7E986090934003ADADBEAD19
:1013A000119709F0A7C080E061E00E940D1A80E06B
:1013B00093E00E943B1B1EAE1DAE9CC020914003DB
:1013C000322F3E7FC20168EC70E00E94DE1D843641
:1013D000910524F42C7F2093400303C032603093A6
:1013E000400380913E03866080933E0380914003DA
:1013F0008B7F8093400321E030E03C8F2B8F04C132
:1014000080914003817E86618093400380913E03FA
:1014100080628B7F80933E03F0C080913E038F7D7E
:1014200080933E038091400388608093400362C0B4
:10143000809140038F7E8093400380913E038062C1
:1014400080933E03E1C080913E03806180933E0320
:1014500081E090E09CA38BA3D7C080913F03816083
:1014600080933F0380913E038F7780933E0342C079
:101470008091400380648F7D80934003A1E0B0E0C1
:10148000BC8BAB8BC1C080913E03806180933E03D7
:10149000B7C080913E038F7780933E0380914003D5
:1014A00080648F7D809340031CA21BA281E090E0AA
:1014B0009C8B8B8BA9C0809140038F7B8062809333
:1014C00040031CA21BA21C8A1B8A9EC080913E0363
:1014D000806180933E0380913F038E7F80933F0322
:1014E000A1E0B0E0BCA3ABA38FC080914103877F94
:1014F000809341031CA21BA287C080913E038F7E74
:1015000080933E0321E030E03CA32BA37DC080917B
:101510004103886012C080913F0380648F7D809377
:101520003F031CA21BA241E050E027965FAF4EAFE5
:1015300027976AC0809141038D7F8093410364C0E7
:1015400080913F038F7B80933F03809141038260B2
:101550008B7F8093410327961FAE1EAE279754C002
:1015600080914003877F8061809340031CA21BA26F
:101570008FE1682E712C48C080913E038F7E80934E
:101580003E0381E090E09CA38BA300E2602E712CCF
:101590003BC080913E038F7D846080933E038091A9
:1015A000400388608F7E809340031CA21BA211E23F
:1015B000612E712C29C0B2E26B2E712C80913E03FA
:1015C0008D7F80933E03A1E0B0E0BC8FAB8F1CC049
:1015D000A3E26A2E712C80913E038B7F80933E03A1
:1015E0002BAD3CAD2130310541F40E942F1A8EE025
:1015F00093E00E943B1B1CAE1BAE1C8E1B8E04C0D6
:1016000041E050E05CA34BA38DB79EB742970FB665
:10161000F8949EBF0FBE8DBFEDB7FEB7319682E046
:1016200090E0ADB7BEB712969C938E9311979383BB
:101630008283958384839783868321E030E031879A
:101640002087338722873587248737872687318B02
:10165000208BC201B1014F8158852B8D3C8D0BA190
:101660001CA1EB88FC88CC24DD242796AEACBFAC53
:101670002797F2E08F2E912C0E94D7014DB75EB7CD
:101680004E5E5F4F0FB6F8945EBF0FBE4DBF81E058
:1016900090E00E94241D54E26516710411F40C942C
:1016A00093170894411C511C89CC82E00E942101AF
:1016B000882311F00C94BA1787E060E00E940D1A9D
:1016C0008BE193E00E943B1B662477241E821D82DF
:1016D00081E090E098AF8FAB222433249AAB89ABA2
:1016E0001AA619A61AA219A21A8E198E44245524D4
:1016F0001E861D8684E40E94E41780E00E943D1847
:1017000085E40E94E4170E944F18809342030E94D0
:101710005918809343030E9435186114710479F0BD
:1017200080E061E00E940D1A89EF92E00E943B1B6D
:10173000B301882777FD8095982F0E940B1BC2016B
:10174000BE016F5F7F4F0E9478016114710429F41C
:10175000882309F440C0120104C091E069167104A5
:1017600031F48091420380FD43C0120104C0A2E025
:101770006A16710449F4C2018219930985369105EC
:101780000CF446C0120104C0B3E06B16710449F4B6
:10179000C20182199309815A9F400CF449C0120179
:1017A00004C034E06316710449F4C201821993093C
:1017B000895E93400CF44CC0120104C055E06516DC
:1017C000710449F4C20182199309853691050CF41C
:1017D0004FC0120104C086E06816710461F4C201B2
:1017E00082199309815A9F400CF452C0120107C01C
:1017F000E1E06E2E712CBFE06B16710461F4C20142
:1018000082199309853691050CF452C0120107C064
:1018100072E0672E712C20E16216710461F4C2013E
:1018200082199309853691050CF452C0120107C044
:1018300063E0662E712C31E16316710461F4C2011C
:1018400082199309815D97400CF452C0120107C0C0
:1018500054E0652E712C52E16516710461F4C201E9
:1018600082199309853691050CF452C0120107C004
:1018700045E0642E712C83E16816710461F4C201A5
:1018800082199309815D97400CF452C0120107C080
:1018900036E0632E712CB4E16B16710461F4C20161
:1018A00082199309853691050CF450C0120107C0C6
:1018B0002FE0622E712C25E16216710461F4C201E1
:1018C00082199309815D97400CF451C0120107C041
:1018D00090E1692E712C46E16416710461F4C20135
:1018E00082199309853691050CF453C0120107C083
:1018F00081E1682E712C57E16516710461F4C20113
:1019000082199309815A9F400CF453C0120107C0F9
:1019100002E1602E712CB8E16B16710461F4C20112
:1019200082199309853691050CF451C0120107C044
:1019300013E1612E712C29E16216710451F4C20188
:1019400082199309815A9F4044F451C0B4E16B2E2F
:10195000712C4AE16416710469F4C2018219930979
:10196000815A9F400CF453C05E824D8207C0A5E1AE
:101970006A2E712C8BE16816710471F4C201AD817D
:10198000BE818A1B9B0B853691050CF450C0120159
:1019900007C0F6E16F2E712CBCE16B16710461F487
:1019A000C20182199309853691050CF450C01201C9
:1019B00007C0E7E16E2E712C2DE16216710451F41F
:1019C000C20182199309815A9F4044F450C078E1C2
:1019D000672E712C4EE16416710461F4C201821904
:1019E0009309815A9F400CF453C0120107C069E16A
:1019F000662E712C8FE16816710461F4C2018219A0
:101A00009309895E93400CF455C1120107C05AE155
:101A1000652E712CB0E26B16710461F4C20182195B
:101A20009309815A9F400CF451C1120107C04BE148
:101A3000642E712C31E26316710461F4C2018219C3
:101A40009309853691050CF44EC1120107C03CE1A3
:101A5000632E712C42E26416710461F4C201821992
:101A60009309815A9F400CF450C1120107C02DE127
:101A7000622E712C83E26816710469F4C201821926
:101A800093090B970CF44EC194E2692E712C65C139
:101A90008EE1682E712CF301E432F10508F05DC18E
:101AA000EC56FF4FEE0FFF1F0590F491E02D0994C7
:101AB0008091420320913E039091400382FF07C032
:101AC0002F7E20933E03977F90934003C9C02F7DC4
:101AD00020933E039F7E98609093400329A93AA9E2
:101AE0002130310509F0B4C080E061E00E940D1A98
:101AF00080E093E00E943B1B1AAA19AAA9C020917A
:101B00004003322F3E7FC20168EC70E00E94DE1D70
:101B10008436910524F42C7F2093400303C0326067
:101B20003093400380913E03866080933E03809112
:101B300040038B7F8093400341E050E05A8F498FF0
:101B40000CC180914003817E866180934003809127
:101B50003E0380628B7F80933E03F8C080913E03FA
:101B6000806180933E0381E090E09AA389A3F5C051
:101B700080913E038F7D80933E0380914003886077
:101B80008093400365C0809140038F7E8093400323
:101B900080913E03806280933E03DFC080913E03CC
:101BA00080615CC080913F0388608B7F80933F039E
:101BB0004FC0809141038160809341038091400335
:101BC0008F778093400321E030E03AA729A7C5C072
:101BD000809141038E7F8093410380914003806810
:101BE000809340032DC080913E038F7E80933E03FF
:101BF00041E050E05AA349A3B0C080913F038B7FDE
:101C000080933F03809141038160809341038091E1
:101C100040038F778093400381E090E09AA789A7E3
:101C200017C0809141038E7F8093410380914003D0
:101C300080688093400380913F03877F80933F03B8
:101C40001AA619A605C080914103877F809341039E
:101C50001AA219A282C080913E038F7E80933E0318
:101C6000A1E0B0E0BAA3A9A378C080914103886045
:101C700010C080913F0380648F7D80933F031AA240
:101C800019A221E030E03E872D8767C08091410393
:101C90008D7F8093410361C080913F038F7B809350
:101CA0003F038091410382608B7F809341031E86B6
:101CB0001D8653C080914003877F806180934003DD
:101CC0001AA219A20FE1602E712C47C080913E0329
:101CD0008F7E80933E0341E050E05AA349A310E277
:101CE000612E712C3AC080913E038F7D8460809379
:101CF0003E038091400388608F7E809340031AA248
:101D000019A2B1E26B2E712C28C0A2E26A2E712CAE
:101D100080913E038D7F80933E0381E090E09A8F17
:101D2000898F1BC0F3E26F2E712C80913E038B7F55
:101D300080933E03AFA9B8AD119741F40E942F1ACA
:101D40008EE093E00E943B1B18AE1FAA1A8E198EDC
:101D500004C021E030E03AA329A34DB75EB7425159
:101D600050400FB6F8945EBF0FBE4DBFEDB7FEB743
:101D7000319682E090E0ADB7BEB712969C938E93F9
:101D8000119793838283958384839783868321E04D
:101D900030E031872087338722873587248737874C
:101DA0002687318B208BC201B1014D815E81298D47
:101DB0003A8D09A11AA1EE24FF24C9A4DAA4AD84A6
:101DC000BE84E2E08E2E912C0E94D7014DB75EB703
:101DD0004E5E5F4F0FB6F8945EBF0FBE4DBF81E001
:101DE00090E00E94241D54E26516710411F40C94D5
:101DF00093170894411C511C7DCC82E00E94210164
:101E0000882311F40C94C11787E060E00E940D1A3A
:101E100084E293E00E943B1B6624772421961FAE48
:101E20001EAE219781E090E09EAB8DAB222433243F
:101E300098AB8FA718A61FA218A21F8E188E1F8AF4
:101E40001A8A198A442455241C861B8684E40E941D
:101E5000E41780E00E943D1885E40E94E4170E9488
:101E60004F18809342030E945918809343030E94A5
:101E700035186114710479F080E061E00E940D1A58
:101E800089EF92E00E943B1BB301882777FD809584
:101E9000982F0E940B1BC201BE016F5F7F4F0E94F3
:101EA00078016114710429F4882309F440C01201F7
:101EB00004C091E06916710431F48091420380FD01
:101EC00043C0120104C0A2E06A16710449F4C201C1
:101ED00082199309853691050CF446C0120104C09D
:101EE000B3E06B16710449F4C20182199309815A57
:101EF0009F400CF449C0120104C034E06316710421
:101F000049F4C20182199309895E93400CF44CC0D4
:101F1000120104C055E06516710449F4C20182192A
:101F20009309853691050CF44DC0120104C086E07A
:101F30006816710461F4C20182199309815A9F40A5
:101F40000CF450C0120107C021E0622E712CB7E0E2
:101F50006B16710461F4C2018219930985369105EB
:101F60000CF450C0120107C092E0692E712C28E0D9
:101F70006216710461F4C2018219930985369105D4
:101F80000CF44EC0120107C083E0682E712C39E0BA
:101F90006316710461F4C20182199309815D97404F
:101FA0000CF44EC0120107C004E0602E712C5AE000
:101FB0006516710451F4C2018219930985369105A1
:101FC00044F44EC015E0612E712C8BE0681671044C
:101FD00061F4C20182199309815D97400CF450C0ED
:101FE000120107C0B6E06B2E712CBCE06B167104B9
:101FF00061F4C20182199309853691050CF450C031
:10200000120107C0A7E06A2E712C2DE06216710440
:1020100051F4C20182199309815D974044F450C084
:10202000F8E06F2E712C4EE06416710461F4C20169
:1020300082199309815A9F400CF452C0120107C0C3
:10204000E9E06E2E712C8FE06816710461F4C20114
:1020500082199309853691050CF452C0120107C00C
:102060007AE0672E712C90E16916710461F4C20167
:1020700082199309853691050CF452C0120107C0EC
:102080006BE0662E712CA1E16A16710461F4C20145
:1020900082199309815D97400CF452C0120107C068
:1020A0005CE0652E712C22E16216710461F4C201BC
:1020B00082199309853691050CF452C0120107C0AC
:1020C0004DE0642E712C33E16316710461F4C2019A
:1020D00082199309815D97400CF452C0120107C028
:1020E0003EE0632E712C54E16516710461F4C20167
:1020F00082199309853691050CF450C0120107C06E
:102100002FE0622E712C85E16816710461F4C20122
:1021100082199309815D97400CF453C0120107C0E6
:1021200090E1692E712CB6E16B16710461F4C20165
:1021300082199309853691050CF457C0120107C026
:1021400081E1682E712C27E16216710461F4C201ED
:1021500082199309815A9F400CF457C0120107C09D
:1021600002E1602E712C48E16416710461F4C20131
:1021700082199309853691050CF455C0120107C0E8
:1021800013E1612E712C59E16516710451F4C201FD
:1021900082199309815A9F4044F455C0B4E16B2ED3
:1021A000712CBAE16B16710479F4C201821993099A
:1021B000815A9F400CF457C021965FAE4EAE2197D6
:1021C00007C0A5E16A2E712C3BE16316710481F40E
:1021D000C20121964EAD5FAD2197841B950B8536CC
:1021E00091050CF450C0120107C0F6E16F2E712C5E
:1021F0005CE16516710461F4C201821993098536A8
:1022000091050CF450C0120107C0E7E16E2E712C4D
:102210008DE16816710451F4C20182199309815A43
:102220009F4044F450C078E1672E712CBEE16B16DC
:10223000710461F4C20182199309815A9F400CF420
:1022400053C0120107C069E1662E712C3FE163168D
:10225000710461F4C20182199309895E93400CF400
:1022600087C1120107C05AE1652E712C50E2651634
:10227000710461F4C20182199309815A9F400CF4E0
:1022800083C1120107C04BE1642E712CB1E26B16C1
:10229000710461F4C20182199309853691050CF429
:1022A00080C1120107C03CE1632E712C22E262164C
:1022B000710461F4C20182199309815A9F400CF4A0
:1022C00082C1120107C02DE1622E712C43E2641617
:1022D000710469F4C201821993090B970CF480C14F
:1022E00094E2692E712C97C18EE1682E712CF30156
:1022F000E432F10508F08FC1E854FF4FEE0FFF1FE5
:102300000590F491E02D09948091420320913E03C1
:102310009091400382FF07C02F7E20933E03977F5A
:1023200090934003FBC02F7D20933E039F7E9860D7
:1023300090934003AFA5B8A9119709F0E7C080E0DA
:1023400061E00E940D1A80E093E00E943B1B18AAF6
:102350001FA6DCC020914003322F3E7FC20168ECF3
:1023600070E00E94DE1D8436910524F42C7F2093BA
:10237000400303C032603093400380913E03866087
:1023800080933E03809140038B7F8093400321E044
:1023900030E0388F2F8B3FC180914003817E866172
:1023A0008093400380913E0380628B7F80933E0345
:1023B0002BC180913E038F7D80933E03809140032B
:1023C000886080934003A2C0809140038F7E8093F9
:1023D000400380913E03806280933E031CC1809144
:1023E0003E03806199C080913F03816080933F03E9
:1023F00080913E038F7780933E0388C08091400395
:1024000080648F7D80934003A1E0B0E0BA8BA98BFC
:1024100002C180913E03806180933E0341E050E021
:1024200058A34F8FF8C080913E038F7780933E036F
:102430008091400380648F7D8093400318A21F8E9B
:1024400081E090E09A8B898BE6C0809140038F7B7E
:1024500080628093400318A21F8E1A8A198ADBC0FB
:1024600080913F0388608B7F80933F034FC08091B2
:102470004103816080934103809140038F77809373
:102480004003A1E0B0E0B8A7AFA3C5C0809141036D
:102490008E7F809341038091400380688093400346
:1024A0002DC080913E038F7E80933E0321E030E07B
:1024B00038A32F8FB0C080913F038B7F80933F0361
:1024C00080914103816080934103809140038F7725
:1024D0008093400341E050E058A74FA317C080917C
:1024E00041038E7F809341038091400380688093F5
:1024F000400380913F03877F80933F0318A61FA26C
:1025000005C080914103877F8093410318A21F8EED
:1025100082C080913E038F7E80933E0381E090E0F5
:1025200098A38F8F78C080914103886010C08091FC
:102530003F0380648F7D80933F0318A21F8EA1E02C
:10254000B0E0BC87AB8767C0809141038D7F8093EB
:10255000410361C080913F038F7B80933F03809153
:10256000410382608B7F809341031C861B8653C08E
:1025700080914003877F80618093400318A21F8E63
:102580000FE1602E712C47C080913E038F7E8093B7
:102590003E0321E030E038A32F8F10E2612E712C32
:1025A0003AC080913E038F7D846080933E0380918A
:1025B000400388608F7E8093400318A21F8EB1E293
:1025C0006B2E712C28C0A2E26A2E712C80913E03E2
:1025D0008D7F80933E0341E050E0588F4F8B1BC0AE
:1025E000F3E26F2E712C80913E038B7F80933E032C
:1025F0008DA99EA9019741F40E942F1A8EE093E0C5
:102600000E943B1B1EAA1DAA188E1F8A04C0A1E0AF
:10261000B0E0B8A3AF8F2DB73EB7225130400FB610
:10262000F8943EBF0FBE2DBFEDB7FEB7319682E0E6
:1026300090E0ADB7BEB712969C938E93119793839B
:102640008283958384839783868321E030E031877A
:102650002087338722873587248737872687318BE2
:10266000208BC201B10121964EAD5FAD21972F891C
:10267000388D0F8D18A1E988FA88CFA0D8A4AB8433
:10268000BC84E2E08E2E912C0E94D7014DB75EB73C
:102690004E5E5F4F0FB6F8945EBF0FBE4DBF81E038
:1026A00090E00E94241D54E26516710409F43BC4B5
:1026B0000894411C511CCACB82E00E94210188234E
:1026C00009F431C487E060E00E940D1A8BE293E0C8
:1026D0000E943B1B662477241CA61BA681E090E089
:1026E0009CAB8BAB222433249EA78DA71EA21DA2D8
:1026F0001E8E1D8E1E8A1D8A188A1F86442455240C
:1027000025961FAE1EAE25971A86198684E40E9470
:10271000E41780E00E943D1885E40E94E4170E94BF
:102720004F18809342030E945918809343030E94DC
:1027300035186114710479F080E061E00E940D1A8F
:1027400089EF92E00E943B1BB301882777FD8095BB
:10275000982F0E940B1BC201BE016F5F7F4F0E942A
:102760007801282F6114710421F4882309F00FC423
:1027700012C491E06916710449F48091420380FD0E
:1027800014C0120145E2642E712C0FC0A2E06A163B
:10279000710459F4C2018219930985369105A4F098
:1027A000120135E2632E712C0FC0B3E06B16710479
:1027B00059F4C20182199309815A9F40A4F0120171
:1027C00095E2692E712C0FC044E06416710459F42F
:1027D000C20182199309895E9340A4F0120185E237
:1027E000682E712C0FC085E06816710459F4C2017F
:1027F0008219930985369105A4F0120105E2602E35
:10280000712C0FC096E06916710459F4C201821947
:102810009309815A9F40A4F0120115E2612E712C98
:102820000FC0B7E06B16710459F4C2018219930905
:1028300085369105A4F01201B5E26B2E712C0FC004
:1028400038E06316710459F4C20182199309853680
:102850009105A4F01201A5E26A2E712C0FC049E087
:102860006416710459F4C20182199309815D97407D
:102870009CF01201F5E26F2E712C0EC08AE06816F2
:10288000710451F4C20182199309853691059CF0B7
:10289000E5E26E2E712C0FC09BE06916710459F4AD
:1028A000C20182199309815D9740A4F0120175E27B
:1028B000672E712C0FC0BCE06B16710459F4C20175
:1028C00082199309853691059CF0120165E2662E06
:1028D000712C0EC03DE06316710451F4C2018219DF
:1028E0009309815D97409CF055E2652E712C0FC0D5
:1028F0005EE06516710459F4C20182199309815A88
:102900009F40A4F0120145E2642E712C0FC0BFE07D
:102910006B16710459F4C201821993098536910529
:10292000A4F0120135E2632E712C0FC030E1631662
:10293000710459F4C2018219930985369105A4F0F6
:10294000120195E2692E712C0FC041E164167104E9
:1029500059F4C20182199309815D9740A4F01201D4
:1029600085E2682E712C0FC082E16816710459F45B
:10297000C2018219930985369105A4F0120105E27E
:10298000602E712C0FC093E16916710459F4C201D5
:1029900082199309815D9740A4F0120115E2612E1E
:1029A000712C0FC0B4E16B16710459F4C201821985
:1029B000930985369105A4F01201B5E26B2E712CB6
:1029C0000FC035E16316710459F4C20182199309ED
:1029D000815D9740A4F01201A5E26A2E712C0FC010
:1029E00056E16516710459F4C201821993098536BE
:1029F0009105A4F01201F5E26F2E712C0FC087E152
:102A00006816710459F4C20182199309815A9F40D2
:102A1000A4F01201E5E26E2E712C0FC0B8E16B1626
:102A2000710459F4C20182199309853691059CF00D
:102A3000120175E2672E712C0EC039E16316710424
:102A400051F4C20182199309815A9F40A4F065E2B2
:102A5000662E712C10C05AE16516710461F4C20132
:102A600082199309815A9F40BCF05CA64BA655E29F
:102A7000652E712C11C0BBE16B16710469F4C201A3
:102A80004BA55CA5841B950B85369105A4F012011E
:102A900045E2642E712C0FC05CE16516710459F497
:102AA000C20182199309853691059CF0120135E225
:102AB000632E712C0EC08DE16816710451F4C201B1
:102AC00082199309815A9F409CF095E2692E712CDE
:102AD0000FC0BEE16B16710459F4C201821993094B
:102AE000815A9F40A4F0120185E2682E712C0FC01C
:102AF0004FE16416710459F4C20182199309895E89
:102B00009340A4F0120105E2602E712C0FC080E208
:102B10006816710459F4C20182199309815A9F40C1
:102B2000A4F0120115E2612E712C0FC0B1E26B16F8
:102B3000710459F4C2018219930985369105A4F0F4
:102B40001201B5E26B2E712C0FC032E263167104D4
:102B500059F4C20182199309815A9F4094F01201DD
:102B6000A5E26A2E712C0DC053E26516710449F47A
:102B7000C201821993090B97ACF0F4E26F2E712C0D
:102B800011C085E26816710469F4222309F47FC13B
:102B90002596AEADBFAD259711962596BFAFAEAFCA
:102BA00025973D01F301E432F10508F070C1E452CC
:102BB000FF4FEE0FFF1F0590F491E02D09948091D7
:102BC000420320913E039091400382FF07C02F7E75
:102BD00020933E03977F90934003EEC02F7D209378
:102BE0003E039F7E9860909340034DA55EA54130C3
:102BF000510509F026C180E061E00E940D1A80E0D5
:102C000093E00E943B1B1EA61DA61BC12091400302
:102C1000322F3E7FC20168EC70E00E94DE1D8436D8
:102C2000910524F42C7F2093400303C0326030933D
:102C3000400380913E03866080933E038091400371
:102C40008B7F8093400381E090E09E8B8D8B1FC132
:102C500080914003817E86618093400380913E0392
:102C600080628B7F80933E030BC180913E038F7DFA
:102C700080933E03809140038860E1C080914003CF
:102C80008F7E8093400380913E03806280933E0359
:102C9000FEC080913E0380618DC080913F038160C2
:102CA00080933F0380913E038F7780933E03C9C09A
:102CB0008091400380648F7D8093400341E050E029
:102CC000588B4F87E4C080913E03806180933E0320
:102CD000A1E0B0E0BE8FAD8FDAC080913E038F7768
:102CE00080933E038091400380648F7D80934003F6
:102CF0001E8E1D8E21E030E0388B2F87C8C080915A
:102D000040038F7B8062809340031E8E1D8E188A45
:102D10001F86BDC080913F0388608B7F80933F03F7
:102D200090C0809141038160809341038091400372
:102D30008F778093400341E050E05EA34DA3A7C08E
:102D4000809141038E7F809341038091400380688E
:102D50008093400323C080913F038B7F80933F0388
:102D600080914103816080934103809140038F777C
:102D700080934003A1E0B0E0BEA3ADA362C0809108
:102D800041038E7F8093410380914003806880934C
:102D9000400380913F03877F80933F031EA21DA2C3
:102DA00050C080914103877F809341034AC0809146
:102DB0003E038F7E80933E0321E030E03E8F2D8FD7
:102DC00066C080914103886010C080913F03806499
:102DD0008F7D80933F031E8E1D8E41E050E05A8709
:102DE000498755C0809141038D7F809341034FC037
:102DF00080913F038F7B80933F03809141038260EA
:102E00008B7F809341031A86198641C080914003CD
:102E1000877F806114C080913E038F7E80933E0344
:102E200081E090E09E8F8D8F32C080913E038F7D38
:102E3000846080933E038091400388608F7E8093FE
:102E400040031E8E1D8E23C080913E038D7F809394
:102E50003E03A1E0B0E0BE8BAD8B19C080913E0374
:102E60008B7F80933E032BA93CA92130310541F48F
:102E70000E942F1A8EE093E00E943B1B1CAA1BAA03
:102E80001E8A1D8A04C041E050E05E8F4D8F8DB7D1
:102E90009EB742970FB6F8949EBF0FBE8DBFEDB799
:102EA000FEB7319622E030E0ADB7BEB712963C9344
:102EB0002E9311973383228335832483378326838C
:102EC00041E050E0518740875387428755874487C8
:102ED00057874687518B408BC201B1014BA55CA53A
:102EE0002D893E890D8D1E8DEF84F888CDA0DEA042
:102EF000A984BA84E2E08E2E912C0E94D7018DB76E
:102F00009EB742960FB6F8949EBF0FBE8DBF81E06C
:102F100090E00E94241D94E26916710421F0089447
:102F2000411C511CF3CB80913E038B7D80933E036B
:102F300080913F03867B80933F0380E40E94E417E7
:102F400082E00E943D1880913E030E943D188091CE
:102F50003F030E943D180E94351881E393E00E94D0
:102F60003B1B0C94A70281E00E942101882311F0F1
:102F70000C94550B81E00E942101882311F40C94DC
:102F8000FD0E81E00E942101882369F295CB120198
:102F900095E2692E712C20E0F9CB23963FAE2EAE40
:102FA0002397662477248AE2482E512C0C942B0711
:102FB0000E940B1F08950E945E1E08951092B90092
:102FC0008CE08093B8000895982F84EA8093BC0029
:102FD0008091BC0087FFFCCF8091B900887F88304A
:102FE00021F0803111F081E008959093BB0084E8D6
:102FF0008093BC008091BC0087FFFCCF9091B9000A
:10300000987F983111F480E0089580E0903409F0C1
:1030100081E00895982F44EA34E824E94093BC0005
:103020008091BC0087FFFCCF8091B900887F8830F9
:1030300011F0803199F79093BB003093BC008091E0
:10304000BC0087FFFCCF8091B900887F803211F0EF
:10305000883539F42093BC008091BC0084FDFCCFFE
:10306000DDCF08950E94E417089584E98093BC00A1
:103070008091BC0084FDFCCF08958093BB0084E860
:103080008093BC008091BC0087FFFCCF8091B90089
:1030900090E0887F883209F091E0892F089584ECD0
:1030A0008093BC008091BC0087FFFCCF8091BB0067
:1030B000089584E88093BC008091BC0087FFFCCF1A
:1030C0008091BB0008950895089580E090E00895F0
:1030D000EF92FF920F931F9367B13D982898299A1A
:1030E000E0904C03F0904D0300914E0310914F037C
:1030F00020E030E041E050E0CA016F9364E06A955F
:10310000F1F76F910197C9F72A9ACA016F9364E0AA
:103110006A95F1F76F910197C9F786B12A98FA017C
:103120006F9364E06A95F1F76F913197C9F72A9A26
:10313000FA016F9364E06A95F1F76F913197C9F7DF
:103140002A982C5F3F4F85FF09C0C901A0E0B0E07D
:103150008E159F05A007B10708F4CECFC901A0E0E6
:10316000B0E08E159F05A007B10728F082E390E03C
:10317000A0E0B0E004C080E395E7A0E0B0E0809379
:103180004C0390934D03A0934E03B0934F0367B944
:103190001F910F91FF90EF90089528B190E08F70EC
:1031A0009070880F991F880F991F237C282B28B9AE
:1031B0002A9A81E090E0FC016F9364E06A95F1F750
:1031C0006F913197C9F72A986F9364E06A95F1F788
:1031D0006F910197C9F70895809148039091490331
:1031E000009711F00E940B1F8091350390E001972A
:1031F0002091360330E0AC01429FC001439F900D07
:10320000529F900D11240E945E1E9093490380935B
:103210004803009729F160E070E208C0E09148039C
:10322000F0914903E40FF51F70836F5F462F50E064
:103230008091350390E001972091360330E0FC0146
:10324000E29FC001E39F900DF29F900D112448175B
:10325000590724F381E59BE165E678E10E94631F4D
:10326000089580933603609335030E94EC18089507
:1032700080933603609335030E94EC1808950E94F2
:10328000EC1808953D98459A80E395E7A0E0B0E0FA
:1032900080934C0390934D03A0934E03B0934F0340
:1032A000209A219A229A8EE190E00E94241D83E0C8
:1032B0000E94971C86E090E00E94241D83E00E94FB
:1032C000971C82E090E00E94241D83E00E94971CDE
:1032D00082E090E00E94241D82E00E94971C82E020
:1032E00090E00E94241D88E20E94E11988E00E947B
:1032F000E11981E00E94E11986E00E94E1198CE069
:103300000E94E119089580915003882329F481E0F7
:10331000809350030E9442190895FF920F931F93C8
:10332000082F162FF42E0E9483190E94681837B1B7
:1033300028B12998112311F0289A01C0289887B143
:103340008C6387B981E0F816E1F088B1902F9295EF
:103350009F70990F990F837C982B98B92A9A81E0D6
:1033600090E0FC016F9364E06A95F1F76F913197FB
:10337000C9F72A986F9364E06A95F1F76F91019706
:10338000C9F788B10F70000F000F837C802B88B9BC
:103390002A9A81E090E0FC016F9364E06A95F1F76E
:1033A0006F913197C9F72A986F9364E06A95F1F7A6
:1033B0006F910197C9F737B928B91F910F91FF9005
:1033C000089560E042E00E948D1908950F931F93C5
:1033D000082F162F08C0002311F480E101C084E1FA
:1033E0000E94E11911501123B1F71F910F91089517
:1033F0000E94E61908958CE00E94E11908950E9448
:10340000FB190895813011F48FE001C08EE00E9415
:10341000E11908950E94021A0895A4E0B0E0E3E1E2
:10342000FAE10C94211E182F062F80E8898380EC86
:103430008A8384E98B8384ED8C83FE01E60FF11D82
:103440008181810F0E94E11910934B0300934A037D
:103450002496E4E00C943D1E0E940D1A089581E02C
:103460000E94E1198091480390914903892B19F139
:1034700060E070E208C0E0914803F0914903E40F76
:10348000F51F70836F5F462F50E08091350390E009
:1034900001972091360330E0FC01E29FC001E39FD9
:1034A000900DF29F900D11244817590724F31092A4
:1034B0004B0310924A0308950E942F1A089561E069
:1034C00042E00E948D1908950F931F93CF93DF93CD
:1034D00000E010E8C82FD0E0812F90E08C239D23DE
:1034E000892B11F081E301C080E30E945F1A0F5F16
:1034F000083011F01695F0CFDF91CF911F910F9109
:1035000008950E94641A08958A3010F4805D01C005
:10351000895C0E945F1A08951F93182F82958F70FF
:103520000E94841A812F8F700E94841A1F9108951F
:103530001F93182F892F0E948C1A812F0E948C1A9A
:103540001F9108950E94981A08950E948C1A089558
:103550006F927F928F929F92AF92BF92CF92DF92A3
:10356000FF920F93DF93CF93CDB7DEB72A970FB6B5
:10357000F894DEBF0FBECDBF5B016C010AE03E01D7
:103580000894611C711CFA2CC601B5012AE030E0D8
:1035900040E050E00E94F11DC901DA015C016D01BB
:1035A00001504301800E911C80E3F80EC601B50165
:1035B0002AE030E040E050E00E94BF1DF61AF4011E
:1035C000F082A114B104C104D104E9F608C0F601E7
:1035D000E00FF11D80810E945F1A0F5F04C06E0131
:1035E0000894C11CD11C0A3090F32A960FB6F894A7
:1035F000DEBF0FBECDBFCF91DF910F91FF90DF9067
:10360000CF90BF90AF909F908F907F906F900895D4
:103610000E94A81A0895EF92FF920F931F937B01C7
:103620008C0197FF0BC010950095F094E094E11C7D
:10363000F11C011D111D8DE20E945F1AC801B70126
:103640000E94A81A1F910F91FF90EF9008950E9479
:103650000B1B0895CF93DF93EC0103C00E945F1A08
:103660002196FE0184918823C9F7DF91CF910895B7
:103670000E942A1B0895CF93DF93EC0103C021968B
:103680000E945F1A88818823D1F7DF91CF91089536
:103690000E943B1B08950E945F1A08950E945F1AC2
:1036A0000895A0E0B0E0E7E5FBE10C941D1EE82ED4
:1036B0008091480390914903892B09F405C12AE0C0
:1036C000E21609F446C038E0E316C9F480914B03D2
:1036D000815080934B038F3F51F480914A03815076
:1036E00080934A0380913603815080934B038091ED
:1036F0004A038F3F09F0E2C010924A03DDC08E2DCD
:103700000E945F1A20914A032223C9F030E0215021
:1037100030408091360390E0AC01249FC001259F8A
:10372000900D349F900D112420914B03E09148039C
:10373000F0914903E80FF91FE20FF11DE08280913B
:103740004B038F5F80934B0390913603891709F0E9
:10375000BBC040914A03242F30E08091350390E0B4
:1037600001972817390709F0A4C0C0E0D0E044C091
:1037700080E06C2F0E940D1AFF246E010894C11C7A
:10378000D11C35C00F2D10E090E09C01C29FC001FC
:10379000C39F900DD29F900D1124E0914803F091AA
:1037A0004903E00FF11FE80FF91F80810E945F1AA3
:1037B000E0914803F09149038091360390E0C89F5F
:1037C000D001C99FB00DD89FB00D1124E00FF11F9B
:1037D000AE0FBF1FAC01C49EC001C59E900DD49E0C
:1037E000900D1124E80FF91F80818C93F394809140
:1037F0003603F81638F2E60160913503862F90E023
:103800000297C817D9070CF4B3CF623008F440C050
:10381000625080E00E940D1AFF2440E2D42E34C092
:103820000F2D10E08091350390E0029730E0AC015D
:10383000429FC001439F900D529F900D1124E09133
:103840004803F0914903E00FF11FE80FF91F808151
:103850000E945F1A2091350330E022503040809161
:10386000360390E0AC01249FC001259F900D349F4A
:10387000900D1124E0914803F0914903E00FF11FEE
:10388000E80FF91FD082F39420913603F21640F22C
:1038900060913503615080E00E940D1A00E004C081
:1038A00080E20E945F1A0F5F809136030817C0F311
:1038B00003C04F5F40934A0310924B0380914B0328
:1038C00060914A030E940D1A2E2D332727FD309553
:1038D000C901CDB7DEB7E8E00C94391EEF92FF9234
:1038E0000F931F93CF93DF937C01062F10E053E0DB
:1038F000000F111F5A95E1F7C0E0D0E09E01200FA4
:10390000822F80640E94E119F701EC0FFD1FE49102
:103910008E2F0E945F1A2196C830D10579F7CDB756
:10392000DEB7E6E00C943B1E0E946E1C089560E03A
:1039300041E00E948D1908950F931F93CF93DF9359
:10394000082F162FEA010BC0002311F488E101C0F3
:103950008CE10E94E119CE010E94241D1150112317
:1039600099F7DF91CF911F910F9108950E949C1CB0
:1039700008952F928F939F932FB680915203909129
:1039800053030196809352039093530390E08091E8
:103990005403891F8093540390915A039C5F909322
:1039A0005A038091590380519742C0F090935A0373
:1039B000809359038091550390915603019680930B
:1039C00055039093560390E080915703891F80938D
:1039D000570380915803891F809358032FBE9F91EE
:1039E0008F912F9018956F5F7F4F8F4F9F4F660F6E
:1039F000771F881F991F25E030E040E050E00E94CB
:103A0000F11DCA01B901089528EE33E009C0F9019A
:103A10006F9364E06A95F1F76F913197C9F7019759
:103A20000097A9F708956F5F7F4F8F4F9F4F660FE5
:103A3000771F881F991F25E030E040E050E00E948A
:103A4000F11DCA01B901089528EE33E009C0F9015A
:103A50006F9364E06A95F1F76F913197C9F7019719
:103A60000097A9F70895A0E7B0E08C918E7F8C9322
:103A7000E0EBF0E0808183608083E1EBF0E0808127
:103A8000807F8083808182608083B89A8C918160FE
:103A90008C937894089580915B03882329F481E0C6
:103AA00080935B030E94331D08950E944B1DE0E745
:103AB000F0E080818E7F8083209155033091560302
:103AC0004091570350915803808181608083B901F0
:103AD000CA0108950E94551D08950E944B1D8091B2
:103AE00070008E7F809370006091B20080915103CE
:103AF00090915203A0915303B0915403B89905C01B
:103B0000262F30E040E050E011C08091B2002091BB
:103B1000510330915203409153035091540320506C
:103B20003F4F4F4F5F4F90E0A0E0B0E0282B392B84
:103B30004A2B5B2B80917000816080937000B901EB
:103B4000CA0108950E946D1D08950E944B1DE0E773
:103B5000F0E080818E7F808310925503109256038F
:103B6000109257031092580310925A03109259035F
:103B700080818160808308950E94A51D0895629FC1
:103B8000D001739FF001829FE00DF11D649FE00D55
:103B9000F11D929FF00D839FF00D749FF00D659FB6
:103BA000F00D9927729FB00DE11DF91F639FB00DB5
:103BB000E11DF91FBD01CF011124089597FB092EC6
:103BC00007260AD077FD04D065D006D000201AF46D
:103BD000709561957F4F0895F6F7909581959F4F69
:103BE0000895A1E21A2EAA1BBB1BFD010DC0AA1F3E
:103BF000BB1FEE1FFF1FA217B307E407F50720F056
:103C0000A21BB30BE40BF50B661F771F881F991FD0
:103C10001A9469F760957095809590959B01AC0119
:103C2000BD01CF0108952F923F924F925F926F9204
:103C30007F928F929F92AF92BF92CF92DF92EF923C
:103C4000FF920F931F93CF93DF93CDB7DEB7CA1BBD
:103C5000DB0B0FB6F894DEBF0FBECDBF09942A88E8
:103C6000398848885F846E847D848C849B84AA8490
:103C7000B984C884DF80EE80FD800C811B81AA811D
:103C8000B981CE0FD11D0FB6F894DEBF0FBECDBFE8
:103C9000ED010895AA1BBB1B51E107C0AA1FBB1F62
:103CA000A617B70710F0A61BB70B881F991F5A95C8
:103CB000A9F780959095BC01CD010895CF93DF932E
:103CC000BC018230910510F462E070E0A0915E03C7
:103CD000B0915F03ED01E0E0F0E040E050E021C092
:103CE000888199818617970769F48A819B8130972B
:103CF00019F09383828304C090935F0380935E03E3
:103D0000FE0134C06817790738F44115510519F0E0
:103D10008417950708F4AC01FE018A819B819C0100
:103D2000E9012097E9F641155105A9F1CA01861B61
:103D3000970B049708F4BA01E0E0F0E02AC08D91F7
:103D40009C91119784179507F9F46417750781F40E
:103D500012968D919C911397309719F093838283DB
:103D600004C090935F0380935E03FD0132964FC0C1
:103D7000CA01861B970BFD01E80FF91F6193719330
:103D800002978D939C9343C0FD01828193819C0196
:103D9000D9011097A1F680915C0390915D03892B66
:103DA00041F48091390390913A0390935D0380939D
:103DB0005C0340913B0350913C034115510541F494
:103DC0004DB75EB78091370390913803481B590B6C
:103DD00020915C0330915D0324173507B0F4CA01CC
:103DE000821B930B8617970780F0AB014E5F5F4FE6
:103DF0008417950750F0420F531F50935D03409373
:103E00005C03F9016193719302C0E0E0F0E0CF013F
:103E1000DF91CF910895CF93DF93009709F450C0BD
:103E2000EC0122971B821A82A0915E03B0915F037E
:103E3000109709F140E050E0AC17BD0708F1BB83D3
:103E4000AA83FE0121913191E20FF31FAE17BF0744
:103E500079F48D919C911197280F391F2E5F3F4F58
:103E60003983288312968D919C9113979B838A8323
:103E70004115510571F4D0935F03C0935E0320C0D8
:103E800012968D919C911397AD01009711F0DC0172
:103E9000D3CFFA01D383C28321913191E20FF31F73
:103EA000CE17DF0769F488819981280F391F2E5FAB
:103EB0003F4FFA01318320838A819B8193838283E0
:103EC000DF91CF9108950F931F93CF93DF938C01D0
:103ED000EB01009731F46115710519F420E030E031
:103EE00038C081E090E06EE070E00E94AF1FFC01FE
:103EF0009C01009771F180E88383209771F0D3874C
:103F0000C28781E883838091600390916103892B4C
:103F100021F4F0936103E093600301151105C9F0EA
:103F200011870087838182608383809162039091EF
:103F30006303892B71F4F0936303E0936203809130
:103F4000640390916503892B21F4F0936503E0935A
:103F50006403C901DF91CF911F910F9108950F93D1
:103F60001F93CF93DF93689F8001699F100D789F07
:103F7000100D1124C8010E945E1EEC01009729F06B
:103F800060E070E0A8010E94CB1FCE01DF91CF91CD
:103F90001F910F910895DC0101C06D934150504075
:083FA000E0F70895F894FFCF4B
:103FA800424547494E2000494E4954200053544148
:103FB800525420004E414B200053544F5020004192
:103FC800434B200042494E495420004D41494E542C
:103FD800454E414E43450053454C454354204D4FB3
:103FE800444500494E5055545320004F55545055A0
:103FF8005453004D4F544F525320004F4646004DE6
:104008004F544F5253004241434B200053454E53A7
:104018004F5220300053454E534F522031005345E4
:104028004E534F5220320053454E534F52203300C7
:1040380053454E534F5220340053454E534F522050
:10404800350053454E534F5220360053454E534F7B
:1040580052203700414320504F57455220202020FE
:10406800204F4E2000424C4F574552202020202000
:1040780020204F4E202000504C4154452053544F8F
:10408800502020204F4E2000504C41544520524192
:1040980049534520204F4E2000504C415445204C58
:1040A8004F57455220204F4E200042525553483119
:1040B800205241495345204F4E2000425255534803
:1040C80031204C4F574552204F4E200042525553F5
:1040D8004832205241495345204F4E200042525504
:1040E800534832204C4F574552204F4E20005041E4
:1040F80050455220524149534520204F4E200050F0
:1041080041504552204C4F57455220204F4E2000D9
:10411800414952204B4E494645202020204F4E20F1
:10412800004C4F4144494E472020202046524F4ED4
:104138005400445249564520202020202046524F02
:104148004E540042525553483120202020204652D8
:104158004F4E5400425255534832202020202046CA
:10416800524F4E54005041504552202020202020CC
:1041780046524F4E54004E4F524D414C0053454C01
:10418800454354204359434C45004359434C453A11
:10419800004649525354204200535441544520008C
:1041A8005055534820544F20535441525400454EC3
:1041B80044204F46204359434C45005345434F4EF6
:1041C80044204200424F544820420044454255474B
:0E41D80000454E440002102000660300000067
:00000001FF
