:100000000C9400010C941F010C941F010C941F010F
:100010000C941F010C941F010C941F010C941F01E0
:100020000C941F010C941F010C941F010C94EF1CE5
:100030000C941F010C941F010C941F010C941F01C0
:100040000C941F010C941F010C941F010C941F01B0
:100050000C941F010C941F010C941F010C941F01A0
:100060000C941F010C941F010C941F010C941F0190
:100070000C941F010C941F010C941F010C941F0180
:100080000C941F010C941F010C941F010F052005F7
:1000900038054B055F05720586059B05AF05C20552
:1000A000C605D605DA05E805EC05FA05FE050D06D8
:1000B00011061F0622063106350654064506580667
:1000C0005C066A066D067C0680068E069406AD0602
:1000D000B906D606E206FF060B07280734075107C4
:1000E000E909130A350A780A420A4D0A580A620ACF
:1000F0006D0AB20A900A780A7E0A310B900A350B13
:10010000350B350B350B350B350B350B350B9B0A8A
:10011000AA0AB20ABC0AC00ACD0A310BD30AE10A04
:10012000ED0AFA0A0F0B1C0B870DAE0DD00DDD0D7D
:10013000E70DF20DFD0DDC0EDC0EDC0EDC0EDC0E30
:10014000DC0EDC0EDC0E010E080ED80E170E220E91
:100150002C0ED80E400ED80E520E5A0E640E680E9B
:10016000750ED80E7B0E890E950EA20EB70EC40E1C
:10017000B311D911FB113812081213121E122212D8
:100180002D128012541238124212361354125F127A
:1001900066123613751280128A1236139E123613A7
:1001A000B012B812C212C612D3123613D912E71205
:1001B000F3120013151322130E1635165716921646
:1001C00064166D1678167C1687163A17AE169216B8
:1001D0009C167217AE16B916C0167217CF163A17BC
:1001E000DA167217EE167217001706171017141783
:1001F00021177217271735173A17441753175D172A
:1002000011241FBECFEFD0E4DEBFCDBF13E0A0E0CE
:10021000B1E0E4E1F0E400E00BBF02C007900D9212
:10022000A635B107D9F713E0A6E5B3E001C01D92EA
:10023000AE37B107E1F70E948C020C9408200C94B1
:100240000000482F883058F481E090E002C0880F09
:10025000991F4A95E2F7982FE9E2F0E036C0803125
:1002600078F4282F30E02850304081E090E002C040
:10027000880F991F2A95E2F7982FE3E2F0E025C056
:10028000883178F4282F30E02051304081E090E030
:1002900002C0880F991F2A95E2F7982FE6E2F0E056
:1002A00014C0803220F090E0E0E0F0E00EC02FE1DA
:1002B00030E0281B310981E090E002C0880F991FCF
:1002C0002A95E2F7982FE0E2F0E0808189230895F3
:1002D000FC0120E030E08081882311F421E030E04F
:1002E000C9010895FC0181E080830895089508956F
:1002F0000F931F93CF93DF938C01EB01888199813A
:10030000892B69F480E00E942101882341F0109339
:100310005F0300935E0381E090E099838883888186
:1003200099810197F9F480915E0390915F039801A0
:10033000281B390B2031310574F080E00E94210127
:10034000882381F410935D0300935C0382E090E0C6
:100350009983888307C080E00E942101882311F4DB
:1003600019821882888199810297D9F480E00E94CD
:100370002101882349F081E090E0998388831093DC
:100380005F0300935E030DC080915C0390915D0359
:10039000081B190B0031110524F01982188281E025
:1003A00001C080E0DF91CF911F910F9108952F92AE
:1003B0003F924F925F926F927F928F929F92AF92F5
:1003C000BF92CF92DF92EF92FF920F931F93DF9332
:1003D000CF93CDB7DEB72C011A013901FC01E61B22
:1003E000F70BCF01B4010E94141E2D8D3E8D821794
:1003F000930734F4672821F080915603816003C08D
:10040000809156038E7F80935603CF016D897E893C
:100410000E94141E2F8D38A18217930734F4012BEC
:1004200021F080915603886003C080915603877F36
:1004300080935603CF016F89788D0E94141E29A1E5
:100440003AA18217930734F4EF2821F080915603E4
:10045000806403C0809156038F7B80935603CF0145
:10046000698D7A8D0E94141E2BA13CA182179307DF
:1004700034F4CD2821F080915703826003C080912D
:1004800057038D7F80935703C201821993096B8DA7
:100490007C8D0E94141E2DA13EA18217930734F477
:1004A000AB2821F080915703806103C080915703EE
:1004B0008F7E8093570380E40E941A1882E00E9486
:1004C0007318809156030E947318809157030E94FD
:1004D00073180E946B1882E40E941A1882E00E942E
:1004E0007318809158030E947318809159030E94D9
:1004F0007318CF91DF911F910F91FF90EF90DF90D4
:10050000CF90BF90AF909F908F907F906F905F90B3
:100510004F903F902F9008952F923F924F925F926D
:100520006F927F928F929F92AF92BF92CF92DF9203
:10053000EF92FF920F931F93DF93CF93CDB7DEB768
:10054000CE54D0400FB6F894DEBF0FBECDBF1A8296
:10055000198210925603109257038FEF809358031D
:100560008093590310925A0310925B030E94651AFC
:1005700080E091E00E94711B80E061E00E94431ADC
:1005800080E191E00E94711B80ED97E00E945A1D6E
:100590000E94651A88E191E00E94711B88EE93E049
:1005A0000E945A1D0E9414188FE191E00E94711B55
:1005B00080E40E941A18C82E0E946B1882E40E94E0
:1005C0001A18082F0E946B1884E40E941A18E82E4B
:1005D0000E946B180E94651A85E291E00E94711BCF
:1005E00010E0DD240C291D29FF240E291F29012BD1
:1005F00061F08CE291E00E94711B0E946B1881E314
:1006000091E00E94711B0C94DC1787E391E00E943B
:10061000711B8CE391E00E94711B80E40E941A1808
:1006200086E00E94731880E00E94731880E00E94A8
:1006300073180E946B1882E40E941A1886E00E94C8
:10064000731880E00E94731880E00E9473180E9463
:100650006B1888EE93E00E945A1D0E94651A83E091
:100660000E942101882309F481C483E491E00E945F
:10067000711B88EE93E00E945A1D0E94651A8FE458
:1006800091E00E94711BEE24FF24C701BE016F5F41
:100690007F4F0E947801182F0894E11CF11C81E023
:1006A00090E00E945A1D112381F30E94651A442490
:1006B00055242FEF3FEF3CAF2BAF662477242996CC
:1006C0001FAE1EAE29972F961FAE1EAE2F972D96EA
:1006D0001FAE1EAE2D9727961FAE1EAE27972B96E8
:1006E0001FAE1EAE2B9722243324188A1F8684E463
:1006F0000E941A1880E00E94731885E40E941A185C
:100700000E94851880935A030E948F1880935B0380
:100710000E946B18C101BE016F5F7F4F0E9478017C
:10072000082F81E00E942101882311F00C94E21728
:1007300082E00E942101882311F00C94E2174BAD56
:100740005CAD452B11F40C94E2170E94651A8BE501
:1007500091E00E94711B80E061E00E94431A4424F2
:10076000552411E01CAE1BAE6624772481E00E9464
:1007700021018823E9F082E00E9421018823C1F44D
:100780008BAD9CAD0197A1F00E94651A83E691E0C4
:100790000E94711B80E061E00E94431A98E0492E9C
:1007A000512C11E0A1E0B0E0BCAFABAF66247724E0
:1007B00081E00E9421018823F1F482E00E9421015E
:1007C0008823C9F02BAD3CAD22303105A1F00E9449
:1007D000651A8BE691E00E94711B80E061E00E9447
:1007E000431A80E2482E512C11E042E050E05CAF09
:1007F0004BAF6624772481E00E942101882311F405
:100800000C94E51782E00E942101882311F40C94D6
:10081000E5178BAD9CAD039711F40C94E5170E947E
:10082000651A8BE591E00E94711B80E061E00E94F7
:10083000431A44245524A3E0B0E0BCAFABAF662418
:1008400077248FEF809358038093590329961FAE26
:100850001EAE29972F961FAE1EAE2F972D961FAE58
:100860001EAE2D9727961FAE1EAE27972B961FAE56
:100870001EAE2B97002309F4C5C0B8E04B165104F7
:10088000FCF480E061E00E94431A0894411C511C72
:1008900028E04216510409F0B1C00E94651A4BAD20
:1008A0005CAD452B11F40C94051883E691E00E9491
:1008B000711B80E061E00E94431A388A2F8652C182
:1008C000C2018170907050E2451651047CF5892B6D
:1008D00049F48DE061E00E94431A83E791E00E94B1
:1008E000711B04C080E061E00E94431A0894411C1F
:1008F000511C80E24816510409F080C00E94651A1C
:10090000ABADBCAD119711F40C9405188091560352
:1009100084608093560387E791E00E94711B80E01A
:1009200061E00E94431A388A2F8601C282010F5F5C
:100930001F4F892B49F48BE061E00E94431A8EE738
:1009400091E00E94711B13C00632110581F107323C
:1009500011053CF40232110561F00432110539F43D
:1009600015C00832110581F10A321105D1F12801B3
:1009700045C080E061E00E94431A809156038B7F5E
:10098000806280935603388A2F86F6C180E061E04A
:100990000E94431A809156038F7D80935603809165
:1009A0005703816080935703388A2F860EC280E0F8
:1009B00061E00E94431A809157038E7F8860809384
:1009C0005703388A2F862AC280E061E00E94431ACA
:1009D00080915703877F806480935703388A2F86DE
:1009E00046C20E94651A809157038F7B80935703FC
:1009F00027961FAE1EAE27970C940518388A2F86AF
:100A000066247724F201EA32F10508F055C2EA5B68
:100A1000FF4FEE0FFF1F0590F491E02D0994611434
:100A2000710439F484E891E00E94711B01E0602EAA
:100A3000712C8FE061E00E94431A60915A0311C04B
:100A40006114710439F48DE891E00E94711B11E08A
:100A5000612E712C8FE061E00E94431A60915A036D
:100A60006695617070E080E090E00E94DE1A24C21A
:100A70006114710439F486E991E00E94711BB1E0C0
:100A80006B2E712C8FE061E00E94431A60915A0333
:100A900066956695E6CF6114710439F48FE991E0AB
:100AA0000E94711BA1E06A2E712C8FE061E00E9410
:100AB000431A60915A03669566956695D2CF611484
:100AC000710439F488EA91E00E94711BF1E06F2E05
:100AD000712C8FE061E00E94431A60915A03629585
:100AE0006F70BFCF6114710439F481EB91E00E9403
:100AF000711BE1E06E2E712C8FE061E00E94431AC1
:100B000060915A03629566956770ABCF611471046A
:100B100039F48AEB91E00E94711B71E0672E712C11
:100B20008FE061E00E94431A60915A0362956695D6
:100B30006695637096CF6114710439F483EC91E08B
:100B40000E94711B61E0662E712C8FE061E00E94B3
:100B5000431A60915A03661F6627661F83CF61148C
:100B6000710439F48CEC91E00E94711B51E0652E08
:100B7000712C809158038E7F8093580348E0442E57
:100B8000512C9AC18091580381600DC06114710489
:100B900039F48DED91E00E94711B31E0632E712CD0
:100BA000809158038D7F8093580386C180915803AC
:100BB0008260F9CF6114710439F48FEE91E00E94E4
:100BC000711B21E0622E712C809158038B7FEBCF3B
:100BD000809158038460E7CF6114710439F480E098
:100BE00092E00E94711B91E0692E712C8091580354
:100BF000877F15C0809158038860D5CF6114710438
:100C000039F481E192E00E94711B81E0682E712C21
:100C10008091580388608F7EC6CF80915803806191
:100C2000C2CF6114710439F482E292E00E94711B18
:100C300001E0602E712C809158038F7D14C080914B
:100C400058030DC06114710439F483E392E00E94EB
:100C5000711B11E0612E712C809158038F7B806293
:100C6000A2CF8091580380649ECF6114710439F43F
:100C700084E492E00E94711BB1E06B2E712C809194
:100C800058038F778093580313C06114710439F4AB
:100C900085E592E00E94711BA1E06A2E712C809183
:100CA00059038E7F809359038091580380687BCFCE
:100CB00080915903816035C06114710439F486E66E
:100CC00092E00E94711BF1E06F2E712C809159030C
:100CD0008D7F14C0809159030DC06114710439F4E3
:100CE00087E792E00E94711BE1E06E2E712C8091EB
:100CF00059038B7F826015C080915903846011C0B5
:100D00006114710439F488E892E00E94711B71E06B
:100D1000672E712C80915903877F03C080915903FE
:100D2000886080935903C8C06114710439F489E95B
:100D300092E00E94711B61E0662E712C8091560337
:100D40008D7F8093560321E030E02F963FAF2EAF8A
:100D50002F9750E2452E512CAFC0809156038260F0
:100D60008093560341E050E02F965FAF4EAF2F9730
:100D7000A3C06114710439F48AEA92E00E94711BE5
:100D800041E0642E712C809156038F7E8093560330
:100D90002F961FAE1EAE2F9781E090E02D969FAF4D
:100DA0008EAF2D9732E2432E512C86C08091560390
:100DB000806180935603A1E0B0E02D96BFAFAEAF47
:100DC0002D977AC06114710439F48BEB92E00E9484
:100DD000711B21E0622E712C809156038F778093D6
:100DE00056032D961FAE1EAE2D9721E030E02B96B8
:100DF0003FAF2EAF2B9794E2492E512C5DC08091CE
:100E0000560380688093560341E050E02B965FAF15
:100E10004EAF2B9751C06114710439F48CEC92E001
:100E20000E94711B81E0682E712C809157038B7F8B
:100E30008093570381E090E029969FAF8EAF29976A
:100E40002B961FAE1EAE2B9706E2402E512C34C0BF
:100E500080915703846080935703A1E0B0E0299606
:100E6000BFAFAEAF299728C06114710439F48DED7E
:100E700092E00E94711B11E0612E712C809157034A
:100E80008F7D8093570329961FAE1EAE299721E0D0
:100E900030E027963FAF2EAF2797B8E24B2E512C6C
:100EA0000BC08091570380628093570341E050E06C
:100EB00027965FAF4EAF27978DB79EB742970FB675
:100EC000F8949EBF0FBE8DBFEDB7FEB7319682E09E
:100ED00090E0ADB7BEB712969C938E931197938313
:100EE0008283958384839783868381E090E09187D2
:100EF0008087938782879587848797878687918B5A
:100F0000808BC1016F85788940E050E02F962EAD2F
:100F10003FAD2F972D960EAD1FAD2D972B96EEACB6
:100F2000FFAC2B972996CEACDFAC29972796AEACB9
:100F3000BFAC2797A2E08A2E912C0E94D7012DB733
:100F40003EB72E5E3F4F0FB6F8943EBF0FBE2DBF8B
:100F500081E090E00E945A1D3AE24316510411F4D8
:100F60000C94C2170894211C311CC1CB8EEE92E068
:100F70000E94711B88EE93E00E945A1D0E94651A20
:100F800085EF92E00E94711BEE24FF24C701BE0191
:100F90006F5F7F4F0E947801182F0894E11CF11CAD
:100FA00081E090E00E945A1D112381F30E94651A8E
:100FB00082E093E00E94711B8091560380628093CF
:100FC000560381E00E942101882311F00C94EB1755
:100FD00082E00E942101882311F00C94EB1787E036
:100FE00060E00E94431A89E093E00E94711B66242E
:100FF000772418861F8241E050E05EAF4DAF219606
:101000005FAF4EAF219718A61FA218A21F8E188E91
:101010001F8A1E861D86442455242224332484E4FA
:101020000E941A1880E00E94731885E40E941A1822
:101030000E94851880935A030E948F1880935B0347
:101040000E946B186114710479F080E061E00E94E5
:10105000431A81E193E00E94711BB301882777FD59
:101060008095982F0E94411BC201BE016F5F7F4F88
:101070000E9478016114710429F4882309F440C0A6
:10108000120104C051E06516710431F480915A03D5
:1010900080FD43C0120104C082E06816710449F467
:1010A000C20182199309853691050CF446C01201DC
:1010B00004C093E06916710449F4C20182199309CE
:1010C000815A9F400CF449C0120104C0B4E06B1671
:1010D000710449F4C20182199309895E93400CF4AA
:1010E0004CC0120104C035E06316710449F4C2011A
:1010F00082199309853691050CF44DC0120104C084
:1011000046E06416710461F4C20182199309815AA0
:101110009F400CF450C0120107C0F1E06F2E712CFB
:1011200087E06816710461F4C2018219930985365B
:1011300091050CF450C0120107C0E2E06E2E712C34
:1011400098E06916710461F4C20182199309853629
:1011500091050CF44EC0120107C073E0672E712C8C
:10116000A9E06A16710461F4C20182199309815DD4
:1011700097400CF44EC0120107C064E0662E712C3B
:101180002AE06216710451F4C2018219930985366E
:10119000910544F44EC055E0652E712C3BE063167A
:1011A000710461F4C20182199309815D97400CF4C6
:1011B00050C0120107C046E0642E712C5CE0651639
:1011C000710461F4C20182199309853691050CF40A
:1011D0004EC0120107C037E0632E712C8DE06816F7
:1011E000710451F4C20182199309815D974044F45E
:1011F0004FC028E0622E712CBEE06B16710461F4C2
:10120000C20182199309853691050CF453C012016D
:1012100007C099E0692E712C27E16216710461F410
:10122000C20182199309815A9F400CF453C01201E4
:1012300007C08AE0682E712C48E16416710461F4DD
:10124000C20182199309853691050CF451C012012F
:1012500007C00BE0602E712C59E16516710451F442
:10126000C20182199309815A9F4044F451C01CE085
:10127000612E712CBAE16B16710469F4C2018219F6
:101280009309815A9F400CF453C058864F8207C07F
:10129000BDE06B2E712C3BE16316710471F4C20149
:1012A0004F815885841B950B853691050CF450C0F1
:1012B000120107C0AEE06A2E712C5CE16516710464
:1012C00061F4C20182199309853691050CF450C06E
:1012D000120107C0F7E16F2E712C8DE168167104C1
:1012E00051F4C20182199309815A9F4044F450C0BD
:1012F000E8E16E2E712CBEE16B16710461F4C2013F
:1013000082199309815A9F400CF453C0120107C0FF
:1013100079E1672E712C3FE16316710461F4C2011B
:1013200082199309895E93400CF44BC1120107C0E6
:101330006AE1662E712C50E26516710461F4C201F7
:1013400082199309815A9F400CF447C1120107C0CA
:101350005BE1652E712CB1E26B16710461F4C20180
:1013600082199309853691050CF444C1120107C016
:101370004CE1642E712C22E26216710461F4C20108
:1013800082199309815A9F400CF446C1120107C08B
:101390003DE1632E712C43E26416710469F4C201CD
:1013A000821993090B970CF444C124E2622E712C2C
:1013B0005CC19EE1692E712CF301E432F10508F065
:1013C00054C1E059FF4FEE0FFF1F0590F491E02D3F
:1013D000099480915A03209156039091580382FFFB
:1013E00007C02F7E20935603977F9093580365C0C4
:1013F0002F7D209356039F7E9860909358032196EB
:10140000AEADBFAD2197119709F0A9C080E061E0B2
:101410000E94431A88E193E00E94711B21961FAE3F
:101420001EAE21979CC020915803322F3E7FC201EF
:1014300068EC70E00E94141E8436910524F42C7F21
:101440002093580303C032603093580380915603B1
:10145000866080935603809158038B7F8093580356
:1014600021E030E038A72FA300C180915803817E8E
:101470008661809358038091560380628B7F8093AE
:101480005603ECC0809156038F7D80935603809164
:10149000580388608093580362C0809158038F7E00
:1014A0008093580380915603806280935603DDC079
:1014B0008091560380618093560381E090E098A369
:1014C0008F8FD3C0809157038160809357038091A1
:1014D00056038F778093560342C0809158038064EF
:1014E0008F7D80935803A1E0B0E0BE87AD87BDC07B
:1014F00080915603806180935603B3C08091560358
:101500008F77809356038091580380648F7D8093FA
:10151000580318A21F8E81E090E09E878D87A5C09A
:10152000809158038F7B80628093580318A21F8E8E
:101530001E861D869AC08091560380618093560353
:10154000809157038E7F80935703A1E0B0E0B8A34A
:10155000AF8F8BC080915903877F8093590318A266
:101560001F8E83C0809156038F7E8093560321E0A7
:1015700030E038A32F8F79C080915903886010C064
:101580008091570380648F7D8093570318A21F8E2C
:1015900041E050E0588F4F8B68C0809159038D7F98
:1015A0008093590362C0809157038F7B80935703C8
:1015B0008091590382608B7F80935903188E1F8A14
:1015C00054C080915803877F80618093580318A28C
:1015D0001F8E8FE1682E712C48C0809156038F7E3C
:1015E0008093560381E090E098A38F8F00E2602EF5
:1015F000712C3BC0809156038F7D8460809356038D
:101600008091580388608F7E8093580318A21F8EA4
:1016100011E2612E712C29C0B2E26B2E712C8091E7
:1016200056038D7F80935603A1E0B0E0B8A7AFA327
:101630001CC0A3E26A2E712C809156038B7F80938D
:1016400056032DAD3EAD2130310541F40E94651A9F
:1016500086E293E00E94711B1EAE1DAE18A61FA26B
:1016600004C041E050E058A34F8F8DB79EB742971A
:101670000FB6F8949EBF0FBE8DBFEDB7FEB7319683
:1016800082E090E0ADB7BEB712969C938E9311970F
:1016900093838283958384839783868321E030E0DC
:1016A00031872087338722873587248737872687A6
:1016B000318B208BC201B1014F8158852FA138A5F4
:1016C0000F8D18A1ED84FE84CC24DD24AF88B88C66
:1016D000F2E08F2E912C0E94D7014DB75EB74E5E7F
:1016E0005F4F0FB6F8945EBF0FBE4DBF81E090E034
:1016F0000E945A1D54E26516710411F40C94C2172D
:101700000894411C511C8BCC82E00E94210188234B
:1017100011F00C94F21787E060E00E94431A83E313
:1017200093E00E94711B662477241C821B8281E057
:1017300090E09AAF89AF9CAB8BAB1EA61DA61EA2F4
:101740001DA21E8E1D8E1E8A1D8A4424552422240D
:10175000332484E40E941A1880E00E94731885E400
:101760000E941A180E94851880935A030E948F18AD
:1017700080935B030E946B186114710479F080E020
:1017800061E00E94431A81E193E00E94711BB30162
:10179000882777FD8095982F0E94411BC201BE01CA
:1017A0006F5F7F4F0E9478016114710429F48823D0
:1017B00009F440C0120104C091E06916710431F4CB
:1017C00080915A0380FD43C0120104C0A2E06A1652
:1017D000710449F4C20182199309853691050CF40C
:1017E00046C0120104C0B3E06B16710449F4C20193
:1017F00082199309815A9F400CF449C0120104C018
:1018000034E06316710449F4C20182199309895EB8
:1018100093400CF44CC0120104C055E065167104ED
:1018200049F4C20182199309853691050CF44FC021
:10183000120104C086E06816710461F4C2018219C5
:101840009309815A9F400CF452C0120107C0E1E095
:101850006E2E712CBFE06B16710461F4C201821907
:101860009309853691050CF452C0120107C072E04D
:10187000672E712C20E16216710461F4C201821995
:101880009309853691050CF452C0120107C063E03C
:10189000662E712C31E16316710461F4C201821964
:1018A0009309815D97400CF452C0120107C054E0C7
:1018B000652E712C52E16516710461F4C201821922
:1018C0009309853691050CF452C0120107C045E01A
:1018D000642E712C83E16816710461F4C2018219CF
:1018E0009309815D97400CF452C0120107C036E0A5
:1018F000632E712CB4E16B16710461F4C20182197C
:101900009309853691050CF450C0120107C02FE0F1
:10191000622E712C25E16216710461F4C2018219F4
:101920009309815D97400CF451C0120107C090E10A
:10193000692E712C46E16416710461F4C2018219AA
:101940009309853691050CF453C0120107C081E15B
:10195000682E712C57E16516710461F4C201821979
:101960009309815A9F400CF453C0120107C002E151
:10197000602E712CB8E16B16710461F4C2018219FA
:101980009309853691050CF451C0120107C013E18B
:10199000612E712C29E16216710451F4C201821981
:1019A0009309815A9F4044F451C0B4E16B2E712CCD
:1019B0004AE16416710469F4C20182199309815ADB
:1019C0009F400CF453C05C824B8207C0A5E16A2E95
:1019D000712C8BE16816710471F4C201AB81BC817A
:1019E0008A1B9B0B853691050CF450C0120107C071
:1019F000F6E16F2E712CBCE16B16710461F4C2012B
:101A000082199309853691050CF450C0120107C064
:101A1000E7E16E2E712C2DE16216710451F4C201C2
:101A200082199309815A9F4044F450C078E1672E8F
:101A3000712C4EE16416710461F4C201821993099C
:101A4000815A9F400CF453C0120107C069E1662E11
:101A5000712C8FE16816710461F4C2018219930937
:101A6000895E93400CF455C1120107C05AE1652EFE
:101A7000712CB0E26B16710461F4C20182199309F2
:101A8000815A9F400CF451C1120107C04BE1642EF2
:101A9000712C31E26316710461F4C2018219930959
:101AA000853691050CF44EC1120107C03CE1632E4E
:101AB000712C42E26416710461F4C2018219930927
:101AC000815A9F400CF450C1120107C02DE1622ED3
:101AD000712C83E26816710469F4C20182199309BA
:101AE0000B970CF44EC194E2692E712C65C18EE106
:101AF000682E712CF301E432F10508F05DC1EC565B
:101B0000FF4FEE0FFF1F0590F491E02D0994809197
:101B10005A03209156039091580382FF07C02F7EED
:101B200020935603977F90935803C9C02F7D20932D
:101B300056039F7E9860909358032BA93CA92130AF
:101B4000310509F0B4C080E061E00E94431A88E1E9
:101B500093E00E94711B1CAA1BAAA9C020915803E4
:101B6000322F3E7FC20168EC70E00E94141E843662
:101B7000910524F42C7F2093580303C032603093E6
:101B800058038091560386608093560380915803D2
:101B90008B7F8093580341E050E05EA34DA30CC1BE
:101BA00080915803817E866180935803809156030B
:101BB00080628B7F80935603F8C0809156038061CA
:101BC0008093560381E090E09E8F8D8FF5C08091C9
:101BD00056038F7D809356038091580388608093CD
:101BE000580365C0809158038F7E8093580380917D
:101BF0005603806280935603DFC080915603806154
:101C00005CC08091570388608B7F809357034FC0DF
:101C100080915903816080935903809158038F7795
:101C20008093580321E030E03EA72DA7C5C08091E6
:101C300059038E7F80935903809158038068809365
:101C400058032DC0809156038F7E8093560341E048
:101C500050E05E8F4D8FB0C0809157038B7F809393
:101C600057038091590381608093590380915803F1
:101C70008F778093580381E090E09EA78DA717C0CF
:101C8000809159038E7F8093590380915803806817
:101C90008093580380915703877F809357031EA634
:101CA0001DA605C080915903877F809359031E8E1E
:101CB0001D8E82C0809156038F7E80935603A1E0D3
:101CC000B0E0BE8FAD8F78C080915903886010C09E
:101CD0008091570380648F7D809357031E8E1D8EE5
:101CE00021E030E03E8B2D8B67C0809159038D7FC2
:101CF0008093590361C0809157038F7B8093570372
:101D00008091590382608B7F809359031E8A1D8ABC
:101D100053C080915803877F8061809358031E8E43
:101D20001D8E0FE1602E712C47C0809156038F7E6F
:101D30008093560341E050E05E8F4D8F10E2612E9C
:101D4000712C3AC0809156038F7D84608093560336
:101D50008091580388608F7E809358031E8E1D8E5D
:101D6000B1E26B2E712C28C0A2E26A2E712C8091F8
:101D700056038D7F8093560381E090E09EA38DA350
:101D80001BC0F3E26F2E712C809156038B7F8093E2
:101D90005603A9ADBAAD119741F40E94651A86E2C7
:101DA00093E00E94711B1AAE19AE1EA21DA204C0C0
:101DB00021E030E03E8F2D8F4DB75EB7425150404D
:101DC0000FB6F8945EBF0FBE4DBFEDB7FEB73196AC
:101DD00082E090E0ADB7BEB712969C938E931197B8
:101DE00093838283958384839783868321E030E085
:101DF000318720873387228735872487378726874F
:101E0000318B208BC201B1014B815C812DA13EA1A0
:101E10000D8D1E8DEE24FF24CDA4DEA4AD88BE88DA
:101E2000E2E08E2E912C0E94D7014DB75EB74E5E38
:101E30005F4F0FB6F8945EBF0FBE4DBF81E090E0DC
:101E40000E945A1D54E26516710411F40C94C217D5
:101E50000894411C511C7DCC82E00E942101882302
:101E600011F40C94F91787E060E00E94431A8CE3A8
:101E700093E00E94711B6624772423961FAE1EAE4A
:101E8000239781E090E098AF8FAB9AAB89AB1CA60B
:101E90001BA61CA21BA21C8E1B8E1C8A1B8A1C86C6
:101EA0001B86442455242224332484E40E941A18D7
:101EB00080E00E94731885E40E941A180E94851819
:101EC00080935A030E948F1880935B030E946B18C3
:101ED0006114710479F080E061E00E94431A81E1AD
:101EE00093E00E94711BB301882777FD8095982F9E
:101EF0000E94411BC201BE016F5F7F4F0E947801AB
:101F00006114710429F4882309F440C0120104C04B
:101F100091E06916710431F480915A0380FD43C049
:101F2000120104C0A2E06A16710449F4C2018219C8
:101F30009309853691050CF446C0120104C0B3E044
:101F40006B16710449F4C20182199309815A9F40AA
:101F50000CF449C0120104C034E06316710449F462
:101F6000C20182199309895E93400CF44CC012019E
:101F700004C055E06516710449F4C2018219930941
:101F8000853691050CF44DC0120104C086E0681638
:101F9000710461F4C20182199309815A9F400CF4C3
:101FA00050C0120107C021E0622E712CB7E06B1601
:101FB000710461F4C20182199309853691050CF40C
:101FC00050C0120107C092E0692E712C28E0621601
:101FD000710461F4C20182199309853691050CF4EC
:101FE0004EC0120107C083E0682E712C39E06316E1
:101FF000710461F4C20182199309815D97400CF468
:102000004EC0120107C004E0602E712C5AE0651624
:10201000710451F4C201821993098536910544F483
:102020004EC015E0612E712C8BE06816710461F4CE
:10203000C20182199309815D97400CF450C01201CE
:1020400007C0B6E06B2E712CBCE06B16710461F416
:10205000C20182199309853691050CF450C0120112
:1020600007C0A7E06A2E712C2DE06216710451F4AE
:10207000C20182199309815D974044F450C0F8E091
:102080006F2E712C4EE06416710461F4C201821946
:102090009309815A9F400CF452C0120107C0E9E035
:1020A0006E2E712C8FE06816710461F4C2018219E2
:1020B0009309853691050CF452C0120107C07AE0ED
:1020C000672E712C90E16916710461F4C2018219C6
:1020D0009309853691050CF452C0120107C06BE0DC
:1020E000662E712CA1E16A16710461F4C201821995
:1020F0009309815D97400CF452C0120107C05CE067
:10210000652E712C22E16216710461F4C2018219FC
:102110009309853691050CF452C0120107C04DE0B9
:10212000642E712C33E16316710461F4C2018219CB
:102130009309815D97400CF452C0120107C03EE044
:10214000632E712C54E16516710461F4C201821989
:102150009309853691050CF450C0120107C02FE099
:10216000622E712C85E16816710461F4C201821936
:102170009309815D97400CF453C0120107C090E1B0
:10218000692E712CB6E16B16710461F4C2018219DB
:102190009309853691050CF457C0120107C081E1FF
:1021A000682E712C27E16216710461F4C201821954
:1021B0009309815A9F400CF457C0120107C002E1F5
:1021C000602E712C48E16416710461F4C201821919
:1021D0009309853691050CF455C0120107C013E12F
:1021E000612E712C59E16516710451F4C2018219F6
:1021F0009309815A9F4044F455C0B4E16B2E712C71
:10220000BAE16B16710479F4C20182199309815AFB
:102210009F400CF457C023965FAE4EAE239707C085
:10222000A5E16A2E712C3BE16316710481F4C201B1
:1022300023964EAD5FAD2397841B950B8536910594
:102240000CF450C0120107C0F6E16F2E712C5CE156
:102250006516710461F4C2018219930985369105EE
:102260000CF450C0120107C0E7E16E2E712C8DE115
:102270006816710451F4C20182199309815A9F4072
:1022800044F450C078E1672E712CBEE16B167104E6
:1022900061F4C20182199309815A9F400CF453C022
:1022A000120107C069E1662E712C3FE163167104CB
:1022B00061F4C20182199309895E93400CF487C1CD
:1022C000120107C05AE1652E712C50E265167104A7
:1022D00061F4C20182199309815A9F400CF483C1B1
:1022E000120107C04BE1642E712CB1E26B16710430
:1022F00061F4C20182199309853691050CF480C1FD
:10230000120107C03CE1632E712C22E262167104B7
:1023100061F4C20182199309815A9F400CF482C171
:10232000120107C02DE1622E712C43E26416710484
:1023300069F4C201821993090B970CF480C194E2ED
:10234000692E712C97C18EE1682E712CF301E43255
:10235000F10508F08FC1E854FF4FEE0FFF1F059005
:10236000F491E02D099480915A03209156039091A5
:10237000580382FF07C02F7E20935603977F9093C8
:102380005803FBC02F7D209356039F7E9860909347
:102390005803A9A9BAA9119709F0E7C080E061E044
:1023A0000E94431A88E193E00E94711B1AAA19AA9D
:1023B000DCC020915803322F3E7FC20168EC70E0F0
:1023C0000E94141E8436910524F42C7F2093580318
:1023D00003C0326030935803809156038660809327
:1023E0005603809158038B7F8093580321E030E09F
:1023F0003CA32BA33FC180915803817E86618093CB
:1024000058038091560380628B7F809356032BC1C3
:10241000809156038F7D8093560380915803886086
:1024200080935803A2C0809158038F7E80935803F5
:10243000809156038062809356031CC1809156039D
:10244000806199C080915703816080935703809188
:1024500056038F778093560388C080915803806419
:102460008F7D80935803A1E0B0E0BC87AB8702C1A9
:102470008091560380618093560341E050E05C8F69
:102480004B8FF8C0809156038F77809356038091CD
:10249000580380648F7D809358031C8E1B8E81E0CF
:1024A00090E09C878B87E6C0809158038F7B806289
:1024B000809358031C8E1B8E1C861B86DBC080916C
:1024C000570388608B7F809357034FC080915903D7
:1024D000816080935903809158038F7780935803CC
:1024E000A1E0B0E0BCA7ABA7C5C0809159038E7F27
:1024F00080935903809158038068809358032DC0BE
:10250000809156038F7E8093560321E030E03C8F0C
:102510002B8FB0C0809157038B7F8093570380919E
:102520005903816080935903809158038F7780937A
:10253000580341E050E05CA74BA717C080915903B6
:102540008E7F80935903809158038068809358034D
:1025500080915703877F809357031CA61BA605C055
:1025600080915903877F809359031C8E1B8E82C0F4
:10257000809156038F7E8093560381E090E09C8F7C
:102580008B8F78C080915903886010C08091570369
:1025900080648F7D809357031C8E1B8EA1E0B0E07A
:1025A000BC8BAB8B67C0809159038D7F809359039F
:1025B00061C0809157038F7B8093570380915903AB
:1025C00082608B7F809359031C8A1B8A53C0809141
:1025D0005803877F8061809358031C8E1B8E0FE108
:1025E000602E712C47C0809156038F7E80935603D6
:1025F00021E030E03C8F2B8F10E2612E712C3AC02D
:10260000809156038F7D8460809356038091580398
:1026100088608F7E809358031C8E1B8EB1E26B2ED8
:10262000712C28C0A2E26A2E712C809156038D7FF6
:102630008093560341E050E05CA34BA31BC0F3E240
:102640006F2E712C809156038B7F809356038FA938
:1026500098AD019741F40E94651A86E293E00E94CA
:10266000711B18AE1FAA1CA21BA204C0A1E0B0E0FF
:10267000BC8FAB8F2DB73EB7225130400FB6F894C8
:102680003EBF0FBE2DBFEDB7FEB7319682E090E0A2
:10269000ADB7BEB712969C938E93119793838283A6
:1026A000958384839783868321E030E03187208778
:1026B000338722873587248737872687318B208B7E
:1026C000C201B10123964EAD5FAD23972BA13CA172
:1026D0000B8D1C8DEB84FC84CBA4DCA4AB88BC8864
:1026E000E2E08E2E912C0E94D7014DB75EB74E5E70
:1026F0005F4F0FB6F8945EBF0FBE4DBF81E090E014
:102700000E945A1D54E26516710409F43BC40894F2
:10271000411C511CCACB82E00E942101882309F48C
:1027200031C487E060E00E94431A83E493E00E9492
:10273000711B662477241E821D8281E090E09EAB8F
:102740008DAB98AB8FA71AA619A61AA219A21A8E3A
:10275000198E1A8A198A1A861986442455242596B0
:102760001FAE1EAE25972224332484E40E941A183B
:1027700080E00E94731885E40E941A180E94851850
:1027800080935A030E948F1880935B030E946B18FA
:102790006114710479F080E061E00E94431A81E1E4
:1027A00093E00E94711BB301882777FD8095982FD5
:1027B0000E94411BC201BE016F5F7F4F0E947801E2
:1027C000282F6114710421F4882309F018C41BC454
:1027D00091E06916710449F480915A0380FD14C098
:1027E000120145E2642E712C0FC0A2E06A1671043A
:1027F00059F4C2018219930985369105A4F012019A
:1028000035E2632E712C0FC0B3E06B16710459F4DE
:10281000C20182199309815A9F40A4F0120195E2E6
:10282000692E712C0FC044E06416710459F4C20182
:1028300082199309895E9340A4F0120185E2682E03
:10284000712C0FC085E06816710459F4C201821919
:10285000930985369105A4F0120105E2602E712CD2
:102860000FC096E06916710459F4C20182199309E8
:10287000815A9F40A4F0120115E2612E712C0FC005
:10288000B7E06B16710459F4C201821993098536B9
:102890009105A4F01201B5E26B2E712C0FC038E047
:1028A0006316710459F4C2018219930985369105A2
:1028B000A4F01201A5E26A2E712C0FC049E0641643
:1028C000710459F4C20182199309815D97409CF00B
:1028D0001201F5E26F2E712C0EC08AE068167104A9
:1028E00051F4C20182199309853691059CF0E5E205
:1028F0006E2E712C0FC09BE06916710459F4C20151
:1029000082199309815D9740A4F0120175E2672E48
:10291000712C0FC0BCE06B16710459F4C20182190E
:102920009309853691059CF0120165E2662E712CA3
:102930000EC03DE06316710451F4C201821993097F
:10294000815D97409CF055E2652E712C0FC05EE0D2
:102950006516710459F4C20182199309815A9F4086
:10296000A4F0120145E2642E712C0FC0BFE06B167B
:10297000710459F4C2018219930985369105A4F0B6
:10298000120135E2632E712C0FC030E16316710421
:1029900059F4C2018219930985369105A4F01201F8
:1029A00095E2692E712C0FC041E16416710459F44F
:1029B000C20182199309815D9740A4F0120185E25A
:1029C000682E712C0FC082E16816710459F4C2019F
:1029D0008219930985369105A4F0120105E2602E53
:1029E000712C0FC093E16916710459F4C201821968
:1029F0009309815D9740A4F0120115E2612E712CBC
:102A00000FC0B4E16B16710459F4C2018219930925
:102A100085369105A4F01201B5E26B2E712C0FC022
:102A200035E16316710459F4C20182199309815D7D
:102A30009740A4F01201A5E26A2E712C0FC056E156
:102A40006516710459F4C2018219930985369105FE
:102A5000A4F01201F5E26F2E712C0FC087E1681609
:102A6000710459F4C20182199309815A9F40A4F05C
:102A70001201E5E26E2E712C0FC0B8E16B167104E5
:102A800059F4C20182199309853691059CF012010F
:102A900075E2672E712C0EC039E16316710451F492
:102AA000C20182199309815A9F40A4F065E2662E03
:102AB000712C10C05AE16516710461F4C2018219CB
:102AC0009309815A9F40BCF05E824D8255E2652E8B
:102AD000712C11C0BBE16B16710469F4C2014D8108
:102AE0005E81841B950B85369105A4F0120145E2A9
:102AF000642E712C0FC05CE16516710459F4C2019B
:102B000082199309853691059CF0120135E2632EF6
:102B1000712C0EC08DE16816710451F4C201821946
:102B20009309815A9F409CF095E2692E712C0FC049
:102B3000BEE16B16710459F4C20182199309815ADE
:102B40009F40A4F0120185E2682E712C0FC04FE166
:102B50006416710459F4C20182199309895E934085
:102B6000A4F0120105E2602E712C0FC080E26816FD
:102B7000710459F4C20182199309815A9F40A4F04B
:102B8000120115E2612E712C0FC0B1E26B167104B7
:102B900059F4C2018219930985369105A4F01201F6
:102BA000B5E26B2E712C0FC032E26316710459F43A
:102BB000C20182199309815A9F4094F01201A5E243
:102BC0006A2E712C0DC053E26516710449F4C201DE
:102BD000821993090B97ACF0F4E26F2E712C11C09F
:102BE00085E26816710469F4222309F47FC12596F1
:102BF000AEADBFAD259711962596BFAFAEAF259769
:102C00003D01F301E432F10508F070C1E452FF4FD9
:102C1000EE0FFF1F0590F491E02D099480915A0367
:102C2000209156039091580382FF07C02F7E209376
:102C30005603977F90935803EEC02F7D2093560341
:102C40009F7E9860909358034FA558A94130510535
:102C500009F026C180E061E00E94431A88E193E018
:102C60000E94711B18AA1FA61BC120915803322F66
:102C70003E7FC20168EC70E00E94141E843691050C
:102C800024F42C7F2093580303C032603093580300
:102C900080915603866080935603809158038B7F02
:102CA0008093580381E090E09AA389A31FC180918B
:102CB0005803817E86618093580380915603806219
:102CC0008B7F809356030BC1809156038F7D809339
:102CD0005603809158038860E1C0809158038F7E2D
:102CE0008093580380915603806280935603FEC000
:102CF0008091560380618DC08091570381608093DD
:102D00005703809156038F7780935603C9C08091F3
:102D1000580380648F7D8093580341E050E05A87C8
:102D20004987E4C080915603806180935603A1E0F7
:102D3000B0E0BA8FA98FDAC0809156038F77809365
:102D400056038091580380648F7D809358031A8EB8
:102D5000198E21E030E03A872987C8C08091580356
:102D60008F7B8062809358031A8E198E1A8619867B
:102D7000BDC08091570388608B7F8093570390C0BC
:102D800080915903816080935903809158038F7714
:102D90008093580341E050E05AA749A7A7C080910B
:102DA00059038E7F809359038091580380688093E4
:102DB000580323C0809157038B7F809357038091E2
:102DC0005903816080935903809158038F778093D2
:102DD0005803A1E0B0E0BAA7A9A762C08091590347
:102DE0008E7F8093590380915803806880935803A5
:102DF00080915703877F809357031AA619A650C066
:102E000080915903877F809359034AC0809156036C
:102E10008F7E8093560321E030E03A8F298F66C081
:102E200080915903886010C08091570380648F7D22
:102E3000809357031A8E198E41E050E05A8B498BCC
:102E400055C0809159038D7F809359034FC0809165
:102E500057038F7B809357038091590382608B7F48
:102E6000809359031A8A198A41C080915803877F39
:102E7000806114C0809156038F7E8093560381E059
:102E800090E09A8F898F32C0809156038F7D846045
:102E9000809356038091580388608F7E80935803F7
:102EA0001A8E198E23C0809156038D7F809356030E
:102EB000A1E0B0E0BAA3A9A319C0809156038B7F0B
:102EC000809356032DA93EA92130310541F40E947B
:102ED000651A86E293E00E94711B1EAA1DAA1AA21F
:102EE00019A204C041E050E05A8F498F8DB79EB7B8
:102EF00042970FB6F8949EBF0FBE8DBFEDB7FEB7D9
:102F0000319622E030E0ADB7BEB712963C932E93D7
:102F1000119733832283358324833783268341E0CB
:102F200050E05187408753874287558744875787AA
:102F30004687518B408BC201B1014D815E8129A131
:102F40003AA1098D1A8DE984FA84C9A4DAA4A98862
:102F5000BA88E2E08E2E912C0E94D7018DB79EB7E1
:102F600042960FB6F8949EBF0FBE8DBF81E090E0F1
:102F70000E945A1D94E26916710421F00894411CC4
:102F8000511CF3CB809156038B7D80935603809127
:102F90005703867B8093570380E40E941A1882E0CF
:102FA0000E947318809156030E94731880915703F2
:102FB0000E9473180E946B1889E493E00E94711BB1
:102FC0000C94A70210E00C94B603112311F40C9496
:102FD0003A040C94210481E00E942101882311F01D
:102FE0000C94840B81E00E942101882311F40C943D
:102FF0002C0F81E00E942101882321F28CCB120149
:1030000095E2692E712C20E0F0CB388A2F86662459
:1030100077248AE2482E512C0C945C070E94411FB1
:1030200008950E94941E08951092B9008CE0809338
:10303000B8000895982F84EA8093BC008091BC006A
:1030400087FFFCCF8091B900887F883021F08031E4
:1030500011F081E008959093BB0084E88093BC0058
:103060008091BC0087FFFCCF9091B900987F983188
:1030700011F480E0089580E0903409F081E0089533
:10308000982F44EA34E824E94093BC008091BC00C6
:1030900087FFFCCF8091B900887F883011F08031A4
:1030A00099F79093BB003093BC008091BC0087FFE0
:1030B000FCCF8091B900887F803211F0883539F4D7
:1030C0002093BC008091BC0084FDFCCFDDCF08952F
:1030D0000E941A18089584E98093BC008091BC0076
:1030E00084FDFCCF08958093BB0084E88093BC00EE
:1030F0008091BC0087FFFCCF8091B90090E0887F71
:10310000883209F091E0892F089584EC8093BC0007
:103110008091BC0087FFFCCF8091BB00089584E8BC
:103120008093BC008091BC0087FFFCCF8091BB00E6
:1031300008950895089580E090E00895EF92FF9239
:103140000F931F9367B13D982898299AE0906403E4
:10315000F0906503009166031091670320E030E072
:1031600041E050E0CA016F9364E06A95F1F76F9116
:103170000197C9F72A9ACA016F9364E06A95F1F73B
:103180006F910197C9F786B12A98FA016F9364E0AD
:103190006A95F1F76F913197C9F72A9AFA016F93FF
:1031A00064E06A95F1F76F913197C9F72A982C5F1F
:1031B0003F4F85FF09C0C901A0E0B0E08E159F0513
:1031C000A007B10708F4CECFC901A0E0B0E08E158A
:1031D0009F05A007B10728F082E390E0A0E0B0E0EF
:1031E00004C080E395E7A0E0B0E08093640390938F
:1031F0006503A0936603B093670367B91F910F91AE
:10320000FF90EF90089528B190E08F709070880F34
:10321000991F880F991F237C282B28B92A9A81E0AF
:1032200090E0FC016F9364E06A95F1F76F9131973C
:10323000C9F72A986F9364E06A95F1F76F91019747
:10324000C9F708958091600390916103009711F090
:103250000E94411F80914D0390E0019720914E0301
:1032600030E0AC01429FC001439F900D529F900DF2
:1032700011240E94941E9093610380936003009731
:1032800029F160E070E208C0E0916003F091610311
:10329000E40FF51F70836F5F462F50E080914D0360
:1032A00090E0019720914E0330E0FC01E29FC001C5
:1032B000E39F900DF29F900D11244817590724F3B6
:1032C00087E89BE16BE978E10E94991F089580935C
:1032D0004E0360934D030E942219089580934E037C
:1032E00060934D030E94221908950E9422190895A7
:1032F0003D98459A80E395E7A0E0B0E080936403B1
:1033000090936503A0936603B0936703209A219A74
:10331000229A8EE190E00E945A1D83E00E94CD1C0B
:1033200086E090E00E945A1D83E00E94CD1C82E05E
:1033300090E00E945A1D83E00E94CD1C82E090E044
:103340000E945A1D82E00E94CD1C82E090E00E9403
:103350005A1D88E20E94171A88E00E94171A81E01D
:103360000E94171A86E00E94171A8CE00E94171A12
:10337000089580916803882329F481E0809368038D
:103380000E9478190895FF920F931F93082F162F0C
:10339000F42E0E94B9190E949E1837B128B12998BD
:1033A000112311F0289A01C0289887B18C6387B93E
:1033B00081E0F816E1F088B1902F92959F70990FF7
:1033C000990F837C982B98B92A9A81E090E0FC01B0
:1033D0006F9364E06A95F1F76F913197C9F72A9876
:1033E0006F9364E06A95F1F76F910197C9F788B11F
:1033F0000F70000F000F837C802B88B92A9A81E020
:1034000090E0FC016F9364E06A95F1F76F9131975A
:10341000C9F72A986F9364E06A95F1F76F91019765
:10342000C9F737B928B91F910F91FF90089560E04F
:1034300042E00E94C31908950F931F93082F162F7F
:1034400008C0002311F480E101C084E10E94171A32
:1034500011501123B1F71F910F9108950E941C1A6A
:1034600008958CE00E94171A08950E94311A089559
:10347000813011F48FE001C08EE00E94171A089588
:103480000E94381A0895A4E0B0E0E9E4FAE10C944F
:10349000571E182F062F80E8898380EC8A8384E9E1
:1034A0008B8384ED8C83FE01E60FF11D8181810FFA
:1034B0000E94171A10936303009362032496E4E0BA
:1034C0000C94731E0E94431A089581E00E94171AFB
:1034D0008091600390916103892B19F160E070E2A3
:1034E00008C0E0916003F0916103E40FF51F708361
:1034F0006F5F462F50E080914D0390E0019720913F
:103500004E0330E0FC01E29FC001E39F900DF29F6B
:10351000900D11244817590724F310926303109259
:10352000620308950E94651A089561E042E00E94D6
:10353000C31908950F931F93CF93DF9300E010E812
:10354000C82FD0E0812F90E08C239D23892B11F090
:1035500081E301C080E30E94951A0F5F083011F0EB
:103560001695F0CFDF91CF911F910F9108950E9492
:103570009A1A08958A3010F4805D01C0895C0E9417
:10358000951A08951F93182F82958F700E94BA1A6A
:10359000812F8F700E94BA1A1F9108951F93182FC0
:1035A000892F0E94C21A812F0E94C21A1F9108956A
:1035B0000E94CE1A08950E94C21A08956F927F92B7
:1035C0008F929F92AF92BF92CF92DF92FF920F9312
:1035D000DF93CF93CDB7DEB72A970FB6F894DEBF4F
:1035E0000FBECDBF5B016C010AE03E010894611C77
:1035F000711CFA2CC601B5012AE030E040E050E031
:103600000E94271EC901DA015C016D0101504301CE
:10361000800E911C80E3F80EC601B5012AE030E06F
:1036200040E050E00E94F51DF61AF401F082A1146A
:10363000B104C104D104E9F608C0F601E00FF11DA0
:1036400080810E94951A0F5F04C06E010894C11C0E
:10365000D11C0A3090F32A960FB6F894DEBF0FBE45
:10366000CDBFCF91DF910F91FF90DF90CF90BF90B2
:10367000AF909F908F907F906F9008950E94DE1A78
:103680000895EF92FF920F931F937B018C0197FF98
:103690000BC010950095F094E094E11CF11C011D05
:1036A000111D8DE20E94951AC801B7010E94DE1A11
:1036B0001F910F91FF90EF9008950E94411B089574
:1036C000CF93DF93EC0103C00E94951A2196FE016F
:1036D00084918823C9F7DF91CF9108950E94601BE0
:1036E0000895CF93DF93EC0103C021960E94951AB1
:1036F00088818823D1F7DF91CF9108950E94711BB3
:1037000008950E94951A08950E94951A0895A0E0C0
:10371000B0E0EDE8FBE10C94531EE82E80916003CD
:1037200090916103892B09F405C12AE0E21609F49E
:1037300046C038E0E316C9F480916303815080935A
:1037400063038F3F51F48091620381508093620341
:1037500080914E03815080936303809162038F3F79
:1037600009F0E2C010926203DDC08E2D0E94951A0E
:10377000209162032223C9F030E021503040809133
:103780004E0390E0AC01249FC001259F900D349F13
:10379000900D112420916303E0916003F091610387
:1037A000E80FF91FE20FF11DE082809163038F5F44
:1037B0008093630390914E03891709F0BBC0409139
:1037C0006203242F30E080914D0390E00197281789
:1037D000390709F0A4C0C0E0D0E044C080E06C2FFD
:1037E0000E94431AFF246E010894C11CD11C35C0ED
:1037F0000F2D10E090E09C01C29FC001C39F900D6F
:10380000D29F900D1124E0916003F0916103E00FCD
:10381000F11FE80FF91F80810E94951AE091600363
:10382000F091610380914E0390E0C89FD001C99F41
:10383000B00DD89FB00D1124E00FF11FAE0FBF1FC8
:10384000AC01C49EC001C59E900DD49E900D112464
:10385000E80FF91F80818C93F39480914E03F81642
:1038600038F2E60160914D03862F90E00297C81769
:10387000D9070CF4B3CF623008F440C0625080E046
:103880000E94431AFF2440E2D42E34C00F2D10E0D2
:1038900080914D0390E0029730E0AC01429FC0015F
:1038A000439F900D529F900D1124E0916003F09181
:1038B0006103E00FF11FE80FF91F80810E94951A44
:1038C00020914D0330E02250304080914E0390E033
:1038D000AC01249FC001259F900D349F900D1124B1
:1038E000E0916003F0916103E00FF11FE80FF91F11
:1038F000D082F39420914E03F21640F260914D0372
:10390000615080E00E94431A00E004C080E20E94FF
:10391000951A0F5F80914E030817C0F303C04F5FE5
:10392000409362031092630380916303609162038A
:103930000E94431A2E2D332727FD3095C901CDB79C
:10394000DEB7E8E00C946F1EEF92FF920F931F9387
:10395000CF93DF937C01062F10E053E0000F111F7F
:103960005A95E1F7C0E0D0E09E01200F822F8064DD
:103970000E94171AF701EC0FFD1FE4918E2F0E9491
:10398000951A2196C830D10579F7CDB7DEB7E6E0B4
:103990000C94711E0E94A41C089560E041E00E94F6
:1039A000C31908950F931F93CF93DF93082F162FFA
:1039B000EA010BC0002311F488E101C08CE10E94F0
:1039C000171ACE010E945A1D1150112399F7DF9149
:1039D000CF911F910F9108950E94D21C08952F92AC
:1039E0008F939F932FB680916A0390916B030196FA
:1039F00080936A0390936B0390E080916C03891F1E
:103A000080936C03909172039C5F909372038091FA
:103A1000710380519742C0F09093720380937103B9
:103A200080916D0390916E03019680936D03909346
:103A30006E0390E080916F03891F80936F038091E4
:103A40007003891F809370032FBE9F918F912F90D9
:103A500018956F5F7F4F8F4F9F4F660F771F881F9F
:103A6000991F25E030E040E050E00E94271ECA0187
:103A7000B901089528EE33E009C0F9016F9364E0BD
:103A80006A95F1F76F913197C9F701970097A9F7F8
:103A900008956F5F7F4F8F4F9F4F660F771F881F6F
:103AA000991F25E030E040E050E00E94271ECA0147
:103AB000B901089528EE33E009C0F9016F9364E07D
:103AC0006A95F1F76F913197C9F701970097A9F7B8
:103AD0000895A0E7B0E08C918E7F8C93E0EBF0E04E
:103AE000808183608083E1EBF0E08081807F808350
:103AF000808182608083B89A8C9181608C93789465
:103B0000089580917303882329F481E080937303DF
:103B10000E94691D08950E94811DE0E7F0E0808108
:103B20008E7F808320916D0330916E0340916F03EF
:103B300050917003808181608083B901CA0108952A
:103B40000E948B1D08950E94811D809170008E7FC0
:103B5000809370006091B2008091690390916A0334
:103B6000A0916B03B0916C03B89905C0262F30E08B
:103B700040E050E011C08091B20020916903309183
:103B80006A0340916B0350916C0320503F4F4F4F9D
:103B90005F4F90E0A0E0B0E0282B392B4A2B5B2B45
:103BA00080917000816080937000B901CA0108950E
:103BB0000E94A31D08950E94811DE0E7F0E080812E
:103BC0008E7F808310926D0310926E0310926F03AC
:103BD00010927003109272031092710380818160C1
:103BE000808308950E94DB1D0895629FD001739F1A
:103BF000F001829FE00DF11D649FE00DF11D929F89
:103C0000F00D839FF00D749FF00D659FF00D9927C7
:103C1000729FB00DE11DF91F639FB00DE11DF91FEB
:103C2000BD01CF011124089597FB092E07260AD064
:103C300077FD04D065D006D000201AF47095619508
:103C40007F4F0895F6F7909581959F4F0895A1E2D3
:103C50001A2EAA1BBB1BFD010DC0AA1FBB1FEE1F06
:103C6000FF1FA217B307E407F50720F0A21BB30B51
:103C7000E40BF50B661F771F881F991F1A9469F7CD
:103C800060957095809590959B01AC01BD01CF0129
:103C900008952F923F924F925F926F927F928F92F0
:103CA0009F92AF92BF92CF92DF92EF92FF920F93CB
:103CB0001F93CF93DF93CDB7DEB7CA1BDB0B0FB6D5
:103CC000F894DEBF0FBECDBF09942A883988488892
:103CD0005F846E847D848C849B84AA84B984C88428
:103CE000DF80EE80FD800C811B81AA81B981CE0F1F
:103CF000D11D0FB6F894DEBF0FBECDBFED01089504
:103D0000AA1BBB1B51E107C0AA1FBB1FA617B70701
:103D100010F0A61BB70B881F991F5A95A9F780951D
:103D20009095BC01CD010895CF93DF93BC01823003
:103D3000910510F462E070E0A0917603B0917703F2
:103D4000ED01E0E0F0E040E050E021C088819981A1
:103D50008617970769F48A819B81309719F09383BE
:103D6000828304C09093770380937603FE0134C06E
:103D70006817790738F44115510519F0841795072C
:103D800008F4AC01FE018A819B819C01E901209726
:103D9000E9F641155105A9F1CA01861B970B049755
:103DA00008F4BA01E0E0F0E02AC08D919C911197EF
:103DB00084179507F9F46417750781F412968D91AD
:103DC0009C911397309719F09383828304C090934A
:103DD000770380937603FD0132964FC0CA01861B9C
:103DE000970BFD01E80FF91F6193719302978D9373
:103DF0009C9343C0FD01828193819C01D90110975E
:103E0000A1F68091740390917503892B41F4809100
:103E100051039091520390937503809374034091E2
:103E20005303509154034115510541F44DB75EB70A
:103E300080914F0390915003481B590B20917403BC
:103E40003091750324173507B0F4CA01821B930B18
:103E50008617970780F0AB014E5F5F4F8417950779
:103E600050F0420F531F5093750340937403F901B0
:103E70006193719302C0E0E0F0E0CF01DF91CF9158
:103E80000895CF93DF93009709F450C0EC01229777
:103E90001B821A82A0917603B0917703109709F1E3
:103EA00040E050E0AC17BD0708F1BB83AA83FE01D8
:103EB00021913191E20FF31FAE17BF0779F48D9175
:103EC0009C911197280F391F2E5F3F4F398328830C
:103ED00012968D919C9113979B838A83411551056E
:103EE00071F4D0937703C093760320C012968D911E
:103EF0009C911397AD01009711F0DC01D3CFFA012B
:103F0000D383C28321913191E20FF31FCE17DF07D4
:103F100069F488819981280F391F2E5F3F4FFA017C
:103F2000318320838A819B8193838283DF91CF9128
:103F300008950F931F93CF93DF938C01EB010097AC
:103F400031F46115710519F420E030E038C081E0EA
:103F500090E06EE070E00E94E51FFC019C0100977C
:103F600071F180E88383209771F0D387C28781E85D
:103F700083838091780390917903892B21F4F093C6
:103F80007903E093780301151105C9F011870087C3
:103F900083818260838380917A0390917B03892B54
:103FA00071F4F0937B03E0937A0380917C0390910A
:103FB0007D03892B21F4F0937D03E0937C03C901F9
:103FC000DF91CF911F910F9108950F931F93CF937E
:103FD000DF93689F8001699F100D789F100D112459
:103FE000C8010E94941EEC01009729F060E070E087
:103FF000A8010E940120CE01DF91CF911F910F9166
:104000000895DC0101C06D9341505040E0F70895E0
:04401000F894FFCF52
:10401400444153434820434C45414E4552203200CD
:104024005245563A20323500424547494E20004910
:104034004E49542000535441525420004E414B20C9
:104044000053544F50200041434B200042494E49F5
:104054005420004D41494E54454E414E4345005372
:10406400454C454354204D4F444500494E5055540A
:104074005320004F555450555453004D4F544F52F4
:104084005320004F4646004D4F544F525300424177
:10409400434B200053454E534F5220300053454E5E
:1040A400534F5220310053454E534F522032005348
:1040B400454E534F5220330053454E534F522034F4
:1040C4000053454E534F5220350053454E534F52E3
:1040D40020360053454E534F522037004143205061
:1040E4004F57455220202020204F4E2000424C4F55
:1040F400574552202020202020204F4E20200050C1
:104104004C4154452053544F502020204F4E200002
:10411400504C41544520524149534520204F4E2094
:1041240000504C415445204C4F57455220204F4E8F
:104134002000425255534831205241495345204FA3
:104144004E2000425255534831204C4F574552207F
:104154004F4E200042525553483220524149534554
:10416400204F4E2000425255534832204C4F574561
:1041740052204F4E20005041504552205241495345
:104184004520204F4E20005041504552204C4F575F
:10419400455220204F4E2000414952204B4E494663
:1041A40045202020204F4E20004C4F4144494E478B
:1041B4002020202046524F4E540044524956452058
:1041C400202020202046524F4E540042525553483E
:1041D40031202020202046524F4E54004252555345
:1041E4004832202020202046524F4E540050415047
:1041F400455220202020202046524F4E54004E4F3E
:10420400524D414C0053454C454354204359434C73
:1042140045004359434C453A0046495253542042C1
:1042240000535441544520005055534820544F20C6
:10423400535441525400454E44204F462043594361
:104244004C45005345434F4E44204200424F54488E
:10425400204200444542554700454E440002102088
:06426400007E03000000D3
:00000001FF
