:100000000C9446000C9465000C9465000C946500FB
:100010000C9465000C9465000C9465000C946500CC
:100020000C9465000C9465000C9465000C940E080B
:100030000C9465000C9465000C9465000C946500AC
:100040000C9465000C9465000C9465000C9465009C
:100050000C9465000C9465000C9465000C9465008C
:100060000C9465000C9465000C9465000C9465007C
:100070000C9465000C9465000C9465000C9465006C
:100080000C9465000C9465000C94650011241FBE4F
:10009000CFEFD0E4DEBFCDBF11E0A0E0B1E0E6EDF0
:1000A000F9E200E00BBF02C007900D92A236B10743
:1000B000D9F711E0A2E6B1E001C01D92A139B10764
:1000C000E1F70E9467000C94E9140C9400002F9251
:1000D0003F924F925F926F927F928F929F92AF92D8
:1000E000BF92CF92DF92EF92FF920F931F93DF9315
:1000F000CF93CDB7DEB7A8970FB6F894DEBF0FBE8B
:10010000CDBF0E9445020E94620300D080E091E0D2
:10011000ADB7BEB712969C938E9311970E940E12A4
:10012000DE011196E2E5F1E088E001900D92815048
:10013000E1F70F900F90CE01019668E04AE02EE0C3
:100140000E94D00F0E94620300D08EE091E0EDB7D4
:10015000FEB7928381830E940E120F900F9080E26F
:100160000E940B080E94620300D085E291E0ADB7C7
:10017000BEB712969C938E9311970E940E1200E0C8
:1001800010E00F900F9081E00E94C80F84E190E092
:100190000E9459080F5F1F4F02331105A1F70E94FB
:1001A000620300D08EE091E0EDB7FEB792838183C9
:1001B0000E940E120F900F9080E20E940B0849E1FE
:1001C000842E912C8C0E9D1E39E0A32EB12CAC0EEA
:1001D000BD1E23EB222E25E1322E9EE3492E91E017
:1001E000592E86E4682E81E0782E0E94620300D0AA
:1001F000E1E3F1E0ADB7BEB71296FC93EE93119731
:100200000E940E120F900F9088EE93E00E94590802
:1002100080E090E0F401E80FF91F21E63EE1318330
:100220002083F501E80FF91F318220820296803188
:10023000910581F7C50161E00E945E0EC40161E095
:100240000E94540E6501740100E010E00E946203F8
:1002500000D000D000D0EDB7FEB73196ADB7BEB735
:1002600012965C924E92119713830283D6018D9160
:100270009D916D01958384830E940E12EDB7FEB7A8
:100280003196ADB7BEB712967C926E9211971383DA
:100290000283D7018D919D917D01958384830E9476
:1002A0000E12EDB7FEB736960FB6F894FEBF0FBE2E
:1002B000EDBF88EE93E00E9459080E9462030F5F31
:1002C0001F4F0830110511F688EE93E00E9459087F
:1002D0008CCF0895089580E090E00895EF92FF920A
:1002E0000F931F9367B13D982898299AE090660173
:1002F000F0906701009168011091690120E030E001
:1003000041E050E0CA016F9364E06A95F1F76F91A4
:100310000197C9F72A9ACA016F9364E06A95F1F7C9
:100320006F910197C9F786B12A98FA016F9364E03B
:100330006A95F1F76F913197C9F72A9AFA016F938D
:1003400064E06A95F1F76F913197C9F72A982C5FAD
:100350003F4F85FF09C0C901A0E0B0E08E159F05A1
:10036000A007B10708F4CECFC901A0E0B0E08E1518
:100370009F05A007B10728F082E390E0A0E0B0E07D
:1003800004C080E395E7A0E0B0E08093660190931D
:100390006701A0936801B093690167B91F910F913C
:1003A000FF90EF90089528B190E08F709070880FC3
:1003B000991F880F991F237C282B28B92A9A81E03E
:1003C00090E0FC016F9364E06A95F1F76F913197CB
:1003D000C9F72A986F9364E06A95F1F76F910197D6
:1003E000C9F708958091620190916301009711F01F
:1003F0000E946A1180915A0190E0019720915B015F
:1004000030E0AC01429FC001439F900D529F900D80
:1004100011240E94BD1090936301809362010097A4
:1004200029F160E070E208C0E0916201F09163019F
:10043000E40FF51F70836F5F462F50E080915A01E3
:1004400090E0019720915B0130E0FC01E29FC00148
:10045000E39F900DF29F900D11244817590724F344
:1004600087E594E06BE671E00E94C21108958093E5
:100470005B0160935A010E94F201089580935B0131
:1004800060935A010E94F20108950E94F2010895BA
:100490003D98459A80E395E7A0E0B0E0809366013F
:1004A00090936701A0936801B0936901209A219A03
:1004B000229A8EE190E00E94790883E00E949D05D7
:1004C00086E090E00E94790883E00E949D0582E02A
:1004D00090E00E94790883E00E949D0582E090E010
:1004E0000E94790882E00E949D0582E090E00E94CF
:1004F000790888E20E94E70288E00E94E70281E032
:100500000E94E70286E00E94E7028CE00E94E70278
:10051000089580916A01882329F481E080936A011B
:100520000E9448020895FF920F931F93082F162FE1
:10053000F42E0E9489020E946E0137B128B12998D9
:10054000112311F0289A01C0289887B18C6387B9CC
:1005500081E0F816E1F088B1902F92959F70990F85
:10056000990F837C982B98B92A9A81E090E0FC013E
:100570006F9364E06A95F1F76F913197C9F72A9804
:100580006F9364E06A95F1F76F910197C9F788B1AD
:100590000F70000F000F837C802B88B92A9A81E0AE
:1005A00090E0FC016F9364E06A95F1F76F913197E9
:1005B000C9F72A986F9364E06A95F1F76F910197F4
:1005C000C9F737B928B91F910F91FF90089560E0DE
:1005D00042E00E94930208950F931F93082F162F55
:1005E00008C0002311F480E101C084E10E94E70209
:1005F00011501123B1F71F910F9108950E94EC0241
:1006000008958CE00E94E70208950E940103089576
:10061000813011F48FE001C08EE00E94E70208955E
:100620000E9408030895A4E0B0E0E9E1F3E00C942F
:100630009410182F062F80E8898380EC8A8384E940
:100640008B8384ED8C83FE01E60FF11D8181810F88
:100650000E94E70210936501009364012496E4E090
:100660000C94B0100E941303089581E00E94E702E9
:100670008091620190916301892B19F160E070E231
:1006800008C0E0916201F0916301E40FF51F7083EF
:100690006F5F462F50E080915A0190E001972091C2
:1006A0005B0130E0FC01E29FC001E39F900DF29FEF
:1006B000900D11244817590724F3109265011092E8
:1006C000640108950E943503089561E042E00E94AC
:1006D000930208950F931F93CF93DF9300E010E8E8
:1006E000C82FD0E0812F90E08C239D23892B11F01F
:1006F00081E301C080E30E9465030F5F083011F0C1
:100700001695F0CFDF91CF911F910F9108950E9420
:100710006A0308958A3010F4805D01C0895C0E94EC
:10072000650308951F93182F82958F700E948A0386
:10073000812F8F700E948A031F9108951F93182F95
:10074000892F0E949203812F0E9492031F91089586
:100750000E949E0308950E94920308956F927F92D3
:100760008F929F92AF92BF92CF92DF92FF920F93A0
:10077000DF93CF93CDB7DEB72A970FB6F894DEBFDD
:100780000FBECDBF5B016C010AE03E010894611C05
:10079000711CFA2CC601B5012AE030E040E050E0BF
:1007A0000E944910C901DA015C016D010150430149
:1007B000800E911C80E3F80EC601B5012AE030E0FE
:1007C00040E050E00E941610F61AF401F082A114E5
:1007D000B104C104D104E9F608C0F601E00FF11D2F
:1007E00080810E9465030F5F04C06E010894C11CE4
:1007F000D11C0A3090F32A960FB6F894DEBF0FBED4
:10080000CDBFCF91DF910F91FF90DF90CF90BF9040
:10081000AF909F908F907F906F9008950E94AE034D
:100820000895EF92FF920F931F937B018C0197FF26
:100830000BC010950095F094E094E11CF11C011D93
:10084000111D8DE20E946503C801B7010E94AE032D
:100850001F910F91FF90EF9008950E941104089549
:10086000CF93DF93EC0103C00E9465032196FE0144
:1008700084918823C9F7DF91CF9108950E943004B5
:100880000895CF93DF93EC0103C021960E94650386
:1008900088818823D1F7DF91CF9108950E94410488
:1008A00008950E94650308950E9465030895A0E0DD
:1008B000B0E0EDE5F4E00C949010E82E8091620138
:1008C00090916301892B09F405C12AE0E21609F42D
:1008D00046C038E0E316C9F48091650181508093E9
:1008E00065018F3F51F480916401815080936401D0
:1008F00080915B01815080936501809164018F3FFD
:1009000009F0E2C010926401DDC08E2D0E946503E3
:10091000209164012223C9F030E0215030408091C1
:100920005B0190E0AC01249FC001259F900D349F96
:10093000900D112420916501E0916201F091630115
:10094000E80FF91FE20FF11DE082809165018F5FD2
:100950008093650190915B01891709F0BBC04091BC
:100960006401242F30E080915A0190E0019728170C
:10097000390709F0A4C0C0E0D0E044C080E06C2F8B
:100980000E941303FF246E010894C11CD11C35C0C2
:100990000F2D10E090E09C01C29FC001C39F900DFD
:1009A000D29F900D1124E0916201F0916301E00F5C
:1009B000F11FE80FF91F80810E946503E091620139
:1009C000F091630180915B0190E0C89FD001C99FC5
:1009D000B00DD89FB00D1124E00FF11FAE0FBF1F57
:1009E000AC01C49EC001C59E900DD49E900D1124F3
:1009F000E80FF91F80818C93F39480915B01F816C6
:100A000038F2E60160915A01862F90E00297C817EC
:100A1000D9070CF4B3CF623008F440C0625080E0D4
:100A20000E941303FF2440E2D42E34C00F2D10E0A7
:100A300080915A0190E0029730E0AC01429FC001E2
:100A4000439F900D529F900D1124E0916201F0910F
:100A50006301E00FF11FE80FF91F80810E94650319
:100A600020915A0130E02250304080915B0190E0AB
:100A7000AC01249FC001259F900D349F900D11243F
:100A8000E0916201F0916301E00FF11FE80FF91F9F
:100A9000D082F39420915B01F21640F260915A01EA
:100AA000615080E00E94130300E004C080E20E94D5
:100AB00065030F5F80915B010817C0F303C04F5FB0
:100AC0004093640110926501809165016091640119
:100AD0000E9413032E2D332727FD3095C901CDB772
:100AE000DEB7E8E00C94AC10EF92FF920F931F93E7
:100AF000CF93DF937C01062F10E053E0000F111F0E
:100B00005A95E1F7C0E0D0E09E01200F822F80646B
:100B10000E94E702F701EC0FFD1FE4918E2F0E9467
:100B200065032196C830D10579F7CDB7DEB7E6E089
:100B30000C94AE100E947405089560E041E00E949C
:100B4000930208950F931F93CF93DF93082F162FCF
:100B5000EA010BC0002311F488E101C08CE10E947E
:100B6000E702CE010E9479081150112399F7DF9115
:100B7000CF911F910F9108950E94A20508950895A5
:100B80000895282F80916B01882391F481E0809350
:100B90006B0187B1837D87B988B18C6288B985E0A4
:100BA00090E06F9364E06A95F1F76F910197C9F750
:100BB00086B180958223089580916B01882391F4FA
:100BC00081E080936B0187B1837D87B988B18C62A6
:100BD00088B985E090E06F9364E06A95F1F76F91D2
:100BE0000197C9F7089587B1837D87B988B18C6271
:100BF00088B985E090E06F9364E06A95F1F76F91B2
:100C00000197C9F70895282F80916B01882391F4EB
:100C100081E080936B0187B1837D87B988B18C6255
:100C200088B985E090E06F9364E06A95F1F76F9181
:100C30000197C9F786B18095822308950F931F937A
:100C4000082F16B10E94AA08AB01BC0180916B016C
:100C5000882391F481E080936B0187B1837D87B90C
:100C600088B18C6288B985E090E06F9364E06A9502
:100C7000F1F76F910197C9F780917101813011F1FE
:100C8000813038F0823009F443C0833009F089C0E4
:100C900065C0202F30E0812F90E08095909528232B
:100CA0003923232B09F47DC01095102310936C0178
:100CB00040936D0150936E0160936F0170937001CA
:100CC00081E06DC080916D0190916E01A0916F01E6
:100CD000B0917001481B590B6A0B7B0B4F305105CB
:100CE0006105710508F45DC040916C01812F90E0B1
:100CF00080959095242F30E082239323892B59F1FE
:100D000082E0809371011095142310936C0149C007
:100D1000E0916C01AE2FB0E0212F30E0CD018223B5
:100D20009323892B79F083E080937101E123E09391
:100D30006C0140936D0150936E0160936F0170934D
:100D400070012FC0802F90E020953095822393234F
:100D5000A817B90731F11092710123C080916D017C
:100D600090916E01A0916F01B0917001481B590BD9
:100D70006A0B7B0B4F3051056105710590F0409176
:100D80006C01842F90E0212F30E082239323892B64
:100D900029F010927101842F812304C082E0809396
:100DA000710180E01F910F9108950E941E06089521
:100DB0000F931F93082F16B110950E94AA08AB013C
:100DC000BC0180916B01882391F481E080936B01D9
:100DD00087B1837D87B988B18C6288B985E090E05E
:100DE0006F9364E06A95F1F76F910197C9F780916D
:100DF0007701813011F1813038F0823009F443C03D
:100E0000833009F089C065C0202F30E0812F90E049
:100E10008095909528233923232B09F47DC01095C4
:100E200010231093720140937301509374016093E7
:100E300075017093760181E06DC08091730190918E
:100E40007401A0917501B0917601481B590B6A0B92
:100E50007B0B4F3051056105710508F45DC0409171
:100E60007201812F90E080959095242F30E08223AD
:100E70009323892B59F182E08093770110951423F5
:100E80001093720149C0A0917201212F30E0EA2F26
:100E9000F0E0C9018E239F23892B79F083E08093B2
:100EA00077011A23109372014093730150937401D8
:100EB00060937501709376012FC0802F90E020958C
:100EC000309582239323E817F90731F110927701C7
:100ED00023C08091730190917401A0917501B0912C
:100EE0007601481B590B6A0B7B0B4F30510561058E
:100EF000710590F040917201812F90E0242F30E035
:100F000082239323892B29F010927701812F842348
:100F100004C082E08093770180E01F910F910895D3
:100F20000E94D80608951F93CF93DF93182F8091C6
:100F30006B01882391F481E080936B0187B1837DFD
:100F400087B988B18C6288B985E090E06F9364E0DE
:100F50006A95F1F76F910197C9F7C12FD0E086B17B
:100F600090E08C239D23892BD1F38AE090E00E94AE
:100F7000790886B190E08C239D23892B81F386B17B
:100F80008123DF91CF911F9108950E9493070895C7
:100F90001F93CF93DF93182F80916B01882391F4D7
:100FA00081E080936B0187B1837D87B988B18C62C2
:100FB00088B985E090E06F9364E06A95F1F76F91EE
:100FC0000197C9F7C12FD0E086B190E08095909548
:100FD0008C239D23892BC1F38AE090E00E9479083D
:100FE00086B190E0809590958C239D23892B61F3A9
:100FF00086B180958123DF91CF911F9108951F9332
:101000000E94C807182F0E949307812F1F910895EF
:101010000E94FF0708950E94C80708952F928F939A
:101020009F932FB68091790190917A0101968093D8
:10103000790190937A0190E080917B01891F8093E0
:101040007B01909181019C5F90938101809180014F
:1010500080519742C0F090938101809380018091EC
:101060007C0190917D01019680937C0190937D019C
:1010700090E080917E01891F80937E0180917F01A5
:10108000891F80937F012FBE9F918F912F9018957C
:101090006F5F7F4F8F4F9F4F660F771F881F991F7E
:1010A00025E030E040E050E00E944910CA01B9015B
:1010B000089528EE33E009C0F9016F9364E06A9562
:1010C000F1F76F913197C9F701970097A9F7089544
:1010D0006F5F7F4F8F4F9F4F660F771F881F991F3E
:1010E00025E030E040E050E00E944910CA01B9011B
:1010F000089528EE33E009C0F9016F9364E06A9522
:10110000F1F76F913197C9F701970097A9F7089503
:10111000A0E7B0E08C918E7F8C93E0EBF0E08081D3
:1011200083608083E1EBF0E08081807F8083808139
:1011300082608083B89A8C9181608C9378940895B2
:1011400080918201882329F481E0809382010E94AA
:10115000880808950E94A008E0E7F0E080818E7F73
:10116000808320917C0130917D0140917E015091DE
:101170007F01808181608083B901CA0108950E9446
:10118000AA0808950E94A008809170008E7F809325
:1011900070006091B2008091780190917901A091E6
:1011A0007A01B0917B01B89905C0262F30E040E06C
:1011B00050E011C08091B200209178013091790106
:1011C00040917A0150917B0120503F4F4F4F5F4F2C
:1011D00090E0A0E0B0E0282B392B4A2B5B2B8091CC
:1011E0007000816080937000B901CA0108950E9467
:1011F000C20808950E94A008E0E7F0E080818E7F99
:10120000808310927C0110927D0110927E011092D9
:101210007F01109281011092800180818160808322
:1012200008950E94FA080895A0918501B091860161
:101230001C96ED91FC911D97309779F0808119965D
:101240009C911997892B80831A96ED91FC911B979D
:10125000808119969C91892B80830895A0918501A6
:10126000B09186011C96ED91FC911D97309781F00D
:10127000808119969C911997892B80831A96ED91FC
:10128000FC911B97908119968C918095892380837E
:101290000895E0918501F091860180819181089502
:1012A000E0918501F0918601828193810895E0911A
:1012B0008501F0918601848195810895E0918501F1
:1012C000F0918601868197810895FC011182108238
:1012D000138212821582148217821682613118F0ED
:1012E00080E1808701C06087208B483078F481E0FE
:1012F00090E002C0880F991F4A95E2F781878BE240
:1013000090E0938782878AE290E029C04E3098F47B
:10131000242F30E02850304081E090E002C0880F58
:10132000991F2A95E2F7818785E290E0938782876B
:1013300084E290E014C04431A8F4242F30E02E5011
:10134000304081E090E002C0880F991F2A95E2F7B3
:10135000818788E290E09387828787E290E0958793
:101360008487089515861486138612860895DC01F5
:101370001C96ED91FC911D97309781F08081199614
:101380009C911997892B80831A96ED91FC911B975C
:10139000908119968C918095892380830895DC0132
:1013A0001C96ED91FC911D97309779F080811996EC
:1013B0009C911997892B80831A96ED91FC911B972C
:1013C000808119969C91892B80830895DC0120E00F
:1013D00040C0ED91FC911197309761F0822F90E021
:1013E000880F991FE80FF91F1E968D919C911F97EA
:1013F000918380831496ED91FC911597309761F05D
:10140000822F90E0880F991FE80FF91F1E968D918B
:101410009C911F97918380831296ED91FC91139775
:10142000309741F0822F90E0880F991FE80FF91F45
:10143000118210821696ED91FC911797309741F02A
:10144000822F90E0880F991FE80FF91F11821082F8
:101450002F5F18968C911897281708F4BACF089523
:1014600080918501909186010E94E6090895A0E08F
:10147000B0E0EDE3FAE00C948A10EC016B01642F0C
:101480007901402F20E00E946509CE018F5B9F4FBC
:10149000FC011082FE01EE5BFF4F1082DE01AD5BAE
:1014A000BF4F1C92FF86EE8630E041E050E07F01A6
:1014B00066E2662E712C8C0123E2822E912CBD01F6
:1014C00099E2A92EB12C58C0A32FB0E0F601EA0F83
:1014D000FB1F80818830C0F4FA0102C0EE0FFF1FAD
:1014E0008A95E2F7CF01FE01EA0FFB1F818BFB011A
:1014F0002081282B2083AA0FBB1FAC0FBD1F929603
:10150000BC92AE92919737C08E30D0F490E008979D
:10151000FA0102C0EE0FFF1F8A95E2F7CF01FE012C
:10152000EA0FFB1F818BF8012081282B2083AA0F53
:10153000BB1FAC0FBD1F92969C928E9291971BC0C1
:101540008431C8F490E00E97FA0102C0EE0FFF1F3D
:101550008A95E2F7CF01FE01EA0FFB1F818BF701AD
:101560002081282B2083AA0FBB1FAC0FBD1F929692
:101570007C926E9291973F5F8885381708F4A4CFCC
:10158000CDB7DEB7EEE00C94A6100F930E94370A99
:101590000F9108950F930E94370A0F910895A0E0CC
:1015A000B0E0E5EDFAE00C948C10EC015B01CF5B50
:1015B000DF4F4991A9918880C354D04090E009C081
:1015C000E92FF0E0EE0FFF1FEA0DFB1D11821082E4
:1015D0009F5F88859817A0F384B1CF5BDF4F399167
:1015E000832B84B987B12991822B87B98AB19881DD
:1015F000C354D040892B8AB985B1832B85B988B172
:10160000822B88B98BB1892B8BB9EAE0F0E06F931C
:1016100064E06A95F1F76F913197C9F784B130951D
:10162000832384B987B12095822387B98AB19095A5
:1016300089238AB985B1382335B988B1282328B9D7
:101640008BB198239BB99090B000C090B10080916D
:10165000B00083608093B00082E08093B100D090AE
:10166000B20060E070E03AC05091B2005D19650FC1
:10167000711DE3B0E41609F04FC0F6B0FA1609F098
:101680004BC089B1881509F047C025C0A42FB0E030
:101690009D01220F331F8501020F131FF801808166
:1016A0009181892BA1F42C0F3D1FF90181A192A1F9
:1016B000FC01208130E0AC0FBD1F51968C9190E071
:1016C00028233923232B19F4F801718360834F5F9A
:1016D00088854817D8F2D50E4E2DAF2D8E859F8563
:1016E0006817790708F29092B000C092B10020E02C
:1016F0000FC0E22FF0E0EE0FFF1FEA0DFB1D80810F
:101700009181892B21F48E859F85918380832F5F22
:101710008885281770F305C0E3B0F6B089B040E0C3
:10172000D7CFCDB7DEB7ECE00C94A810EF92FF92C4
:101730000F931F93CF93DF93EC017B01122F642F44
:10174000402F21E00E94650919A31AA290E041E010
:1017500050E016C0E92FF0E0D701AE0FBF1FEC0F2D
:10176000FD1F8C91818BAC91A63048F49A0102C088
:10177000220F331FAA95E2F78AA1822B8AA39F5FCB
:101780008885981738F38FEF93E09F878E87CDB7C2
:10179000DEB7E6E00C94AE100F930E94960B0F910B
:1017A00008950F930E94960B0F910895A0E0B0E06A
:1017B000ECEDFBE00C949010EC018B01D0907C00E0
:1017C000E0907A00C7B0F8B080917A0086FDFCCF37
:1017D00090E009C0E92FF0E0EE0FFF1FE00FF11FCE
:1017E000118210829F5F88859817A0F397B18AA114
:1017F0008095982397B998B1892388B987E8809311
:101800007A0050E024C0FE01E40FF11D818980932D
:101810007C0080917A00806480937A0080917A00C5
:1018200086FDFCCFE42FF0E0EE0FFF1FE00FF11F6D
:10183000209178003091790080819181820F931FEF
:10184000918380834F5F88854817E8F25F5F89A1A5
:10185000581710F040E017C040E0F5CFE42FF0E05B
:10186000EE0FFF1FE00FF11F69A1862F90E0959505
:10187000879520813181820F931F70E00E9435107F
:10188000718360834F5F8885481740F3D0927C0056
:10189000E0927A00F8B8C7B8CDB7DEB7E8E00C94AC
:1018A000AC10A0E2B0E0E7E5FCE00C948F108C01F6
:1018B0007B01D42E842F81508230B0F4D8011C9645
:1018C000ED91FC911D97309779F0808119969C914C
:1018D0001997892B80831A96ED91FC911B97808133
:1018E00019969C91892B8083F8018089882349F57A
:1018F000C02EB12EC801B7010E94CF0AD8011C9694
:10190000ED91FC911D97309781F0808119969C9103
:101910001997892B80831A96ED91FC911B979081E2
:1019200019968C91809589238083B2E0DB1609F0AB
:1019300053C08C2D9B2DBE016F5F7F4F0E94CF0A3D
:1019400027C0C02EB12EC801B7010E94D60BD80106
:101950001C96ED91FC911D97309781F0808119962E
:101960009C911997892B80831A96ED91FC911B9776
:10197000908119968C91809589238083B2E0DB1643
:1019800059F58C2D9B2DBE016F5F7F4F0E94D60BAA
:1019900040E0BE016F5F7F4F1AC0E42FF0E0EE0F12
:1019A000FF1F6701CE0EDF1EE60FF71FD8011E9640
:1019B0002D913C911F9780819181281B390BF60155
:1019C00080819181820F931F918380834F5FD80123
:1019D00018968C91481708F3A096E9E00C94AB1088
:1019E000A0E0B0E0E6EFFCE00C948D10EC01162FC7
:1019F000072F942E22E0421711F0442351F48C81DA
:101A00009D81892B09F4A4C08E819F81892B09F4C3
:101A10009FC0892D8150823050F488819981892B13
:101A200009F496C08A819B81892B09F491C0CE016B
:101A3000612F702F492D0E94510C812F902F9C01F6
:101A40005901CC24DD2400E010E07CC081E0981630
:101A500069F4EA81FB81E00FF11F20813181E88187
:101A6000F981E00FF11F408151813DC0AC81BD8102
:101A7000992059F4EE81FF81E00FF11F208131811F
:101A8000A00FB11F4D915C912EC0A00FB11F8D9181
:101A90009C91E881F981E00FF11F20813181EE8571
:101AA000FF858217930710F4AF0105C0A9014E0FFF
:101AB0005F1F481B590BEE81FF81E00FF11F608112
:101AC0007181EA81FB81E00FF11F80819181EE85B8
:101AD000FF856817790710F49F0105C09C012E0F40
:101AE0003F1F261B370B7901E41AF50A01F1F501B6
:101AF0006081718180E090E09A0140E050E0621BDB
:101B0000730B840B950B28EE33E040E050E00E940D
:101B10001610970140E050E00E946B10C901F3E0FD
:101B2000293E3F0714F088EE93E097FF02C080E063
:101B300090E0F501819391935F010894C11CD11C41
:101B40000E5F1F4F888590E0C816D9060CF47ECF33
:101B5000CDB7DEB7EBE00C94A910A4E0B0E0E3EB66
:101B6000FDE00C9486108C01F62EE72E2A830E944D
:101B7000F00CD8011896BC91B9832F2D3E2DC901C8
:101B80008C01552444246624772443011C821B8243
:101B9000AA24BB246501B8EE2B2EB3E03B2E32C045
:101BA000F801E080F180FA81FF2321F091012E19E4
:101BB0003F09790139ECE316F10414F0442443940D
:101BC00083E3E816F1049CF0B701882777FD809540
:101BD000982FA60195010E941610660E771E881E8A
:101BE000991EAB81BC81AE0DBF1DBC83AB835394EA
:101BF00088EE93E0A0E0B0E0A80EB91ECA1EDB1E7E
:101C00000E5F1F4F9981591658F2442021F5692F14
:101C100070E084EF91E0DC016A9FC0016B9F900D42
:101C20007A9F900D1124845F91402091830130911F
:101C30008401281739071CF440E050E01AC088EEF0
:101C400093E0689FA001699F500D789F500D11246B
:101C5000485E53400EC0EB81FC819F0140E050E0A4
:101C6000C401B3010E944910A9013093840120935B
:101C70008301CA012496E2E10C94A2109C01462F34
:101C80008091850190918601B90121E00E94AD0DFE
:101C900008959C01462F8091850190918601B9019C
:101CA00020E00E94AD0D08959C01462F8091850192
:101CB00090918601B9010E94F00C08959C01462F75
:101CC0008091850190918601B9010E94510C08957F
:101CD000CF93DF93EC018A819B81009711F00E94E2
:101CE0006A118E819F81009711F00E946A1188818C
:101CF0009981009711F00E946A118C819D81009753
:101D000011F00E946A11DF91CF910895CF93DF9374
:101D1000EC018A819B81009711F00E946A118E81EB
:101D20009F81009711F00E946A1188819981009724
:101D300011F00E946A118C819D81009711F00E9420
:101D40006A11DF91CF910895A3E6B0E0EAEAFEE0E0
:101D50000C9486107C015B016A01A2962FAFA297BA
:101D6000DA018D919C91892B11F5F701808590E026
:101D7000880F991F0E94BD10D6018D939C930097E8
:101D800009F4DFC020E030E00CC0C901880F991FC2
:101D9000D601ED91FC91E80FF91F118210822F5F9F
:101DA0003F4FF701808590E02817390774F3D5017C
:101DB0008D919C91892B89F000E010E03E01089400
:101DC000611C711C41E4242E312C2C0E3D1E31E28D
:101DD000432E512C4C0E5D1E28C0F701808590E0EB
:101DE000880F991F0E94BD10D5018D939C93009779
:101DF00009F4A7C020E030E011C0C901880F991F85
:101E0000D501ED91FC91E80FF91FD7011E968D9138
:101E10009C911F97918380832F5F3F4FF7018085AF
:101E200090E0281739074CF3C7CFC701B301A2963A
:101E30004FADA2970E94510CD70118968C91882E15
:101E40009924A101F301A4965FAE4EAEA49760E081
:101E500070E034C00115110559F0A496AEADBFADC8
:101E6000A4972D913C91808191812817390758F4CE
:101E700080819181A496AEADBFADA4978D939C93C4
:101E80000115110541F0DA012D913C91808191817C
:101E90008217930728F480819181DA018D939C93B6
:101EA0006F5F7F4F4E5F5F4F3296A4968EAD9FADB2
:101EB000A4970296A4969FAF8EAFA4976815790554
:101EC0004CF20F5F1F4F0A30110509F0AECF40E012
:101ED00050E020E030E08E010F5B1F4FBE016F5DD0
:101EE0007F4F28C0F801E20FF31F80809180F60138
:101EF000A081B181A20FB31F8D919C91119788157C
:101F0000990510F48D929C92FB01E20FF31F8080E3
:101F10009180F501A081B181A20FB31F8D919C9199
:101F200011978816990610F48D929C924F5F5F4F1F
:101F30002E5F3F4FD70118968C9190E048175907B4
:101F40008CF2CD59DF4FE2E10C94A2101F93CF9396
:101F5000DF93EC01162F862F8150823040F4AE01C2
:101F60004E5F5F4FCE01BE0121E00E94A40E1230F1
:101F700011F0112349F4AE014A5F5F4FCE01249660
:101F8000BE0120E00E94A40EDF91CF911F91089521
:101F9000682F80918501909186010E94A60F089577
:101FA000A0E0B0E0E6EDFFE00C9491108C01F62E7D
:101FB000E42ED22E83E290E00E94BD10EC01009747
:101FC00011F480E00BC0B8014F2D2E2D0D2D0E9475
:101FD000960BD0938601C093850181E0CDB7DEB723
:101FE000E7E00C94AD10A0E0B0E0E9EFFFE00C9466
:101FF00090108C01D62E7A01C22E84E490E00E94CB
:10200000BD10EC01009711F480E00BC0B8014D2D1C
:1020100097010C2D0E94370AD0938601C093850149
:1020200081E0CDB7DEB7E8E00C94AC10629FD00140
:10203000739FF001829FE00DF11D649FE00DF11D83
:10204000929FF00D839FF00D749FF00D659FF00D32
:102050009927729FB00DE11DF91F639FB00DE11D1F
:10206000F91FBD01CF0111240895AA1BBB1B51E12B
:1020700007C0AA1FBB1FA617B70710F0A61BB70BF8
:10208000881F991F5A95A9F780959095BC01CD019D
:102090000895A1E21A2EAA1BBB1BFD010DC0AA1FA9
:1020A000BB1FEE1FFF1FA217B307E407F50720F0C1
:1020B000A21BB30BE40BF50B661F771F881F991F3C
:1020C0001A9469F760957095809590959B01AC0185
:1020D000BD01CF01089597FB092E05260ED057FDAF
:1020E00004D0D7DF0AD0001C38F4509540953095C5
:1020F00021953F4F4F4F5F4F0895F6F7909580958C
:10210000709561957F4F8F4F9F4F08952F923F920B
:102110004F925F926F927F928F929F92AF92BF92F7
:10212000CF92DF92EF92FF920F931F93CF93DF93A3
:10213000CDB7DEB7CA1BDB0B0FB6F894DEBF0FBE00
:10214000CDBF09942A88398848885F846E847D844D
:102150008C849B84AA84B984C884DF80EE80FD804F
:102160000C811B81AA81B981CE0FD11D0FB6F894C5
:10217000DEBF0FBECDBFED010895CF93DF93BC014D
:102180008230910510F462E070E0A0918901B09175
:102190008A01ED01E0E0F0E040E050E021C08881FC
:1021A00099818617970769F48A819B81309719F086
:1021B0009383828304C090938A0180938901FE01F6
:1021C00034C06817790738F44115510519F08417A0
:1021D000950708F4AC01FE018A819B819C01E9010D
:1021E0002097E9F641155105A9F1CA01861B970B05
:1021F000049708F4BA01E0E0F0E02AC08D919C91C8
:10220000119784179507F9F46417750781F41296EE
:102210008D919C911397309719F09383828304C01A
:1022200090938A0180938901FD0132964FC0CA01C3
:10223000861B970BFD01E80FF91F619371930297BD
:102240008D939C9343C0FD01828193819C01D901B0
:102250001097A1F68091870190918801892B41F414
:1022600080915E0190915F01909388018093870136
:1022700040916001509161014115510541F44DB704
:102280005EB780915C0190915D01481B590B2091D4
:1022900087013091880124173507B0F4CA01821BE9
:1022A000930B8617970780F0AB014E5F5F4F841743
:1022B000950750F0420F531F5093880140938701B8
:1022C000F9016193719302C0E0E0F0E0CF01DF918A
:1022D000CF910895CF93DF93009709F450C0EC019C
:1022E00022971B821A82A0918901B0918A011097CE
:1022F00009F140E050E0AC17BD0708F1BB83AA83A9
:10230000FE0121913191E20FF31FAE17BF0779F45F
:102310008D919C911197280F391F2E5F3F4F398364
:10232000288312968D919C9113979B838A834115E4
:10233000510571F4D0938A01C093890120C012968F
:102340008D919C911397AD01009711F0DC01D3CFD3
:10235000FA01D383C28321913191E20FF31FCE178B
:10236000DF0769F488819981280F391F2E5F3F4F5D
:10237000FA01318320838A819B8193838283DF9159
:10238000CF9108950F931F93CF93DF938C01EB01AF
:10239000009731F46115710519F420E030E038C080
:1023A00081E090E06EE070E00E942614FC019C0148
:1023B000009771F180E88383209771F0D387C287FB
:1023C00081E8838380918B0190918C01892B21F48A
:1023D000F0938C01E0938B0101151105C9F0118771
:1023E000008783818260838380918D0190918E012B
:1023F000892B71F4F0938E01E0938D0180918F0110
:1024000090919001892B21F4F0939001E0938F013A
:10241000C901DF91CF911F910F910895DF93CF9361
:10242000CDB7DEB7FE0135966191719180918D0136
:1024300090918E01AF010E942012CF91DF910895FB
:102440002F923F924F925F926F927F928F929F92C4
:10245000AF92BF92CF92DF92EF92FF920F931F93B2
:10246000DF93CF93CDB7DEB72B970FB6F894DEBFCF
:102470000FBECDBF3C012B015A01FC011782168211
:10248000838181FD03C06FEF7FEFC6C19AE0892E83
:102490001E010894211C311CF3012381F20123FD4C
:1024A000859123FF81912F01882309F4B2C18532E0
:1024B00039F423FD859123FF81912F01853229F481
:1024C00090E0B3010E945F14E7CF982FFF24EE2421
:1024D0009924FFE1FF15D0F09B3269F09C3228F47B
:1024E000903259F0933291F40EC09D3249F09033FE
:1024F00069F441E024C052E0F52A84E0F82A28C0BB
:1025000098E0F92A25C0E0E1FE2A22C0F7FC29C0A4
:10251000892F80538A3070F4F6FE05C0989C902C69
:102520001124980E15C0E89CE02C1124E80EF0E26E
:10253000FF2A0EC09E3229F4F6FC6BC140E4F42A57
:1025400007C09C3619F450E8F52A02C0983649F4C1
:10255000F20123FD959123FF91912F01992309F019
:10256000B8CF892F8554833018F08052833038F4E7
:1025700044E050E0A40EB51E5FE359830FC09336CC
:1025800031F0933779F0933509F056C020C0F5014A
:102590008081898342E050E0A40EB51E610101E014
:1025A00010E012C0F501C080D180F6FC03C06FEFCF
:1025B0007FEF02C0692D70E042E050E0A40EB51E2E
:1025C000C6010E9454148C015FE7F52214C0F50186
:1025D000C080D180F6FC03C06FEF7FEF02C0692D91
:1025E00070E042E050E0A40EB51EC6010E94421405
:1025F0008C0150E8F52AF3FE07C01AC080E290E093
:10260000B3010E945F14EA948E2D90E00817190719
:10261000A8F30EC0F601F7FC8591F7FE81916F01DA
:1026200090E0B3010E945F14E110EA940150104061
:102630000115110579F7EAC0943611F0993669F55C
:10264000F7FE08C0F501208131814281538184E089
:1026500090E00AC0F501808191819C01442737FDFB
:102660004095542F82E090E0A80EB91E9FE6F92213
:1026700057FF09C050954095309521953F4F4F4FDA
:102680005F4FE0E8FE2ACA01B901A1012AE030E06B
:102690000E948B14D82ED21840C0953729F41F2DD4
:1026A0001F7E2AE030E01DC01F2D197F9F3661F08C
:1026B000903720F4983509F0ACC00FC0903739F04E
:1026C000983709F0A6C004C028E030E00AC01061C5
:1026D00014FD146020E130E004C014FD166020E118
:1026E00032E017FF08C0F50160817181828193811A
:1026F00044E050E008C0F50180819181BC0180E098
:1027000090E042E050E0A40EB51EA1010E948B149F
:10271000D82ED2188FE7F82EF122F6FE0BC05EEF0E
:10272000F522D91438F4F4FE07C0F2FC05C08FEE90
:10273000F82202C01D2D01C0192DF4FE0DC0FE01AE
:10274000ED0DF11D8081803319F499EEF92208C056
:102750001F5FF2FE05C003C08F2D867809F01F5F52
:102760000F2DF3FC14C0F0FE0FC01E1510F09D2CB1
:102770000BC09D2C9E0C911A1E2D06C080E290E08D
:10278000B3010E945F141F5F1E15C0F304C01E1525
:1027900010F4E11A01C0EE2404FF0FC080E390E0C2
:1027A000B3010E945F1402FF1DC001FD03C088E752
:1027B00090E00EC088E590E00BC0802F867891F005
:1027C00001FF02C08BE201C080E2F7FC8DE290E0E5
:1027D000B3010E945F1406C080E390E0B3010E9441
:1027E0005F149A94D914C0F3DA94F101ED0DF11D40
:1027F000808190E0B3010E945F14DD20A9F706C03C
:1028000080E290E0B3010E945F14EA94EE20C1F7E9
:1028100043CEF30166817781CB012B960FB6F894F6
:10282000DEBF0FBECDBFCF91DF911F910F91FF9003
:10283000EF90DF90CF90BF90AF909F908F907F9060
:102840006F905F904F903F902F9008950F931F933C
:10285000CF93DF93689F8001699F100D789F100DC3
:102860001124C8010E94BD10EC01009729F060E01E
:1028700070E0A8010E944D14CE01DF91CF911F910D
:102880000F910895FC010590615070400110D8F738
:10289000809590958E0F9F1F0895DC0101C06D9368
:1028A00041505040E0F70895FC01615070400190A4
:1028B0000110D8F7809590958E0F9F1F08950F9364
:1028C0001F93CF93DF938C01EB018B8181FF1BC0A2
:1028D00082FF0DC02E813F818C819D812817390791
:1028E00064F4E881F9810193F983E88306C0E885FF
:1028F000F985802F0995892B31F48E819F8101966E
:102900009F838E8302C00FEF1FEFC801DF91CF912D
:102910001F910F910895FA01AA27283051F1203113
:1029200081F1E8946F936E7F6E5F7F4F8F4F9F4F63
:10293000AF4FB1E03ED0B4E03CD0670F781F891FA5
:102940009A1FA11D680F791F8A1F911DA11D6A0F73
:10295000711D811D911DA11D20D009F468943F9126
:102960002AE0269F11243019305D3193DEF6CF0125
:102970000895462F4770405D4193B3E00FD0C9F7EB
:10298000F6CF462F4F70405D4A3318F0495D31FD58
:102990004052419302D0A9F7EACFB4E0A6959795AB
:1029A000879577956795BA95C9F700976105710581
:1029B00008959B01AC010A2E0694579547953795CB
:1029C0002795BA95C9F7620F731F841F951FA01D25
:0629D0000895F894FFCF0A
:1029D60041626F757420746F20696E697400776147
:1029E6006974696E6720666F7220746F70206275F5
:1029F60074746F6E0063616C6962726174696E678C
:102A06000067657474696E672076616C7300412592
:102A1600643A20256400202020204225643A20259F
:102A2600640000010203040506070210200091015C
:022A360000009E
:00000001FF
