:100000000C9446000C9465000C9465000C946500FB
:100010000C9465000C9465000C9465000C946500CC
:100020000C9465000C9465000C9465000C94AE0C67
:100030000C9465000C9465000C9465000C946500AC
:100040000C9465000C9465000C9465000C9465009C
:100050000C94EB080C94B50A0C9465000C946500A4
:100060000C9465000C9465000C9465000C9465007C
:100070000C9427090C94DE0A0C9465000C9465001E
:100080000C9465000C9465000C94650011241FBE4F
:10009000CFEFD0E4DEBFCDBF12E0A0E0B1E0E0EDF5
:1000A000F2E200E00BBF02C007900D92AC36B10740
:1000B000D9F712E0ACE6B2E001C01D92AA3AB1074E
:1000C000E1F70E94D8000C9466110C940000482FB0
:1000D000883068F481E090E002C0880F991F4A954B
:1000E000E2F7282FAAE2B0E0EBE2F0E03EC0803178
:1000F00088F4282F30E02850304081E090E002C0A2
:10010000880F991F2A95E2F7282FA4E2B0E0E5E2D4
:10011000F0E02BC0883188F4282F30E020513040A7
:1001200081E090E002C0880F991F2A95E2F7282FFE
:10013000A7E2B0E0E8E2F0E018C0803230F020E062
:10014000A0E0B0E0E0E0F0E010C02FE130E0281BDC
:10015000310981E090E002C0880F991F2A95E2F7EB
:10016000282FA1E2B0E0E2E2F0E06F3F19F48081D5
:10017000822709C0662319F08081822B04C09081F8
:10018000822F8095892380838C91822B8C93089574
:10019000FC0120E030E08081882311F421E030E090
:1001A000C9010895FC0181E08083089508950895B0
:1001B0002F923F924F925F926F927F928F929F9277
:1001C000AF92BF92CF92DF92EF92FF920F931F9365
:1001D000DF93CF93CDB7DEB7CC5BD0400FB6F894AA
:1001E000DEBF0FBECDBF4BE0A42EB12CAC0EBD1EAA
:1001F00037E8432E512C4C0E5D1E21E1822E912CAE
:100200008C0E9D1E98E5692E712C6C0E7D1E80E370
:10021000282E312C2C0E3D1E82E040E052EC61E095
:1002200070E00E940C088AE08C8782E0B50144E609
:100230002AE030E00E94640C0E94B404DE015C9667
:10024000E1E9F1E084E101900D928150E1F782E073
:10025000BE01645E7F4F44E10E94370A80E091E076
:100260000E94C00502C00E94250C9091540280910A
:1002700056029817C1F71EC00E94B4048DE091E0A9
:100280000E94C005D201E5EAF1E085E301900D92FC
:100290008150E1F7F20115AA82E0B20146E30E9423
:1002A000370A02C00E94250C909154028091560298
:1002B0009817C1F780ED97E00E94190D82E0B50113
:1002C00041E020E137E20E94640C8130A9F2D401C0
:1002D000EBEDF1E08AE001900D928150E1F71B8E89
:1002E00082E0B4014AE00E94370A02C00E94250C55
:1002F00090915402809156029817C1F782E0B5019F
:1003000042E00E94370A02C00E94250C90915402DC
:10031000809156029817C1F78B85863411F0863686
:1003200039F481E160E00E9467008FE391E00DC045
:10033000823411F0823639F481E161E00E94670075
:1003400081E491E002C083E491E00E94C00584EF63
:1003500091E00E94190D0E94B40482E0B50144E6C8
:100360002AE030E00E94640C87E491E00E94C0051E
:10037000D301E6EEF1E08EE201900D928150E1F7BB
:10038000F30116A682E0B3014FE20E94370A02C0D1
:100390000E94250C90915402809156029817C1F743
:1003A0001AE01D8382E0B50141E020E137E20E94BE
:1003B000640C8B85898382E0B50141E020E137E25E
:1003C0000E94640C8B858A8382E0B50141E020E1C4
:1003D00037E20E94640C8B858B8382E0B50141E09B
:1003E00020E137E20E94640C8B858C83C82EDD24CB
:1003F00040E35BEEC40ED51E8A8124E6829FC001D5
:100400001124C80ED91E8B81819FC0011124C80EF2
:10041000D91E898190E0C09728EE33E0FC01E29F6D
:10042000C001E39F900DF29F900D1124C80ED91EBC
:1004300082E0B4014AE00E94370A02C00E94250C03
:1004400090915402809156029817C1F782E0BE0144
:100450006F5F7F4F44E00E94370A02C00E94250C64
:1004600090915402809156029817C1F70E94B404EB
:1004700082E0B50144E62AE030E00E94640C81E7A6
:1004800091E00E94C005D101E5E1F2E087E2019030
:100490000D928150E1F768961FAE689782E0B10136
:1004A00048E20E94370A02C00E94250C9091540233
:1004B000809156029817C1F71AE01A8782E0B501B9
:1004C00041E020E137E20E94640C8B858E8382E05C
:1004D000B50141E020E137E20E94640C8B858F83F7
:1004E00082E0B50141E020E137E20E94640C8B8597
:1004F000888782E0B50141E020E137E20E94640C88
:100500008B858987E82EFF2440E35BEEE40EF51E21
:100510008F8124E6829FC0011124E80EF91E888590
:10052000819FC0011124E80EF91E8E8190E0C097D2
:1005300028EE33E0FC01E29FC001E39F900DF29FA3
:10054000900D1124E80EF91E82E0B4014AE00E94E9
:10055000370A02C00E94250C9091540280915602E5
:100560009817C1F782E0BE016A5F7F4F44E00E94A6
:10057000370A02C00E94250C9091540280915602C5
:100580009817C1F7B6016E5F7F4FC7010E94720FC7
:100590007B0100E010E011C080E161E00E94670093
:1005A00082E090E00E94190D80E160E00E94670007
:1005B000C6010E94190D0F5F1F4F0E151F050CF08D
:1005C0002BCEEACF0E949F1008950E94F20F08954B
:1005D0000895089580E090E00895EF92FF920F93C0
:1005E0001F9367B13D982898299AE0907002F09087
:1005F0007102009172021091730220E030E041E03C
:1006000050E0CA016F9364E06A95F1F76F9101972A
:10061000C9F72A9ACA016F9364E06A95F1F76F915E
:100620000197C9F786B12A98FA016F9364E06A9539
:10063000F1F76F913197C9F72A9AFA016F9364E045
:100640006A95F1F76F913197C9F72A982C5F3F4F60
:1006500085FF09C0C901A0E0B0E08E159F05A00785
:10066000B10708F4CECFC901A0E0B0E08E159F0518
:10067000A007B10728F082E390E0A0E0B0E004C05A
:1006800080E395E7A0E0B0E0809370029093710260
:10069000A0937202B093730267B91F910F91FF90FC
:1006A000EF90089528B190E08F709070880F991F97
:1006B000880F991F237C282B28B92A9A81E090E083
:1006C000FC016F9364E06A95F1F76F913197C9F778
:1006D0002A986F9364E06A95F1F76F910197C9F7D3
:1006E000089580916C0290916D02009711F00E9424
:1006F0009F1080913D0290E0019720913E0230E0F2
:10070000AC01429FC001439F900D529F900D112458
:100710000E94F20F90936D0280936C02009729F172
:1007200060E070E208C0E0916C02F0916D02E40FAD
:10073000F51F70836F5F462F50E080913D0290E07F
:10074000019720913E0230E0FC01E29FC001E39F4F
:10075000900DF29F900D11244817590724F386ED50
:1007600095E06AEE72E00E94F710089580933E02D1
:1007700060933D020E947103089580933E0260934E
:100780003D020E94710308950E94710308953D98EF
:10079000459A80E395E7A0E0B0E0809370029093E3
:1007A0007102A0937202B0937302209A219A229A46
:1007B0008EE190E00E94190D83E00E941C0786E004
:1007C00090E00E94190D83E00E941C0782E090E0F7
:1007D0000E94190D83E00E941C0782E090E00E94B5
:1007E000190D82E00E941C0782E090E00E94190D22
:1007F00088E20E94660488E00E94660481E00E940C
:10080000660486E00E9466048CE00E9466040895F7
:1008100080917402882329F481E0809374020E94FD
:10082000C7030895FF920F931F93082F162FF42EDE
:100830000E9408040E94ED0237B128B129981123C3
:1008400011F0289A01C0289887B18C6387B981E09C
:10085000F816E1F088B1902F92959F70990F990F3B
:10086000837C982B98B92A9A81E090E0FC016F93E1
:1008700064E06A95F1F76F913197C9F72A986F9301
:1008800064E06A95F1F76F910197C9F788B10F702D
:10089000000F000F837C802B88B92A9A81E090E0BA
:1008A000FC016F9364E06A95F1F76F913197C9F796
:1008B0002A986F9364E06A95F1F76F910197C9F7F1
:1008C00037B928B91F910F91FF90089560E042E079
:1008D0000E94120408950F931F93082F162F08C02B
:1008E000002311F480E101C084E10E9466041150EC
:1008F0001123B1F71F910F9108950E946B04089581
:100900008CE00E94660408950E948004089581305E
:1009100011F48FE001C08EE00E94660408950E94E9
:1009200087040895A4E0B0E0E8E9F4E00C94B50F82
:10093000182F062F80E8898380EC8A8384E98B83D3
:1009400084ED8C83FE01E60FF11D8181810F0E94F1
:10095000660410936F0200936E022496E4E00C94F8
:10096000D10F0E949204089581E00E946604809154
:100970006C0290916D02892B19F160E070E208C061
:10098000E0916C02F0916D02E40FF51F70836F5FD0
:10099000462F50E080913D0290E0019720913E0269
:1009A00030E0FC01E29FC001E39F900DF29F900DAB
:1009B00011244817590724F310926F0210926E0207
:1009C00008950E94B404089561E042E00E94120478
:1009D00008950F931F93CF93DF9300E010E8C82F83
:1009E000D0E0812F90E08C239D23892B11F081E3AF
:1009F00001C080E30E94E4040F5F083011F01695F7
:100A0000F0CFDF91CF911F910F9108950E94E904DB
:100A100008958A3010F4805D01C0895C0E94E4046E
:100A200008951F93182F82958F700E940905812FBA
:100A30008F700E9409051F9108951F93182F892F09
:100A40000E941105812F0E9411051F9108950E9497
:100A50001D0508950E94110508956F927F928F924F
:100A60009F92AF92BF92CF92DF92FF920F93DF934C
:100A7000CF93CDB7DEB72A970FB6F894DEBF0FBE7F
:100A8000CDBF5B016C010AE03E010894611C711C42
:100A9000FA2CC601B5012AE030E040E050E00E94A7
:100AA000850FC901DA015C016D0101504301800E1F
:100AB000911C80E3F80EC601B5012AE030E040E069
:100AC00050E00E94530FF61AF401F082A114B10411
:100AD000C104D104E9F608C0F601E00FF11D8081E0
:100AE0000E94E4040F5F04C06E010894C11CD11C75
:100AF0000A3090F32A960FB6F894DEBF0FBECDBF32
:100B0000CF91DF910F91FF90DF90CF90BF90AF908A
:100B10009F908F907F906F9008950E942D0508956B
:100B2000EF92FF920F931F937B018C0197FF0BC0F5
:100B300010950095F094E094E11CF11C011D111D2D
:100B40008DE20E94E404C801B7010E942D051F91A7
:100B50000F91FF90EF9008950E9490050895CF9314
:100B6000DF93EC0103C00E94E4042196FE0184910E
:100B70008823C9F7DF91CF9108950E94AF050895AA
:100B8000CF93DF93EC0103C021960E94E404888197
:100B90008823D1F7DF91CF9108950E94C005089571
:100BA0000E94E40408950E94E4040895A0E0B0E0E7
:100BB000ECEDF5E00C94B10FE82E80916C02909171
:100BC0006D02892B09F405C12AE0E21609F446C03A
:100BD00038E0E316C9F480916F02815080936F0270
:100BE0008F3F51F480916E02815080936E0280910C
:100BF0003E02815080936F0280916E028F3F09F018
:100C0000E2C010926E02DDC08E2D0E94E40420919D
:100C10006E022223C9F030E02150304080913E0224
:100C200090E0AC01249FC001259F900D349F900D52
:100C3000112420916F02E0916C02F0916D02E80F97
:100C4000F91FE20FF11DE08280916F028F5F8093A8
:100C50006F0290913E02891709F0BBC040916E026D
:100C6000242F30E080913D0290E00197281739074A
:100C700009F0A4C0C0E0D0E044C080E06C2F0E9426
:100C80009204FF246E010894C11CD11C35C00F2DA5
:100C900010E090E09C01C29FC001C39F900DD29FC5
:100CA000900D1124E0916C02F0916D02E00FF11FA4
:100CB000E80FF91F80810E94E404E0916C02F0913A
:100CC0006D0280913E0290E0C89FD001C99FB00D97
:100CD000D89FB00D1124E00FF11FAE0FBF1FAC0164
:100CE000C49EC001C59E900DD49E900D1124E80FA6
:100CF000F91F80818C93F39480913E02F81638F2AC
:100D0000E60160913D02862F90E00297C817D9074F
:100D10000CF4B3CF623008F440C0625080E00E940F
:100D20009204FF2440E2D42E34C00F2D10E08091B5
:100D30003D0290E0029730E0AC01429FC001439F2A
:100D4000900D529F900D1124E0916C02F0916D0274
:100D5000E00FF11FE80FF91F80810E94E404209149
:100D60003D0230E02250304080913E0290E0AC01E4
:100D7000249FC001259F900D349F900D1124E09178
:100D80006C02F0916D02E00FF11FE80FF91FD082A5
:100D9000F39420913E02F21640F260913D026150C0
:100DA00080E00E94920400E004C080E20E94E4041B
:100DB0000F5F80913E020817C0F303C04F5F40935E
:100DC0006E0210926F0280916F0260916E020E941B
:100DD00092042E2D332727FD3095C901CDB7DEB7FC
:100DE000E8E00C94CD0FEF92FF920F931F93CF93F7
:100DF000DF937C01062F10E053E0000F111F5A957E
:100E0000E1F7C0E0D0E09E01200F822F80640E94B5
:100E10006604F701EC0FFD1FE4918E2F0E94E4049D
:100E20002196C830D10579F7CDB7DEB7E6E00C944E
:100E3000CF0F0E94F306089560E041E00E94120483
:100E400008950F931F93CF93DF93082F162FEA0176
:100E50000BC0002311F488E101C08CE10E946604FC
:100E6000CE010E94190D1150112399F7DF91CF91F6
:100E70001F910F9108950E9421070895282F30E0B7
:100E8000F90193E0EE0FFF1F9A95E1F7220F331F50
:100E9000E20FF31FE15CFD4F8081089590E0FC01BB
:100EA000EE0FFF1FEE0FFF1FE80FF91FEE0FFF1FE2
:100EB000EF5BFD4F8081089590E0FC01EE0FFF1F76
:100EC000EE0FFF1FE80FF91FEE0FFF1FEF5BFD4F47
:100ED000208130E0FC0153E0EE0FFF1F5A95E1F74F
:100EE000880F991FE80FF91FE15CFD4F84812817D7
:100EF00009F431E0832F0895282F30E0F901B3E0A1
:100F0000EE0FFF1FBA95E1F7220F331FE20FF31F19
:100F1000E15CFD4F81810895282F30E0F90173E0F5
:100F2000EE0FFF1F7A95E1F7220F331FE20FF31F39
:100F3000E15CFD4F918140E0282F30E0F90153E062
:100F4000EE0FFF1F5A95E1F7220F331FE20FF31F39
:100F5000E15CFD4F8381981709F441E0842F0895E7
:100F6000882321F0813009F044C01DC020913F0248
:100F7000222311F488E901C088E18093C1008091A7
:100F8000450290914602892B61F190914002809137
:100F90004202981730F5222321F58091C10080622A
:100FA0008093C1001CC020914902222311F488E9DA
:100FB00001C088E18093C90080914F029091500256
:100FC000892B99F090914A0280914C02981768F40D
:100FD000222359F48091C90080628093C9007894DB
:100FE00008958091C1008F7DDBCF8091C9008F7DF6
:100FF000F4CF0895282F30E0F901B3E0EE0FFF1F82
:10100000BA95E1F7220F331FE20FF31FE15CFD4FAA
:1010100060830E94B0070895A0E0B0E0E2E1F8E04C
:101020000C94B20FD82E7A018B010E94B00782E097
:10103000D81619F1DD2019F0CCECD0E002C0C4ECD8
:10104000D0E060EA75E286E290E06E197F09800BDD
:10105000910B33E0660F771F881F991F3A95D1F7E0
:1010600024E0EE0CFF1C001F111F2A95D1F7A801E8
:1010700097010E94850F39832883CDB7DEB7E7E05B
:101080000C94CE0F0E940C080895282F30E0F9012F
:1010900053E0EE0FFF1F5A95E1F7220F331FE20FC7
:1010A000F31FE15CFD4F60830E94B0070895582F45
:1010B000823051F0882319F0E9ECF0E002C0E1EC55
:1010C000F0E080818F778083252F30E0D901AA0F4F
:1010D000BB1FC901E3E0880F991FEA95E1F7A80F4C
:1010E000B91FA15CBD4F19967C936E931897F901B7
:1010F000EE0FFF1FEE0FFF1FE20FF31FEE0FFF1F9C
:10110000EF5BFD4F108214964C93149715961C922A
:101110001597523069F08C91882351F4552319F0BA
:10112000E9ECF0E002C0E1ECF0E0808180688083CF
:1011300008950E9457080895582F823051F088234F
:1011400019F0E9ECF0E002C0E1ECF0E080818F778B
:101150008083252F30E0D901AA0FBB1FC901E3E02E
:10116000880F991FEA95E1F7A80FB91FA15CBD4F41
:1011700019967C936E931897F901EE0FFF1FEE0FEF
:10118000FF1FE20FF31FEE0FFF1FEF5BFD4F1082FB
:1011900014964C93149781E015968C9315975230C2
:1011A00069F08C91882351F4552319F0E9ECF0E0B3
:1011B00002C0E1ECF0E080818068808308950E94A5
:1011C0009C08089560E070E040E00E945708089590
:1011D0000E94E20808951F920F920FB60F920BB66D
:1011E0000F9211242F938F939F93EF93FF9320914E
:1011F000C600E0914702F0914802309781F090914B
:10120000410280914302981750F480914102E80F07
:10121000F11D2083809141028F5F80934102909164
:10122000410280914302981731F48091440288234F
:1012300011F010924102FF91EF919F918F912F91A8
:101240000F900BBE0F900FBE0F901F9018951F921E
:101250000F920FB60F920BB60F9211242F938F930C
:101260009F93EF93FF932091CE00E0915102F09174
:101270005202309781F090914B0280914D02981765
:1012800050F480914B02E80FF11D208380914B02B6
:101290008F5F80934B0290914B0280914D02981783
:1012A00031F480914E02882311F010924B02FF918D
:1012B000EF919F918F912F910F900BBE0F900FBECA
:1012C0000F901F901895CF93DF93382F90E0FC017B
:1012D00053E0EE0FFF1F5A95E1F7880F991FE80FB3
:1012E000F91FE15CFD4FA681B781109709F464C036
:1012F000832F90E0FC0123E0EE0FFF1F2A95E1F71A
:10130000880F991FE80FF91FE15CFD4F2181832FA2
:1013100090E0FC0163E0EE0FFF1F6A95E1F7880F94
:10132000991FE80FF91FE15CFD4F8381281708F032
:1013300043C0332319F0E8ECF0E002C0E0ECF0E049
:10134000808185FF39C0332319F0CEECD0E002C094
:10135000C6ECD0E0832F90E0FC0143E0EE0FFF1FCE
:101360004A95E1F7880F991FE80FF91FE15CFD4FDF
:101370008181A80FB11D8C918883832F90E0FC019F
:1013800073E0EE0FFF1F7A95E1F7880F991FE80FC2
:10139000F91FE15CFD4F21812F5F832F90E0FC015D
:1013A00053E0EE0FFF1F5A95E1F7880F991FE80FE2
:1013B000F91FE15CFD4F2183832F90E0FC01B3E036
:1013C000EE0FFF1FBA95E1F7880F991FE80FF91F7D
:1013D000E15CFD4F86819781892B09F443C0832FFF
:1013E00090E0FC0173E0EE0FFF1F7A95E1F7880FA4
:1013F000991FE80FF91FE15CFD4F2181832F90E0D9
:10140000FC0153E0EE0FFF1F5A95E1F7880F991F7B
:10141000E80FF91FE15CFD4F8381281718F5832F32
:1014200090E0FC01B3E0EE0FFF1FBA95E1F7880FE3
:10143000991FE80FF91FE15CFD4F8081882391F42B
:10144000332319F0E9ECF0E002C0E1ECF0E0808138
:10145000806204C0E9ECF0E080818F7D8083DF91C1
:10146000CF9108953323B1F7E1ECF0E0F5CF282FC9
:1014700090E0FC0153E0EE0FFF1F5A95E1F7880F53
:10148000991FE80FF91FE15CFD4F77836683822F78
:1014900090E0FC01B3E0EE0FFF1FBA95E1F7880F73
:1014A000991FE80FF91FE15CFD4F1182822F90E038
:1014B000FC0173E0EE0FFF1F7A95E1F7880F991F8B
:1014C000E80FF91FE15CFD4F4383223009F449C066
:1014D000822F90E0FC0153E0EE0FFF1F5A95E1F7D9
:1014E000880F991FE80FF91FE15CFD4F86819781F6
:1014F000892B91F1822F90E0FC01B3E0EE0FFF1FEA
:10150000BA95E1F7880F991FE80FF91FE15CFD4FCD
:101510008181841708F5822F90E0FC0173E0EE0FC3
:10152000FF1F7A95E1F7880F991FE80FF91FE15C1B
:10153000FD4F8081882381F4222319F0E9ECF0E04B
:1015400002C0E1ECF0E08081806204C0E9ECF0E0F0
:1015500080818F7D808308952223C1F7E1ECF0E044
:10156000F7CF08950E94370A08951F920F920FB681
:101570000F920BB60F9211242F933F934F935F93CB
:101580006F937F938F939F93AF93BF93EF93FF934B
:1015900080E00E946309FF91EF91BF91AF919F910D
:1015A0008F917F916F915F914F913F912F910F900C
:1015B0000BBE0F900FBE0F901F9018951F920F92A9
:1015C0000FB60F920BB60F9211242F933F934F93A8
:1015D0005F936F937F938F939F93AF93BF93EF939B
:1015E000FF9381E00E946309FF91EF91BF91AF915A
:1015F0009F918F917F916F915F914F913F912F912B
:101600000F900BBE0F900FBE0F901F901895982F44
:10161000823071F0882319F0E9ECF0E002C0E1ECCF
:10162000F0E080818F7D8083892F0E946309089577
:10163000E0915902F0915A023097B1F09091540222
:1016400080915602981780F406C0809154028F5FF3
:1016500080935402EDCF80915402E80FF11D8081F8
:101660000E94C40D882389F708950F931F93CF9389
:10167000DF93682F823009F49CC0882319F0E9ECCD
:10168000F0E002C0E1ECF0E080818F778083462FAC
:1016900050E0DA01AA0FBB1FCA0123E0880F991F8F
:1016A0002A95E1F7A80FB91FA15CBD4F1896CD91FF
:1016B000DC911997209709F45AC0FA01EE0FFF1F29
:1016C000EE0FFF1FE40FF51FEE0FFF1FEF5BFD4F47
:1016D000808114962C91821708F049C0662319F076
:1016E000E8ECF0E002C0E0ECF0E0808187FF3FC072
:1016F000662319F4E6ECF0E002C0EEECF0E0908135
:10170000FA01EE0FFF1FEE0FFF1FE40FF51FEE0FA4
:10171000FF1FEF5BFD4F8081821738F48081C80F77
:10172000D11D988380818F5F8083FA01EE0FFF1FA8
:10173000EE0FFF1FE40FF51FEE0FFF1FEF5BFD4FD6
:101740008081DA01AA0FBB1F9A0113E0220F331F19
:101750001A95E1F7A20FB31FA15CBD4F14969C919F
:101760001497891721F415968C9181111082FA0132
:10177000A3E0EE0FFF1FAA95E1F7440F551FE40FFA
:10178000F51FE15CFD4F8081882309F059C0662375
:1017900019F0E9ECF0E002C0E1ECF0E08081806853
:1017A00080834EC080915802882319F01092550210
:1017B00047C080915B0290915C02892B09F440C084
:1017C00090915502809157029817D0F5809175023B
:1017D0008823A9F40E94360E8093750210E00BC096
:1017E0000E94D40DE02FF0E03197E11BF109EA5897
:1017F000FD4F80831F5F00917502101788F3E09101
:101800007502EE23E9F080915502A0915B02B09140
:101810005C02A80FB11DE150E0937502F0E0EA58B8
:10182000FD4F80818C93809155028F5F809355028C
:101830009091550280915702981709F0BACFB2CF14
:10184000DF91CF911F910F91089580E00E94070BC7
:1018500081E00E94070B82E00E94070B80E00E945B
:10186000350B81E00E94350B82E00E94350B089514
:101870001F93182F0E94370A02C00E94250C812F47
:1018800090E0FC0173E0EE0FFF1F7A95E1F7880FFF
:10189000991FE80FF91FE15CFD4F2181812F90E036
:1018A000FC0153E0EE0FFF1F5A95E1F7880F991FD7
:1018B000E80FF91FE15CFD4F83812817F1F61F91B6
:1018C00008950E94380C0895A0E0B0E0EAE6FCE03C
:1018D0000C94AD0F082F79010E9457080E944A0D01
:1018E0004B015C0110E0E801CC0FDD1FCC0FDD1FC8
:1018F000C00FD11FCC0FDD1FCF5BDD4F6801F3E0C0
:10190000CC0CDD1CFA95E1F7000F111FC00ED11EA3
:1019100083E492E0C80ED91E00E010E00E94250C7E
:101920009881F6018081981711F480E00CC00E9424
:101930004A0D681979098A099B096E157F05800788
:10194000910760F381E0CDB7DEB7ECE00C94C90FEE
:101950000E94640C08950E94250C08952F928F9385
:101960009F932FB680917F02909180020196809381
:101970007F029093800290E080918102891F809382
:101980008102909187029C5F9093870280918602EA
:1019900080519742C0F09093870280938602809195
:1019A0008202909183020196809382029093830237
:1019B00090E080918402891F809384028091850247
:1019C000891F809385022FBE9F918F912F9018952C
:1019D0006F5F7F4F8F4F9F4F660F771F881F991F35
:1019E00025E030E040E050E00E94850FCA01B901D7
:1019F000089528EE33E009C0F9016F9364E06A9519
:101A0000F1F76F913197C9F701970097A9F70895FA
:101A10006F5F7F4F8F4F9F4F660F771F881F991FF4
:101A200025E030E040E050E00E94850FCA01B90196
:101A3000089528EE33E009C0F9016F9364E06A95D8
:101A4000F1F76F913197C9F701970097A9F70895BA
:101A5000A0E7B0E08C918E7F8C93E0EBF0E080818A
:101A600083608083E1EBF0E08081807F80838081F0
:101A700082608083B89A8C9181608C937894089569
:101A800080918802882329F481E0809388020E9453
:101A9000280D08950E94400DE0E7F0E080818E7FE0
:101AA0008083209182023091830240918402509180
:101AB0008502808181608083B901CA0108950E94F6
:101AC0004A0D08950E94400D809170008E7F809392
:101AD00070006091B20080917E0290917F02A0918F
:101AE0008002B0918102B89905C0262F30E040E015
:101AF00050E011C08091B20020917E0230917F02AF
:101B0000409180025091810220503F4F4F4F5F4FD4
:101B100090E0A0E0B0E0282B392B4A2B5B2B809182
:101B20007000816080937000B901CA0108950E941D
:101B3000620D08950E94400DE0E7F0E080818E7F05
:101B4000808310928202109283021092840210927B
:101B500085021092870210928602808181608083C4
:101B600008950E949A0D0895982F80919F028917D9
:101B700039F090939F02892F806C65E00E941C0FC2
:101B800008950E94B40D08951F93182F881F882769
:101B9000881F8C5765E00E941C0F812F8F7765E0AE
:101BA0000E941C0F1F9108958FEF64E00E941C0F8C
:101BB0000895CF93DF930E944A0D209161023091E6
:101BC00062024091630250916402621773078407B6
:101BD0009507B9F081E867E00E941C0FC2E9D2E0E6
:101BE0000E94D40D899382E0CF39D807C9F70E94AB
:101BF0004A0D609361027093620280936302909336
:101C00006402DF91CF9108950E94D90D80919202D4
:101C100008950E94040E08950E94D90D80919902A2
:101C200090919A0208950E94D90D80919702909107
:101C3000980208950E94D90D809195029091960284
:101C400008950E94D90D8091930290919402089575
:101C50000E94D90D80919D0290919E0208950E944C
:101C6000D90D80919B0290919C02089583E867E0D2
:101C70000E941C0F0E94D40D0895A5E0B0E0E3E49B
:101C8000FEE00C94B60F82E866E00E941C0F0E94F2
:101C9000D40D80938D020E94D40D80938E020E94F9
:101CA000D40D80938F020E94D40D809390021091E6
:101CB00091020E94D40D182B10939102DE0111960F
:101CC000EDE8F2E085E001900D928150E1F7298185
:101CD0003A814B815C816D8170E090E02596E3E074
:101CE0000C94D20F0E944A0D20915D0230915E0249
:101CF00040915F0250916002621773078407950755
:101D000061F00E943D0E0E944A0D60935D02709347
:101D10005E0280935F029093600208950E94720EAB
:101D20008091910281FD02C080E008958D7F8093B3
:101D3000910281E008950E948E0E08950E94720E15
:101D40008091910280FD02C080E008958E7F809393
:101D5000910281E008950E949E0E08950E94720EE5
:101D600020918F023091900280918B0290918C0291
:101D7000281B390BC90108950E94AE0E20918F02D5
:101D80003091900230938C0220938B0208950E9430
:101D9000BC0E08950E94AE0E08950E94720E20910E
:101DA0008D0230918E028091890290918A02281BC7
:101DB000390BC90108950E94CD0E20918D023091FA
:101DC0008E0230938A022093890208950E94DB0ECE
:101DD00008950E94CD0E089580E865E00E941C0FD2
:101DE0000E94D40D08950E94EC0E0895982F249916
:101DF0000CC02C990AC02C9AEEE1F0E06F9364E0DD
:101E00006A95F1F76F913197C9F784B1806A84B907
:101E10002698892F837080656C7A862B8CBD892FDC
:101E200090E0969587959695879581708DBD81E018
:101E300090E00E94190D08950F931F93082F162FFD
:101E40000CB406FC04C080E064E00E94F60E0CB402
:101E500004FC03C08CB580618CBD0EBD05C00CB404
:101E600004FC02C080E00FC00DB407FEF8CF1123C0
:101E700049F0812F90E06F9364E06A95F1F76F91DC
:101E80000197C9F78EB51F910F91089560E00E94E8
:101E90001C0F08950E94460F08950E941C0F08957C
:101EA0000E94F60E0895629FD001739FF001829FF9
:101EB000E00DF11D649FE00DF11D929FF00D839FD9
:101EC000F00D749FF00D659FF00D9927729FB00D76
:101ED000E11DF91F639FB00DE11DF91FBD01CF0189
:101EE0001124089597FB092E07260AD077FD04D008
:101EF00065D006D000201AF4709561957F4F089543
:101F0000F6F7909581959F4F0895A1E21A2EAA1B8E
:101F1000BB1BFD010DC0AA1FBB1FEE1FFF1FA21799
:101F2000B307E407F50720F0A21BB30BE40BF50B96
:101F3000661F771F881F991F1A9469F7609570951F
:101F4000809590959B01AC01BD01CF0108952F9222
:101F50003F924F925F926F927F928F929F92AF9239
:101F6000BF92CF92DF92EF92FF920F931F93CF9386
:101F7000DF93CDB7DEB7CA1BDB0B0FB6F894DEBF1D
:101F80000FBECDBF09942A88398848885F846E8443
:101F90007D848C849B84AA84B984C884DF80EE808D
:101FA000FD800C811B81AA81B981CE0FD11D0FB696
:101FB000F894DEBF0FBECDBFED010895AA1BBB1B79
:101FC00051E107C0AA1FBB1FA617B70710F0A61B39
:101FD000B70B881F991F5A95A9F780959095BC015A
:101FE000CD010895CF93DF93BC018230910510F4A9
:101FF00062E070E0A091A202B091A302ED01E0E0E6
:10200000F0E040E050E021C0888199818617970771
:1020100069F48A819B81309719F09383828304C08D
:102020009093A3028093A202FE0134C0681779073F
:1020300038F44115510519F08417950708F4AC01DF
:10204000FE018A819B819C01E9012097E9F64115F7
:102050005105A9F1CA01861B970B049708F4BA0130
:10206000E0E0F0E02AC08D919C91119784179507CC
:10207000F9F46417750781F412968D919C9113976A
:10208000309719F09383828304C09093A3028093C6
:10209000A202FD0132964FC0CA01861B970BFD01BB
:1020A000E80FF91F6193719302978D939C9343C03E
:1020B000FD01828193819C01D9011097A1F6809145
:1020C000A0029091A102892B41F480916702909126
:1020D00068029093A1028093A002409169025091FE
:1020E0006A024115510541F44DB75EB78091650212
:1020F00090916602481B590B2091A0023091A102D9
:1021000024173507B0F4CA01821B930B8617970773
:1021100080F0AB014E5F5F4F8417950750F0420F80
:10212000531F5093A1024093A002F9016193719350
:1021300002C0E0E0F0E0CF01DF91CF910895CF93AE
:10214000DF93009709F450C0EC0122971B821A829A
:10215000A091A202B091A302109709F140E050E0D3
:10216000AC17BD0708F1BB83AA83FE012191319111
:10217000E20FF31FAE17BF0779F48D919C91119771
:10218000280F391F2E5F3F4F3983288312968D9178
:102190009C9113979B838A834115510571F4D093C9
:1021A000A302C093A20220C012968D919C91139716
:1021B000AD01009711F0DC01D3CFFA01D383C283C4
:1021C00021913191E20FF31FCE17DF0769F4888167
:1021D0009981280F391F2E5F3F4FFA0131832083E9
:1021E0008A819B8193838283DF91CF9108950F939E
:1021F0001F93CF93DF938C01EB01009731F46115AE
:10220000710519F420E030E038C081E090E06EE024
:1022100070E00E944311FC019C01009771F180E87D
:102220008383209771F0D387C28781E8838380916D
:10223000A4029091A502892B21F4F093A502E093CA
:10224000A40201151105C9F01187008783818260FE
:1022500083838091A6029091A702892B71F4F09359
:10226000A702E093A6028091A8029091A902892B6F
:1022700021F4F093A902E093A802C901DF91CF9164
:102280001F910F9108950F931F93CF93DF93689F32
:102290008001699F100D789F100D1124C8010E94C4
:1022A000F20FEC01009729F060E070E0A8010E94B5
:1022B0005F11CE01DF91CF911F910F910895DC0145
:1022C00001C06D9341505040E0F70895F894FFCF5E
:1022D00048656C6C6F2C2044617665210043686F03
:1022E0006F7365204D6F746F7220446972656374FB
:1022F000696F6E3A2046203D20666F727761726486
:102300002C2042203D206261636B7761726400463D
:1023100000420045525200496E707574204D6F7432
:102320006F722044656C617920286D73293A2049C9
:102330006E746567657220303030322D3130303048
:1023400000496E7075742054696D6520286D73297D
:102350003A20496E746567657220312D39393939F3
:10236000000A0A0A0A0A48656C6C6F2C20446176E0
:1023700065210D0A0043686F6F7365204D6F746FA0
:102380007220446972656374696F6E3A2046203D1D
:1023900020666F72776172642C2042203D2062615A
:1023A000636B776172640A0D0A00005365742074D0
:1023B0006F3A0D0A00000A496E707574204D6F74F3
:1023C0006F722044656C617920286D73293A204929
:1023D0006E746567657220303030322D31303030A8
:1023E0000A0D0A00000A496E7075742054696D6503
:1023F00020286D73293A20496E7465676572203014
:102400003030312D393939390A0D0A0000021000F7
:1024100000000000000000000000000000000000BC
:1024200000000001000000000000000000FFFFFFAE
:0C243000FFFFFFFFFF2000AA02000000D9
:00000001FF
