:100000000C9476000C9495000C9495000C9495003B
:100010000C9495000C9495000C9495000C9495000C
:100020000C9495000C9495000C9495000C94ED1E86
:100030000C9495000C9495000C9495000C949500EC
:100040000C9495000C9495000C9495000C949500DC
:100050000C942A1B0C94F41C0C9495000C949500A1
:100060000C9495000C9495000C9495000C949500BC
:100070000C94661B0C941D1D0C9495000C9495001B
:100080000C9495000C9495000C9495001E0C370C64
:10009000520C6F0C8E0CAA0CC80CE90C0B0D150D34
:1000A000190D250D290D330D370D420D460D510D3E
:1000B000550D600D640D6F0D730D820D880D970D3C
:1000C0009B0DA60DAA0DB50DB90DC30DC70DD10D14
:1000D000D50DE10DE70DF70D010E170E210E370EB0
:1000E000410E570E610E770E810E8E0E11241FBE2B
:1000F000CFEFD0E4DEBFCDBF18E0A0E0B1E0E0EB91
:10010000F7E400E00BBF02C007900D92A03BB107DF
:10011000D9F718E0A0EBB8E001C01D92A93FB107E4
:10012000E1F70E94A5080C94D6230C9400001092CD
:10013000B9008CE08093B8000895982F84EA8093EA
:10014000BC008091BC0087FFFCCF8091B900887F04
:10015000883021F0803111F081E008959093BB0048
:1001600084E88093BC008091BC0087FFFCCF909115
:10017000B900987F983111F480E0089580E09034C0
:1001800009F081E00895982F44EA34E824E9409387
:10019000BC008091BC0087FFFCCF8091B900887FB4
:1001A000883011F0803199F79093BB003093BC00F8
:1001B0008091BC0087FFFCCF8091B900887F80329E
:1001C00011F0883539F42093BC008091BC0084FD87
:1001D000FCCFDDCF08950E949D00089584E98093AF
:1001E000BC008091BC0084FDFCCF08958093BB00CF
:1001F00084E88093BC008091BC0087FFFCCF809195
:10020000B90090E0887F883209F091E0892F089545
:1002100084EC8093BC008091BC0087FFFCCF809170
:10022000BB00089584E88093BC008091BC0087FFE8
:10023000FCCF8091BB000895482F883058F481E0AE
:1002400090E002C0880F991F4A95E2F7982FE9E2E3
:10025000F0E036C0803178F4282F30E0285030406C
:1002600081E090E002C0880F991F2A95E2F7982F4D
:10027000E3E2F0E025C0883178F4282F30E0205107
:10028000304081E090E002C0880F991F2A95E2F784
:10029000982FE6E2F0E014C0803220F090E0E0E039
:1002A000F0E00EC02FE130E0281B310981E090E042
:1002B00002C0880F991F2A95E2F7982FE0E2F0E03C
:1002C0008081892308950F931F93CF93DF93BC01FF
:1002D000EA01F901D8018C30910509F482C08D3012
:1002E0009105A4F489309105A1F18A3091052CF48F
:1002F0008830910509F011C122C08A30910509F4B6
:100300004AC08B30910509F008C166C08F30910555
:1003100009F49CC0803191054CF48D30910509F4AD
:100320007CC08E30910509F0F8C07FC08031910506
:1003300009F4B5C08131910509F0EFC0CDC08091BD
:10034000EE0880638093EE0881E090E091838083E3
:10035000E2C08091EC0880628F7B8093EC088091F2
:10036000EA0880618093EA088091EE0880688093B3
:10037000EE088091E90881608093E90880EA9FE0B7
:10038000909315048093140481E090E08D939C93E6
:1003900011821082C2C08091EA088F7E8093EA08A1
:1003A0008AEF90E090931504809314048091EC08F8
:1003B00080648F7D8093EC088091EE088068809344
:1003C000EE0885E090E0909303048093020470931C
:1003D0000D0460930C041EC08091EE0880628F7E35
:1003E00072C08091EC0880628F7B8093EC088091D2
:1003F000EE0880688093EE0881E090E0909303041B
:100400008093020482E090E090930D0480930C04AA
:10041000118210821D921C9280C08091EE08806330
:100420008093EE0881E090E054C080EA9FE09093D2
:100430001504809314048091EA0880618093EA088F
:100440008091EC0880648093EC0822C08AEF90E0F1
:10045000909315048093140485E090E09093030436
:10046000809302048AE090E090930D0480930C0442
:100470008091EA088F7E8093EA089091EE089F773A
:100480008091EC0880648093EC0890629093EE0871
:100490001182108281E090E08D939C933EC085E0B4
:1004A00090E090930304809302048AE090E090939C
:1004B0000D0480930C048091EC088F7D8093EC08F0
:1004C0008091EE0880628093EE0881E090E08D9349
:1004D0009C939183808321C081E090E090930304FA
:1004E0008093020482E090E090930D0480930C04CA
:1004F0008091EC088F778093EC088091EA08816006
:100500008093EA088091E908877F8093E9081D922B
:100510001C921182108219821882DF91CF911F9153
:100520000F910895EF92FF92F901D701873191055C
:1005300009F477C088319105B4F48431910509F448
:1005400048C0853191053CF48231910519F14397FA
:1005500009F0D5C02AC08531910509F493C04697AA
:1005600009F0CDC04FC08A31910509F48BC08B31A1
:10057000910544F48831910509F461C0499709F067
:10058000BEC069C08B31910509F486C04C9709F053
:10059000B6C0A2C08AEF90E0909315048093140433
:1005A0008091EE088F7E806245C080EA9FE0909344
:1005B0001504809314048091EE088F7C8093EE08DC
:1005C0008091EC0880688093EC088091EA088E7F27
:1005D00038C08AEF90E090931504809314048091C2
:1005E000EE0880628093EE088091EA088F7D81603A
:1005F0008093EA088091EC088F778093EC081D9235
:100600001C921AC08091EA088E7F8093EA0880913C
:10061000EC0880688093EC08118210821D921C9275
:100620006EC08AEF90E0909315048093140480913B
:10063000EE0880638093EE0881E090E05EC08091D8
:10064000EA0880628093EA088091E90888608B7FDD
:100650008093E90810C08091E9088B7F8093E908B6
:100660008091EA088F7D81608093EA088091EC0890
:100670008F778093EC081182108281E090E08D9357
:100680009C933DC08091EE0880628093EE0881E0EB
:1006900090E08D939C9331C081E090E090930304AF
:1006A0008093020482E090E090930D0480930C0408
:1006B0008091EA088E7F8093EA088091EC08806838
:1006C0008093EC088091E908877F8093E9081D9268
:1006D0001C921182108213C081E090E09093030479
:1006E0008093020422E030E030930D0420930C0448
:1006F0002091EE0820632093EE0891838083FF9081
:10070000EF900895CF92DF92CF93DF93EA01F90142
:10071000D6018032910509F45FC0813291055CF405
:100720008E31910551F18F3191050CF03EC04D97FE
:1007300009F090C010C08232910509F45FC0823286
:1007400091050CF452C08332910509F462C084977C
:1007500009F080C065C081E090E09093030480932D
:10076000020422E030E030930D0420930C04209129
:10077000EE0820612093EE0849C09091EA0880912C
:10078000EE088F7E80628093EE088091E908806495
:100790008F7D8093E908937F9093EA0881E090E051
:1007A000918380838D939C9355C09091EA088091AA
:1007B000EE0880628093EE088091E9088F7B809339
:1007C000E9089C609D7F9093EA0881E090E0918326
:1007D00080831D921C923EC08091EA0882608093C3
:1007E000EA088091EE0880620DC08091EC0880617B
:1007F000877F8093EC08118210822CC08091EE08D4
:100800008F7E84628093EE0881E090E09183808304
:1008100021C08091EC0888608F7E8093EC081AC01C
:100820008091EC0888608F7E8093EC088091E808C6
:1008300081FD07C08091EE088F7D8093EE081182C4
:1008400010828091EE088D7F8093EE0881E090E029
:1008500099838883DF91CF91DF90CF9008950F9394
:100860001F93CF93DF938C01EB0188819981892BB2
:1008700069F480E00E941C01882341F01093B308C2
:100880000093B20881E090E0998388838881998100
:10089000019739F58091B2089091B3089801281B0F
:1008A000390B609114047091150488E99AE30E9451
:1008B000B1216217730774F480E00E941C01882341
:1008C00081F41093B1080093B00882E090E099831E
:1008D000888307C080E00E941C01882311F41982DC
:1008E000188288819981029719F580E00E941C0185
:1008F000882349F081E090E0998388831093B308BE
:100900000093B20815C08091B0089091B108081BFF
:10091000190B609114047091150488E99AE30E9400
:10092000B1216017710724F41982188281E001C097
:1009300080E0DF91CF911F910F910895CF93DF93C6
:10094000FC01862FDA01B901309719F4882381F16F
:1009500077C0E130F10529F48091E80880FD30C0CE
:100960006FC0E230F105B1F4421B530B209120041B
:100970003091210480910A0490910B04EC012C9F8A
:10098000C0012D9F900D3C9F900D11248417950759
:10099000ACF556C0E330F10559F49A01261B370B2C
:1009A0008091FA039091FB0382179307ACF548C03E
:1009B000E430F10529F48091E8088695869526C0F3
:1009C000E530F105D9F440E050E0A61BB70B80916B
:1009D00022049091230420910C0430910D04BC0159
:1009E000629FC001639F900D729F900D11248A1722
:1009F0009B0714F441E050E0CA0124C0E630F10541
:100A000059F48091E80886958695869591E0892726
:100A100090E08170907016C0379719F080E090E0F8
:100A200011C020E030E0A61BB70B8091FA03909133
:100A3000FB038A179B0714F421E030E0C90102C0D0
:100A400081E090E0DF91CF910895CF93DF93FC0197
:100A5000DA018830910529F48091E80884FD37C0D7
:100A60008DC08930910559F49B01241B350B809171
:100A7000FC039091FD0382179307BCF57FC08A3079
:100A8000910559F49B01241B350B8091FA03909139
:100A9000FB03821793078CF571C08B309105B9F475
:100AA000AB014A1B5B0B2091180430911904809113
:100AB0000C0490910D04EC012C9FC0012D9F900D12
:100AC0003C9F900D1124841795071CF557C0EC30FE
:100AD000F10559F49B012A1B3B0B8091FA0390917D
:100AE000FB0382179307C4F449C0ED30F10529F4E4
:100AF0008091E80884FD2EC041C0EE30F10549F434
:100B000020E030E06A1B7B0B8091FC039091FD0399
:100B10002EC0EF30F10519F1E031F105D9F440E0D4
:100B200050E06A1B7B0B80911A0490911B0420916A
:100B30000C0430910D04FC01E29FC001E39F900D75
:100B4000F29F900D11248617970714F441E050E0AE
:100B5000CA0116C0719719F080E090E011C020E042
:100B600030E06A1B7B0B8091FA039091FB038617A0
:100B7000970714F421E030E0C90102C081E090E061
:100B8000DF91CF910895CF93DF93FC01DA01823199
:100B9000910529F48091E80885FD37C09DC0833117
:100BA000910559F49B01241B350B8091FC03909116
:100BB000FD0382179307BCF58FC08431910559F46A
:100BC0009B01241B350B8091FA039091FB03821744
:100BD00093078CF581C085319105B9F4AB014A1BAF
:100BE0005B0B20911A0430911B0480910C049091AE
:100BF0000D04EC012C9FC0012D9F900D3C9F900D8A
:100C000011248417950724F567C0E631F10559F4DE
:100C10009B012A1B3B0B8091FA039091FB038217E7
:100C20009307CCF459C0E731F10529F48091E80825
:100C300085FD2FC051C0E831F10551F46A1B7B0BD3
:100C40008091FC039091FD0386179707A4F544C09B
:100C5000E931F10509F1EA31F105D9F440E050E05C
:100C60006A1B7B0B809118049091190420910C044D
:100C700030910D04FC01E29FC001E39F900DF29FB3
:100C8000900D11248617970714F441E050E0CA0133
:100C900025C0EB31F10579F420E030E06A1B7B0BD5
:100CA0008091FA039091FB038617970714F421E0D3
:100CB00030E0C90113C07C9719F080E090E00EC0CD
:100CC0008091E808829586958695837091E08927C2
:100CD00090E08170907002C081E090E0DF91CF9150
:100CE0000895CF93DF93FC01DA018D31910559F41A
:100CF0009B01241B350B80912404909125048217BD
:100D00009307ECF57FC08E319105B9F4AB014A1B16
:100D10005B0B20911C0430911D0480910C04909178
:100D20000D04EC012C9FC0012D9F900D3C9F900D58
:100D300011248417950784F565C08F31910529F436
:100D40008091E80883FD33C05DC080329105B9F41D
:100D5000AB014A1B5B0B2091280430912904809140
:100D60000C0490910D04EC012C9FC0012D9F900D5F
:100D70003C9F900D11248417950724F543C0E13260
:100D8000F10551F48091E8088695869591E08927D0
:100D900090E08170907038C0E232F10541F480E05B
:100DA00090E06A1B7B0B693C710574F12BC0E33248
:100DB000F10541F480E090E06A1B7B0B65587340BD
:100DC0001CF120C0B49719F080E090E01DC040E015
:100DD00050E06A1B7B0B80911E0490911F042091B0
:100DE0000A0430910B04EC01C29FC001C39F900D17
:100DF000D29F900D11248617970714F441E050E01C
:100E0000CA0102C081E090E0DF91CF910895AF92D6
:100E1000BF92CF92DF92EF92FF920F931F93CF93E7
:100E2000DF93EA015901FC01E61BF70B60910A040C
:100E300070910B04CF010E94B121209100043091E8
:100E400001048217930734F4CD2B21F08091EE0832
:100E5000816003C08091EE088E7F8093EE086091E0
:100E60000C0470910D04CF010E94B1212091020465
:100E7000309103048217930734F4AB2821F080915A
:100E8000EE08886003C08091EE08877F8093EE08AB
:100E900060910E0470910F04CF010E94B121209146
:100EA0000404309105048217930734F4012B21F0D8
:100EB0008091EE08806403C08091EE088F7B809360
:100EC000EE086091100470911104CF010E94B121CD
:100ED00020910604309107048217930734F4EF2819
:100EE00021F08091E908826003C08091E9088D7F3C
:100EF0008093E9086091120470911304CF010E945D
:100F0000B12120910804309109048217930734F429
:100F1000CD2821F08091E908806103C08091E90823
:100F20008F7E8093E90880E40E949D0082E00E9409
:100F3000F6008091EE080E94F6008091E9080E9478
:100F4000F6000E94EE0082E40E949D0082E00E9472
:100F5000F6008091EC080E94F6008091EA080E9459
:100F6000F6000E94EE00DF91CF911F910F91FF904C
:100F7000EF90DF90CF90BF90AF900895682FE82F4B
:100F8000F92FDF010D900020E9F71197AE1BBF0B81
:100F900082E0792F4A2F0E94A01E0895682FE82F23
:100FA000F92FDF010D900020E9F71197AE1BBF0B61
:100FB00082E0792F4A2F0E94A01E82E060E071E05B
:100FC00042E00E94A01E0895AF92BF92CF93DF939C
:100FD000EA01F9018330910509F464C08430910578
:100FE00054F481309105E1F1823091050CF04BC051
:100FF000892B89F087C08530910509F462C085305E
:1010000091050CF45EC08630910509F464C0079721
:1010100009F078C06DC08091E8089091EE0881FFDA
:1010200004C09F7E9093EE086DC09F7D9093EE0864
:101030008091EC088F7E88608093EC08118210828A
:10104000F5018081882309F45DC080E061E00E94A1
:10105000EB1683E091E00E94CE07F501108252C0AA
:101060002091EC08322F3E7FCB0168EC70E00E94AB
:10107000B1218436910524F42C7F2093EC0803C021
:1010800032603093EC088091EE0886608093EE0821
:101090008091EC088B7F8093EC0881E090E099834D
:1010A000888323C08091EC08817E86618093EC0860
:1010B0008091EE0880628B7F8093EE0819821882FF
:1010C00021C08091EE0880638093EE0881E090E07B
:1010D0009183808317C08091EE088F7D8093EE0806
:1010E0008091EC0888608093EC08118210820AC01D
:1010F0008091EC088F7E8093EC088091EE088062EE
:101100008093EE08DF91CF91BF90AF9008950F9339
:101110001F93DF93CF9300D000D00F92CDB7DEB7EF
:101120008E010F5F1F4FB8014AE050E00E94362346
:10113000C8010E94CE070F900F900F900F900F9054
:10114000CF91DF911F910F9108952F923F924F926F
:101150005F926F927F928F929F92AF92BF92CF9247
:10116000DF92EF92FF920F931F93DF93CF93CDB750
:10117000DEB762970FB6F894DEBF0FBECDBF809189
:101180001804909119042091160430911704AC01B1
:10119000429FC001439F900D529F900D1124909348
:1011A00019048093180480911A0490911B04AC01D7
:1011B000429FC001439F900D529F900D1124909328
:1011C0001B0480931A0480911C0490911D04AC01AF
:1011D000429FC001439F900D529F900D1124909308
:1011E0001D0480931C0480911E0490911F04AC0187
:1011F000429FC001439F900D529F900D11249093E8
:101200001F0480931E048091200490912104AC015E
:10121000429FC001439F900D529F900D11249093C7
:101220002104809320048091220490912304AC0136
:10123000429FC001439F900D529F900D11249093A7
:101240002304809322048091280490912904AC0106
:10125000429FC001439F900D529F900D1124909387
:101260002904809328048091240490912504AC01E2
:10127000429FC001439F900D529F900D1124909367
:101280002504809324048091260490912704AC01C6
:10129000429FC001439F900D529F900D1124909347
:1012A0002704809326048FEF9FEF988B8F871E86ED
:1012B0001B821A821D821C821F821E82198618863A
:1012C0001B861A8681E089831D861C861092EE0893
:1012D00080E88093E9088FEF8093EC088FE080939B
:1012E000EA081092E8081092EB0881E191E00E9470
:1012F000CE0780E061E00E94EB1682E291E00E945E
:10130000CE0780ED97E00E94381F8CE291E00E94AA
:10131000CE0788EE93E00E94381F0E94970083E377
:1013200091E00E94CE0780E40E949D00F82E882361
:1013300019F089E391E002C084E491E00E94CE07B5
:101340000E94EE0082E40E949D00182F882319F06D
:101350008CE491E002C087E591E00E94CE070E94F4
:10136000EE0084E40E949D00082F882319F08FE589
:1013700091E002C08AE691E00E94CE070E94EE0052
:1013800082E791E00E94CE071F29102B61F089E7C8
:1013900091E00E94CE070E94EE0082E891E00E9458
:1013A000CE070C9411158DE891E00E94CE0785E9D7
:1013B00091E00E94CE0780E40E949D0086E00E949A
:1013C000F60080E00E94F60080E00E94F6000E9495
:1013D000EE0080E40E949D0082E00E94F600809171
:1013E000EE080E94F6008091E9080E94F6000E9433
:1013F000EE0082E40E949D0082E00E94F60080914F
:10140000EC080E94F6008091EA080E94F6000E9413
:10141000EE0082E40E949D0086E00E94F60080E0DB
:101420000E94F60080E00E94F6000E94EE0080918B
:10143000E9088F778093E90880E40E949D0082E0AC
:101440000E94F6008091EE080E94F6008091E90863
:101450000E94F6000E94EE0088EE93E00E94381F82
:101460008CE991E00E94CE0783E00E941C0100E01D
:1014700010E0882311F401E010E0EE24FF2483E063
:101480000E941C0190E00817190749F0012B19F47C
:101490008CEA91E002C082EB91E00E94CE0783E0EB
:1014A0000E941C01082FC701BE01645F7F4F0E948C
:1014B0002F04182F0E94EA1E8091140490911504A5
:1014C0006F9364E06A95F1F76F910197C9F7112363
:1014D00029F410E00894E11CF11CD1CF83E00E94B4
:1014E0001C01882309F452C48CEA91E00E94CE07C3
:1014F00088EE93E00E94381F88249924662477247C
:1015000044245524BB24B39422242A94322C84E40A
:101510000E949D0080E00E94F60085E40E949D00EC
:101520000E9408018093E8080E9412018093EB0852
:101530000E94EE00C301BE01645F7F4F0E942F0432
:10154000182F81E00E941C018823C1F482E00E94D0
:101550001C01882399F42114310481F086EB91E079
:101560000E94CE0780E061E00E94EB168824992457
:1015700091E09E87BB24B3942224332481E00E940F
:101580001C018823D9F082E00E941C018823B1F459
:1015900021E02216310491F08EEB91E00E94CE07FB
:1015A00080E061E00E94EB16B8E08B2E912C31E0D8
:1015B0003E87BB24B394A1E02A2E312C81E00E9407
:1015C0001C01882301F582E00E941C018823D9F0C8
:1015D00042E024163104B9F086EC91E00E94CE0777
:1015E00080E061E00E94EB168091EE0884608093B9
:1015F000EE08F4E28F2E912C51E05E87BB24B39469
:10160000E2E02E2E312C81E00E941C01882321F182
:1016100082E00E941C018823F9F083E0281631043F
:10162000D9F08EEC91E00E94CE0780E061E00E944C
:10163000EB168091EE0880628093EE088091E908B5
:1016400081608093E9087EE2872E912CBB24B394BD
:1016500063E0262E312C03C09E859923C9F01B829E
:101660001A821D821C821F821E82198618861B8682
:101670001A868FEF8093EC088FE08093EA08C1010F
:101680000297029720F01092EE081092E9081E8649
:10169000112309F4C6C028E08216910474F480E096
:1016A00061E00E94EB160894811C911C38E08316BF
:1016B000910409F0ADC00C94171544E2841691040E
:1016C000CCF480FC09C08DE061E00E94EB168AED4D
:1016D00091E00E94CE0704C080E061E00E94EB161A
:1016E0000894811C911C54E28516910409F096C05F
:1016F0000C941B1584010F5F1F4F8EE28816910416
:101700000CF05DC080FC09C08BE061E00E94EB162C
:101710008EED91E00E94CE0713C00A32110571F1DF
:101720000B3211053CF40632110561F00832110547
:1017300039F414C00C32110569F10E321105B1F102
:1017400048016CC080E061E00E94EB168091EE08D9
:101750008B7F80628093EE08230155C280E061E0B8
:101760000E94EB168091EE088F7D8093EE088091A9
:10177000E90881608093E908230165C280E061E0A7
:101780000E94EB168091E9088E7F88608093E908BB
:10179000230179C280E061E00E94EB168091E908A4
:1017A000877F80648093E90823018DC28091E908D6
:1017B0008F7B8093E9081B861A860C941B154801C1
:1017C0000F32110521F00033110541F511C080E001
:1017D00061E00E94EB169091E9089E7F8091EE08EF
:1017E00080628093EE0898609093E908230198C284
:1017F0008091EE088F7D8093EE088091E908877FC5
:101800008093E9081D821C82198618860C941B158A
:1018100023014FEF5FEF588B4F8701C02301BB249B
:10182000B394F401E033F10508F08CC2EA5BFF4F9A
:10183000EE0FFF1F0590F491E02D0994BB2021F0DD
:1018400084EE91E00E94CE078FE061E00E94EB16EB
:101850008091E808817090E02F8538892817390732
:1018600009F46FC20E9487088091E808B0C0BB20CD
:1018700021F08DEE91E00E94CE078FE061E00E94A2
:10188000EB168091E8088695817090E02F85388965
:101890002817390709F455C20E9487088091E80883
:1018A000869595C0BB2021F086EF91E00E94CE077F
:1018B0008FE061E00E94EB168091E808869586959E
:1018C000817090E02F8538892817390709F439C2CB
:1018D0000E9487088091E8088695869578C0BB208D
:1018E00021F08FEF91E00E94CE078FE061E00E942F
:1018F000EB168091E808869586958695817090E034
:101900002F8538892817390709F41BC20E948708D8
:101910008091E80886958695869559C0BB2021F070
:1019200088E092E00E94CE078FE061E00E94EB1613
:101930008091E8088295817090E02F85388928177A
:10194000390709F4FEC10E9487088091E808829552
:101950008F703DC0BB2021F081E192E00E94CE0754
:101960008FE061E00E94EB168091E80882958695F1
:10197000817090E02F8538892817390709F4E1C173
:101980000E9487088091E8088295869587701FC01D
:10199000BB2021F08AE192E00E94CE078FE061E057
:1019A0000E94EB168091E808829586958695817055
:1019B00090E02F8538892817390709F4C2C10E94A1
:1019C00087088091E8088295869586958370817056
:1019D0001DC0BB2021F083E292E00E94CE078FE081
:1019E00061E00E94EB168091E808881F8827881F15
:1019F00090E02F8538892817390709F4A2C10E9481
:101A000087088091E808881F8827881F482F50E0A2
:101A1000588B4F8796C1BB2021F08CE292E00E9448
:101A2000CE078091EC088E7F0DC08091EC0881601C
:101A30006CC0BB2021F08DE392E00E94CE07809124
:101A4000EC088D7F8093EC087CC18091EC0882606B
:101A50005CC0BB2021F08FE492E00E94CE07809111
:101A6000EC088B7FEFCF8091EC0884604EC0BB20E8
:101A700021F080E692E00E94CE078091EC08877FFB
:101A80008061E0CF8091EC0888603FC0BB2021F0EE
:101A900081E792E00E94CE078091EC0888608F7EFB
:101AA000D1CF8091EC08806130C0BB2021F082E86A
:101AB00092E00E94CE078091EC088F7D8064C2CFB7
:101AC0008091EC08806221C0BB2021F083E992E084
:101AD0000E94CE078091EC088F7B8062B3CF80910B
:101AE000EC08806412C0BB2021F084EA92E00E94DE
:101AF000CE078091EC088F778093EC088091EA08FC
:101B000081605CC08091EC0880688093EC081AC109
:101B1000BB2021F085EB92E00E94CE078091EA087D
:101B20008E7F8093EA088091EC0880688BCF80914B
:101B3000EA08816049C0BB2021F086EC92E00E9457
:101B4000CE078091EA088B7F826038C08091EA08D6
:101B500084603AC0BB2021F087ED92E00E94CE075E
:101B60008091EA088D7F846029C08091EA088260B4
:101B70002BC0BB2021F088EE92E00E94CE0780911E
:101B8000EA08877F1BC08091EA0888601DC0BB20DF
:101B900021F089EF92E00E94CE078091EA088061EF
:101BA0000DC08091EA088F7E0FC0BB2021F08BE032
:101BB00093E00E94CE078091EA0880628093EA0851
:101BC000C0C08091EA088F7D8093EA08BBC0BB202B
:101BD00021F08DE193E00E94CE078091EE088260B3
:101BE0008093EE0881E090E09B838A83AAC0809175
:101BF000EE088D7F8093EE0881E090E09B838A83DE
:101C0000A1C0BB2021F08EE293E00E94CE0780911C
:101C1000EE088F7E8093EE0881E090E09D838C83B8
:101C20001B821A82BB2456E2852E912C8BC0809198
:101C3000EE0880618093EE0881E090E09D838C83C4
:101C400081C0BB2021F08FE393E00E94CE078091FA
:101C5000EE088F778093EE0881E090E09F838E837B
:101C60001D821C82BB2448E2842E912C6BC0809183
:101C7000EE0880688093EE0881E090E09F838E8379
:101C800061C0BB2021F080E593E00E94CE078091E7
:101C9000E9088B7F8093E90881E090E09987888745
:101CA0001F821E82BB243AE2832E912C4BC080916E
:101CB000E90884608093E90881E090E0998788874B
:101CC00041C0BB2021F081E693E00E94CE078091C5
:101CD000E9088F7D8093E90881E090E09B878A87FF
:101CE00019861886BB242CE2822E912C2BC0809161
:101CF000E90880628093E90881E090E09B878A8709
:101D000021C0BB2021F082E793E00E94CE0781E052
:101D100090E09D838C839F838E8313C0BB2021F032
:101D200083E893E00E94CE0781E090E09D838C835E
:101D30001F821E8299878887BB249FE2892E912C5F
:101D400001C0BB244A815B812C813D810E811F81B2
:101D5000E884F984CA84DB84C301B2010E940707C6
:101D60000E94EA1E80911404909115046F9364E020
:101D70006A95F1F76F910197C9F750E385169104C1
:101D800009F435C60894611C711CC1CB84E993E049
:101D90000E94CE0788EE93E00E94381F8BE993E003
:101DA0000E94CE0788EE93E00E94381F81E00E94D7
:101DB0001C01EE24FF24882319F481E0E82EF12C85
:101DC00082E00E941C0100E010E0882311F401E091
:101DD00010E0CC24DD2481E00E941C0190E0E81694
:101DE000F90639F482E00E941C0190E008171907F7
:101DF00059F181E00E941C01882341F482E00E9495
:101E00001C01882319F488EA93E01CC081E00E9439
:101E10001C01882341F082E00E941C01882319F4F0
:101E200080EB93E00FC081E00E941C01882341F405
:101E300082E00E941C01882319F089EB93E002C024
:101E400080EC93E00E94CE0781E00E941C01082FE5
:101E500082E00E941C01182FC601BE01645F7F4F03
:101E60000E942F04E0911404F09115046F9364E034
:101E70006A95F1F76F913197C9F7882341F4E02E05
:101E8000FF24012F10E00894C11CD11CA4CF85ECC5
:101E900093E00E94CE078091EE0880628093EE0866
:101EA00081E00E941C01882309F075C182E00E9434
:101EB0001C01882309F06FC187E060E00E94EB16E7
:101EC00088EA93E00E94CE0781E090E09D838C83B6
:101ED0008091EE0880628093EE088824992466241D
:101EE000772444245524222423943324339484E4F3
:101EF0000E949D0080E00E94F60085E40E949D0003
:101F00000E9408018093E8080E9412018093EB0868
:101F10000E94EE0081149104A9F1332099F186E02A
:101F200061E00E94EB168CEC93E00E94CE0780E00B
:101F300061E00E94EB1682ED93E00E94BE07C401AF
:101F40000E9487088AED93E00E94BE07F401EE0F1D
:101F5000FF1FEF5CF74F808191810E94CE078EEDCD
:101F600093E00E94CE0780EE93E00E94BE0760914E
:101F7000160470911704C3010E94B121CB010E9485
:101F800087083324C301BE01645F7F4F0E942F0482
:101F9000682FC401A30192010E949E04882331F09E
:101FA0000894811C911C230133243394C401B30190
:101FB000A2010E942505882371F00894811C911CC0
:101FC0008CE08816910451F190E18916910431F169
:101FD00023013324339421E18216910471F4930197
:101FE000241935098091FA039091FB038217930716
:101FF000BCF423013324339404C03CE183169104E0
:1020000079F48091E80886FD05C023011DE1812E49
:10201000912C04C0BCE18B2E912C02C0332433944C
:10202000C401B301A2010E947106882331F0089413
:10203000811C911C23013324339445E284169104BE
:1020400041F4C301841995090B971CF0A6E28A2E6E
:10205000912CC401B301AE014E5F5F4F9E012C5F16
:102060003F4F8E010A5F1F4FF8E0EF2EF12CEC0E70
:10207000FD1EEAE0CE2ED12CCC0EDD1E5E010894B2
:10208000A11CB11C0E94E407C401B301AE014E5F64
:102090005F4F9E012C5F3F4F8E010A5F1F4FB8E0DC
:1020A000EB2EF12CEC0EFD1EAAE0CA2ED12CCC0E8C
:1020B000DD1E0E94630151E18516910459F41F82CF
:1020C0001E821D821C828091EC088F7B806280932F
:1020D000EC0812C08CE18816910471F48091EE082E
:1020E00021E030E03D832C8380638093EE08809173
:1020F000E9088E7F8093E908C401B301AE014E5F09
:102100005F4F9E012C5F3F4F8E010A5F1F4FF8E02B
:10211000EF2EF12CEC0EFD1EEAE0CE2ED12CCC0ED3
:10212000DD1E0E94820335E28316910481F441E0B2
:1021300050E05B834A838091EE088B7F8093EE08AA
:10214000222029F089EE93E00E94CE0722244A81C2
:102150005B812C813D810E811F81E884F984CA84D2
:10216000DB84C301B2010E9407070E94EA1E80912E
:102170001404909115046F9364E06A95F1F76F91E0
:102180000197C9F756E28516910409F430C4089402
:10219000611C711CACCE81E00E941C01882309F4F3
:1021A00032C182E00E941C01882309F02CC187E023
:1021B00060E00E94EB1680EB93E00E94CE0781E086
:1021C00090E09D838C838091EE0880628093EE087E
:1021D0008824992466247724442455242224239493
:1021E0003324339484E40E949D0080E00E94F60032
:1021F00085E40E949D000E9408018093E8080E94E7
:1022000012018093EB080E94EE008114910439F1D1
:10221000332029F186E061E00E94EB168CEC93E01C
:102220000E94CE0780E061E00E94EB1682ED93E011
:102230000E94BE07C4010E9487088AED93E00E94B5
:10224000BE07F401EE0FFF1FEF5CF74F8081918115
:102250000E94CE078EED93E00E94CE073324C30187
:10226000BE01645F7F4F0E942F04682FC401A30149
:1022700092010E949E04882331F00894811C911CD5
:1022800023013324339488E08816910451F480911B
:10229000E80885FD06C02301B3E18B2E912C332481
:1022A0003394C401B301A2010E94C305882331F015
:1022B0000894811C911C230133243394C401B3017D
:1022C000A2010E947106882331F00894811C911CA0
:1022D00023013324339495E28916910441F4C30118
:1022E000841995090B971CF0A6E28A2E912CC40143
:1022F000B301AE014E5F5F4F9E012C5F3F4F8E01D9
:102300000A5F1F4FF8E0EF2EF12CEC0EFD1EEAE005
:10231000CE2ED12CCC0EDD1E5E010894A11CB11C6A
:102320000E94E40728E08216910449F48091EE08A7
:1023300041E050E05D834C8380638093EE08C401EC
:10234000B301AE014E5F5F4F9E012C5F3F4F8E0188
:102350000A5F1F4FB8E0EB2EF12CEC0EFD1EAAE039
:10236000CA2ED12CCC0EDD1E0E949202C401B301F4
:10237000AE014E5F5F4F9E012C5F3F4F8E010A5FA3
:102380001F4FF8E0EF2EF12CEC0EFD1EEAE0CE2EF2
:10239000D12CCC0EDD1E0E94820355E285169104DD
:1023A00071F41B821A828091EE088B7F8093EE0875
:1023B000222029F089EE93E00E94CE0722244A8150
:1023C0005B812C813D810E811F81E884F984CA8460
:1023D000DB84C301B2010E9407070E94EA1E8091BC
:1023E0001404909115046F9364E06A95F1F76F916E
:1023F0000197C9F786E28816910409F4F8C2089497
:10240000611C711CEFCE81E00E941C01882309F041
:102410006AC182E00E941C01882309F464C187E03C
:1024200060E00E94EB1689EB93E00E94CE0781E00A
:1024300090E09D838C838091EE0880628093EE080B
:102440008824992466247724442455242224239420
:102450003324339484E40E949D0080E00E94F600BF
:1024600085E40E949D000E9408018093E8080E9474
:1024700012018093EB080E94EE008114910439F15F
:10248000332029F186E061E00E94EB168CEC93E0AA
:102490000E94CE0780E061E00E94EB1682ED93E09F
:1024A0000E94BE07C4010E9487088AED93E00E9443
:1024B000BE07F401EE0FFF1FEF5CF74F80819181A3
:1024C0000E94CE078EED93E00E94CE073324C30115
:1024D000BE01645F7F4F0E942F04682FC401A301D7
:1024E00092010E949E04882331F00894811C911C63
:1024F000230133243394C401B301A2010E942505B2
:10250000882371F00894811C911C9CE08916910429
:10251000C9F020E182169104A9F0230133243394F9
:1025200031E18316910481F49301241935098091D6
:10253000FA039091FB038217930734F4230102E11D
:10254000802E912C33243394C401B301A2010E9444
:10255000C305882331F00894811C911C2301332486
:102560003394C401B301A2010E947106882331F0A3
:102570000894811C911C23013324339445E2841672
:10258000910441F4C301841995090B971CF016E2DC
:10259000812E912CC401B301AE014E5F5F4F9E01AD
:1025A0002C5F3F4F8E010A5F1F4FB8E0EB2EF12CDE
:1025B000EC0EFD1EAAE0CA2ED12CCC0EDD1E5E0153
:1025C0000894A11CB11C0E94E407C401B301AE0130
:1025D0004E5F5F4F9E012C5F3F4F8E010A5F1F4F82
:1025E000F8E0EF2EF12CEC0EFD1EEAE0CE2ED12C01
:1025F000CC0EDD1E0E94630151E18516910479F431
:102600001F821E821D821C828091E9088E7F80932A
:10261000E9088091EC088F7B80628093EC08C4010C
:10262000B301AE014E5F5F4F9E012C5F3F4F8E01A5
:102630000A5F1F4FB8E0EB2EF12CEC0EFD1EAAE056
:10264000CA2ED12CCC0EDD1E0E949202C401B30111
:10265000AE014E5F5F4F9E012C5F3F4F8E010A5FC0
:102660001F4FF8E0EF2EF12CEC0EFD1EEAE0CE2E0F
:10267000D12CCC0EDD1E0E94820385E288169104C7
:1026800071F41B821A828091EE088B7F8093EE0892
:10269000222029F089EE93E00E94CE0722244A816D
:1026A0005B812C813D810E811F81E884F984CA847D
:1026B000DB84C301B2010E9407070E94EA1E8091D9
:1026C0001404909115046F9364E06A95F1F76F918B
:1026D0000197C9F796E28916910409F488C1089414
:1026E000611C711CB7CE81E00E941C01882309F493
:1026F0007EC182E00E941C01882309F478C187E032
:1027000060E00E94EB1680EC93E00E94CE0781E02F
:1027100090E09D838C838091EE0880628093EE0828
:1027200088249924662477241A8A198A44245524F3
:10273000222423943324339484E40E949D0080E077
:102740000E94F60085E40E949D000E94080180938B
:10275000E8080E9412018093EB080E94EE008114A9
:10276000910439F1332029F186E061E00E94EB16F3
:102770008CEC93E00E94CE0780E061E00E94EB16B3
:1027800082ED93E00E94BE07C4010E9487088AED93
:1027900093E00E94BE07F401EE0FFF1FEF5CF74FBE
:1027A000808191810E94CE078EED93E00E94CE073A
:1027B0003324C301BE01645F7F4F0E942F04182F92
:1027C000C401612FA30192010E949E04882339F065
:1027D000230110E037E2832E912C33243394C4017B
:1027E000B301A2010E942505882371F421E182161C
:1027F000910481F49301241935098091FE0390918D
:10280000FF038217930734F4230127E2822E912CD1
:1028100033243394C401B301A2010E94C305882369
:1028200031F0230197E2892E912C33243394C40193
:10283000B301A2010E947106882321F023013324F1
:10284000339411C035E28316910449F4C30184190D
:1028500095090B974CF186E2882E912C25C047E212
:102860008416910409F5112321F407E2802E912C9E
:1028700011C089899A8901969A8B898B8732910533
:1028800021F04C01332433940FC017E2812E912C98
:10289000332433941B821A821D821C821F821E8263
:1028A000198618861B861A86C401B301AE014E5FD5
:1028B0005F4F9E012C5F3F4F8E010A5F1F4FB8E0B4
:1028C000EB2EF12CEC0EFD1EAAE0CA2ED12CCC0E64
:1028D000DD1E5E010894A11CB11C0E94E407C40126
:1028E000B301AE014E5F5F4F9E012C5F3F4F8E01E3
:1028F0000A5F1F4FF8E0EF2EF12CEC0EFD1EEAE010
:10290000CE2ED12CCC0EDD1E0E94630191E18916E2
:10291000910451F41F821E821D821C828091EC085A
:102920008F7B80628093EC08C401B301AE014E5FDF
:102930005F4F9E012C5F3F4F8E010A5F1F4FB8E033
:10294000EB2EF12CEC0EFD1EAAE0CA2ED12CCC0EE3
:10295000DD1E0E949202C401B301AE014E5F5F4FC3
:102960009E012C5F3F4F8E010A5F1F4FF8E0EF2E54
:10297000F12CEC0EFD1EEAE0CE2ED12CCC0EDD1E8D
:102980000E94820325E28216910471F41B821A824E
:102990008091EE088B7F8093EE08222029F089EE4B
:1029A00093E00E94CE0722244A815B812C813D81E5
:1029B0000E811F81E884F984CA84DB84C301B201DB
:1029C0000E9407070E94EA1E80911404909115044A
:1029D0006F9364E06A95F1F76F910197C9F736E25A
:1029E0008316910421F00894611C711CA5CE80917E
:1029F000EE088B7D8093EE088091E908867B8093BA
:102A0000E90880E40E949D0082E00E94F600809127
:102A1000EE080E94F6008091E9080E94F6000E94EC
:102A2000EE0086EF93E00E94CE070C9458094FEF1A
:102A30005FEF588B4F872301BB24B39480E3882E2C
:102A4000912C80C90895089580E090E00895EF9258
:102A5000FF920F931F9367B13D982898299AE090B1
:102A6000B808F090B9080091BA081091BB0820E0AE
:102A700030E041E050E0CA016F9364E06A95F1F7FD
:102A80006F910197C9F72A9ACA016F9364E06A951A
:102A9000F1F76F910197C9F786B12A98FA016F9300
:102AA00064E06A95F1F76F913197C9F72A9AFA01B4
:102AB0006F9364E06A95F1F76F913197C9F72A989F
:102AC0002C5F3F4F85FF09C0C901A0E0B0E08E1523
:102AD0009F05A007B10708F4CECFC901A0E0B0E080
:102AE0008E159F05A007B10728F082E390E0A0E0D3
:102AF000B0E004C080E395E7A0E0B0E08093B808C0
:102B00009093B908A093BA08B093BB0867B91F9116
:102B10000F91FF90EF90089528B190E08F70907022
:102B2000880F991F880F991F237C282B28B92A9A70
:102B300081E090E0FC016F9364E06A95F1F76F919A
:102B40003197C9F72A986F9364E06A95F1F76F910E
:102B50000197C9F708958091B4089091B50800973E
:102B600011F00E94DE228091810890E0019720916F
:102B7000820830E0AC01429FC001439F900D529FFC
:102B8000900D11240E9431229093B5088093B408CF
:102B9000009729F160E070E208C0E091B408F0917C
:102BA000B508E40FF51F70836F5F462F50E08091EA
:102BB000810890E001972091820830E0FC01E29FBB
:102BC000C001E39F900DF29F900D11244817590703
:102BD00024F383E198E164E275E10E9457230895AC
:102BE00080938208609381080E94AB1508958093BA
:102BF0008208609381080E94AB1508950E94AB156E
:102C000008953D98459A80E395E7A0E0B0E0809371
:102C1000B8089093B908A093BA08B093BB08209A5B
:102C2000219A229A8EE190E00E94381F83E00E9450
:102C3000591986E090E00E94381F83E00E945919DC
:102C400082E090E00E94381F83E00E94591982E0E0
:102C500090E00E94381F82E00E94591982E090E0C3
:102C60000E94381F88E20E94A01688E00E94A016E9
:102C700081E00E94A01686E00E94A0168CE00E94CF
:102C8000A01608958091BC08882329F481E08093E0
:102C9000BC080E9401160895FF920F931F93082FFE
:102CA000162FF42E0E9442160E94271537B128B124
:102CB0002998112311F0289A01C0289887B18C63B4
:102CC00087B981E0F816E1F088B1902F92959F7056
:102CD000990F990F837C982B98B92A9A81E090E0FC
:102CE000FC016F9364E06A95F1F76F913197C9F732
:102CF0002A986F9364E06A95F1F76F910197C9F78D
:102D000088B10F70000F000F837C802B88B92A9A3E
:102D100081E090E0FC016F9364E06A95F1F76F91B8
:102D20003197C9F72A986F9364E06A95F1F76F912C
:102D30000197C9F737B928B91F910F91FF900895EE
:102D400060E042E00E944C1608950F931F93082FF5
:102D5000162F08C0002311F480E101C084E10E9415
:102D6000A01611501123B1F71F910F9108950E94E1
:102D7000A51608958CE00E94A01608950E94BA1628
:102D80000895813011F48FE001C08EE00E94A016FA
:102D900008950E94C1160895A4E0B0E0E2EDF6E1C6
:102DA0000C94F421182F062F80E8898380EC8A8305
:102DB00084E98B8384ED8C83FE01E60FF11D818114
:102DC000810F0E94A0161093B7080093B6082496AE
:102DD000E4E00C9410220E94CC16089581E00E9439
:102DE000A0168091B4089091B508892B19F160E084
:102DF00070E208C0E091B408F091B508E40FF51F47
:102E000070836F5F462F50E08091810890E00197BA
:102E10002091820830E0FC01E29FC001E39F900D09
:102E2000F29F900D11244817590724F31092B70808
:102E30001092B60808950E94EE16089561E042E0EF
:102E40000E944C1608950F931F93CF93DF9300E0D9
:102E500010E8C82FD0E0812F90E08C239D23892B90
:102E600011F081E301C080E30E941E170F5F08305C
:102E700011F01695F0CFDF91CF911F910F9108952A
:102E80000E94231708958A3010F4805D01C0895C88
:102E90000E941E1708951F93182F82958F700E940D
:102EA0004317812F8F700E9443171F9108951F931E
:102EB000182F892F0E944B17812F0E944B171F91AB
:102EC00008950E94571708950E944B1708956F9216
:102ED0007F928F929F92AF92BF92CF92DF92FF929A
:102EE0000F93DF93CF93CDB7DEB72A970FB6F89441
:102EF000DEBF0FBECDBF5B016C010AE03E0108944E
:102F0000611C711CFA2CC601B5012AE030E040E0DA
:102F100050E00E94C421C901DA015C016D01015039
:102F20004301800E911C80E3F80EC601B5012AE032
:102F300030E040E050E00E949221F61AF401F08265
:102F4000A114B104C104D104E9F608C0F601E00FF0
:102F5000F11D80810E941E170F5F04C06E0108944E
:102F6000C11CD11C0A3090F32A960FB6F894DEBF2C
:102F70000FBECDBFCF91DF910F91FF90DF90CF902B
:102F8000BF90AF909F908F907F906F9008950E9418
:102F900067170895EF92FF920F931F937B018C01A7
:102FA00097FF0BC010950095F094E094E11CF11C84
:102FB000011D111D8DE20E941E17C801B7010E945C
:102FC00067171F910F91FF90EF9008950E94CA1705
:102FD0000895CF93DF93EC0103C00E941E17219642
:102FE000FE0184918823C9F7DF91CF9108950E9453
:102FF000E9170895CF93DF93EC0103C021960E9457
:103000001E1788818823D1F7DF91CF9108950E9400
:10301000FA1708950E94FA1708950E941E1708953E
:103020000E941E170895A0E0B0E0E9E1F8E10C94D9
:10303000F021E82E8091B4089091B508892B09F40D
:1030400005C12AE0E21609F446C038E0E316C9F4E7
:103050008091B70881508093B7088F3F51F48091D9
:10306000B60881508093B608809182088150809381
:10307000B7088091B6088F3F09F0E2C01092B608F9
:10308000DDC08E2D0E941E172091B6082223C9F0A4
:1030900030E0215030408091820890E0AC01249FC4
:1030A000C001259F900D349F900D11242091B708E9
:1030B000E091B408F091B508E80FF91FE20FF11D97
:1030C000E0828091B7088F5F8093B7089091820863
:1030D000891709F0BBC04091B608242F30E08091D9
:1030E000810890E001972817390709F0A4C0C0E0D3
:1030F000D0E044C080E06C2F0E94CC16FF246E010B
:103100000894C11CD11C35C00F2D10E090E09C012B
:10311000C29FC001C39F900DD29F900D1124E091DA
:10312000B408F091B508E00FF11FE80FF91F808196
:103130000E941E17E091B408F091B50880918208B2
:1031400090E0C89FD001C99FB00DD89FB00D112449
:10315000E00FF11FAE0FBF1FAC01C49EC001C59EA2
:10316000900DD49E900D1124E80FF91F80818C934F
:10317000F39480918208F81638F2E6016091810894
:10318000862F90E00297C817D9070CF4B3CF6230AE
:1031900008F440C0625080E00E94CC16FF2440E258
:1031A000D42E34C00F2D10E08091810890E002975A
:1031B00030E0AC01429FC001439F900D529F900DA3
:1031C0001124E091B408F091B508E00FF11FE80F69
:1031D000F91F80810E941E172091810830E0225043
:1031E00030408091820890E0AC01249FC001259F6F
:1031F000900D349F900D1124E091B408F091B50822
:10320000E00FF11FE80FF91FD082F394209182089C
:10321000F21640F260918108615080E00E94CC1665
:1032200000E004C080E20E941E170F5F80918208B8
:103230000817C0F303C04F5F4093B6081092B70859
:103240008091B7086091B6080E94CC162E2D3327C6
:1032500027FD3095C901CDB7DEB7E8E00C940C220C
:10326000EF92FF920F931F93CF93DF937C01062F72
:1032700010E053E0000F111F5A95E1F7C0E0D0E0D5
:103280009E01200F822F80640E94A016F701EC0F90
:10329000FD1FE4918E2F0E941E172196C830D10584
:1032A00079F7CDB7DEB7E6E00C940E220E94301914
:1032B000089560E041E00E944C1608950F931F931B
:1032C000CF93DF93082F162FEA010BC0002311F4D0
:1032D00088E101C08CE10E94A016CE010E94381F37
:1032E0001150112399F7DF91CF911F910F910895FC
:1032F0000E945E190895282F30E0F90193E0EE0F47
:10330000FF1F9A95E1F7220F331FE20FF31FED57CE
:10331000F74F8081089590E0FC01EE0FFF1FEE0F44
:10332000FF1FE80FF91FEE0FFF1FEB57F74F8081CC
:10333000089590E0FC01EE0FFF1FEE0FFF1FE80F56
:10334000F91FEE0FFF1FEB57F74F208130E0FC0114
:1033500053E0EE0FFF1F5A95E1F7880F991FE80F12
:10336000F91FED57F74F8481281709F431E0832FB7
:103370000895282F30E0F901B3E0EE0FFF1FBA9552
:10338000E1F7220F331FE20FF31FED57F74F818153
:103390000895282F30E0F90173E0EE0FFF1F7A95B2
:1033A000E1F7220F331FE20FF31FED57F74F918123
:1033B00040E0282F30E0F90153E0EE0FFF1F5A954F
:1033C000E1F7220F331FE20FF31FED57F74F838111
:1033D000981709F441E0842F0895089508958823EB
:1033E00021F0813009F044C01DC0209183082223C0
:1033F00011F488E901C088E18093C10080918908B7
:1034000090918A08892B61F19091840880918608B7
:10341000981730F5222321F58091C10080628093B6
:10342000C1001CC020918D08222311F488E901C03D
:1034300088E18093C9008091930890919408892B2A
:1034400099F090918E0880919008981768F4222343
:1034500059F48091C90080628093C90078940895DE
:103460008091C1008F7DDBCF8091C9008F7DF4CF2B
:103470000895282F30E0F901B3E0EE0FFF1FBA9551
:10348000E1F7220F331FE20FF31FED57F74F608371
:103490000E94EF190895A0E0B0E0E1E5FAE10C9494
:1034A000F121D82E7A018B010E94EF1982E0D81603
:1034B00019F1DD2019F0CCECD0E002C0C4ECD0E072
:1034C00060EA75E286E290E06E197F09800B910B4D
:1034D00033E0660F771F881F991F3A95D1F724E0D4
:1034E000EE0CFF1C001F111F2A95D1F7A8019701B0
:1034F0000E94C42139832883CDB7DEB7E7E00C945E
:103500000D220E944B1A0895282F30E0F90153E054
:10351000EE0FFF1F5A95E1F7220F331FE20FF31F43
:10352000ED57F74F60830E94EF190895582F8230AE
:1035300051F0882319F0E9ECF0E002C0E1ECF0E092
:1035400080818F778083252F30E0D901AA0FBB1FA0
:10355000C901E3E0880F991FEA95E1F7A80FB91FA9
:10356000AD57B74F19967C936E931897F901EE0FEC
:10357000FF1FEE0FFF1FE20FF31FEE0FFF1FEB57B2
:10358000F74F108214964C93149715961C9215972A
:10359000523069F08C91882351F4552319F0E9ECED
:1035A000F0E002C0E1ECF0E0808180688083089563
:1035B0000E94961A0895582F823051F0882319F0EE
:1035C000E9ECF0E002C0E1ECF0E080818F778083ED
:1035D000252F30E0D901AA0FBB1FC901E3E0880FF6
:1035E000991FEA95E1F7A80FB91FAD57B74F199684
:1035F0007C936E931897F901EE0FFF1FEE0FFF1FDC
:10360000E20FF31FEE0FFF1FEB57F74F10821496D8
:103610004C93149781E015968C931597523069F06E
:103620008C91882351F4552319F0E9ECF0E002C0A5
:10363000E1ECF0E080818068808308950E94DB1ACD
:10364000089560E070E040E00E94961A08950E949C
:10365000211B08951F920F920FB60F920BB60F9277
:1036600011242F938F939F93EF93FF932091C60084
:10367000E0918B08F0918C08309781F0909185084B
:1036800080918708981750F480918508E80FF11D04
:103690002083809185088F5F8093850890918508AD
:1036A00080918708981731F480918808882311F059
:1036B00010928508FF91EF919F918F912F910F901C
:1036C0000BBE0F900FBE0F901F9018951F920F9278
:1036D0000FB60F920BB60F9211242F938F939F93D7
:1036E000EF93FF932091CE00E0919508F09196081A
:1036F000309781F090918F0880919108981750F43D
:1037000080918F08E80FF11D208380918F088F5FD3
:1037100080938F0890918F0880919108981731F4C9
:1037200080919208882311F010928F08FF91EF91F9
:103730009F918F912F910F900BBE0F900FBE0F9006
:103740001F901895CF93DF93382F90E0FC0153E042
:10375000EE0FFF1F5A95E1F7880F991FE80FF91F29
:10376000ED57F74FA681B781109709F464C0832FF6
:1037700090E0FC0123E0EE0FFF1F2A95E1F7880F90
:10378000991FE80FF91FED57F74F2181832F90E024
:10379000FC0163E0EE0FFF1F6A95E1F7880F991FA8
:1037A000E80FF91FED57F74F8381281708F043C042
:1037B000332319F0E8ECF0E002C0E0ECF0E08081A7
:1037C00085FF39C0332319F0CEECD0E002C0C6EC3F
:1037D000D0E0832F90E0FC0143E0EE0FFF1F4A95FD
:1037E000E1F7880F991FE80FF91FED57F74F818117
:1037F000A80FB11D8C918883832F90E0FC0173E0AA
:10380000EE0FFF1F7A95E1F7880F991FE80FF91F58
:10381000ED57F74F21812F5F832F90E0FC0153E09C
:10382000EE0FFF1F5A95E1F7880F991FE80FF91F58
:10383000ED57F74F2183832F90E0FC01B3E0EE0FAB
:10384000FF1FBA95E1F7880F991FE80FF91FED5791
:10385000F74F86819781892B09F443C0832F90E02D
:10386000FC0173E0EE0FFF1F7A95E1F7880F991FB7
:10387000E80FF91FED57F74F2181832F90E0FC01EE
:1038800053E0EE0FFF1F5A95E1F7880F991FE80FDD
:10389000F91FED57F74F8381281718F5832F90E014
:1038A000FC01B3E0EE0FFF1FBA95E1F7880F991FF7
:1038B000E80FF91FED57F74F8081882391F43323E8
:1038C00019F0E9ECF0E002C0E1ECF0E08081806208
:1038D00004C0E9ECF0E080818F7D8083DF91CF919F
:1038E00008953323B1F7E1ECF0E0F5CF282F90E015
:1038F000FC0153E0EE0FFF1F5A95E1F7880F991F67
:10390000E80FF91FED57F74F77836683822F90E01A
:10391000FC01B3E0EE0FFF1FBA95E1F7880F991F86
:10392000E80FF91FED57F74F1182822F90E0FC014D
:1039300073E0EE0FFF1F7A95E1F7880F991FE80FEC
:10394000F91FED57F74F4383223009F449C0822F06
:1039500090E0FC0153E0EE0FFF1F5A95E1F7880F4E
:10396000991FE80FF91FED57F74F86819781892B33
:1039700091F1822F90E0FC01B3E0EE0FFF1FBA95AA
:10398000E1F7880F991FE80FF91FED57F74F818175
:10399000841708F5822F90E0FC0173E0EE0FFF1F03
:1039A0007A95E1F7880F991FE80FF91FED57F74F48
:1039B0008081882381F4222319F0E9ECF0E002C031
:1039C000E1ECF0E08081806204C0E9ECF0E080810D
:1039D0008F7D808308952223C1F7E1ECF0E0F7CFDB
:1039E00008950E94761C08951F920F920FB60F92B1
:1039F0000BB60F9211242F933F934F935F936F93C6
:103A00007F938F939F93AF93BF93EF93FF9380E048
:103A10000E94A21BFF91EF91BF91AF919F918F9157
:103A20007F916F915F914F913F912F910F900BBEBE
:103A30000F900FBE0F901F9018951F920F920FB608
:103A40000F920BB60F9211242F933F934F935F93D6
:103A50006F937F938F939F93AF93BF93EF93FF9356
:103A600081E00E94A21BFF91EF91BF91AF919F91C6
:103A70008F917F916F915F914F913F912F910F9017
:103A80000BBE0F900FBE0F901F901895982F82308D
:103A900071F0882319F0E9ECF0E002C0E1ECF0E00D
:103AA00080818F7D8083892F0E94A21B0895E091E1
:103AB0009D08F0919E083097B1F090919808809100
:103AC0009A08981780F406C0809198088F5F8093B9
:103AD0009808EDCF80919808E80FF11D80810E9431
:103AE0000320882389F708950F931F93CF93DF93C3
:103AF000682F823009F49CC0882319F0E9ECF0E0CB
:103B000002C0E1ECF0E080818F778083462F50E0A7
:103B1000DA01AA0FBB1FCA0123E0880F991F2A955B
:103B2000E1F7A80FB91FAD57B74F1896CD91DC91AB
:103B30001997209709F45AC0FA01EE0FFF1FEE0FF4
:103B4000FF1FE40FF51FEE0FFF1FEB57F74F8081AC
:103B500014962C91821708F049C0662319F0E8ECFE
:103B6000F0E002C0E0ECF0E0808187FF3FC0662318
:103B700019F4E6ECF0E002C0EEECF0E09081FA011E
:103B8000EE0FFF1FEE0FFF1FE40FF51FEE0FFF1FDD
:103B9000EB57F74F8081821738F48081C80FD11D11
:103BA000988380818F5F8083FA01EE0FFF1FEE0FF5
:103BB000FF1FE40FF51FEE0FFF1FEB57F74F80813C
:103BC000DA01AA0FBB1F9A0113E0220F331F1A95C7
:103BD000E1F7A20FB31FAD57B74F14969C911497FE
:103BE000891721F415968C9181111082FA01A3E0B6
:103BF000EE0FFF1FAA95E1F7440F551FE40FF51FC5
:103C0000ED57F74F8081882309F059C0662319F0DA
:103C1000E9ECF0E002C0E1ECF0E0808180688083B4
:103C20004EC080919C08882319F01092990847C0D3
:103C300080919F089091A008892B09F440C0909131
:103C4000990880919B089817D0F58091BD0888232A
:103C5000A9F40E9475208093BD0810E00BC00E945B
:103C60001320E02FF0E03197E11BF109E254F74F08
:103C700080831F5F0091BD08101788F3E091BD0895
:103C8000EE23E9F080919908A0919F08B091A008D7
:103C9000A80FB11DE150E093BD08F0E0E254F74FEA
:103CA00080818C93809199088F5F8093990890917F
:103CB000990880919B08981709F0BACFB2CFDF918D
:103CC000CF911F910F91089580E00E94461D81E0E1
:103CD0000E94461D82E00E94461D80E00E94741DE5
:103CE00081E00E94741D82E00E94741D08951F935C
:103CF000182F0E94761C02C00E94641E812F90E043
:103D0000FC0173E0EE0FFF1F7A95E1F7880F991F12
:103D1000E80FF91FED57F74F2181812F90E0FC014B
:103D200053E0EE0FFF1F5A95E1F7880F991FE80F38
:103D3000F91FED57F74F83812817F1F61F9108956A
:103D40000E94771E0895A0E0B0E0E9EAFEE10C943D
:103D5000EC21082F79010E94961A0E949E1F4B01A8
:103D60005C0110E0E801CC0FDD1FCC0FDD1FC00FA0
:103D7000D11FCC0FDD1FCB57D74F6801F3E0CC0C20
:103D8000DD1CFA95E1F7000F111FC00ED11E87E868
:103D900098E0C80ED91E00E010E00E94641E9881D1
:103DA000F6018081981711F480E00CC00E949E1FDC
:103DB000681979098A099B096E157F0580079107A3
:103DC00060F381E0CDB7DEB7ECE00C9408220E94EE
:103DD000A31E08950E94641E08952F928F939F93AF
:103DE0002FB68091C7089091C80801968093C708A4
:103DF0009093C80890E08091C908891F8093C908F2
:103E00009091CF089C5F9093CF088091CE0880510D
:103E10009742C0F09093CF088093CE088091CA0853
:103E20009091CB0801968093CA089093CB0890E0BC
:103E30008091CC08891F8093CC088091CD08891F80
:103E40008093CD082FBE9F918F912F9018956F5F13
:103E50007F4F8F4F9F4F660F771F881F991F25E059
:103E600030E040E050E00E94C421CA01B901089549
:103E700028EE33E009C0F9016F9364E06A95F1F729
:103E80006F913197C9F701970097A9F708956F5F70
:103E90007F4F8F4F9F4F660F771F881F991F25E019
:103EA00030E040E050E00E94C421CA01B901089509
:103EB00028EE33E009C0F9016F9364E06A95F1F7E9
:103EC0006F913197C9F701970097A9F70895A0E777
:103ED000B0E08C918E7F8C93E0EBF0E0808183608A
:103EE0008083E1EBF0E08081807F8083808182604D
:103EF0008083B89A8C9181608C9378940895809196
:103F0000D008882329F481E08093D0080E94671F9D
:103F100008950E947F1FE0E7F0E080818E7F80831C
:103F20002091CA083091CB084091CC085091CD081F
:103F3000808181608083B901CA0108950E94891F30
:103F400008950E947F1F809170008E7F8093700083
:103F50006091B2008091C6089091C708A091C808EE
:103F6000B091C908B89905C0262F30E040E050E074
:103F700011C08091B2002091C6083091C7084091CD
:103F8000C8085091C90820503F4F4F4F5F4F90E0F5
:103F9000A0E0B0E0282B392B4A2B5B2B80917000DE
:103FA000816080937000B901CA0108950E94A11F29
:103FB00008950E947F1FE0E7F0E080818E7F80837C
:103FC0001092CA081092CB081092CC081092CD081B
:103FD0001092CF081092CE0880818160808308956E
:103FE0000E94D91F0895982F8091E708891739F00A
:103FF0009093E708892F806C65E00E945B2108950B
:104000000E94F31F08951F93182F881F8827881F69
:104010008C5765E00E945B21812F8F7765E00E94BD
:104020005B211F9108958FEF64E00E945B2108954A
:10403000CF93DF930E94891F2091A5083091A60895
:104040004091A7085091A808621773078407950745
:10405000B9F081E867E00E945B21CAEDD8E00E94D8
:104060001320899388E0C73ED807C9F70E94891FAB
:104070006093A5087093A6088093A7089093A8085A
:10408000DF91CF9108950E9418208091DA08089559
:104090000E94432008950E9418208091E108909189
:1040A000E20808950E9418208091DF089091E008AE
:1040B00008950E9418208091DD089091DE080895EF
:1040C0000E9418208091DB089091DC0808950E94DE
:1040D00018208091E5089091E60808950E94182024
:1040E0008091E3089091E408089583E867E00E94D6
:1040F0005B210E9413200895A5E0B0E0E2E8F0E221
:104100000C94F52182E866E00E945B210E94132056
:104110008093D5080E9413208093D6080E94132014
:104120008093D7080E9413208093D8081091D90853
:104130000E941320182B1093D908DE011196E5ED8B
:10414000F8E085E001900D928150E1F729813A81F4
:104150004B815C816D8170E090E02596E3E00C94EA
:1041600011220E94891F2091A1083091A20840913C
:10417000A3085091A408621773078407950761F09C
:104180000E947C200E94891F6093A1087093A2085E
:104190008093A3089093A40808950E94B120809171
:1041A000D90881FD02C080E008958D7F8093D908F1
:1041B00081E008950E94CD2008950E94B120809151
:1041C000D90880FD02C080E008958E7F8093D908D1
:1041D00081E008950E94DD2008950E94B120209181
:1041E000D7083091D8088091D3089091D408281B23
:1041F000390BC90108950E94ED202091D708309114
:10420000D8083093D4082093D30808950E94FB2047
:1042100008950E94ED2008950E94B1202091D508B4
:104220003091D6088091D1089091D208281B390B83
:10423000C90108950E940C212091D5083091D6081B
:104240003093D2082093D10808950E941A2108952E
:104250000E940C21089580E865E00E945B210E9485
:10426000132008950E942B210895982F24990CC0A3
:104270002C990AC02C9AEEE1F0E06F9364E06A9505
:10428000F1F76F913197C9F784B1806A84B92698A4
:10429000892F837080656C7A862B8CBD892F90E086
:1042A000969587959695879581708DBD81E090E074
:1042B0000E94581F08950F931F93082F162F0CB4B8
:1042C00006FC04C080E064E00E9435210CB404FCCC
:1042D00003C08CB580618CBD0EBD05C00CB404FC60
:1042E00002C080E00FC00DB407FEF8CF112349F0E3
:1042F000812F90E06F9364E06A95F1F76F910197D9
:10430000C9F78EB51F910F91089560E00E945B215F
:1043100008950E94852108950E945B2108950E94BE
:1043200035210895629FD001739FF001829FE00DB7
:10433000F11D649FE00DF11D929FF00D839FF00D24
:10434000749FF00D659FF00D9927729FB00DE11DD0
:10435000F91F639FB00DE11DF91FBD01CF011124AD
:10436000089597FB092E07260AD077FD04D065D063
:1043700006D000201AF4709561957F4F0895F6F7E6
:10438000909581959F4F0895A1E21A2EAA1BBB1B01
:10439000FD010DC0AA1FBB1FEE1FFF1FA217B30711
:1043A000E407F50720F0A21BB30BE40BF50B661F27
:1043B000771F881F991F1A9469F7609570958095EB
:1043C00090959B01AC01BD01CF0108952F923F92C2
:1043D0004F925F926F927F928F929F92AF92BF9215
:1043E000CF92DF92EF92FF920F931F93CF93DF93C1
:1043F000CDB7DEB7CA1BDB0B0FB6F894DEBF0FBE1E
:10440000CDBF09942A88398848885F846E847D846A
:104410008C849B84AA84B984C884DF80EE80FD806C
:104420000C811B81AA81B981CE0FD11D0FB6F894E2
:10443000DEBF0FBECDBFED010895AA1BBB1B51E12E
:1044400007C0AA1FBB1FA617B70710F0A61BB70B04
:10445000881F991F5A95A9F780959095BC01CD01A9
:104460000895CF93DF93BC018230910510F462E090
:1044700070E0A091F108B091F208ED01E0E0F0E009
:1044800040E050E021C0888199818617970769F440
:104490008A819B81309719F09383828304C0909323
:1044A000F2088093F108FE0134C06817790738F4E8
:1044B0004115510519F08417950708F4AC01FE0168
:1044C0008A819B819C01E9012097E9F641155105FC
:1044D000A9F1CA01861B970B049708F4BA01E0E022
:1044E000F0E02AC08D919C91119784179507F9F4FB
:1044F0006417750781F412968D919C9113973097EC
:1045000019F09383828304C09093F2088093F1089A
:10451000FD0132964FC0CA01861B970BFD01E80FC3
:10452000F91F6193719302978D939C9343C0FD0192
:10453000828193819C01D9011097A1F68091EF08A7
:104540009091F008892B41F48091AB089091AC08D0
:104550009093F0088093EF084091AD085091AE0819
:104560004115510541F44DB75EB78091A90890916E
:10457000AA08481B590B2091EF083091F008241726
:104580003507B0F4CA01821B930B8617970780F09A
:10459000AB014E5F5F4F8417950750F0420F531FDA
:1045A0005093F0084093EF08F9016193719302C0B2
:1045B000E0E0F0E0CF01DF91CF910895CF93DF935A
:1045C000009709F450C0EC0122971B821A82A09137
:1045D000F108B091F208109709F140E050E0AC17F3
:1045E000BD0708F1BB83AA83FE0121913191E20F3F
:1045F000F31FAE17BF0779F48D919C911197280F87
:10460000391F2E5F3F4F3983288312968D919C91DD
:1046100013979B838A834115510571F4D093F20857
:10462000C093F10820C012968D919C911397AD0113
:10463000009711F0DC01D3CFFA01D383C28321911B
:104640003191E20FF31FCE17DF0769F4888199815A
:10465000280F391F2E5F3F4FFA01318320838A8153
:104660009B8193838283DF91CF910895FB019F010A
:10467000E8944230C4F04532B4F44A3029F497FB50
:104680001EF4909581959F4F642F77270E941D22DD
:10469000805D8A330CF0895D8193CB010097A1F78F
:1046A00016F45DE251931082C9010C94C6230F9356
:1046B0001F93CF93DF938C01EB01009731F46115C9
:1046C000710519F420E030E038C081E090E06EE040
:1046D00070E00E94A323FC019C01009771F180E827
:1046E0008383209771F0D387C28781E88383809189
:1046F000F3089091F408892B21F4F093F408E093E7
:10470000F30801151105C9F01187008783818260C4
:1047100083838091F5089091F608892B71F4F093CA
:10472000F608E093F5088091F7089091F808892B36
:1047300021F4F093F808E093F708C901DF91CF91D5
:104740001F910F9108950F931F93CF93DF93689F4D
:104750008001699F100D789F100D1124C8010E94DF
:104760003122EC01009729F060E070E0A8010E947E
:10477000BF23CE01DF91CF911F910F910895DC01EE
:1047800001C06D9341505040E0F70895DC01FC01F9
:10479000672F71917723E1F7329704C07C916D9375
:1047A00070836291AE17BF07C8F30895F894FFCFE6
:1047B0000D0A005055534820544F20535441525431
:1047C00000444153434820434C45414E455220321A
:1047D00063005245563A34362E303100424547493F
:1047E0004E2000494E495420004932433120444F65
:1047F000574E200049324331205550004932433250
:1048000020444F574E200049324332205550004932
:1048100032433320444F574E200049324333205512
:1048200050005354415254200049324320424144E5
:10483000200053544F502050524F472000493243DC
:10484000204F4B200042494E49542000494E5055BC
:10485000542052554E2F4445425547004445425539
:10486000470052554E00494E5055545320004F5565
:104870005450555453004D4F544F525320004D55F2
:104880004C5449204D4F544F52004F464600424130
:10489000434B200053454E534F5220310053454E59
:1048A000534F5220320053454E534F522033005342
:1048B000454E534F5220340053454E534F522035EE
:1048C0000053454E534F5220360053454E534F52DE
:1048D00020370053454E534F52203800414320505B
:1048E0004F57455220202020204F4E2000424C4F51
:1048F000574552202020202020204F4E20200050BD
:104900004C4154452053544F502020204F4E2000FE
:10491000504C41544520524149534520204F4E2090
:1049200000504C415445204C4F57455220204F4E8B
:104930002000425255534831205241495345204F9F
:104940004E2000425255534831204C4F574552207B
:104950004F4E200042525553483220524149534550
:10496000204F4E2000425255534832204C4F57455D
:1049700052204F4E20005041504552205241495341
:104980004520204F4E20005041504552204C4F575B
:10499000455220204F4E2000414952204B4E49465F
:1049A00045202020204F4E20004252555348315080
:1049B000554D50202020204F4E2000425255534844
:1049C0003250554D50202020204F4E20004C4F415A
:1049D00044494E472020202046524F4E5400445216
:1049E00049564520202020202046524F4E54004258
:1049F0005255534831202020202046524F4E54001B
:104A0000425255534832202020202046524F4E54C7
:104A100000504150455220202020202046524F4E29
:104A20005400464958545552452026204252555369
:104A30004831004649585455524520262042525587
:104A4000534832004E4F524D414C0053454C454364
:104A500054204359434C4500464952535420420088
:104A60005345434F4E44204200424F544820420099
:104A700053544550004359434C453A0020202020D0
:104A8000200053544154453A20003D3E2000200070
:104A9000436F756E7465723A00454E44204F462050
:104AA0004359434C4500454E4400F401E8033200AD
:104AB00001000100010001000100020002000200EB
:104AC00002000200FA0004002602D002DC05BC024B
:104AD00032001600160001000D00496E697469610C
:104AE0006C697A65206669787475726520616E6498
:104AF000207072657061726520666F7220637963E1
:104B00006C65004C6F616420706C61746520736526
:104B10007175656E6365004D6F766573206D6F729C
:104B20006520746F206163636F6D6D6F6461746580
:104B300020666F722073656E736F7220706C616394
:104B4000656D656E7400526169736520666978747D
:104B5000757265206C69667473004D6F76652066AA
:104B6000697874757265206F6E746F206C696674F5
:104B7000004C6574206C6966747320646F776E00F6
:104B80004472697665206C6966747320646F776E11
:104B9000004D6F7665206669787475726520746F54
:104BA00020666972737420636C65616E696E67203C
:104BB00073746174696F6E00536574207570206240
:104BC000727573682031206D6F746F722C20776559
:104BD000742062727573680053746172742062721B
:104BE0007573682031206D6F746F7220616E642060
:104BF0007261697365206272757368203100436C5D
:104C000065616E203173742068616C66206F662068
:104C100074686520706C61746520776974682074AD
:104C20006865206669727374206272757368004CDF
:104C30006F7765722062727573682C207475726E5E
:104C4000206F6666206D6F746F72005265747572A6
:104C50006E20746F2063656E746572206F662031FC
:104C6000737420636C65616E696E67207374617420
:104C7000696F6E00436C65616E20326E64206861FE
:104C80006C66206F662074686520706C61746520A6
:104C9000776974682074686520666972737420622D
:104CA00072757368004C6F776572206272757368F5
:104CB0002C6D6F746F72206F66662C206D6F766539
:104CC000206F6E004D6F7665206669787475726529
:104CD00020746F207365636F6E6420636C65616E12
:104CE000696E672073746174696F6E005365742018
:104CF00075702062727573682032206D6F746F72E8
:104D00002C20776574206272757368005374617229
:104D1000742062727573682032206D6F746F722018
:104D2000616E6420726169736520627275736820B8
:104D30003200436C65616E203173742068616C666B
:104D4000206F662074686520706C617465207769D7
:104D5000746820746865207365636F6E6420627286
:104D60007573680052657475726E20746F20636588
:104D70006E746572206F6620326E6420636C6561AC
:104D80006E696E672073746174696F6E00436C6541
:104D9000616E20326E642068616C66207769746889
:104DA000207365636F6E64206272757368004D6F67
:104DB0007665206669787475726520746F206669FF
:104DC00072737420647279696E6720737461746998
:104DD0006F6E004D6F766520666978747572652018
:104DE0006578747261004D6F766520706C617465D2
:104DF000206261636B20616972206B6E6966652059
:104E0000616E6420706170657220746F77656C20CC
:104E1000726F6C6C6572004465616374697661746D
:104E20006520616E64206C6F7765722070617065BB
:104E30007220746F77656C72657475726E20746F12
:104E4000206C696674004669784C3220457874722B
:104E500061005261697365206C6966740053746106
:104E6000727420746F20686F6D6520666978747540
:104E70007265004C6F776572204C6966743300521E
:104E8000657475726E20706C617465202C20666983
:104E90006E69736820686F6D696E672066697874E3
:104EA00075726500456E64206F66206379636C657A
:104EB0000053746F70206C6F6F7000496E204465F2
:104EC000627567204379636C652C20776169742073
:104ED000666F7220627574746F6E20707265737382
:104EE000002A04530467049604AA046704C104D08A
:104EF00004E104080528054E057F059B05080528E3
:104F000005C405F50514063C065C0682067F05B45B
:104F1000063C065C06DD067F05FE062307360767AE
:104F2000079607A207AD07C307CF07F40701080BD1
:104F30000802100000000000000000000000000057
:104F40000000000000000001000000000000000060
:104F500000FFFFFFFFFFFFFFFF2000F90800000038
:00000001FF
