:100000000C9446000C9465000C9465000C946500FB
:100010000C9465000C9465000C9465000C946500CC
:100020000C9465000C9465000C9465000C94160902
:100030000C9465000C9465000C9465000C946500AC
:100040000C9465000C9465000C9465000C9465009C
:100050000C9453050C941D070C9465000C946500DA
:100060000C9465000C9465000C9465000C9465007C
:100070000C948F050C9446070C9465000C94650055
:100080000C9465000C9465000C94650011241FBE4F
:10009000CFEFD0E4DEBFCDBF11E0A0E0B1E0E2ECF5
:1000A000FAE100E00BBF02C007900D92A233B10746
:1000B000D9F711E0A2E3B1E001C01D92A436B10767
:1000C000E1F70E94D8000C945F0D0C940000482FBB
:1000D000883068F481E090E002C0880F991F4A954B
:1000E000E2F7282FAAE2B0E0EBE2F0E03EC0803178
:1000F00088F4282F30E02850304081E090E002C0A2
:10010000880F991F2A95E2F7282FA4E2B0E0E5E2D4
:10011000F0E02BC0883188F4282F30E020513040A7
:1001200081E090E002C0880F991F2A95E2F7282FFE
:10013000A7E2B0E0E8E2F0E018C0803230F020E062
:10014000A0E0B0E0E0E0F0E010C02FE130E0281BDC
:10015000310981E090E002C0880F991F2A95E2F7EB
:10016000282FA1E2B0E0E2E2F0E06F3F19F48081D5
:10017000822709C0662319F08081822B04C09081F8
:10018000822F8095892380838C91822B8C93089574
:10019000FC0120E030E08081882311F421E030E090
:1001A000C9010895FC0181E08083089508950895B0
:1001B0002F923F924F925F926F927F928F929F9277
:1001C000AF92BF92CF92DF92EF92FF920F931F9365
:1001D000DF93CF93CDB7DEB7A9970FB6F894DEBF04
:1001E0000FBECDBF82E040E052EC61E070E00E94C3
:1001F0007404882499243E010894611C711C96EFB4
:10020000292E9FEF392E89E2482E512C4C0E5D1E6F
:1002100081E161E00E94670080E161E00E94670087
:1002200080E160E00E94670081E090E00E94810927
:1002300081E160E00E946700630176C080E161E0D7
:100240000E94670080E00E94010380E00E94010399
:100250009C0168EE73E00E94EE0BFB0188E19CEFCD
:10026000689F8001699F100D789F100D1124020F67
:10027000131FC80164E670E00E94EE0B9B01ACE91D
:10028000BFEF6A9F70016B9FF00C7A9FF00C1124F6
:10029000E00EF11EC7016AE070E00E94EE0BE05D27
:1002A000D601EC93205D11962C931197262F205D9B
:1002B00012962C931297629DC001639D900D729DC2
:1002C000900D11248E0D9F1D805D13968C931397B6
:1002D000F9E01496FC932AE029A73DE038A780E1D5
:1002E00060E00E94670081E090E00E94810908942C
:1002F000A11CB11C88E0A816B10409F09FCF82E0D0
:10030000B30149E20E949F0602C00E948D089091AD
:100310001B0180911D019817C1F7A5E0B0E0CA0E3E
:10032000DB1EC414D50419F0AA24BB2487CF82E0B5
:1003300060E071E043E00E949F0602C00E948D08C9
:1003400090911B0180911D019817C1F780E161E038
:100350000E94670080E160E00E94670081E090E019
:100360000E94810980E161E00E94670080E160E015
:100370000E94670081E090E00E9481090894811C3E
:10038000911CBCE28B16B1E09B0609F041CF80E0E6
:1003900090E0A9960FB6F894DEBF0FBECDBFCF9107
:1003A000DF911F910F91FF90EF90DF90CF90BF9062
:1003B000AF909F908F907F906F905F904F903F9005
:1003C0002F9008950E94070D08950E945A0C0895D9
:1003D0009093050180930401089508950895EF9284
:1003E000FF920F931F93CF93DF9380913201882365
:1003F00009F455C0809133019091340120917C0023
:10040000C0910401D0910501BC0180E090E025FF7E
:1004100021C07E01F694E79400E010E02FEF30E079
:1004200040E050E00E94BB0BE60EF71E081F191FAC
:100430009E0140E050E0C801B7010E94010CC901D3
:10044000DA018F3F9105A105B10539F130F12FEFA8
:1004500030E032C07E01F694E79400E010E02FEF28
:1004600033E040E050E00E94BB0BE60EF71E081F91
:10047000191F9E0140E050E0C801B7010E94010C25
:10048000C901DA01803020E0920721E0A20720E0D4
:10049000B20718F02FEF3FEF0FC09C010DC0809105
:1004A0007C0085FF05C080917900282F30E004C0D2
:1004B0002091780030917900C901CDB7DEB7E6E030
:1004C0000C944B0C0E94EF010895909305018093CA
:1004D00004010895A0E0B0E02091040130910501ED
:1004E00040E050E0BC01CD010E94BB0B9B01AC0180
:1004F00080917C0085FF0BC0B901CA0161587F4F14
:100500008F4F9F4F2FEF30E040E050E00AC0B9011D
:10051000CA0161507E4F8F4F9F4F2FEF33E040E075
:1005200050E00E94010CC901089580913201882396
:1005300029F08091330190913401089580917C00DD
:1005400085FF06C08091790090E00E946A020895BC
:1005500080917800909179000E946A0208950E942B
:10056000950208950E946A0208950E94970A0895CC
:10057000982F803200F181E080933201903819F495
:100580000E94970A13C0913819F40E94890A0EC07C
:10059000923819F40E94820A09C0933819F40E9413
:1005A0007B0A04C09438F9F40E94740A90933401D1
:1005B0008093330108951092320187E880937A0086
:1005C00080917C00282F2064662311F0806C02C08B
:1005D000822F8F77807E892B80937C0080917A0098
:1005E000806480937A00089560E00E94B802809150
:1005F0007A0086FDFCCF0E94950208950E94F402C5
:10060000089560E00E94B80280917A0086FDFCCFD8
:100610000E94EF0108950E9401030895A0E0B0E058
:10062000E4E1F3E00C942D0C6B01803220F00E9489
:1006300001039C013AC060E00E94B80280917A00F8
:1006400086FDFCCFE601EE24FF24870180917A002D
:10065000806480937A0080917A0086FDFCCF0E94AE
:10066000EF01A0E0B0E0E80EF91E0A1F1B1F219762
:1006700069F7C6019695879520E4C216D10440F427
:100680008E0D9F1D6C2D70E00E94DA0B9B010DC03A
:10069000A0E0B0E0E80EF91E0A1F1B1F960140E023
:1006A00050E0C801B7010E94010CC901CDB7DEB707
:1006B000E8E00C94490C1F9310917C0080917C0021
:1006C0008F7D80937C008EE164E170E00E940E03D8
:1006D0008EE164E170E00E940E039C0115FD04C0F0
:1006E00080917C008F7D03C080917C00806280932C
:1006F0007C00B9017695679580E090E06C54744D6C
:100700008E4E9F4F40E050E00E94010CC9011F91A6
:1007100008950E945B03089580E864E170E00E9400
:100720000E030895803218F00E94F40208950E948A
:100730000E030E946A0208950E940E03089560E06D
:100740000E94B80208950E94900A0895282F30E070
:10075000F90193E0EE0FFF1F9A95E1F7220F331F87
:10076000E20FF31FEA5FFE4F8081089590E0FC01E5
:10077000EE0FFF1FEE0FFF1FE80FF91FEE0FFF1F19
:10078000E85FFE4F8081089590E0FC01EE0FFF1FAF
:10079000EE0FFF1FE80FF91FEE0FFF1FE85FFE4F80
:1007A000208130E0FC0153E0EE0FFF1F5A95E1F786
:1007B000880F991FE80FF91FEA5FFE4F8481281701
:1007C00009F431E0832F0895282F30E0F901B3E0D8
:1007D000EE0FFF1FBA95E1F7220F331FE20FF31F51
:1007E000EA5FFE4F81810895282F30E0F90173E020
:1007F000EE0FFF1F7A95E1F7220F331FE20FF31F71
:10080000EA5FFE4F918140E0282F30E0F90153E08C
:10081000EE0FFF1F5A95E1F7220F331FE20FF31F70
:10082000EA5FFE4F8381981709F441E0842F089511
:10083000882321F0813009F044C01DC020910601B9
:10084000222311F488E901C088E18093C1008091DE
:100850000C0190910D01892B61F19091070180911C
:100860000901981730F5222321F58091C10080629B
:100870008093C1001CC020911001222311F488E94B
:1008800001C088E18093C900809116019091170101
:10089000892B99F09091110180911301981768F4B8
:1008A000222359F48091C90080628093C900789412
:1008B00008958091C1008F7DDBCF8091C9008F7D2D
:1008C000F4CF0895282F30E0F901B3E0EE0FFF1FB9
:1008D000BA95E1F7220F331FE20FF31FEA5FFE4FD5
:1008E00060830E9418040895A0E0B0E0EAE7F4E015
:1008F0000C942E0CD82E7A018B010E94180482E0F1
:10090000D81619F1DD2019F0CCECD0E002C0C4EC0F
:10091000D0E060EA75E286E290E06E197F09800B14
:10092000910B33E0660F771F881F991F3A95D1F717
:1009300024E0EE0CFF1C001F111F2A95D1F7A8011F
:1009400097010E94010C39832883CDB7DEB7E7E019
:100950000C944A0C0E9474040895282F30E0F90189
:1009600053E0EE0FFF1F5A95E1F7220F331FE20FFE
:10097000F31FEA5FFE4F60830E9418040895582F0A
:10098000823051F0882319F0E9ECF0E002C0E1EC8C
:10099000F0E080818F778083252F30E0D901AA0F86
:1009A000BB1FC901E3E0880F991FEA95E1F7A80F83
:1009B000B91FAA5FBE4F19967C936E931897F901E1
:1009C000EE0FFF1FEE0FFF1FE20FF31FEE0FFF1FD3
:1009D000E85FFE4F108214964C93149715961C9264
:1009E0001597523069F08C91882351F4552319F0F2
:1009F000E9ECF0E002C0E1ECF0E080818068808307
:100A000008950E94BF040895582F823051F0882322
:100A100019F0E9ECF0E002C0E1ECF0E080818F77C2
:100A20008083252F30E0D901AA0FBB1FC901E3E065
:100A3000880F991FEA95E1F7A80FB91FAA5FBE4F6B
:100A400019967C936E931897F901EE0FFF1FEE0F26
:100A5000FF1FE20FF31FEE0FFF1FE85FFE4F108234
:100A600014964C93149781E015968C9315975230F9
:100A700069F08C91882351F4552319F0E9ECF0E0EA
:100A800002C0E1ECF0E080818068808308950E94DC
:100A90000405089560E070E040E00E94BF040895FE
:100AA0000E944A0508951F920F920FB60F920BB63F
:100AB0000F9211242F938F939F93EF93FF93209185
:100AC000C600E0910E01F0910F01309781F09091F6
:100AD000080180910A01981750F480910801E80FED
:100AE000F11D2083809108018F5F80930801909110
:100AF000080180910A01981731F480910B01882335
:100B000011F010920801FF91EF919F918F912F9119
:100B10000F900BBE0F900FBE0F901F9018951F9255
:100B20000F920FB60F920BB60F9211242F938F9343
:100B30009F93EF93FF932091CE00E0911801F091E5
:100B40001901309781F0909112018091140198174A
:100B500050F480911201E80FF11D20838091120161
:100B60008F5F809312019091120180911401981768
:100B700031F480911501882311F010921201FF9138
:100B8000EF919F918F912F910F900BBE0F900FBE01
:100B90000F901F901895CF93DF93382F90E0FC01B2
:100BA00053E0EE0FFF1F5A95E1F7880F991FE80FEA
:100BB000F91FEA5FFE4FA681B781109709F464C060
:100BC000832F90E0FC0123E0EE0FFF1F2A95E1F751
:100BD000880F991FE80FF91FEA5FFE4F2181832FCD
:100BE00090E0FC0163E0EE0FFF1F6A95E1F7880FCC
:100BF000991FE80FF91FEA5FFE4F8381281708F05D
:100C000043C0332319F0E8ECF0E002C0E0ECF0E080
:100C1000808185FF39C0332319F0CEECD0E002C0CB
:100C2000C6ECD0E0832F90E0FC0143E0EE0FFF1F05
:100C30004A95E1F7880F991FE80FF91FEA5FFE4F09
:100C40008181A80FB11D8C918883832F90E0FC01D6
:100C500073E0EE0FFF1F7A95E1F7880F991FE80FF9
:100C6000F91FEA5FFE4F21812F5F832F90E0FC0187
:100C700053E0EE0FFF1F5A95E1F7880F991FE80F19
:100C8000F91FEA5FFE4F2183832F90E0FC01B3E060
:100C9000EE0FFF1FBA95E1F7880F991FE80FF91FB4
:100CA000EA5FFE4F86819781892B09F443C0832F29
:100CB00090E0FC0173E0EE0FFF1F7A95E1F7880FDB
:100CC000991FE80FF91FEA5FFE4F2181832F90E003
:100CD000FC0153E0EE0FFF1F5A95E1F7880F991FB3
:100CE000E80FF91FEA5FFE4F8381281718F5832F5D
:100CF00090E0FC01B3E0EE0FFF1FBA95E1F7880F1B
:100D0000991FE80FF91FEA5FFE4F8081882391F455
:100D1000332319F0E9ECF0E002C0E1ECF0E080816F
:100D2000806204C0E9ECF0E080818F7D8083DF91F8
:100D3000CF9108953323B1F7E1ECF0E0F5CF282F00
:100D400090E0FC0153E0EE0FFF1F5A95E1F7880F8A
:100D5000991FE80FF91FEA5FFE4F77836683822FA2
:100D600090E0FC01B3E0EE0FFF1FBA95E1F7880FAA
:100D7000991FE80FF91FEA5FFE4F1182822F90E062
:100D8000FC0173E0EE0FFF1F7A95E1F7880F991FC2
:100D9000E80FF91FEA5FFE4F4383223009F449C090
:100DA000822F90E0FC0153E0EE0FFF1F5A95E1F710
:100DB000880F991FE80FF91FEA5FFE4F8681978120
:100DC000892B91F1822F90E0FC01B3E0EE0FFF1F21
:100DD000BA95E1F7880F991FE80FF91FEA5FFE4FF8
:100DE0008181841708F5822F90E0FC0173E0EE0FFB
:100DF000FF1F7A95E1F7880F991FE80FF91FEA5F47
:100E0000FE4F8081882381F4222319F0E9ECF0E081
:100E100002C0E1ECF0E08081806204C0E9ECF0E027
:100E200080818F7D808308952223C1F7E1ECF0E07B
:100E3000F7CF08950E949F0608951F920F920FB654
:100E40000F920BB60F9211242F933F934F935F9302
:100E50006F937F938F939F93AF93BF93EF93FF9382
:100E600080E00E94CB05FF91EF91BF91AF919F91E0
:100E70008F917F916F915F914F913F912F910F9043
:100E80000BBE0F900FBE0F901F9018951F920F92E0
:100E90000FB60F920BB60F9211242F933F934F93DF
:100EA0005F936F937F938F939F93AF93BF93EF93D2
:100EB000FF9381E00E94CB05FF91EF91BF91AF912D
:100EC0009F918F917F916F915F914F913F912F9162
:100ED0000F900BBE0F900FBE0F901F901895982F7C
:100EE000823071F0882319F0E9ECF0E002C0E1EC07
:100EF000F0E080818F7D8083892F0E94CB0508954B
:100F0000E0912001F09121013097B1F090911B0107
:100F100080911D01981780F406C080911B018F5F9E
:100F200080931B01EDCF80911B01E80FF11D8081A3
:100F30000E942C0A882389F708950F931F93CF935B
:100F4000DF93682F823009F49CC0882319F0E9EC04
:100F5000F0E002C0E1ECF0E080818F778083462FE3
:100F600050E0DA01AA0FBB1FCA0123E0880F991FC6
:100F70002A95E1F7A80FB91FAA5FBE4F1896CD9129
:100F8000DC911997209709F45AC0FA01EE0FFF1F60
:100F9000EE0FFF1FE40FF51FEE0FFF1FE85FFE4F80
:100FA000808114962C91821708F049C0662319F0AD
:100FB000E8ECF0E002C0E0ECF0E0808187FF3FC0A9
:100FC000662319F4E6ECF0E002C0EEECF0E090816C
:100FD000FA01EE0FFF1FEE0FFF1FE40FF51FEE0FDC
:100FE000FF1FE85FFE4F8081821738F48081C80FB1
:100FF000D11D988380818F5F8083FA01EE0FFF1FE0
:10100000EE0FFF1FE40FF51FEE0FFF1FE85FFE4F0F
:101010008081DA01AA0FBB1F9A0113E0220F331F50
:101020001A95E1F7A20FB31FAA5FBE4F14969C91C9
:101030001497891721F415968C9181111082FA0169
:10104000A3E0EE0FFF1FAA95E1F7440F551FE40F31
:10105000F51FEA5FFE4F8081882309F059C066239F
:1010600019F0E9ECF0E002C0E1ECF0E0808180688A
:1010700080834EC080911F01882319F010921C01BB
:1010800047C08091220190912301892B09F440C02F
:1010900090911C0180911E019817D0F58091350127
:1010A0008823A9F40E949E0A8093350110E00BC0AA
:1010B0000E943C0AE02FF0E03197E11BF109EA5C65
:1010C000FE4F80831F5F00913501101788F3E09178
:1010D0003501EE23E9F080911C01A0912201B0912D
:1010E0002301A80FB11DE150E0933501F0E0EA5C67
:1010F000FE4F80818C9380911C018F5F80931C0137
:1011000090911C0180911E01981709F0BACFB2CFBF
:10111000DF91CF911F910F91089580E00E946F079A
:1011200081E00E946F0782E00E946F0780E00E94CA
:101130009D0781E00E949D0782E00E949D0708951F
:101140001F93182F0E949F0602C00E948D08812FB6
:1011500090E0FC0173E0EE0FFF1F7A95E1F7880F36
:10116000991FE80FF91FEA5FFE4F2181812F90E060
:10117000FC0153E0EE0FFF1F5A95E1F7880F991F0E
:10118000E80FF91FEA5FFE4F83812817F1F61F91E0
:1011900008950E94A0080895A0E0B0E0E2EDF8E014
:1011A0000C94290C082F79010E94BF040E94B209F7
:1011B0004B015C0110E0E801CC0FDD1FCC0FDD1FFF
:1011C000C00FD11FCC0FDD1FC85FDE4F6801F3E0F9
:1011D000CC0CDD1CFA95E1F7000F111FC00ED11EDB
:1011E0008AE091E0C80ED91E00E010E00E948D0850
:1011F0009881F6018081981711F480E00CC00E945C
:10120000B209681979098A099B096E157F0580075B
:10121000910760F381E0CDB7DEB7ECE00C94450CAC
:101220000E94CC0808950E948D0808952F928F93F4
:101230009F932FB680913F0190914001019680933A
:101240003F019093400190E080914101891F80937C
:101250004101909147019C5F909347018091460125
:1012600080519742C0F0909347018093460180914E
:101270004201909143010196809342019093430172
:1012800090E080914401891F809344018091450141
:10129000891F809345012FBE9F918F912F901895A4
:1012A0006F5F7F4F8F4F9F4F660F771F881F991F6C
:1012B00025E030E040E050E00E94010CCA01B90195
:1012C000089528EE33E009C0F9016F9364E06A9550
:1012D000F1F76F913197C9F701970097A9F7089532
:1012E0006F5F7F4F8F4F9F4F660F771F881F991F2C
:1012F00025E030E040E050E00E94010CCA01B90155
:10130000089528EE33E009C0F9016F9364E06A950F
:10131000F1F76F913197C9F701970097A9F70895F1
:10132000A0E7B0E08C918E7F8C93E0EBF0E08081C1
:1013300083608083E1EBF0E08081807F8083808127
:1013400082608083B89A8C9181608C9378940895A0
:1013500080914801882329F481E0809348010E940C
:10136000900908950E94A809E0E7F0E080818E7F4F
:10137000808320914201309143014091440150917A
:101380004501808181608083B901CA0108950E946E
:10139000B20908950E94A809809170008E7F809301
:1013A00070006091B20080913E0190913F01A09148
:1013B0004001B0914101B89905C0262F30E040E0CE
:1013C00050E011C08091B20020913E0130913F0168
:1013D000409140015091410120503F4F4F4F5F4F8E
:1013E00090E0A0E0B0E0282B392B4A2B5B2B8091BA
:1013F0007000816080937000B901CA0108950E9455
:10140000CA0908950E94A809E0E7F0E080818E7F74
:101410008083109242011092430110924401109275
:1014200045011092470110924601808181608083BE
:1014300008950E94020A0895982F80915F018917EC
:1014400039F090935F01892F806C65E00E94840BD6
:1014500008950E941C0A08951F93182F881F88273B
:10146000881F8C5765E00E94840B812F8F7765E081
:101470000E94840B1F9108958FEF64E00E94840BFB
:101480000895CF93DF930E94B209209128013091F3
:10149000290140912A0150912B016217730784079B
:1014A0009507B9F081E867E00E94840BC2E5D1E0BE
:1014B0000E943C0A899381E0CF35D807C9F70E9482
:1014C000B209609328017093290180932A019093B7
:1014D0002B01DF91CF9108950E94410A8091520122
:1014E00008950E946C0A08950E94410A8091590152
:1014F00090915A0108950E94410A8091570190915C
:10150000580108950E94410A809155019091560119
:1015100008950E94410A80915301909154010895C9
:101520000E94410A80915D0190915E0108950E94A0
:10153000410A80915B0190915C01089583E867E026
:101540000E94840B0E943C0A0895A5E0B0E0EBEAFB
:10155000FAE00C94320C82E866E00E94840B0E9450
:101560003C0A80934D010E943C0A80934E010E94E8
:101570003C0A80934F010E943C0A809350011091D5
:1015800051010E943C0A182B10935101DE01119663
:10159000EDE4F1E085E001900D928150E1F72981C1
:1015A0003A814B815C816D8170E090E02596E3E0AB
:1015B0000C944E0C0E94B209209124013091250117
:1015C0004091260150912701621773078407950700
:1015D00061F00E94A50A0E94B209609324017093F1
:1015E0002501809326019093270108950E94DA0A2D
:1015F0008091510181FD02C080E008958D7F80932C
:10160000510181E008950E94F60A08950E94DA0AC5
:101610008091510180FD02C080E008958E7F80930B
:10162000510181E008950E94060B08950E94DA0A94
:1016300020914F013091500180914B0190914C01CC
:10164000281B390BC90108950E94160B20914F01E8
:101650003091500130934C0120934B0108950E942A
:10166000240B08950E94160B08950E94DA0A209117
:101670004D0130914E018091490190914A01281B02
:10168000390BC90108950E94350B20914D0130910D
:101690004E0130934A012093490108950E94430B63
:1016A00008950E94350B089580E865E00E94840B40
:1016B0000E943C0A08950E94540B0895982F249983
:1016C0000CC02C990AC02C9AEEE1F0E06F9364E014
:1016D0006A95F1F76F913197C9F784B1806A84B93F
:1016E0002698892F837080656C7A862B8CBD892F14
:1016F00090E0969587959695879581708DBD81E050
:1017000090E00E94810908950F931F93082F162FD0
:101710000CB406FC04C080E064E00E945E0B0CB4D4
:1017200004FC03C08CB580618CBD0EBD05C00CB43B
:1017300004FC02C080E00FC00DB407FEF8CF1123F7
:1017400049F0812F90E06F9364E06A95F1F76F9113
:101750000197C9F78EB51F910F91089560E00E941F
:10176000840B08950E94AE0B08950E94840B089587
:101770000E945E0B0895629FD001739FF001829FCB
:10178000E00DF11D649FE00DF11D929FF00D839F10
:10179000F00D749FF00D659FF00D9927729FB00DAD
:1017A000E11DF91F639FB00DE11DF91FBD01CF01C0
:1017B00011240895AA1BBB1B51E107C0AA1FBB1F20
:1017C000A617B70710F0A61BB70B881F991F5A95CD
:1017D000A9F780959095BC01CD01089597FB092E3E
:1017E00007260AD077FD04D0E5DF06D000201AF4E2
:1017F000709561957F4F0895F6F7909581959F4F6D
:101800000895A1E21A2EAA1BBB1BFD010DC0AA1F41
:10181000BB1FEE1FFF1FA217B307E407F50720F059
:10182000A21BB30BE40BF50B661F771F881F991FD4
:101830001A9469F760957095809590959B01AC011D
:10184000BD01CF0108952F923F924F925F926F9208
:101850007F928F929F92AF92BF92CF92DF92EF9240
:10186000FF920F931F93CF93DF93CDB7DEB7CA1BC1
:10187000DB0B0FB6F894DEBF0FBECDBF09942A88EC
:10188000398848885F846E847D848C849B84AA8494
:10189000B984C884DF80EE80FD800C811B81AA8121
:1018A000B981CE0FD11D0FB6F894DEBF0FBECDBFEC
:1018B000ED010895CF93DF93BC018230910510F4C0
:1018C00062E070E0A0916201B0916301ED01E0E09F
:1018D000F0E040E050E021C08881998186179707A9
:1018E00069F48A819B81309719F09383828304C0C5
:1018F0009093630180936201FE0134C068177907F9
:1019000038F44115510519F08417950708F4AC0116
:10191000FE018A819B819C01E9012097E9F641152E
:101920005105A9F1CA01861B970B049708F4BA0167
:10193000E0E0F0E02AC08D919C9111978417950703
:10194000F9F46417750781F412968D919C911397A1
:10195000309719F09383828304C09093630180933E
:101960006201FD0132964FC0CA01861B970BFD0133
:10197000E80FF91F6193719302978D939C9343C075
:10198000FD01828193819C01D9011097A1F680917C
:10199000600190916101892B41F480912E01909119
:1019A0002F0190936101809360014091300150912B
:1019B00031014115510541F44DB75EB780912C01BD
:1019C00090912D01481B590B2091600130916101CC
:1019D00024173507B0F4CA01821B930B86179707AB
:1019E00080F0AB014E5F5F4F8417950750F0420FB8
:1019F000531F5093610140936001F901619371930A
:101A000002C0E0E0F0E0CF01DF91CF910895CF93E5
:101A1000DF93009709F450C0EC0122971B821A82D1
:101A2000A0916201B0916301109709F140E050E08C
:101A3000AC17BD0708F1BB83AA83FE012191319148
:101A4000E20FF31FAE17BF0779F48D919C911197A8
:101A5000280F391F2E5F3F4F3983288312968D91AF
:101A60009C9113979B838A834115510571F4D09300
:101A70006301C093620120C012968D919C911397CF
:101A8000AD01009711F0DC01D3CFFA01D383C283FB
:101A900021913191E20FF31FCE17DF0769F488819E
:101AA0009981280F391F2E5F3F4FFA013183208320
:101AB0008A819B8193838283DF91CF910895F894EB
:021AC000FFCF56
:101AC2000A0D0A0088130000000000000000000058
:101AD2000000000000000000000001000000000003
:101AE20000000000FFFFFFFFFFFFFFFF2000640177
:021AF2000000F2
:00000001FF
