:100000000C9446000C9465000C9465000C946500FB
:100010000C9465000C9465000C9465000C946500CC
:100020000C9465000C9465000C9465000C949E0B78
:100030000C9465000C9465000C9465000C946500AC
:100040000C9465000C9465000C9465000C9465009C
:100050000C9465000C9465000C9465000C9465008C
:100060000C9465000C9465000C9465000C9465007C
:100070000C9465000C9465000C9465000C9465006C
:100080000C9465000C9465000C94650011241FBE4F
:10009000CFEFD0E4DEBFCDBF11E0A0E0B1E0E2E7FA
:1000A000FDE100E00BBF02C007900D92A437B1073D
:1000B000D9F711E0A4E7B1E001C01D92A839B1075A
:1000C000E1F70E9477000C94B70E0C940000FC013D
:1000D00020E030E08081882311F421E030E0C90184
:1000E0000895FC0181E080830895089508952F927A
:1000F0003F924F925F926F927F928F929F92AF92B8
:10010000BF92CF92DF92EF92FF920F931F93DF93F4
:10011000CF93CDB7DEB72E970FB6F894DEBF0FBEE4
:10012000CDBF10927401109275018FEF809376010C
:100130008093770110927801109279010E9414093E
:1001400080E091E00E94200A88EE93E00E94090C72
:100150000E94C30687E091E00E94200A80E40E948A
:10016000C906C82E0E941A0782E40E94C906082FF9
:100170000E941A0784E40E94C906E82E0E941A070A
:100180000E9414098DE091E00E94200A10E0DD2415
:100190000C291D29FF240E291F29012B59F084E168
:1001A00091E00E94200A0E941A0789E191E00E94D2
:1001B000200ACDC58FE191E00E94200A84E291E0FF
:1001C0000E94200A80E40E94C90686E00E9422075D
:1001D00080E00E94220780E00E9422070E941A0706
:1001E00082E40E94C90686E00E94220780E00E9405
:1001F000220780E00E9422070E941A078091740162
:1002000080628093740188EE93E00E94090C0E9442
:100210001409AA24BB24CC24DD2466247724882452
:100220009924222433241E861D8600E010E081E0FC
:1002300090E09C878B879A87898798878F839E8396
:100240008D839C838B839A838983EE24FF244424AB
:1002500055245DC584E40E94C90680E00E942207FF
:1002600085E40E94C9060E943407809378010E94A9
:100270003E07809379010E941A07ED85FE85EF2BDA
:1002800039F4F7E201311F070CF443C0780104C0D0
:100290008D859E85019749F4C8018E199F09815A61
:1002A0009F400CF443C0780104C08D859E85029761
:1002B00049F4C8018E199F09853691050CF447C091
:1002C000780104C0ED85FE85339749F4C8018E1985
:1002D0009F09815A9F400CF44BC0780104C08D8562
:1002E0009E85049749F4C8018E199F09895E934041
:1002F0000CF44FC0780104C08D859E85059749F4A4
:10030000C8018E199F09853691050CF451C07801FA
:1003100004C0ED85FE85369769F4C8018E199F09E2
:10032000815A9F400CF455C0780108C081E090E0EC
:100330009E878D87ED85FE85379769F4C8018E19F4
:100340009F09853691050CF455C0780108C082E0FC
:1003500090E09E878D87ED85FE85389769F4C8010A
:100360008E199F09853691050CF453C0780108C099
:1003700083E090E09E878D87ED85FE85399769F44F
:10038000C8018E199F09815A9F400CF453C078010F
:1003900008C084E090E09E878D87ED85FE853A97C2
:1003A00059F4C8018E199F09853691054CF453C044
:1003B00085E090E09E878D87ED85FE853B9769F40B
:1003C000C8018E199F09815A9F400CF455C07801CD
:1003D00008C086E090E09E878D87ED85FE853C977E
:1003E00069F4C8018E199F09853691050CF455C032
:1003F000780108C087E090E09E878D87ED85FE85B7
:100400003D9759F4C8018E199F09815A9F404CF4B9
:1004100055C088E090E09E878D87ED85FE853E97EC
:1004200069F4C8018E199F09815A9F400CF457C086
:10043000780108C089E090E09E878D87ED85FE8574
:100440003F9769F4C8018E199F09853691050CF410
:1004500057C0780108C08AE090E09E878D87ED85BF
:10046000FE85709769F4C8018E199F09853691053C
:100470000CF457C0780108C08BE090E09E878D8710
:10048000ED85FE85719769F4C8018E199F09815A1F
:100490009F400CF457C0780108C08CE090E09E8724
:1004A0008D87ED85FE85729769F4C8018E199F09C5
:1004B000853691050CF457C0780108C08DE090E0B6
:1004C0009E878D87ED85FE85739769F4C8018E1927
:1004D0009F09815A9F400CF457C0780108C08EE0F4
:1004E00090E09E878D87ED85FE85749769F4C8013D
:1004F0008E199F09853691050CF455C0780108C006
:100500008FE090E09E878D87ED85FE85759769F475
:10051000C8018E199F09815A9F400CF455C078017B
:1005200008C080E190E09E878D87ED85FE857697F7
:1005300069F4C8018E199F09853691050CF455C0E0
:10054000780108C081E190E09E878D87ED85FE856A
:10055000779769F4C8018E199F09815A9F400CF45E
:1005600055C0780108C082E190E09E878D87ED85B7
:10057000FE85789769F4C8018E199F098536910523
:100580000CF453C0780108C083E190E09E878D870A
:10059000ED85FE85799759F4C8018E199F09815A16
:1005A0009F404CF453C084E190E09E878D87ED8599
:1005B000FE857A9769F4C8018E199F09815A9F4078
:1005C0000CF455C0280108C085E190E09E878D8716
:1005D000ED85FE857B9769F4C801841995098536F8
:1005E00091050CF455C0780108C086E190E09E8723
:1005F0008D87ED85FE857C9769F4C8018E199F096A
:10060000853691050CF455C0780108C087E190E06B
:100610009E878D87ED85FE857D9759F4C8018E19DB
:100620009F09815A9F404CF455C088E190E09E8715
:100630008D87ED85FE857E9769F4C8018E199F0927
:10064000815A9F400CF457C0780108C089E190E0BE
:100650009E878D87ED85FE857F9769F4C8018E1989
:100660009F09895E93400CF474C0780108C08AE148
:1006700090E09E878D87ED85FE85B09769F4C8016F
:100680008E199F09815A9F400CF48EC0780108C0D2
:100690008BE190E09E878D87ED85FE85B19769F4AB
:1006A000C8018E199F09853691050CF494C0780114
:1006B00008C08CE190E09E878D87ED85FE85B2971E
:1006C00069F4C8018E199F09815A9F400CF494C0A7
:1006D000780108C08DE190E09E878D87ED85FE85CD
:1006E000B39771F4C8018E199F090B970CF434C3AA
:1006F0008FEF9FEF30C0EEE1F0E0FE87ED872DC079
:100700008D859E85892B49F5809178012091740112
:100710009091760182FF0AC02F7E20937401977F0B
:100720009093760161E0C62ED12C6AC02F7D209374
:1007300074019F7E986090937601EB85FC853197DC
:1007400009F00DC30E9414098BE291E00E94200A77
:1007500006C38FE190E09E878D87ED85FE853197FA
:1007600039F50E94140920917601322F3E7FC8018D
:1007700068EC70E00E94C30C8436910524F42C7F51
:100780002093760103C0326030937601809174012A
:10079000866080937401809176018B7F80937601CF
:1007A00051E0A52EB12C2CC080E290E09E878D8771
:1007B000ED85FE85329799F480917601817E866180
:1007C000809376018091740180628B7F80937401A5
:1007D000AA24BB2442C081E290E09E878D87ED85EC
:1007E000FE85339769F48091740180618093740170
:1007F00041E0C42ED12C4DC082E290E09E878D87CF
:10080000ED85FE85349769F4809174018F7D809326
:10081000740180917601886080937601CC24DD2478
:1008200046C08D859E85059759F4809176018F7E0F
:10083000809376018091740180628093740144C03A
:10084000ED85FE85369749F480917401806180932F
:10085000740131E0C32ED12C46C08D859E8507974B
:10086000C1F480917501816080937501809174015C
:100870008F7780937401E985FA85319709F074C206
:100880000E94140989E391E00E94200A1A861986C1
:100890006BC28D859E85089751F4809176018064A6
:1008A0008F7D8093760121E0622E712C1CC0ED8536
:1008B000FE85399749F4809174018F7E809374018D
:1008C00091E0C92ED12C36C08D859E850A9759F4AA
:1008D000809176018F7B80628093760166247724F5
:1008E000CC24DD2439C0ED85FE853B9749F4809109
:1008F000740180618093740181E0C82ED12C44C0C2
:100900008D859E850C9789F4809174018F778093F3
:1009100074018091760180648F7D80937601CC2470
:10092000DD24B1E06B2E712C41C0ED85FE853D9735
:1009300009F449C08D859E850E9771F480917601EA
:100940008F7B806280937601809175018E7F80938A
:100950007501662477244DC0ED85FE853F97A1F48F
:100960008091750188608B7F809375018F81988558
:10097000019709F0FCC10E94140981E491E00E94F2
:10098000200A18861F82F3C1ED85FE85709771F4E9
:1009900080917701816080937701809176018F77D4
:1009A00080937601A1E08A2E912C23C08D859E85AF
:1009B000419761F4809174018F7E80937401F1E01E
:1009C000CF2ED12C41C0E1E0CE2ED12CED85FE857D
:1009D000729779F4809177018E7F8093770180916F
:1009E0007601806880937601CC24DD2488249924C4
:1009F00043C08D859E85439749F480917401806141
:100A00008093740171E0C72ED12C3EC0ED85FE8528
:100A10007497A9F4809175018B7F80937501809103
:100A20007701816080937701809176018F77809341
:100A30007601CC24DD2461E0862E912C3CC08D858E
:100A40009E85459709F444C0ED85FE857697A1F40F
:100A5000809177018E7F8093770180917601806805
:100A60008093760180917501877F80937501CC24F6
:100A7000DD248824992439C08D859E85479721F4EB
:100A80008091740180611EC0ED85FE85789799F490
:100A900080917701877F809377018D819E81019777
:100AA00009F068C10E94140989E491E00E94200ABB
:100AB0001E821D825FC1ED85FE85799761F480916C
:100AC00074018F7E8093740151E0C52ED12C1DC01E
:100AD00041E0C42ED12C8D859E854A9731F48091BA
:100AE00077018860809377013BC0ED85FE857B9719
:100AF00061F48091750180648F7D80937501CC24B1
:100B0000DD2431E0232E312C34C08D859E854C9719
:100B100091F4EB81FC81319741F40E94140981E545
:100B200091E00E94200A1C821B82809177018D7FB8
:100B3000809377012BC08D859E858D319105C9F1FC
:100B40004E9771F4809175018F7B80937501809130
:100B5000770182608B7F809377012224332439C010
:100B6000ED85FE857F9729F480917601877F8061EE
:100B70001BC08D859E85809749F4809174018F7E7E
:100B80008093740121E0C22ED12C3DC0ED85FE85FD
:100B9000B19791F4809174018F7D8460809374018A
:100BA0008091760188608F7E80937601CC24DD244D
:100BB0002AC091E0C92ED12C8D859E85829749F45B
:100BC000809174018D7F8093740181E0A82EB12CF7
:100BD0001AC0ED85FE85B397B1F4809174018B7FC7
:100BE0008093740189819A81019719F0AA24BB240A
:100BF0000AC00E9414098BE591E00E94200AAA24F1
:100C0000BB241A821982C8018E199F0962E070E024
:100C10000E94C30C9C01181619064CF0A114B104D3
:100C200031F08091740181608093740108C08091DB
:100C300074018E7F80937401121613064CF0C11458
:100C4000D10431F08091740188608093740108C0F0
:100C500080917401877F80937401121613064CF003
:100C60006114710431F08091740180648093740187
:100C700008C0809174018F7B809374011216130653
:100C80003CF08114910421F080917501826003C0D1
:100C9000809175018D7F80937501C8018419950934
:100CA00062E070E00E94C30C181619063CF0211493
:100CB000310421F080917501806103C0809175013C
:100CC0008F7E8093750180E40E94C90682E00E94B5
:100CD0002207809174010E942207809175010E9471
:100CE00022070E941A0782E40E94C90682E00E943D
:100CF0002207809176010E942207809177010E944D
:100D000022070F5F1F4F81E090E00E94090CED85E4
:100D1000FE85EF5FFF4F09F09DCA809174018B7DC6
:100D20008093740180917501867B8093750180E4C6
:100D30000E94C90682E00E942207809174010E94ED
:100D40002207809175010E9422070E941A0788E6F7
:100D500091E00E94200AFFCF83E290E0FCCCCC24FB
:100D6000DD241C861B864CCDCC24DD24BCCDCC24BC
:100D7000DD243FCECC24DD24C8CE0E94F00D0895A2
:100D80000E94430D08951092B9008CE08093B80042
:100D90000895982F84EA8093BC008091BC0087FF5F
:100DA000FCCF8091B900887F883021F0803111F02C
:100DB00081E008959093BB0084E88093BC0080910B
:100DC000BC0087FFFCCF9091B900987F983111F457
:100DD00080E0089580E0903409F081E00895982F34
:100DE00044EA34E824E94093BC008091BC0087FFCA
:100DF000FCCF8091B900887F883011F0803199F75D
:100E00009093BB003093BC008091BC0087FFFCCF67
:100E10008091B900887F803211F0883539F42093B1
:100E2000BC008091BC0084FDFCCFDDCF08950E9402
:100E3000C906089584E98093BC008091BC0084FDBC
:100E4000FCCF08958093BB0084E88093BC00809120
:100E5000BC0087FFFCCF8091B90090E0887F88328A
:100E600009F091E0892F089584EC8093BC00809173
:100E7000BC0087FFFCCF8091BB00089584E880937D
:100E8000BC008091BC0087FFFCCF8091BB0008951F
:100E90000895089580E090E00895EF92FF920F93F7
:100EA0001F9367B13D982898299AE0907E01F090B1
:100EB0007F01009180011091810120E030E041E04C
:100EC00050E0CA016F9364E06A95F1F76F91019762
:100ED000C9F72A9ACA016F9364E06A95F1F76F9196
:100EE0000197C9F786B12A98FA016F9364E06A9571
:100EF000F1F76F913197C9F72A9AFA016F9364E07D
:100F00006A95F1F76F913197C9F72A982C5F3F4F97
:100F100085FF09C0C901A0E0B0E08E159F05A007BC
:100F2000B10708F4CECFC901A0E0B0E08E159F054F
:100F3000A007B10728F082E390E0A0E0B0E004C091
:100F400080E395E7A0E0B0E080937E0190937F017D
:100F5000A0938001B093810167B91F910F91FF9019
:100F6000EF90089528B190E08F709070880F991FCE
:100F7000880F991F237C282B28B92A9A81E090E0BA
:100F8000FC016F9364E06A95F1F76F913197C9F7AF
:100F90002A986F9364E06A95F1F76F910197C9F70A
:100FA000089580917A0190917B01009711F00E9441
:100FB000F00D80916C0190E0019720916D0130E07F
:100FC000AC01429FC001439F900D529F900D112490
:100FD0000E94430D90937B0180937A01009729F141
:100FE00060E070E208C0E0917A01F0917B01E40FCB
:100FF000F51F70836F5F462F50E080916C0190E089
:10100000019720916D0130E0FC01E29FC001E39F58
:10101000900DF29F900D11244817590724F386E391
:101020009AE06AE477E00E94480E089580936D018B
:1010300060936C010E94D107089580936D016093C5
:101040006C010E94D10708950E94D10708953D9830
:10105000459A80E395E7A0E0B0E080937E0190930D
:101060007F01A0938001B0938101209A219A229A56
:101070008EE190E00E94090C83E00E947C0B86E0E8
:1010800090E00E94090C83E00E947C0B82E090E0DB
:101090000E94090C83E00E947C0B82E090E00E9499
:1010A000090C82E00E947C0B82E090E00E94090C17
:1010B00088E20E94C60888E00E94C60881E00E947B
:1010C000C60886E00E94C6088CE00E94C608089503
:1010D00080918201882329F481E0809382010E941B
:1010E00027080895FF920F931F93082F162FF42EB1
:1010F0000E9468080E944D0737B128B12998112332
:1011000011F0289A01C0289887B18C6387B981E0D3
:10111000F816E1F088B1902F92959F70990F990F72
:10112000837C982B98B92A9A81E090E0FC016F9318
:1011300064E06A95F1F76F913197C9F72A986F9338
:1011400064E06A95F1F76F910197C9F788B10F7064
:10115000000F000F837C802B88B92A9A81E090E0F1
:10116000FC016F9364E06A95F1F76F913197C9F7CD
:101170002A986F9364E06A95F1F76F910197C9F728
:1011800037B928B91F910F91FF90089560E042E0B0
:101190000E94720808950F931F93082F162F08C0FE
:1011A000002311F480E101C084E10E94C6081150BF
:1011B0001123B1F71F910F9108950E94CB08089554
:1011C0008CE00E94C60808950E94E00808958130CE
:1011D00011F48FE001C08EE00E94C60808950E94BD
:1011E000E7080895A4E0B0E0E8EFF8E00C94060DFD
:1011F000182F062F80E8898380EC8A8384E98B830B
:1012000084ED8C83FE01E60FF11D8181810F0E9428
:10121000C60810937D0100937C012496E4E00C94B1
:10122000220D0E94F208089581E00E94C608809174
:101230007A0190917B01892B19F160E070E208C07E
:10124000E0917A01F0917B01E40FF51F70836F5FED
:10125000462F50E080916C0190E0019720916D0144
:1012600030E0FC01E29FC001E39F900DF29F900DE2
:1012700011244817590724F310927D0110927C0124
:1012800008950E941409089561E042E00E947208E6
:1012900008950F931F93CF93DF9300E010E8C82FBA
:1012A000D0E0812F90E08C239D23892B11F081E3E6
:1012B00001C080E30E9444090F5F083011F01695C9
:1012C000F0CFDF91CF911F910F9108950E944909AE
:1012D00008958A3010F4805D01C0895C0E94440941
:1012E00008951F93182F82958F700E946909812F8E
:1012F0008F700E9469091F9108951F93182F892FDD
:101300000E947109812F0E9471091F9108950E9406
:101310007D0908950E94710908956F927F928F92BE
:101320009F92AF92BF92CF92DF92FF920F93DF9383
:10133000CF93CDB7DEB72A970FB6F894DEBF0FBEB6
:10134000CDBF5B016C010AE03E010894611C711C79
:10135000FA2CC601B5012AE030E040E050E00E94DE
:10136000D60CC901DA015C016D0101504301800E08
:10137000911C80E3F80EC601B5012AE030E040E0A0
:1013800050E00E94A40CF61AF401F082A114B104FA
:10139000C104D104E9F608C0F601E00FF11D808117
:1013A0000E9444090F5F04C06E010894C11CD11C47
:1013B0000A3090F32A960FB6F894DEBF0FBECDBF69
:1013C000CF91DF910F91FF90DF90CF90BF90AF90C2
:1013D0009F908F907F906F9008950E948D0908953F
:1013E000EF92FF920F931F937B018C0197FF0BC02D
:1013F00010950095F094E094E11CF11C011D111D65
:101400008DE20E944409C801B7010E948D091F9115
:101410000F91FF90EF9008950E94F0090895CF93E7
:10142000DF93EC0103C00E9444092196FE018491E0
:101430008823C9F7DF91CF9108950E940F0A08957C
:10144000CF93DF93EC0103C021960E944409888169
:101450008823D1F7DF91CF9108950E94200A089543
:101460000E94440908950E9444090895A0E0B0E054
:10147000ECE3FAE00C94020DE82E80917A01909151
:101480007B01892B09F405C12AE0E21609F446C064
:1014900038E0E316C9F480917D01815080937D018D
:1014A0008F3F51F480917C01815080937C01809129
:1014B0006D01815080937D0180917C018F3F09F007
:1014C000E2C010927C01DDC08E2D0E944409209163
:1014D0007C012223C9F030E02150304080916D0121
:1014E00090E0AC01249FC001259F900D349F900D8A
:1014F000112420917D01E0917A01F0917B01E80FA8
:10150000F91FE20FF11DE08280917D018F5F8093D2
:101510007D0190916D01891709F0BBC040917C015C
:10152000242F30E080916C0190E001972817390753
:1015300009F0A4C0C0E0D0E044C080E06C2F0E945D
:10154000F208FF246E010894C11CD11C35C00F2D78
:1015500010E090E09C01C29FC001C39F900DD29FFC
:10156000900D1124E0917A01F0917B01E00FF11FC1
:10157000E80FF91F80810E944409E0917A01F091FF
:101580007B0180916D0190E0C89FD001C99FB00D93
:10159000D89FB00D1124E00FF11FAE0FBF1FAC019B
:1015A000C49EC001C59E900DD49E900D1124E80FDD
:1015B000F91F80818C93F39480916D01F81638F2B5
:1015C000E60160916C01862F90E00297C817D90759
:1015D0000CF4B3CF623008F440C0625080E00E9447
:1015E000F208FF2440E2D42E34C00F2D10E0809189
:1015F0006C0190E0029730E0AC01429FC001439F34
:10160000900D529F900D1124E0917A01F0917B0191
:10161000E00FF11FE80FF91F80810E94440920911B
:101620006C0130E02250304080916D0190E0AC01BF
:10163000249FC001259F900D349F900D1124E091AF
:101640007A01F0917B01E00FF11FE80FF91FD082C2
:10165000F39420916D01F21640F260916C0161509B
:1016600080E00E94F20800E004C080E20E94440989
:101670000F5F80916D010817C0F303C04F5F409367
:101680007C0110927D0180917D0160917C010E941E
:10169000F2082E2D332727FD3095C901CDB7DEB7CF
:1016A000E8E00C941E0DEF92FF920F931F93CF93DF
:1016B000DF937C01062F10E053E0000F111F5A95B5
:1016C000E1F7C0E0D0E09E01200F822F80640E94ED
:1016D000C608F701EC0FFD1FE4918E2F0E9444090C
:1016E0002196C830D10579F7CDB7DEB7E6E00C9486
:1016F000200D0E94530B089560E041E00E947208A3
:1017000008950F931F93CF93DF93082F162FEA01AD
:101710000BC0002311F488E101C08CE10E94C608CF
:10172000CE010E94090C1150112399F7DF91CF913E
:101730001F910F9108950E94810B08952F928F930E
:101740009F932FB68091840190918501019680939B
:1017500084019093850190E080918601891F809398
:10176000860190918C019C5F90938C0180918B01FC
:1017700080519742C0F090938C0180938B018091AF
:101780008701909188010196809387019093880149
:1017900090E080918901891F8093890180918A015D
:1017A000891F80938A012FBE9F918F912F9018954A
:1017B0006F5F7F4F8F4F9F4F660F771F881F991F57
:1017C00025E030E040E050E00E94D60CCA01B901AB
:1017D000089528EE33E009C0F9016F9364E06A953B
:1017E000F1F76F913197C9F701970097A9F708951D
:1017F0006F5F7F4F8F4F9F4F660F771F881F991F17
:1018000025E030E040E050E00E94D60CCA01B9016A
:10181000089528EE33E009C0F9016F9364E06A95FA
:10182000F1F76F913197C9F701970097A9F70895DC
:10183000A0E7B0E08C918E7F8C93E0EBF0E08081AC
:1018400083608083E1EBF0E08081807F8083808112
:1018500082608083B89A8C9181608C93789408958B
:1018600080918D01882329F481E080938D010E946D
:10187000180C08950E94300CE0E7F0E080818E7F24
:101880008083209187013091880140918901509196
:101890008A01808181608083B901CA0108950E9414
:1018A0003A0C08950E94300C809170008E7F8093D6
:1018B00070006091B2008091830190918401A091A9
:1018C0008501B0918601B89905C0262F30E040E02F
:1018D00050E011C08091B2002091830130918401C9
:1018E000409185015091860120503F4F4F4F5F4FEF
:1018F00090E0A0E0B0E0282B392B4A2B5B2B8091A5
:101900007000816080937000B901CA0108950E943F
:10191000520C08950E94300CE0E7F0E080818E7F49
:101920008083109287011092880110928901109291
:101930008A0110928C0110928B01808181608083DA
:1019400008950E948A0C0895629FD001739FF00150
:10195000829FE00DF11D649FE00DF11D929FF00D3F
:10196000839FF00D749FF00D659FF00D9927729F76
:10197000B00DE11DF91F639FB00DE11DF91FBD0101
:10198000CF011124089597FB092E07260AD077FD71
:1019900004D065D006D000201AF4709561957F4F71
:1019A0000895F6F7909581959F4F0895A1E21A2E1C
:1019B000AA1BBB1BFD010DC0AA1FBB1FEE1FFF1FF3
:1019C000A217B307E407F50720F0A21BB30BE40B43
:1019D000F50B661F771F881F991F1A9469F760958A
:1019E0007095809590959B01AC01BD01CF01089544
:1019F0002F923F924F925F926F927F928F929F921F
:101A0000AF92BF92CF92DF92EF92FF920F931F930C
:101A1000CF93DF93CDB7DEB7CA1BDB0B0FB6F894BD
:101A2000DEBF0FBECDBF09942A88398848885F84FD
:101A30006E847D848C849B84AA84B984C884DF806E
:101A4000EE80FD800C811B81AA81B981CE0FD11D52
:101A50000FB6F894DEBF0FBECDBFED010895AA1BEF
:101A6000BB1B51E107C0AA1FBB1FA617B70710F089
:101A7000A61BB70B881F991F5A95A9F780959095BB
:101A8000BC01CD010895CF93DF93BC018230910555
:101A900010F462E070E0A0919001B0919101ED012D
:101AA000E0E0F0E040E050E021C0888199818617B5
:101AB000970769F48A819B81309719F09383828319
:101AC00004C09093910180939001FE0134C0681787
:101AD000790738F44115510519F08417950708F472
:101AE000AC01FE018A819B819C01E9012097E9F606
:101AF00041155105A9F1CA01861B970B049708F4FB
:101B0000BA01E0E0F0E02AC08D919C911197841712
:101B10009507F9F46417750781F412968D919C91DD
:101B20001397309719F09383828304C090939101A7
:101B300080939001FD0132964FC0CA01861B970B1E
:101B4000FD01E80FF91F6193719302978D939C93A8
:101B500043C0FD01828193819C01D9011097A1F6B8
:101B600080918E0190918F01892B41F480917001B9
:101B70009091710190938F0180938E014091720139
:101B8000509173014115510541F44DB75EB78091F5
:101B90006E0190916F01481B590B20918E0130917D
:101BA0008F0124173507B0F4CA01821B930B8617E7
:101BB000970780F0AB014E5F5F4F8417950750F099
:101BC000420F531F50938F0140938E01F90161938F
:101BD000719302C0E0E0F0E0CF01DF91CF91089572
:101BE000CF93DF93009709F450C0EC0122971B823A
:101BF0001A82A0919001B0919101109709F140E0F3
:101C000050E0AC17BD0708F1BB83AA83FE01219108
:101C10003191E20FF31FAE17BF0779F48D919C91BC
:101C20001197280F391F2E5F3F4F39832883129653
:101C30008D919C9113979B838A834115510571F473
:101C4000D0939101C093900120C012968D919C91E8
:101C50001397AD01009711F0DC01D3CFFA01D383C4
:101C6000C28321913191E20FF31FCE17DF0769F490
:101C700088819981280F391F2E5F3F4FFA013183E8
:101C800020838A819B8193838283DF91CF91089502
:101C90000F931F93CF93DF938C01EB01009731F4E7
:101CA0006115710519F420E030E038C081E090E062
:101CB0006EE070E00E94940EFC019C01009771F1AF
:101CC00080E88383209771F0D387C28781E883837C
:101CD0008091920190919301892B21F4F0939301CB
:101CE000E093920101151105C9F0118700878381E6
:101CF000826083838091940190919501892B71F486
:101D0000F0939501E0939401809196019091970151
:101D1000892B21F4F0939701E0939601C901DF919B
:101D2000CF911F910F9108950F931F93CF93DF933E
:101D3000689F8001699F100D789F100D1124C801C4
:101D40000E94430DEC01009729F060E070E0A801CB
:101D50000E94B00ECE01DF91CF911F910F91089597
:101D6000DC0101C06D9341505040E0F70895F894B4
:021D7000FFCFA3
:101D7200424547494E2000494E49542000535441A0
:101D8200525420004E414B200053544F50200041EA
:101D9200434B200042494E4954200050555348209D
:101DA200544F20535441525400436C65616E2031AC
:101DB20000436C65616E2032004452592041495201
:101DC2000046494E414C2044525900454E44204F52
:101DD20046204359434C4500454E44000210200022
:041DE2009801000064
:00000001FF
