:100000000C9476000C9495000C9495000C9495003B
:100010000C9495000C9495000C9495000C9495000C
:100020000C9495000C9495000C9495000C94291F49
:100030000C9495000C9495000C9495000C949500EC
:100040000C9495000C9495000C9495000C949500DC
:100050000C94661B0C94301D0C9495000C94950028
:100060000C9495000C9495000C9495000C949500BC
:100070000C94A21B0C94591D0C9495000C949500A3
:100080000C9495000C9495000C949500560C6F0CF4
:100090008A0CA70CC60CE20C000D210D430D4D0D72
:1000A000510D5D0D610D6B0D6F0D7A0D7E0D890D7E
:1000B0008D0D980D9C0DA70DAB0DBA0DC00DCF0D7C
:1000C000D30DDE0DE20DED0DF10DFB0DFF0D090E53
:1000D0000D0E190E1F0E2F0E390E4F0E590E6F0EEC
:1000E000790E8F0E990EAF0EB90EC60E11241FBEDB
:1000F000CFEFD0E4DEBFCDBF18E0A0E0B1E0E8E292
:10010000F8E400E00BBF02C007900D92AC3BB107D2
:10011000D9F719E0ACEBB8E001C01D92A530B107EA
:10012000E1F70E94DD080C9412240C940000109258
:10013000B9008CE08093B8000895982F84EA8093EA
:10014000BC008091BC0087FFFCCF8091B900887F04
:10015000883021F0803111F081E008959093BB0048
:1001600084E88093BC008091BC0087FFFCCF909115
:10017000B900987F983111F480E0089580E09034C0
:1001800009F081E00895982F44EA34E824E9409387
:10019000BC008091BC0087FFFCCF8091B900887FB4
:1001A000883011F0803199F79093BB003093BC00F8
:1001B0008091BC0087FFFCCF8091B900887F80329E
:1001C00011F0883539F42093BC008091BC0084FD87
:1001D000FCCFDDCF08950E949D00089584E98093AF
:1001E000BC008091BC0084FDFCCF08958093BB00CF
:1001F00084E88093BC008091BC0087FFFCCF809195
:10020000B90090E0887F883209F091E0892F089545
:1002100084EC8093BC008091BC0087FFFCCF809170
:10022000BB00089584E88093BC008091BC0087FFE8
:10023000FCCF8091BB000895482F883058F481E0AE
:1002400090E002C0880F991F4A95E2F7982FE9E2E3
:10025000F0E036C0803178F4282F30E0285030406C
:1002600081E090E002C0880F991F2A95E2F7982F4D
:10027000E3E2F0E025C0883178F4282F30E0205107
:10028000304081E090E002C0880F991F2A95E2F784
:10029000982FE6E2F0E014C0803220F090E0E0E039
:1002A000F0E00EC02FE130E0281B310981E090E042
:1002B00002C0880F991F2A95E2F7982FE0E2F0E03C
:1002C0008081892308950F931F93CF93DF93BC01FF
:1002D000EA01F901D8018C30910509F48EC08D3006
:1002E0009105A4F489309105B1F18A3091052CF47F
:1002F0008830910509F01FC122C08A30910509F4A8
:100300004CC08B30910509F016C16AC08F30910541
:1003100009F4ABC0803191054CF48D30910509F49E
:1003200088C08E30910509F006C18DC080319105DD
:1003300009F4C3C08131910509F0FDC0DBC0809193
:10034000FA0880638093FA0881E090E091838083CB
:1003500019821882F0C0118210828091F8088062A0
:100360008F7B8093F8088091F60880618093F6086F
:100370008091FA0880688093FA088091F50881607E
:100380008093F50880EA9FE09093210480932004F5
:1003900081E090E08D939C93CEC08091F6088F7E93
:1003A0008093F6081D921C928AEF90E090932104AE
:1003B000809320048091F80880648F7D8093F808F2
:1003C0008091FA0880688093FA0885E090E0909325
:1003D0000F0480930E047093190460931804ABC04B
:1003E0008091FA0880628F7E8093FA0881E090E025
:1003F0008D939C93918380839EC0118210821D9265
:100400001C928091F80880628F7B8093F80880911D
:10041000FA0880688093FA0881E090E090930F04D6
:1004200080930E0482E090E0909319048093180466
:1004300082C08091FA0880618093FA0881E090E0A0
:100440009183808351C01182108281E090E08D936E
:100450009C9380EA9FE090932104809320048091F4
:10046000F60880618093F60822C085E090E09093C2
:100470000F0480930E048AE090E090931904809317
:1004800018048AEF90E09093210480932004118255
:10049000108281E090E08D939C938091F6088F7E8E
:1004A0008093F6088091FA088F778093FA088091FC
:1004B000F80880648093F8083EC085E090E090934F
:1004C0000F0480930E048AE090E0909319048093C7
:1004D000180481E090E08D939C93918380838091B8
:1004E000F8088F7D8093F8088091FA0880628093E5
:1004F000FA0821C081E090E090930F0480930E04ED
:1005000082E090E090931904809318041D921C924D
:1005100011821082198218828091F8088F77809357
:10052000F8088091F60881608093F6088091F508BC
:10053000877F8093F508DF91CF911F910F910895E8
:10054000EF92FF92F901D7018731910509F485C037
:1005500088319105B4F48431910509F44DC0853199
:1005600091053CF48231910519F1439709F0EBC0F4
:1005700029C08531910509F45CC0469709F0E3C0B4
:100580005FC08A31910509F4A1C08B31910544F413
:100590008831910509F46FC0499709F0D4C07BC038
:1005A0008B31910509F49CC04C9709F0CCC0B8C0C0
:1005B0008AEF90E090932104809320048091FA08C0
:1005C0008F7E54C01182108281E090E08D939C93C5
:1005D00080EA9FE090932104809320048091FA08A0
:1005E0008F7C8093FA088091F80880688093F808DF
:1005F0008091F6088E7F47C01D921C9281E090E0AA
:10060000918380838091FA0880628093FA088091B8
:10061000F6088F7D81608093F6088091F8088F77C7
:100620008093F8088AEF90E090932104809320044F
:100630008AC08AEF90E0909321048093200446C002
:10064000118210821D921C928091F6088E7F8093F9
:10065000F6088091F808806836C08AEF90E09093A1
:100660002104809320048091FA0880618093FA0825
:1006700081E090E02FC01182108281E090E08D93A4
:100680009C938091F60880628093F6088091F5082B
:1006900088608B7F42C0118210828091F5088B7F29
:1006A0008093F5088091F6088F7D8093F60881E0AD
:1006B00090E08D939C938091F60881608093F6087A
:1006C0008091F8088F778093F8083DC081E090E032
:1006D0008D939C93918380838091FA08806231C0CE
:1006E00081E090E090930F0480930E0482E090E00C
:1006F00090931904809318041D921C921182108209
:100700008091F6088E7F8093F6088091F8088068C3
:100710008093F8088091F508877F8093F50813C0CF
:1007200081E090E090930F0480930E0422E030E08B
:100730003093190420931804918380838091FA08E0
:1007400080638093FA08FF90EF900895CF92DF9234
:10075000CF93DF93EA01F901D6018032910509F4C4
:100760006DC0813291055CF48E31910551F18F316C
:1007700091050CF047C04D9709F0A2C010C082321D
:10078000910509F471C0823291050CF466C0833280
:10079000910509F474C0849709F092C077C081E094
:1007A00090E090930F0480930E0422E030E03093A9
:1007B0001904209318042091FA0820612093FA0864
:1007C0005BC08091F608877F8093F6088091FA08D5
:1007D0008F7E8093FA0821E030E03183208380917E
:1007E000FA0880628093FA088091F50880648F7D12
:1007F0008093F5088091F6088B7F8093F6082D93FF
:100800003C935EC08091F60888608093F60881E092
:1008100090E0918380838091FA0880628093FA0847
:100820001D921C928091F5088F7B8093F508809132
:10083000F60884608D7F8093F60842C08091F608A8
:1008400082608093F60881E090E0918380838091BC
:10085000FA0880628093FA0833C011821082809176
:10086000F8088061877F0FC08091FA088F7E8462CC
:100870008093FA0881E090E09183808321C0809189
:10088000F80888608F7E8093F8081AC08091F80875
:1008900088608F7E8093F8088091F40881FD07C0FE
:1008A0008091FA088F7D8093FA08118210828091DE
:1008B000FA088D7F8093FA0881E090E0998388831D
:1008C000DF91CF91DF90CF9008950F931F93CF9337
:1008D000DF938C01EB0188819981892B69F480E099
:1008E0000E941C01882341F01093BF080093BE08AA
:1008F00081E090E09983888388819981019739F517
:100900008091BE089091BF089801281B390B609117
:1009100020047091210488E99AE30E94ED21621776
:10092000730774F480E00E941C01882381F4109303
:10093000BD080093BC0882E090E09983888307C0DB
:1009400080E00E941C01882311F41982188288819A
:100950009981029719F580E00E941C01882349F0D3
:1009600081E090E0998388831093BF080093BE08CC
:1009700015C08091BC089091BD08081B190B6091AF
:1009800020047091210488E99AE30E94ED21601708
:10099000710724F41982188281E001C080E0DF91A0
:1009A000CF911F910F910895CF93DF93FC01862F74
:1009B000DA01B901309719F4882381F177C0E13069
:1009C000F10529F48091F40880FD30C06FC0E23059
:1009D000F105B1F4421B530B20912C0430912D04EE
:1009E0008091160490911704EC012C9FC0012D9F5B
:1009F000900D3C9F900D112484179507ACF556C0BF
:100A0000E330F10559F49A01261B370B8091060457
:100A10009091070482179307ACF548C0E430F105C4
:100A200029F48091F4088695869526C0E530F10575
:100A3000D9F440E050E0A61BB70B80912E049091B2
:100A40002F042091180430911904BC01629FC00149
:100A5000639F900D729F900D11248A179B0714F4C9
:100A600041E050E0CA0124C0E630F10559F480911C
:100A7000F40886958695869591E0892790E08170A7
:100A8000907016C0379719F080E090E011C020E018
:100A900030E0A61BB70B80910604909107048A17DB
:100AA0009B0714F421E030E0C90102C081E090E02E
:100AB000DF91CF910895CF93DF93FC01DA01883065
:100AC000910529F48091F40884FD37C08DC08930E8
:100AD000910559F49B01241B350B809108049091DA
:100AE000090482179307BCF57FC08A30910559F439
:100AF0009B01241B350B80910604909107048217FB
:100B000093078CF571C08B309105B9F4AB014A1B8A
:100B10005B0B20912404309125048091180490915E
:100B20001904EC012C9FC0012D9F900D3C9F900D4E
:100B30001124841795071CF557C0EC30F10559F4C2
:100B40009B012A1B3B0B809106049091070482179E
:100B50009307C4F449C0ED30F10529F48091F408FD
:100B600084FD2EC041C0EE30F10549F420E030E0B4
:100B70006A1B7B0B80910804909109042EC0EF3012
:100B8000F10519F1E031F105D9F440E050E06A1BBC
:100B90007B0B8091260490912704209118043091BA
:100BA0001904FC01E29FC001E39F900DF29F900D9C
:100BB00011248617970714F441E050E0CA0116C0CB
:100BC000719719F080E090E011C020E030E06A1BDE
:100BD0007B0B80910604909107048617970714F405
:100BE00021E030E0C90102C081E090E0DF91CF91C7
:100BF0000895CF93DF93FC01DA018231910529F446
:100C00008091F40885FD37C09DC08331910559F46A
:100C10009B01241B350B80910804909109048217D5
:100C20009307BCF58FC08431910559F49B01241BB7
:100C3000350B8091060490910704821793078CF579
:100C400081C085319105B9F4AB014A1B5B0B209142
:100C50002604309127048091180490911904EC0126
:100C60002C9FC0012D9F900D3C9F900D1124841747
:100C7000950724F567C0E631F10559F49B012A1B5D
:100C80003B0B809106049091070482179307CCF4E4
:100C900059C0E731F10529F48091F40885FD2FC092
:100CA00051C0E831F10551F46A1B7B0B80910804B7
:100CB0009091090486179707A4F544C0E931F1051E
:100CC00009F1EA31F105D9F440E050E06A1B7B0BF1
:100CD00080912404909125042091180430911904E6
:100CE000FC01E29FC001E39F900DF29F900D112443
:100CF0008617970714F441E050E0CA0125C0EB3194
:100D0000F10579F420E030E06A1B7B0B809106044A
:100D1000909107048617970714F421E030E0C90189
:100D200013C07C9719F080E090E00EC08091F40829
:100D3000829586958695837091E0892790E08170F1
:100D4000907002C081E090E0DF91CF910895CF9341
:100D5000DF93FC01DA018D31910559F49B01241BCD
:100D6000350B809130049091310482179307ECF594
:100D70007FC08E319105B9F4AB014A1B5B0B20910A
:100D80002804309129048091180490911904EC01F1
:100D90002C9FC0012D9F900D3C9F900D1124841716
:100DA000950784F565C08F31910529F48091F40889
:100DB00083FD33C05DC080329105B9F4AB014A1B9D
:100DC0005B0B20913404309135048091180490918C
:100DD0001904EC012C9FC0012D9F900D3C9F900D9C
:100DE00011248417950724F543C0E132F10551F42D
:100DF0008091F4088695869591E0892790E081702E
:100E0000907038C0E232F10541F480E090E06A1B56
:100E10007B0B693C710574F12BC0E332F10541F4A1
:100E200080E090E06A1B7B0B655873401CF120C08A
:100E3000B49719F080E090E01DC040E050E06A1BDC
:100E40007B0B80912A0490912B0420911604309101
:100E50001704EC01C29FC001C39F900DD29F900D5B
:100E600011248617970714F441E050E0CA0102C02C
:100E700081E090E0DF91CF910895AF92BF92CF9241
:100E8000DF92EF92FF920F931F93CF93DF93EA01CC
:100E90005901FC01E61BF70B6091160470911704D1
:100EA000CF010E94ED2120910C0430910D04821796
:100EB000930734F4CD2B21F08091FA08816003C0B0
:100EC0008091FA088E7F8093FA08609118047091DF
:100ED0001904CF010E94ED2120910E0430910F04DE
:100EE0008217930734F4AB2821F08091FA088860C8
:100EF00003C08091FA08877F8093FA0860911A04F2
:100F000070911B04CF010E94ED21209110043091BB
:100F100011048217930734F4012B21F08091FA0811
:100F2000806403C08091FA088F7B8093FA086091F7
:100F30001C0470911D04CF010E94ED212091120428
:100F4000309113048217930734F4EF2821F0809135
:100F5000F508826003C08091F5088D7F8093F508C5
:100F600060911E0470911F04CF010E94ED21209119
:100F70001404309115048217930734F4CD2821F01E
:100F80008091F508806103C08091F5088F7E809381
:100F9000F50880E40E949D0082E00E94F6008091A6
:100FA000FA080E94F6008091F5080E94F6000E945F
:100FB000EE0082E40E949D0082E00E94F600809193
:100FC000F8080E94F6008091F6080E94F6000E9440
:100FD000EE00DF91CF911F910F91FF90EF90DF9086
:100FE000CF90BF90AF900895682FE82FF92FDF01C1
:100FF0000D900020E9F71197AE1BBF0B82E0792F0F
:101000004A2F0E94DC1E0895682FE82FF92FDF0178
:101010000D900020E9F71197AE1BBF0B82E0792FEE
:101020004A2F0E94DC1E82E060E071E042E00E94F4
:10103000DC1E0895AF92BF92CF93DF93EA01F901CE
:101040008330910509F464C08430910554F48130F3
:101050009105E1F1823091050CF04BC0892B89F0AC
:1010600085C08530910509F460C0853091050CF488
:101070005CC08630910509F462C0079709F076C01C
:101080006BC08091F4089091FA0881FF04C09F7EA4
:101090009093FA086BC09F7D9093FA08118210829A
:1010A0008091F8088F7E88608093F808F501808130
:1010B000882309F45BC080E061E00E94271783E089
:1010C00091E00E940408F501108250C02091F808B8
:1010D000322F3E7FCB0168EC70E00E94ED21843618
:1010E000910524F42C7F2093F80803C032603093DC
:1010F000F80881E090E099838883118210828091C2
:10110000FA0886608093FA088091F8088B7F21C0E6
:101110008091F808817E86618093F8081982188290
:101120008091FA0880628B7F1FC08091FA088061ED
:101130008093FA0881E090E09183808312C011824D
:1011400010828091FA088F7D8093FA088091F808C8
:1011500088608093F8080AC08091F8088F7E809399
:10116000F8088091FA0880628093FA08DF91CF91A5
:10117000BF90AF9008950F931F93DF93CF93CDB798
:10118000DEB72A970FB6F894DEBF0FBECDBF8E0133
:101190000F5F1F4FB8014AE050E00E947223C80160
:1011A0000E9404082A960FB6F894DEBF0FBECDBF8A
:1011B000CF91DF911F910F9108952F923F924F92FF
:1011C0005F926F927F928F929F92AF92BF92CF92D7
:1011D000DF92EF92FF920F931F93DF93CF93CDB7E0
:1011E000DEB762970FB6F894DEBF0FBECDBF809119
:1011F0002404909125042091220430912304AC0111
:10120000429FC001439F900D529F900D11249093D7
:101210002504809324048091260490912704AC0136
:10122000429FC001439F900D529F900D11249093B7
:101230002704809326048091280490912904AC010E
:10124000429FC001439F900D529F900D1124909397
:1012500029048093280480912A0490912B04AC01E6
:10126000429FC001439F900D529F900D1124909377
:101270002B0480932A0480912C0490912D04AC01BE
:10128000429FC001439F900D529F900D1124909357
:101290002D0480932C0480912E0490912F04AC0196
:1012A000429FC001439F900D529F900D1124909337
:1012B0002F0480932E048091340490913504AC0166
:1012C000429FC001439F900D529F900D1124909317
:1012D0003504809334048091300490913104AC0142
:1012E000429FC001439F900D529F900D11249093F7
:1012F0003104809330048091320490913304AC0126
:10130000429FC001439F900D529F900D11249093D6
:101310003304809332048FEF9FEF988B8F871E8664
:101320001B821A821D821C821F821E8219861886C9
:101330001B861A8681E089831D861C861092FA0816
:1013400080E88093F5088FEF8093F8088FE0809312
:10135000F6081092F4081092F70881E191E00E94DB
:10136000040880E061E00E94271782E291E00E9479
:10137000040880ED97E00E94741F89E291E00E94CA
:10138000040888EE93E00E94741F0E94970080E397
:1013900091E00E94040880E40E949D00F82E8823BA
:1013A00019F086E391E002C081E491E00E94040814
:1013B0000E94EE0082E40E949D00182F882319F0FD
:1013C00089E491E002C084E591E00E9404080E9453
:1013D000EE0084E40E949D00082F882319F08CE51C
:1013E00091E002C087E691E00E9404080E94EE00AE
:1013F0008FE691E00E9404081F29102B61F086E718
:1014000091E00E9404080E94EE008FE791E00E94A4
:1014100004080C944D158AE891E00E94040882E9C2
:1014200091E00E94040880E40E949D0086E00E94F2
:10143000F60080E00E94F60080E00E94F6000E9424
:10144000EE0080E40E949D0082E00E94F600809100
:10145000FA080E94F6008091F5080E94F6000E94AA
:10146000EE0082E40E949D0082E00E94F6008091DE
:10147000F8080E94F6008091F6080E94F6000E948B
:10148000EE0082E40E949D0086E00E94F60080E06B
:101490000E94F60080E00E94F6000E94EE0080911B
:1014A000F5088F778093F50880E40E949D0082E024
:1014B0000E94F6008091FA080E94F6008091F508DB
:1014C0000E94F6000E94EE0088EE93E00E94741FD6
:1014D00089E991E00E94040883E00E941C0100E079
:1014E00010E0882311F401E010E0EE24FF2483E0F3
:1014F0000E941C0190E00817190749F0012B19F40C
:1015000089EA91E002C08FEA91E00E94040883E03A
:101510000E941C01082FC701BE01645F7F4F0E941B
:101520006504182F0E94261F8091200490912104A9
:101530006F9364E06A95F1F76F910197C9F71123F2
:1015400029F410E00894E11CF11CD1CF83E00E9443
:101550001C01882309F452C489EA91E00E9404081E
:1015600088EE93E00E94741F8824992466247724CF
:1015700044245524BB24B39422242A94322C84E49A
:101580000E949D0080E00E94F60085E40E949D007C
:101590000E9408018093F4080E9412018093F708CA
:1015A0000E94EE00C301BE01645F7F4F0E9465048C
:1015B000182F81E00E941C018823C1F482E00E9460
:1015C0001C01882399F42114310481F083EB91E00C
:1015D0000E94040880E061E00E9427178824992473
:1015E00091E09E87BB24B3942224332481E00E949F
:1015F0001C018823D9F082E00E941C018823B1F4E9
:1016000021E02216310491F08BEB91E00E94040856
:1016100080E061E00E942717B8E08B2E912C31E02A
:101620003E87BB24B394A1E02A2E312C81E00E9496
:101630001C01882301F582E00E941C018823D9F057
:1016400042E024163104B9F083EC91E00E940408D2
:1016500080E061E00E9427178091FA0884608093FF
:10166000FA08F4E28F2E912C51E05E87BB24B394EC
:10167000E2E02E2E312C81E00E941C01882321F112
:1016800082E00E941C018823F9F083E028163104CF
:10169000D9F08BEC91E00E94040880E061E00E94A8
:1016A00027178091FA0880628093FA088091F508E4
:1016B00081608093F5087EE2872E912CBB24B39441
:1016C00063E0262E312C03C09E859923C9F01B822E
:1016D0001A821D821C821F821E82198618861B8612
:1016E0001A868FEF8093F8088FE08093F608C10187
:1016F0000297029720F01092FA081092F5081E86C1
:10170000112309F4C6C028E08216910474F480E025
:1017100061E00E9427170894811C911C38E0831611
:10172000910409F0ADC00C94531544E28416910461
:10173000CCF480FC09C08DE061E00E94271787EDA2
:1017400091E00E94040804C080E061E00E94271735
:101750000894811C911C54E28516910409F096C0EE
:101760000C94571584010F5F1F4F8EE28816910469
:101770000CF05DC080FC09C08BE061E00E9427177F
:101780008BED91E00E94040813C00A32110571F13B
:101790000B3211053CF40632110561F008321105D7
:1017A00039F414C00C32110569F10E321105B1F192
:1017B00048016CC080E061E00E9427178091FA0820
:1017C0008B7F80628093FA08230155C280E061E03C
:1017D0000E9427178091FA088F7D8093FA088091E4
:1017E000F50881608093F508230165C280E061E01F
:1017F0000E9427178091F5088E7F88608093F508F6
:10180000230179C280E061E00E9427178091F508EA
:10181000877F80648093F50823018DC28091F5084D
:101820008F7B8093F5081B861A860C945715480108
:101830000F32110521F00033110541F511C080E090
:1018400061E00E9427179091F5089E7F8091FA0829
:1018500080628093FA0898609093F508230198C2FB
:101860008091FA088F7D8093FA088091F508877F30
:101870008093F5081D821C82198618860C945715D2
:1018800023014FEF5FEF588B4F8701C02301BB242B
:10189000B394F401E033F10508F08CC2EA5BFF4F2A
:1018A000EE0FFF1F0590F491E02D0994BB2021F06D
:1018B00081EE91E00E9404088FE061E00E9427170A
:1018C0008091F408817090E02F85388928173907B6
:1018D00009F46FC20E94BB088091F408B0C0BB201D
:1018E00021F08AEE91E00E9404088FE061E00E94FE
:1018F00027178091F4088695817090E02F853889AC
:101900002817390709F455C20E94BB088091F408D2
:10191000869595C0BB2021F083EF91E00E940408DA
:101920008FE061E00E9427178091F40886958695E4
:10193000817090E02F8538892817390709F439C25A
:101940000E94BB088091F4088695869578C0BB20DC
:1019500021F08CEF91E00E9404088FE061E00E948A
:1019600027178091F408869586958695817090E07A
:101970002F8538892817390709F41BC20E94BB0834
:101980008091F40886958695869559C0BB2021F0F4
:1019900085E092E00E9404088FE061E00E94271732
:1019A0008091F4088295817090E02F8538892817FE
:1019B000390709F4FEC10E94BB088091F4088295A2
:1019C0008F703DC0BB2021F08EE092E00E940408A1
:1019D0008FE061E00E9427178091F4088295869538
:1019E000817090E02F8538892817390709F4E1C103
:1019F0000E94BB088091F4088295869587701FC06D
:101A0000BB2021F087E192E00E9404088FE061E0B2
:101A10000E9427178091F40882958695869581709B
:101A200090E02F8538892817390709F4C2C10E9430
:101A3000BB088091F40882958695869583708170A5
:101A40001DC0BB2021F080E292E00E9404088FE0DC
:101A500061E00E9427178091F408881F8827881F5B
:101A600090E02F8538892817390709F4A2C10E9410
:101A7000BB088091F408881F8827881F482F50E0F2
:101A8000588B4F8796C1BB2021F089E292E00E94DB
:101A900004088091F8088E7F0DC08091F80881605D
:101AA0006CC0BB2021F08AE392E00E940408809180
:101AB000F8088D7F8093F8087CC18091F8088260D7
:101AC0005CC0BB2021F08CE492E00E94040880916D
:101AD000F8088B7FEFCF8091F80884604EC0BB2060
:101AE00021F08DE592E00E9404088091F808877F3C
:101AF0008061E0CF8091F80888603FC0BB2021F072
:101B00008EE692E00E9404088091F80888608F7E3B
:101B1000D1CF8091F808806130C0BB2021F08FE7E1
:101B200092E00E9404088091F8088F7D8064C2CF03
:101B30008091F808806221C0BB2021F080E992E00A
:101B40000E9404088091F8088F7B8062B3CF809157
:101B5000F808806412C0BB2021F081EA92E00E9464
:101B600004088091F8088F778093F8088091F60830
:101B700081605CC08091F80880688093F8081AC181
:101B8000BB2021F082EB92E00E9404088091F608CD
:101B90008E7F8093F6088091F80880688BCF8091C3
:101BA000F608816049C0BB2021F083EC92E00E94DE
:101BB00004088091F6088B7F826038C08091F60817
:101BC00084603AC0BB2021F084ED92E00E940408BA
:101BD0008091F6088D7F846029C08091F60882602C
:101BE0002BC0BB2021F085EE92E00E94040880917A
:101BF000F608877F1BC08091F60888601DC0BB2057
:101C000021F086EF92E00E9404088091F60880613E
:101C10000DC08091F6088F7E0FC0BB2021F088E0B8
:101C200093E00E9404088091F60880628093F60891
:101C3000C0C08091F6088F7D8093F608BBC0BB20A2
:101C400021F08AE193E00E9404088091FA08826002
:101C50008093FA0881E090E09B838A83AAC08091F8
:101C6000FA088D7F8093FA0881E090E09B838A8355
:101C7000A1C0BB2021F08BE293E00E940408809178
:101C8000FA088F7E8093FA0881E090E09D838C8330
:101C90001B821A82BB2456E2852E912C8BC0809128
:101CA000FA0880618093FA0881E090E09D838C833C
:101CB00081C0BB2021F08CE393E00E940408809156
:101CC000FA088F778093FA0881E090E09F838E83F3
:101CD0001D821C82BB2448E2842E912C6BC0809113
:101CE000FA0880688093FA0881E090E09F838E83F1
:101CF00061C0BB2021F08DE493E00E940408809134
:101D0000F5088B7F8093F50881E090E099878887BC
:101D10001F821E82BB243AE2832E912C4BC08091FD
:101D2000F50884608093F50881E090E099878887C2
:101D300041C0BB2021F08EE593E00E940408809111
:101D4000F5088F7D8093F50881E090E09B878A8776
:101D500019861886BB242CE2822E912C2BC08091F0
:101D6000F50880628093F50881E090E09B878A8780
:101D700021C0BB2021F08FE693E00E94040881E09F
:101D800090E09D838C839F838E8313C0BB2021F0C2
:101D900080E893E00E94040881E090E09D838C83BA
:101DA0001F821E8299878887BB249FE2892E912CEF
:101DB00001C0BB244A815B812C813D810E811F8142
:101DC000E884F984CA84DB84C301B2010E943D0720
:101DD0000E94261F80912004909121046F9364E05B
:101DE0006A95F1F76F910197C9F750E38516910451
:101DF00009F439C60894611C711CC1CB81E993E0D8
:101E00000E94040888EE93E00E94741F88E993E022
:101E10000E94040888EE93E00E94741F81E00E94F3
:101E20001C01EE24FF24882319F481E0E82EF12C14
:101E300082E00E941C0100E010E0882311F401E020
:101E400010E0CC24DD2481E00E941C0190E0E81623
:101E5000F90639F482E00E941C0190E00817190786
:101E600059F181E00E941C01882341F482E00E9424
:101E70001C01882319F485EA93E01CC081E00E94CC
:101E80001C01882341F082E00E941C01882319F480
:101E90008DEA93E00FC081E00E941C01882341F489
:101EA00082E00E941C01882319F086EB93E002C0B7
:101EB0008DEB93E00E94040881E00E941C01082F32
:101EC00082E00E941C01182FC601BE01645F7F4F93
:101ED0000E946504E0912004F09121046F9364E076
:101EE0006A95F1F76F913197C9F7882341F4E02E95
:101EF000FF24012F10E00894C11CD11CA4CF82EC58
:101F000093E00E9404088091FA0880628093FA08A6
:101F100081E00E941C01882309F079C182E00E94BF
:101F20001C01882309F073C187E060E00E94271735
:101F300085EA93E00E94040881E090E09D838C8311
:101F40008091FA0880628093FA0888249924662494
:101F5000772444245524222423943324339484E482
:101F60000E949D0080E00E94F60085E40E949D0092
:101F70000E9408018093F4080E9412018093F708E0
:101F80000E94EE0081149104A9F1332099F186E0BA
:101F900061E00E94271789EC93E00E94040880E02A
:101FA00061E00E9427178FEC93E00E94F407C401C0
:101FB0000E94BB0887ED93E00E94F407F401EE0F46
:101FC000FF1FE35CF74F808191810E9404088BED35
:101FD00093E00E9404088DED93E00E94F407609165
:101FE000220470912304C3010E94ED21CB010E94C1
:101FF000BB083324C301BE01645F7F4F0E946504A8
:10200000682FC401A30192010E94D404882331F0F7
:102010000894811C911C230133243394C401B3011F
:10202000A2010E945B05882391F086EE93E00E9456
:1020300004080894811C911C8CE08816910451F1CD
:1020400090E18916910431F123013324339421E185
:102050008216910471F493012419350980910604C4
:102060009091070482179307BCF42301332433941F
:1020700004C03CE18316910479F48091F40886FD54
:1020800005C023011DE1812E912C04C0BCE18B2EE3
:10209000912C02C033243394C401B301A2010E94E5
:1020A000A706882331F00894811C911C2301332456
:1020B000339445E28416910441F4C30184199509CF
:1020C0000B971CF0A6E28A2E912CC401B301AE013D
:1020D0004E5F5F4F9E012C5F3F4F8E010A5F1F4F87
:1020E000F8E0EF2EF12CEC0EFD1EEAE0CE2ED12C06
:1020F000CC0EDD1E5E010894A11CB11C0E941A08C2
:10210000C401B301AE014E5F5F4F9E012C5F3F4F94
:102110008E010A5F1F4FB8E0EB2EF12CEC0EFD1E76
:10212000AAE0CA2ED12CCC0EDD1E0E94630151E123
:102130008516910459F41F821E821D821C82809193
:10214000F8088F7B80628093F80812C08CE18816B3
:10215000910471F48091FA0821E030E03D832C83F2
:1021600080638093FA088091F5088E7F8093F5084C
:10217000C401B301AE014E5F5F4F9E012C5F3F4F24
:102180008E010A5F1F4FF8E0EF2EF12CEC0EFD1EC2
:10219000EAE0CE2ED12CCC0EDD1E0E94A60335E245
:1021A0008316910481F441E050E05B834A8380917F
:1021B000FA088B7F8093FA08222029F085EF93E0BC
:1021C0000E94040822244A815B812C813D810E817A
:1021D0001F81E884F984CA84DB84C301B2010E94B0
:1021E0003D070E94261F80912004909121046F9347
:1021F00064E06A95F1F76F910197C9F756E2851689
:10220000910409F430C40894611C711CA8CE81E0CB
:102210000E941C01882309F432C182E00E941C0143
:10222000882309F02CC187E060E00E9427178DEA1F
:1022300093E00E94040881E090E09D838C8380916C
:10224000FA0880628093FA08882499246624772407
:1022500044245524222423943324339484E40E9478
:102260009D0080E00E94F60085E40E949D000E948F
:1022700008018093F4080E9412018093F7080E94DD
:10228000EE008114910439F1332029F186E061E0F8
:102290000E94271789EC93E00E94040880E061E027
:1022A0000E9427178FEC93E00E94F407C4010E945C
:1022B000BB0887ED93E00E94F407F401EE0FFF1FC7
:1022C000E35CF74F808191810E9404088BED93E0DD
:1022D0000E9404083324C301BE01645F7F4F0E9443
:1022E0006504682FC401A30192010E94D4048823CD
:1022F00031F00894811C911C23013324339488E02D
:102300008816910451F48091F40885FD06C02301DC
:10231000B3E18B2E912C33243394C401B301A20179
:102320000E94F905882331F00894811C911C230137
:1023300033243394C401B301A2010E94A706882369
:1023400031F00894811C911C23013324339495E2CD
:102350008916910441F4C301841995090B971CF067
:10236000A6E28A2E912CC401B301AE014E5F5F4FED
:102370009E012C5F3F4F8E010A5F1F4FF8E0EF2E4A
:10238000F12CEC0EFD1EEAE0CE2ED12CCC0EDD1E83
:102390005E010894A11CB11C0E941A0828E0821654
:1023A000910449F48091FA0841E050E05D834C8348
:1023B00080638093FA08C401B301AE014E5F5F4FA2
:1023C0009E012C5F3F4F8E010A5F1F4FB8E0EB2E3E
:1023D000F12CEC0EFD1EAAE0CA2ED12CCC0EDD1E77
:1023E0000E94A002C401B301AE014E5F5F4F9E0187
:1023F0002C5F3F4F8E010A5F1F4FF8E0EF2EF12C4C
:10240000EC0EFD1EEAE0CE2ED12CCC0EDD1E0E947D
:10241000A60355E28516910471F41B821A828091FD
:10242000FA088B7F8093FA08222029F085EF93E049
:102430000E94040822244A815B812C813D810E8107
:102440001F81E884F984CA84DB84C301B2010E943D
:102450003D070E94261F80912004909121046F93D4
:1024600064E06A95F1F76F910197C9F786E28816E3
:10247000910409F4F8C20894611C711CEFCE81E04C
:102480000E941C01882309F06AC182E00E941C019D
:10249000882309F464C187E060E00E94271786EB77
:1024A00093E00E94040881E090E09D838C838091FA
:1024B000FA0880628093FA08882499246624772495
:1024C00044245524222423943324339484E40E9406
:1024D0009D0080E00E94F60085E40E949D000E941D
:1024E00008018093F4080E9412018093F7080E946B
:1024F000EE008114910439F1332029F186E061E086
:102500000E94271789EC93E00E94040880E061E0B4
:102510000E9427178FEC93E00E94F407C4010E94E9
:10252000BB0887ED93E00E94F407F401EE0FFF1F54
:10253000E35CF74F808191810E9404088BED93E06A
:102540000E9404083324C301BE01645F7F4F0E94D0
:102550006504682FC401A30192010E94D40488235A
:1025600031F00894811C911C230133243394C4015D
:10257000B301A2010E945B05882371F00894811CBD
:10258000911C9CE089169104C9F020E18216910407
:10259000A9F023013324339431E18316910481F4AB
:1025A000930124193509809106049091070482173C
:1025B000930734F4230102E1802E912C33243394C9
:1025C000C401B301A2010E94F905882331F00894E7
:1025D000811C911C230133243394C401B301A20153
:1025E0000E94A706882331F00894811C911C2301C6
:1025F0003324339445E28416910441F4C3018419D1
:1026000095090B971CF016E2812E912CC401B301A1
:10261000AE014E5F5F4F9E012C5F3F4F8E010A5F00
:102620001F4FB8E0EB2EF12CEC0EFD1EAAE0CA2ED7
:10263000D12CCC0EDD1E5E010894A11CB11C0E94A1
:102640001A08C401B301AE014E5F5F4F9E012C5FBB
:102650003F4F8E010A5F1F4FF8E0EF2EF12CEC0E7A
:10266000FD1EEAE0CE2ED12CCC0EDD1E0E946301B1
:1026700051E18516910479F41F821E821D821C820D
:102680008091F5088E7F8093F5088091F8088F7B04
:1026900080628093F808C401B301AE014E5F5F4FC2
:1026A0009E012C5F3F4F8E010A5F1F4FB8E0EB2E5B
:1026B000F12CEC0EFD1EAAE0CA2ED12CCC0EDD1E94
:1026C0000E94A002C401B301AE014E5F5F4F9E01A4
:1026D0002C5F3F4F8E010A5F1F4FF8E0EF2EF12C69
:1026E000EC0EFD1EEAE0CE2ED12CCC0EDD1E0E949B
:1026F000A60385E28816910471F41B821A828091E8
:10270000FA088B7F8093FA08222029F085EF93E066
:102710000E94040822244A815B812C813D810E8124
:102720001F81E884F984CA84DB84C301B2010E945A
:102730003D070E94261F80912004909121046F93F1
:1027400064E06A95F1F76F910197C9F796E28916EF
:10275000910409F488C10894611C711CB7CE81E012
:102760000E941C01882309F47EC182E00E941C01A2
:10277000882309F478C187E060E00E9427178DEB79
:1027800093E00E94040881E090E09D838C83809117
:10279000FA0880628093FA088824992466247724B2
:1027A0001A8A198A442455242224239433243394E6
:1027B00084E40E949D0080E00E94F60085E40E946F
:1027C0009D000E9408018093F4080E9412018093EA
:1027D000F7080E94EE008114910439F1332029F1A9
:1027E00086E061E00E94271789EC93E00E940408CC
:1027F00080E061E00E9427178FEC93E00E94F407CD
:10280000C4010E94BB0887ED93E00E94F407F40125
:10281000EE0FFF1FE35CF74F808191810E94040857
:102820008BED93E00E9404083324C301BE01645F72
:102830007F4F0E946504182FC401612FA3019201EC
:102840000E94D404882339F0230110E037E2832E5C
:10285000912C33243394C401B301A2010E945B057F
:10286000882371F421E18216910481F493012419E3
:10287000350980910804909109048217930734F474
:10288000230127E2822E912C33243394C401B30117
:10289000A2010E94F905882331F0230197E2892ED5
:1028A000912C33243394C401B301A2010E94A706E2
:1028B000882321F023013324339411C035E2831699
:1028C000910449F4C301841995090B974CF186E2F0
:1028D000882E912C25C047E28416910409F5112316
:1028E00021F407E2802E912C11C089899A890196E2
:1028F0009A8B898B8732910521F04C0133243394D4
:102900000FC017E2812E912C332433941B821A823C
:102910001D821C821F821E82198618861B861A86BB
:10292000C401B301AE014E5F5F4F9E012C5F3F4F6C
:102930008E010A5F1F4FB8E0EB2EF12CEC0EFD1E4E
:10294000AAE0CA2ED12CCC0EDD1E5E010894A11C7B
:10295000B11C0E941A08C401B301AE014E5F5F4F63
:102960009E012C5F3F4F8E010A5F1F4FF8E0EF2E54
:10297000F12CEC0EFD1EEAE0CE2ED12CCC0EDD1E8D
:102980000E94630191E18916910451F41F821E8215
:102990001D821C828091F8088F7B80628093F808EA
:1029A000C401B301AE014E5F5F4F9E012C5F3F4FEC
:1029B0008E010A5F1F4FB8E0EB2EF12CEC0EFD1ECE
:1029C000AAE0CA2ED12CCC0EDD1E0E94A002C401AA
:1029D000B301AE014E5F5F4F9E012C5F3F4F8E01F2
:1029E0000A5F1F4FF8E0EF2EF12CEC0EFD1EEAE01F
:1029F000CE2ED12CCC0EDD1E0E94A60325E282161F
:102A0000910471F41B821A828091FA088B7F809363
:102A1000FA08222029F085EF93E00E94040822247E
:102A20004A815B812C813D810E811F81E884F9847C
:102A3000CA84DB84C301B2010E943D070E94261FA5
:102A400080912004909121046F9364E06A95F1F7DE
:102A50006F910197C9F736E28316910421F008942B
:102A6000611C711CA5CE8091FA088B7D8093FA08B9
:102A70008091F508867B8093F50880E40E949D0094
:102A800082E00E94F6008091FA080E94F600809190
:102A9000F5080E94F6000E94EE0082E094E00E9499
:102AA00004080C9490094FEF5FEF588B4F87230178
:102AB000BB24B39480E3882E912C7CC9089508959B
:102AC00080E090E00895EF92FF920F931F9367B11B
:102AD0003D982898299AE090C408F090C508009184
:102AE000C6081091C70820E030E041E050E0CA017C
:102AF0006F9364E06A95F1F76F910197C9F72A9A8D
:102B0000CA016F9364E06A95F1F76F910197C9F775
:102B100086B12A98FA016F9364E06A95F1F76F9194
:102B20003197C9F72A9AFA016F9364E06A95F1F731
:102B30006F913197C9F72A982C5F3F4F85FF09C0E5
:102B4000C901A0E0B0E08E159F05A007B10708F409
:102B5000CECFC901A0E0B0E08E159F05A007B10758
:102B600028F082E390E0A0E0B0E004C080E395E7C5
:102B7000A0E0B0E08093C4089093C508A093C60875
:102B8000B093C70867B91F910F91FF90EF90089518
:102B900028B190E08F709070880F991F880F991F4F
:102BA000237C282B28B92A9A81E090E0FC016F93BE
:102BB00064E06A95F1F76F913197C9F72A986F939E
:102BC00064E06A95F1F76F910197C9F708958091D4
:102BD000C0089091C108009711F00E941A238091BB
:102BE0008D0890E0019720918E0830E0AC01429F63
:102BF000C001439F900D529F900D11240E946D22A1
:102C00009093C1088093C008009729F160E070E2BA
:102C100008C0E091C008F091C108E40FF51F70836F
:102C20006F5F462F50E080918D0890E001972091D2
:102C30008E0830E0FC01E29FC001E39F900DF29FFF
:102C4000900D11244817590724F38FE498E160E6AA
:102C500075E10E949323089580938E0860938D08F8
:102C60000E94E715089580938E0860938D080E9456
:102C7000E71508950E94E71508953D98459A80E369
:102C800095E7A0E0B0E08093C4089093C508A093B6
:102C9000C608B093C708209A219A229A8EE190E044
:102CA0000E94741F83E00E94951986E090E00E94C4
:102CB000741F83E00E94951982E090E00E94741FC7
:102CC00083E00E94951982E090E00E94741F82E0E8
:102CD0000E94951982E090E00E94741F88E20E9491
:102CE000DC1688E00E94DC1681E00E94DC1686E09B
:102CF0000E94DC168CE00E94DC1608958091C808C2
:102D0000882329F481E08093C8080E943D16089525
:102D1000FF920F931F93082F162FF42E0E947E16FA
:102D20000E94631537B128B12998112311F0289A10
:102D300001C0289887B18C6387B981E0F816E1F06B
:102D400088B1902F92959F70990F990F837C982B43
:102D500098B92A9A81E090E0FC016F9364E06A954B
:102D6000F1F76F913197C9F72A986F9364E06A95EC
:102D7000F1F76F910197C9F788B10F70000F000F3D
:102D8000837C802B88B92A9A81E090E0FC016F93C4
:102D900064E06A95F1F76F913197C9F72A986F93BC
:102DA00064E06A95F1F76F910197C9F737B928B9CF
:102DB0001F910F91FF90089560E042E00E948816F5
:102DC00008950F931F93082F162F08C0002311F4A6
:102DD00080E101C084E10E94DC1611501123B1F79B
:102DE0001F910F9108950E94E11608958CE00E94B2
:102DF000DC1608950E94F6160895813011F48FE0D4
:102E000001C08EE00E94DC1608950E94FD16089510
:102E1000A4E0B0E0EEE0F7E10C943022182F062F8A
:102E200080E8898380EC8A8384E98B8384ED8C83BA
:102E3000FE01E60FF11D8181810F0E94DC161093C7
:102E4000C3080093C2082496E4E00C944C220E942C
:102E50000817089581E00E94DC168091C0089091C7
:102E6000C108892B19F160E070E208C0E091C00848
:102E7000F091C108E40FF51F70836F5F462F50E09B
:102E800080918D0890E0019720918E0830E0FC0140
:102E9000E29FC001E39F900DF29F900D112448170F
:102EA000590724F31092C3081092C20808950E9493
:102EB0002A17089561E042E00E94881608950F9352
:102EC0001F93CF93DF9300E010E8C82FD0E0812F4D
:102ED00090E08C239D23892B11F081E301C080E3D6
:102EE0000E945A170F5F083011F01695F0CFDF914E
:102EF000CF911F910F9108950E945F1708958A3016
:102F000010F4805D01C0895C0E945A1708951F93D8
:102F1000182F82958F700E947F17812F8F700E94CB
:102F20007F171F9108951F93182F892F0E948717CD
:102F3000812F0E9487171F9108950E94931708956B
:102F40000E94871708956F927F928F929F92AF92FF
:102F5000BF92CF92DF92FF920F93DF93CF93CDB7C3
:102F6000DEB72A970FB6F894DEBF0FBECDBF5B0168
:102F70006C010AE03E010894611C711CFA2CC60128
:102F8000B5012AE030E040E050E00E940022C90193
:102F9000DA015C016D0101504301800E911C80E358
:102FA000F80EC601B5012AE030E040E050E00E9492
:102FB000CE21F61AF401F082A114B104C104D104A7
:102FC000E9F608C0F601E00FF11D80810E945A1752
:102FD0000F5F04C06E010894C11CD11C0A3090F32D
:102FE0002A960FB6F894DEBF0FBECDBFCF91DF910A
:102FF0000F91FF90DF90CF90BF90AF909F908F90F8
:103000007F906F9008950E94A3170895EF92FF920A
:103010000F931F937B018C0197FF0BC010950095B8
:10302000F094E094E11CF11C011D111D8DE20E9441
:103030005A17C801B7010E94A3171F910F91FF9063
:10304000EF9008950E9406180895CF93DF93EC0146
:1030500003C00E945A172196FE0184918823C9F764
:10306000DF91CF9108950E9425180895CF93DF93A3
:10307000EC0103C021960E945A1788818823D1F75A
:10308000DF91CF9108950E94361808950E94361856
:1030900008950E945A1708950E945A170895A0E0B3
:1030A000B0E0E5E5F8E10C942C22E82E8091C00810
:1030B0009091C108892B09F405C12AE0E21609F4B0
:1030C00046C038E0E316C9F48091C308815080936C
:1030D000C3088F3F51F48091C20881508093C20889
:1030E00080918E0881508093C3088091C2088F3FE1
:1030F00009F0E2C01092C208DDC08E2D0E945A175E
:103100002091C2082223C9F030E021503040809144
:103110008E0890E0AC01249FC001259F900D349F44
:10312000900D11242091C308E091C008F091C108CE
:10313000E80FF91FE20FF11DE0828091C3088F5F55
:103140008093C30890918E08891709F0BBC0409105
:10315000C208242F30E080918D0890E00197281755
:10316000390709F0A4C0C0E0D0E044C080E06C2F73
:103170000E940817FF246E010894C11CD11C35C0A1
:103180000F2D10E090E09C01C29FC001C39F900DE5
:10319000D29F900D1124E091C008F091C108E00F7A
:1031A000F11FE80FF91F80810E945A17E091C008B3
:1031B000F091C10880918E0890E0C89FD001C99F0E
:1031C000B00DD89FB00D1124E00FF11FAE0FBF1F3F
:1031D000AC01C49EC001C59E900DD49E900D1124DB
:1031E000E80FF91F80818C93F39480918E08F81674
:1031F00038F2E60160918D08862F90E00297C8179B
:10320000D9070CF4B3CF623008F440C0625080E0BC
:103210000E940817FF2440E2D42E34C00F2D10E086
:1032200080918D0890E0029730E0AC01429FC00190
:10323000439F900D529F900D1124E091C008F09192
:10324000C108E00FF11FE80FF91F80810E945A1793
:1032500020918D0830E02250304080918E0890E01F
:10326000AC01249FC001259F900D349F900D112427
:10327000E091C008F091C108E00FF11FE80FF91FBD
:10328000D082F39420918E08F21640F260918D085E
:10329000615080E00E94081700E004C080E20E94B4
:1032A0005A170F5F80918E080817C0F303C04F5F55
:1032B0004093C2081092C3088091C3086091C2086D
:1032C0000E9408172E2D332727FD3095C901CDB751
:1032D000DEB7E8E00C944822EF92FF920F931F9321
:1032E000CF93DF937C01062F10E053E0000F111FF6
:1032F0005A95E1F7C0E0D0E09E01200F822F806454
:103300000E94DC16F701EC0FFD1FE4918E2F0E9446
:103310005A172196C830D10579F7CDB7DEB7E6E068
:103320000C944A220E946C19089560E041E00E94CA
:10333000881608950F931F93CF93DF93082F162FAE
:10334000EA010BC0002311F488E101C08CE10E9466
:10335000DC16CE010E94741F1150112399F7DF91E2
:10336000CF911F910F9108950E949A190895282FC7
:1033700030E0F90193E0EE0FFF1F9A95E1F7220F7D
:10338000331FE20FF31FE157F74F8081089590E05C
:10339000FC01EE0FFF1FEE0FFF1FE80FF91FEE0FEE
:1033A000FF1FEF56F74F8081089590E0FC01EE0F6C
:1033B000FF1FEE0FFF1FE80FF91FEE0FFF1FEF5665
:1033C000F74F208130E0FC0153E0EE0FFF1F5A95CC
:1033D000E1F7880F991FE80FF91FE157F74F848134
:1033E000281709F431E0832F0895282F30E0F901E0
:1033F000B3E0EE0FFF1FBA95E1F7220F331FE20F84
:10340000F31FE157F74F81810895282F30E0F9012C
:1034100073E0EE0FFF1F7A95E1F7220F331FE20FE3
:10342000F31FE157F74F918140E0282F30E0F90179
:1034300053E0EE0FFF1F5A95E1F7220F331FE20F03
:10344000F31FE157F74F8381981709F441E0842F68
:10345000089508950895882321F0813009F044C02B
:103460001DC020918F08222311F488E901C088E152
:103470008093C1008091950890919608892B61F105
:103480009091900880919208981730F5222321F5A9
:103490008091C10080628093C1001CC02091990876
:1034A000222311F488E901C088E18093C90080914A
:1034B0009F089091A008892B99F090919A0880918B
:1034C0009C08981768F4222359F48091C9008062FF
:1034D0008093C900789408958091C1008F7DDBCFDF
:1034E0008091C9008F7DF4CF0895282F30E0F90135
:1034F000B3E0EE0FFF1FBA95E1F7220F331FE20F83
:10350000F31FE157F74F60830E942B1A0895A0E044
:10351000B0E0EDE8FAE10C942D22D82E7A018B016F
:103520000E942B1A82E0D81619F1DD2019F0CCEC9C
:10353000D0E002C0C4ECD0E060EA75E286E290E040
:103540006E197F09800B910B33E0660F771F881F80
:10355000991F3A95D1F724E0EE0CFF1C001F111FB4
:103560002A95D1F7A80197010E9400223983288368
:10357000CDB7DEB7E7E00C9449220E94871A089580
:10358000282F30E0F90153E0EE0FFF1F5A95E1F7C5
:10359000220F331FE20FF31FE157F74F60830E94A2
:1035A0002B1A0895582F823051F0882319F0E9EC36
:1035B000F0E002C0E1ECF0E080818F778083252F7E
:1035C00030E0D901AA0FBB1FC901E3E0880F991FA2
:1035D000EA95E1F7A80FB91FA157B74F19967C9349
:1035E0006E931897F901EE0FFF1FEE0FFF1FE20F0A
:1035F000F31FEE0FFF1FEF56F74F108214964C93F8
:10360000149715961C921597523069F08C91882367
:1036100051F4552319F0E9ECF0E002C0E1ECF0E0E0
:1036200080818068808308950E94D21A0895582F5F
:10363000823051F0882319F0E9ECF0E002C0E1ECAF
:10364000F0E080818F778083252F30E0D901AA0FA9
:10365000BB1FC901E3E0880F991FEA95E1F7A80FA6
:10366000B91FA157B74F19967C936E931897F9011C
:10367000EE0FFF1FEE0FFF1FE20FF31FEE0FFF1FF6
:10368000EF56F74F108214964C93149781E01596DD
:103690008C931597523069F08C91882351F45523FF
:1036A00019F0E9ECF0E002C0E1ECF0E08081806824
:1036B000808308950E94171B089560E070E040E049
:1036C0000E94D21A08950E945D1B08951F920F92C6
:1036D0000FB60F920BB60F9211242F938F939F93D7
:1036E000EF93FF932091C600E0919708F09198081E
:1036F000309781F09091910880919308981750F439
:1037000080919108E80FF11D2083809191088F5FCF
:10371000809391089091910880919308981731F4C3
:1037200080919408882311F010929108FF91EF91F5
:103730009F918F912F910F900BBE0F900FBE0F9006
:103740001F9018951F920F920FB60F920BB60F9203
:1037500011242F938F939F93EF93FF932091CE008B
:10376000E091A108F091A208309781F090919B0818
:1037700080919D08981750F480919B08E80FF11DE7
:10378000208380919B088F5F80939B0890919B087A
:1037900080919D08981731F480919E08882311F03C
:1037A00010929B08FF91EF919F918F912F910F9015
:1037B0000BBE0F900FBE0F901F901895CF93DF9305
:1037C000382F90E0FC0153E0EE0FFF1F5A95E1F710
:1037D000880F991FE80FF91FE157F74FA681B781AE
:1037E000109709F464C0832F90E0FC0123E0EE0FF2
:1037F000FF1F2A95E1F7880F991FE80FF91FE1577E
:10380000F74F2181832F90E0FC0163E0EE0FFF1F53
:103810006A95E1F7880F991FE80FF91FE157F74FF5
:103820008381281708F043C0332319F0E8ECF0E057
:1038300002C0E0ECF0E0808185FF39C0332319F04D
:10384000CEECD0E002C0C6ECD0E0832F90E0FC01CB
:1038500043E0EE0FFF1F4A95E1F7880F991FE80F2D
:10386000F91FE157F74F8181A80FB11D8C91888313
:10387000832F90E0FC0173E0EE0FFF1F7A95E1F7D4
:10388000880F991FE80FF91FE157F74F21812F5F2C
:10389000832F90E0FC0153E0EE0FFF1F5A95E1F7F4
:1038A000880F991FE80FF91FE157F74F2183832FE6
:1038B00090E0FC01B3E0EE0FFF1FBA95E1F7880F2F
:1038C000991FE80FF91FE157F74F86819781892BE0
:1038D00009F443C0832F90E0FC0173E0EE0FFF1F5B
:1038E0007A95E1F7880F991FE80FF91FE157F74F15
:1038F0002181832F90E0FC0153E0EE0FFF1F5A95CA
:10390000E1F7880F991FE80FF91FE157F74F8381FF
:10391000281718F5832F90E0FC01B3E0EE0FFF1F8E
:10392000BA95E1F7880F991FE80FF91FE157F74F94
:103930008081882391F4332319F0E9ECF0E002C090
:10394000E1ECF0E08081806204C0E9ECF0E080818D
:103950008F7D8083DF91CF9108953323B1F7E1EC20
:10396000F0E0F5CF282F90E0FC0153E0EE0FFF1FB1
:103970005A95E1F7880F991FE80FF91FE157F74FA4
:1039800077836683822F90E0FC01B3E0EE0FFF1F88
:10399000BA95E1F7880F991FE80FF91FE157F74F24
:1039A0001182822F90E0FC0173E0EE0FFF1F7A95E9
:1039B000E1F7880F991FE80FF91FE157F74F43838D
:1039C000223009F449C0822F90E0FC0153E0EE0F51
:1039D000FF1F5A95E1F7880F991FE80FF91FE1576C
:1039E000F74F86819781892B91F1822F90E0FC011E
:1039F000B3E0EE0FFF1FBA95E1F7880F991FE80FAC
:103A0000F91FE157F74F8181841708F5822F90E065
:103A1000FC0173E0EE0FFF1F7A95E1F7880F991F05
:103A2000E80FF91FE157F74F8081882381F42223A3
:103A300019F0E9ECF0E002C0E1ECF0E08081806296
:103A400004C0E9ECF0E080818F7D8083089522231B
:103A5000C1F7E1ECF0E0F7CF08950E94B21C0895A1
:103A60001F920F920FB60F920BB60F9211242F9345
:103A70003F934F935F936F937F938F939F93AF93F6
:103A8000BF93EF93FF9380E00E94DE1BFF91EF91C5
:103A9000BF91AF919F918F917F916F915F914F9166
:103AA0003F912F910F900BBE0F900FBE0F901F9064
:103AB00018951F920F920FB60F920BB60F9211240A
:103AC0002F933F934F935F936F937F938F939F9326
:103AD000AF93BF93EF93FF9381E00E94DE1BFF91B2
:103AE000EF91BF91AF919F918F917F916F915F9176
:103AF0004F913F912F910F900BBE0F900FBE0F90E3
:103B00001F901895982F823071F0882319F0E9ECF6
:103B1000F0E002C0E1ECF0E080818F7D8083892FAE
:103B20000E94DE1B0895E091A908F091AA08309741
:103B3000B1F09091A4088091A608981780F406C06F
:103B40008091A4088F5F8093A408EDCF8091A40892
:103B5000E80FF11D80810E943F20882389F7089596
:103B60000F931F93CF93DF93682F823009F49CC08B
:103B7000882319F0E9ECF0E002C0E1ECF0E080818C
:103B80008F778083462F50E0DA01AA0FBB1FCA014E
:103B900023E0880F991F2A95E1F7A80FB91FA157B5
:103BA000B74F1896CD91DC911997209709F45AC018
:103BB000FA01EE0FFF1FEE0FFF1FE40FF51FEE0FD0
:103BC000FF1FEF56F74F808114962C91821708F053
:103BD00049C0662319F0E8ECF0E002C0E0ECF0E048
:103BE000808187FF3FC0662319F4E6ECF0E002C055
:103BF000EEECF0E09081FA01EE0FFF1FEE0FFF1FD9
:103C0000E40FF51FEE0FFF1FEF56F74F808182176D
:103C100038F48081C80FD11D988380818F5F8083A5
:103C2000FA01EE0FFF1FEE0FFF1FE40FF51FEE0F5F
:103C3000FF1FEF56F74F8081DA01AA0FBB1F9A01D1
:103C400013E0220F331F1A95E1F7A20FB31FA157FC
:103C5000B74F14969C911497891721F415968C915F
:103C600081111082FA01A3E0EE0FFF1FAA95E1F780
:103C7000440F551FE40FF51FE157F74F808188234C
:103C800009F059C0662319F0E9ECF0E002C0E1EC5C
:103C9000F0E08081806880834EC08091A8088823EE
:103CA00019F01092A50847C08091AB089091AC081C
:103CB000892B09F440C09091A5088091A708981716
:103CC000D0F58091C9088823A9F40E94B12080937F
:103CD000C90810E00BC00E944F20E02FF0E03197A0
:103CE000E11BF109E653F74F80831F5F0091C9087C
:103CF000101788F3E091C908EE23E9F08091A50838
:103D0000A091AB08B091AC08A80FB11DE150E093B1
:103D1000C908F0E0E653F74F80818C938091A508A5
:103D20008F5F8093A5089091A5088091A7089817A8
:103D300009F0BACFB2CFDF91CF911F910F910895C3
:103D400080E00E94821D81E00E94821D82E00E942C
:103D5000821D80E00E94B01D81E00E94B01D82E0C3
:103D60000E94B01D08951F93182F0E94B21C02C01C
:103D70000E94A01E812F90E0FC0173E0EE0FFF1F58
:103D80007A95E1F7880F991FE80FF91FE157F74F70
:103D90002181812F90E0FC0153E0EE0FFF1F5A9527
:103DA000E1F7880F991FE80FF91FE157F74F83815B
:103DB0002817F1F61F9108950E94B31E0895A0E000
:103DC000B0E0E5EEFEE10C942822082F79010E9474
:103DD000D21A0E94DA1F4B015C0110E0E801CC0FFF
:103DE000DD1FCC0FDD1FC00FD11FCC0FDD1FCF5645
:103DF000D74F6801F3E0CC0CDD1CFA95E1F7000F1A
:103E0000111FC00ED11E83E998E0C80ED91E00E034
:103E100010E00E94A01E9881F6018081981711F48D
:103E200080E00CC00E94DA1F681979098A099B0991
:103E30006E157F058007910760F381E0CDB7DEB78F
:103E4000ECE00C9444220E94DF1E08950E94A01E04
:103E500008952F928F939F932FB68091D3089091BE
:103E6000D40801968093D3089093D40890E0809171
:103E7000D508891F8093D5089091DB089C5F9093AB
:103E8000DB088091DA0880519742C0F09093DB08FC
:103E90008093DA088091D6089091D7080196809394
:103EA000D6089093D70890E08091D808891F809316
:103EB000D8088091D908891F8093D9082FBE9F9177
:103EC0008F912F9018956F5F7F4F8F4F9F4F660F89
:103ED000771F881F991F25E030E040E050E00E94E6
:103EE0000022CA01B901089528EE33E009C0F901A2
:103EF0006F9364E06A95F1F76F913197C9F7019775
:103F00000097A9F708956F5F7F4F8F4F9F4F660F00
:103F1000771F881F991F25E030E040E050E00E94A5
:103F20000022CA01B901089528EE33E009C0F90161
:103F30006F9364E06A95F1F76F913197C9F7019734
:103F40000097A9F70895A0E7B0E08C918E7F8C933D
:103F5000E0EBF0E0808183608083E1EBF0E0808142
:103F6000807F8083808182608083B89A8C91816019
:103F70008C93789408958091DC08882329F481E05B
:103F80008093DC080E94A31F08950E94BB1FE0E7F6
:103F9000F0E080818E7F80832091D6083091D70811
:103FA0004091D8085091D908808181608083B901FF
:103FB000CA0108950E94C51F08950E94BB1F8091E9
:103FC00070008E7F809370006091B2008091D20863
:103FD0009091D308A091D408B091D508B89905C0A4
:103FE000262F30E040E050E011C08091B2002091D7
:103FF000D2083091D3084091D4085091D508205070
:104000003F4F4F4F5F4F90E0A0E0B0E0282B392B9F
:104010004A2B5B2B80917000816080937000B90106
:10402000CA0108950E94DD1F08950E94BB1FE0E7AA
:10403000F0E080818E7F80831092D6081092D7089E
:104040001092D8081092D9081092DB081092DA0862
:1040500080818160808308950E9415200895982FA3
:104060008091F308891739F09093F308892F806CB9
:1040700065E00E94972108950E942F2008951F93C4
:10408000182F881F8827881F8C5765E00E9497216A
:10409000812F8F7765E00E9497211F9108958FEF00
:1040A00064E00E9497210895CF93DF930E94C51F7B
:1040B0002091B1083091B2084091B3085091B408F2
:1040C0006217730784079507B9F081E867E00E94DB
:1040D0009721C6EED8E00E944F20899388E0C33F25
:1040E000D807C9F70E94C51F6093B1087093B20842
:1040F0008093B3089093B408DF91CF9108950E9404
:1041000054208091E60808950E947F2008950E941F
:1041100054208091ED089091EE0808950E9454205B
:104120008091EB089091EC0808950E9454208091B2
:10413000E9089091EA0808950E9454208091E708C8
:104140009091E80808950E9454208091F108909180
:10415000F20808950E9454208091EF089091F00891
:10416000089583E867E00E9497210E944F200895F8
:10417000A5E0B0E0EEEBF0E20C94312282E866E0DC
:104180000E9497210E944F208093E1080E944F20B7
:104190008093E2080E944F208093E3080E944F2002
:1041A0008093E4081091E5080E944F20182B10938B
:1041B000E508DE011196E1EEF8E085E001900D9250
:1041C0008150E1F729813A814B815C816D8170E0FA
:1041D00090E02596E3E00C944D220E94C51F2091AB
:1041E000AD083091AE084091AF085091B008621709
:1041F00073078407950761F00E94B8200E94C51FCD
:104200006093AD087093AE088093AF089093B008A8
:1042100008950E94ED208091E50881FD02C080E0B4
:1042200008958D7F8093E50881E008950E9409211B
:1042300008950E94ED208091E50880FD02C080E095
:1042400008958E7F8093E50881E008950E941921EA
:1042500008950E94ED202091E3083091E4088091B8
:10426000DF089091E008281B390BC90108950E94CE
:1042700029212091E3083091E4083093E00820934D
:10428000DF0808950E94372108950E94292108958A
:104290000E94ED202091E1083091E2088091DD0834
:1042A0009091DE08281B390BC90108950E9448210E
:1042B0002091E1083091E2083093DE082093DD0878
:1042C00008950E94562108950E944821089580E88B
:1042D00065E00E9497210E944F2008950E94672167
:1042E0000895982F24990CC02C990AC02C9AEEE1BD
:1042F000F0E06F9364E06A95F1F76F913197C9F739
:1043000084B1806A84B92698892F837080656C7A1D
:10431000862B8CBD892F90E09695879596958795ED
:1043200081708DBD81E090E00E94941F08950F93ED
:104330001F93082F162F0CB406FC04C080E064E025
:104340000E9471210CB404FC03C08CB580618CBD4B
:104350000EBD05C00CB404FC02C080E00FC00DB45B
:1043600007FEF8CF112349F0812F90E06F9364E0AE
:104370006A95F1F76F910197C9F78EB51F910F916B
:10438000089560E00E94972108950E94C121089538
:104390000E94972108950E9471210895629FD00183
:1043A000739FF001829FE00DF11D649FE00DF11DF0
:1043B000929FF00D839FF00D749FF00D659FF00D9F
:1043C0009927729FB00DE11DF91F639FB00DE11D8C
:1043D000F91FBD01CF011124089597FB092E07266F
:1043E0000AD077FD04D065D006D000201AF470956D
:1043F00061957F4F0895F6F7909581959F4F0895A9
:10440000A1E21A2EAA1BBB1BFD010DC0AA1FBB1FD8
:10441000EE1FFF1FA217B307E407F50720F0A21B4A
:10442000B30BE40BF50B661F771F881F991F1A94B7
:1044300069F760957095809590959B01AC01BD01E1
:10444000CF0108952F923F924F925F926F927F9289
:104450008F929F92AF92BF92CF92DF92EF92FF9294
:104460000F931F93CF93DF93CDB7DEB7CA1BDB0B40
:104470000FB6F894DEBF0FBECDBF09942A883988E5
:1044800048885F846E847D848C849B84AA84B984EC
:10449000C884DF80EE80FD800C811B81AA81B981F8
:1044A000CE0FD11D0FB6F894DEBF0FBECDBFED010C
:1044B0000895AA1BBB1B51E107C0AA1FBB1FA6176B
:1044C000B70710F0A61BB70B881F991F5A95A9F7BD
:1044D00080959095BC01CD010895CF93DF93BC01E9
:1044E0008230910510F462E070E0A091FD08B09177
:1044F000FE08ED01E0E0F0E040E050E021C08881FE
:1045000099818617970769F48A819B81309719F002
:104510009383828304C09093FE088093FD08FE017C
:1045200034C06817790738F44115510519F084171C
:10453000950708F4AC01FE018A819B819C01E90189
:104540002097E9F641155105A9F1CA01861B970B81
:10455000049708F4BA01E0E0F0E02AC08D919C9144
:10456000119784179507F9F46417750781F412966B
:104570008D919C911397309719F09383828304C097
:104580009093FE088093FD08FD0132964FC0CA014A
:10459000861B970BFD01E80FF91F6193719302973A
:1045A0008D939C9343C0FD01828193819C01D9012D
:1045B0001097A1F68091FB089091FC08892B41F49B
:1045C0008091B7089091B8089093FC088093FB08FD
:1045D0004091B9085091BA084115510541F44DB7C1
:1045E0005EB78091B5089091B608481B590B209191
:1045F000FB083091FC0824173507B0F4CA01821B70
:10460000930B8617970780F0AB014E5F5F4F8417BF
:10461000950750F0420F531F5093FC084093FB083E
:10462000F9016193719302C0E0E0F0E0CF01DF9106
:10463000CF910895CF93DF93009709F450C0EC0118
:1046400022971B821A82A091FD08B091FE08109754
:1046500009F140E050E0AC17BD0708F1BB83AA8325
:10466000FE0121913191E20FF31FAE17BF0779F4DC
:104670008D919C911197280F391F2E5F3F4F3983E1
:10468000288312968D919C9113979B838A83411561
:10469000510571F4D093FE08C093FD0820C0129616
:1046A0008D919C911397AD01009711F0DC01D3CF50
:1046B000FA01D383C28321913191E20FF31FCE1708
:1046C000DF0769F488819981280F391F2E5F3F4FDA
:1046D000FA01318320838A819B8193838283DF91D6
:1046E000CF910895FB019F01E8944230C4F0453218
:1046F000B4F44A3029F497FB1EF4909581959F4FAE
:10470000642F77270E945922805D8A330CF0895DDF
:104710008193CB010097A1F716F45DE251931082CB
:10472000C9010C9402240F931F93CF93DF938C0144
:10473000EB01009731F46115710519F420E030E0C8
:1047400038C081E090E06EE070E00E94DF23FC0161
:104750009C01009771F180E88383209771F0D387E3
:10476000C28781E883838091FF0890910009892B9B
:1047700021F4F0930009E093FF0801151105C9F039
:1047800011870087838182608383809101099091E2
:104790000209892B71F4F0930209E09301098091D9
:1047A000030990910409892B21F4F0930409E09303
:1047B0000309C901DF91CF911F910F9108950F93C4
:1047C0001F93CF93DF93689F8001699F100D789F9F
:1047D000100D1124C8010E946D22EC01009729F0F0
:1047E00060E070E0A8010E94FB23CE01DF91CF9131
:1047F0001F910F910895DC0101C06D93415050400D
:10480000E0F70895DC01FC01672F71917723E1F750
:10481000329704C07C916D9370836291AE17BF078D
:08482000C8F30895F894FFCFDE
:104828000D0A005055534820544F205354415254B8
:1048380000444153434820434C45414E45522032A1
:1048480063005245563A343700424547494E2000E6
:10485800494E495420004932433120444F574E2095
:104868000049324331205550004932433220444FE9
:10487800574E2000493243322055500049324333C5
:1048880020444F574E20004932433320555000539F
:10489800544152542000493243204241442000539D
:1048A800544F502050524F472000493243204F4B1D
:1048B800200042494E49542000494E505554205238
:1048C800554E2F44454255470044454255470052EE
:1048D800554E00494E5055545320004F555450558D
:1048E8005453004D4F544F525320004D554C54498A
:1048F800204D4F544F52004F4646004241434B20F3
:104908000053454E534F5220310053454E534F529A
:1049180020320053454E534F5220330053454E53D7
:104928004F5220340053454E534F522035005345C3
:104938004E534F5220360053454E534F52203700A6
:1049480053454E534F52203800414320504F57454E
:104958005220202020204F4E2000424C4F574552D5
:10496800202020202020204F4E202000504C415451
:10497800452053544F502020204F4E2000504C418A
:10498800544520524149534520204F4E2000504C59
:10499800415445204C4F57455220204F4E2000424D
:1049A8005255534831205241495345204F4E20001B
:1049B800425255534831204C4F574552204F4E20B4
:1049C80000425255534832205241495345204F4ED8
:1049D8002000425255534832204C4F574552204FE1
:1049E8004E20005041504552205241495345202005
:1049F8004F4E20005041504552204C4F57455220B1
:104A0800204F4E2000414952204B4E494645202018
:104A180020204F4E200042525553483150554D509A
:104A2800202020204F4E20004252555348325055E6
:104A38004D50202020204F4E20004C4F4144494EDD
:104A4800472020202046524F4E5400445249564594
:104A580020202020202046524F4E540042525553C9
:104A68004831202020202046524F4E5400425255B3
:104A7800534832202020202046524F4E54005041A7
:104A880050455220202020202046524F4E540046A8
:104A98004958545552452026204252555348310012
:104AA80046495854555245202620425255534832BB
:104AB800004E4F524D414C0053454C454354204302
:104AC80059434C45004649525354204200534543EC
:104AD8004F4E44204200424F544820420053544510
:104AE80050004359434C453A0020202020200053D1
:104AF800544154453A20003D3E20002000436F7544
:104B08006E7465723A006669727374425F7472619A
:104B18006E733A2000454E44204F46204359434C7B
:104B28004500454E4400E803E803E803010001009E
:104B38000100010001000200020002000200020060
:104B4800FA0004002602D002DC05BC02320016007E
:104B5800160001000D00496E697469616C697A6517
:104B6800206669787475726520616E64207072655C
:104B78007061726520666F72206379636C65004CA2
:104B88006F616420706C6174652073657175656E02
:104B98006365004D6F766573206D6F726520746F65
:104BA800206163636F6D6D6F6461746520666F72F9
:104BB8002073656E736F7220706C6163656D656ECE
:104BC800740052616973652066697874757265202E
:104BD8006C69667473004D6F7665206669787475C4
:104BE8007265206F6E746F206C696674004C657412
:104BF800206C6966747320646F776E0044726976FE
:104C080065206C6966747320646F776E004D6F76EB
:104C180065206669787475726520746F206669729C
:104C2800737420636C65616E696E67207374617458
:104C3800696F6E00536574207570206272757368B1
:104C48002031206D6F746F722C207765742062722A
:104C5800757368005374617274206272757368208A
:104C680031206D6F746F7220616E64207261697398
:104C780065206272757368203100436C65616E202F
:104C88003173742068616C66206F662074686520D3
:104C9800706C617465207769746820746865206633
:104CA80069727374206272757368004C6F776572ED
:104CB8002062727573682C207475726E206F666638
:104CC800206D6F746F720052657475726E20746F08
:104CD8002063656E746572206F662031737420637B
:104CE8006C65616E696E672073746174696F6E00BC
:104CF800436C65616E20326E642068616C66206F5B
:104D0800662074686520706C6174652077697468C2
:104D1800207468652066697273742062727573689E
:104D2800004C6F7765722062727573682C6D6F74B2
:104D38006F72206F66662C206D6F7665206F6E002F
:104D48004D6F7665206669787475726520746F207A
:104D58007365636F6E6420636C65616E696E67204E
:104D680073746174696F6E00536574207570206286
:104D7800727573682032206D6F746F722C2077659E
:104D88007420627275736800537461727420627261
:104D98007573682032206D6F746F7220616E6420A5
:104DA8007261697365206272757368203200436CA2
:104DB80065616E203173742068616C66206F6620AF
:104DC80074686520706C61746520776974682074F4
:104DD8006865207365636F6E64206272757368001E
:104DE80052657475726E20746F2063656E74657297
:104DF800206F6620326E6420636C65616E696E6731
:104E08002073746174696F6E00436C65616E203243
:104E18006E642068616C66207769746820736563C6
:104E28006F6E64206272757368004D6F76652066D8
:104E380069787475726520746F206669727374205E
:104E4800647279696E672073746174696F6E004D5E
:104E58006F766520666978747572652065787472F6
:104E680061004D6F766520706C61746520626163C6
:104E78006B20616972206B6E69666520616E6420C3
:104E8800706170657220746F77656C20726F6C6CDE
:104E98006572004465616374697661746520616E4A
:104EA80064206C6F77657220706170657220746F12
:104EB80077656C72657475726E20746F206C6966A4
:104EC80074004669784C32204578747261005261EA
:104ED800697365206C696674005374617274207418
:104EE8006F20686F6D652066697874757265004C0F
:104EF8006F776572204C69667433005265747572F9
:104F08006E20706C617465202C2066696E69736808
:104F180020686F6D696E67206669787475726500C0
:104F2800456E64206F66206379636C650053746F07
:104F380070206C6F6F7000496E2044656275672041
:104F48004379636C652C207761697420666F7220E1
:104F5800627574746F6E2070726573730036045FC7
:104F6800047304A204B6047304CD04DC04ED041431
:104F78000534055A058B05A70514053405D0050128
:104F8800062006480668068E068B05C00648066891
:104F980006E9068B050A072F0742077307A207AE23
:104FA80007B907CF07DB0700080D0817080210002C
:104FB80000000000000000000000000000000000E9
:104FC80000000001000000000000000000FFFFFFDB
:0C4FD800FFFFFFFFFF20000509000000A4
:00000001FF
