:100000000C9446000C9465000C9465000C946500FB
:100010000C9465000C9465000C9465000C946500CC
:100020000C9465000C9465000C9465000C943B06E0
:100030000C9465000C9465000C9465000C946500AC
:100040000C9465000C9465000C9465000C9465009C
:100050000C9465000C9465000C9465000C9465008C
:100060000C9465000C9465000C9465000C9465007C
:100070000C9465000C9465000C9465000C9465006C
:100080000C9465000C9465000C94650011241FBE4F
:10009000CFEFD0E4DEBFCDBF11E0A0E0B1E0ECE0F7
:1000A000F5E100E00BBF02C007900D92AC31B10743
:1000B000D9F711E0ACE1B1E001C01D92A235B10762
:1000C000E1F70E94FE010C94840A0C940000482F72
:1000D000883068F481E090E002C0880F991F4A954B
:1000E000E2F7282FAAE2B0E0EBE2F0E03EC0803178
:1000F00088F4282F30E02850304081E090E002C0A2
:10010000880F991F2A95E2F7282FA4E2B0E0E5E2D4
:10011000F0E02BC0883188F4282F30E020513040A7
:1001200081E090E002C0880F991F2A95E2F7282FFE
:10013000A7E2B0E0E8E2F0E018C0803230F020E062
:10014000A0E0B0E0E0E0F0E010C02FE130E0281BDC
:10015000310981E090E002C0880F991F2A95E2F7EB
:10016000282FA1E2B0E0E2E2F0E06F3F19F48081D5
:10017000822709C0662319F08081822B04C09081F8
:10018000822F8095892380838C91822B8C93089574
:10019000FC0120E030E08081882311F421E030E090
:1001A000C9010895FC0181E08083089508950895B0
:1001B00080E090E0089580E090E0089583E160E0C1
:1001C0000E94670080E090E0089583E161E00E9472
:1001D000670080E090E0089580E090E0089580E07E
:1001E00090E0089580E090E0089580E090E0089528
:1001F00080E090E0089580E0089580E0089520E098
:100200008056994009F421E0822F089520E080561D
:10021000994009F421E0822F089582E161E00E9473
:10022000670082E090E00E94A60682E160E00E9402
:10023000670082E090E00E94A6068CE291E00E94B6
:10024000A60680E090E0089581E161E00E946700E9
:1002500082E090E00E94A60681E160E00E946700D3
:1002600082E090E00E94A60680E090E008950E945F
:1002700024010E940D0180E090E0089581E161E099
:100280000E94670082E090E00E94A60681E160E0A3
:100290000E94670082E090E00E94A60680E090E065
:1002A000089582E161E00E94670082E090E00E9490
:1002B000A60682E160E00E94670082E090E00E9472
:1002C000A6068CE291E00E94A60680E090E00895E8
:1002D00080E161E00E94670082E090E00E94A60653
:1002E00080E160E00E94670082E090E00E94A60644
:1002F00080E090E008950E9468010E9451010E94F0
:100300003E0180E090E008950F931F93CF93DF9319
:100310008C0184E161E00E94670082E090E00E942D
:10032000A60684E160E00E94670082E090E00E94FF
:10033000A606C80160E77EEF0E941309EB01C05AD0
:10034000D64FCE010197039780F4809102010E945D
:100350004703019751F0809104010E9447030197E0
:1003600021F0809106010E944703249721F4809197
:1003700008010E94470380E090E0DF91CF911F9138
:100380000F9108950F931F93CF93DF938C0184E116
:1003900061E00E94670082E090E00E94A60684E18E
:1003A00060E00E94670082E090E00E94A606C8011B
:1003B00060E971E00E941309EB01CB0101970397FB
:1003C00080F4809102010E944703019751F08091CF
:1003D00004010E944703019721F0809106010E94C9
:1003E0004703249721F4809108010E94470380E08D
:1003F00090E0DF91CF911F910F910895CF93DF93FC
:100400000E94E5000E947B0180E20E942C06C0E071
:10041000D0E00CC00E94DE00C0E0D0E010C00E941E
:10042000370180E090E0DF91CF910895CE010E94E6
:10043000C201219689E0C036D807C1F7EBCFCE01C3
:100440000E948401219689E0C036D807C1F7E7CF22
:100450000E942C0A08950E947F09089590930D012F
:1004600080930C01089508950895EF92FF920F93E1
:100470001F93CF93DF9380911C01882309F455C00B
:1004800080911D0190911E0120917C00C0910C0172
:10049000D0910D01BC0180E090E025FF21C07E01DC
:1004A000F694E79400E010E02FEF30E040E050E0F9
:1004B0000E94E008E60EF71E081F191F9E0140E08B
:1004C00050E0C801B7010E942609C901DA018F3F37
:1004D0009105A105B10539F130F12FEF30E032C0BF
:1004E0007E01F694E79400E010E02FEF33E040E067
:1004F00050E00E94E008E60EF71E081F191F9E013B
:1005000040E050E0C801B7010E942609C901DA01A4
:10051000803020E0920721E0A20720E0B20718F027
:100520002FEF3FEF0FC09C010DC080917C0085FF35
:1005300005C080917900282F30E004C02091780018
:1005400030917900C901CDB7DEB7E6E00C947009AF
:100550000E943502089590930D0180930C01089537
:10056000A0E0B0E020910C0130910D0140E050E09E
:10057000BC01CD010E94E0089B01AC0180917C0090
:1005800085FF0BC0B901CA0161587F4F8F4F9F4F44
:100590002FEF30E040E050E00AC0B901CA016150DD
:1005A0007E4F8F4F9F4F2FEF33E040E050E00E948F
:1005B0002609C901089580911C01882329F08091A2
:1005C0001D0190911E01089580917C0085FF06C059
:1005D0008091790090E00E94B002089580917800A7
:1005E000909179000E94B00208950E94DB02089564
:1005F0000E94B00208950E94BC070895982F80328F
:1006000000F181E080931C01903819F40E94BC072E
:1006100013C0913819F40E94AE070EC0923819F435
:100620000E94A70709C0933819F40E94A00704C0CC
:100630009438F9F40E94990790931E0180931D014C
:10064000089510921C0187E880937A0080917C00C5
:10065000282F2064662311F0806C02C0822F8F77D0
:10066000807E892B80937C0080917A0080648093C7
:100670007A00089560E00E94FE0280917A0086FD73
:10068000FCCF0E94DB0208950E943A03089560E0C7
:100690000E94FE0280917A0086FDFCCF0E94350206
:1006A00008950E9447030895A0E0B0E0EAE5F3E072
:1006B0000C9452096B01803220F00E9447039C0188
:1006C0003AC060E00E94FE0280917A0086FDFCCF75
:1006D000E601EE24FF24870180917A0080648093F4
:1006E0007A0080917A0086FDFCCF0E943502A0E05E
:1006F000B0E0E80EF91E0A1F1B1F219769F7C6011B
:100700009695879520E4C216D10440F48E0D9F1D66
:100710006C2D70E00E94FF089B010DC0A0E0B0E0CE
:10072000E80EF91E0A1F1B1F960140E050E0C801A9
:10073000B7010E942609C901CDB7DEB7E8E00C94E5
:100740006E091F9310917C0080917C008F7D8093B7
:100750007C008EE164E170E00E9454038EE164E16C
:1007600070E00E9454039C0115FD04C080917C0040
:100770008F7D03C080917C00806280937C00B901F2
:100780007695679580E090E06C54744D8E4E9F4F47
:1007900040E050E00E942609C9011F9108950E947F
:1007A000A103089580E864E170E00E945403089575
:1007B000803218F00E943A0308950E9454030E9468
:1007C000B00208950E945403089560E00E94FE0262
:1007D00008950E94B507089508950895282F8091DF
:1007E0001F01882391F481E080931F0187B1837DED
:1007F00087B988B18C6288B985E090E06F9364E036
:100800006A95F1F76F910197C9F786B180958223B8
:10081000089580911F01882391F481E080931F0146
:1008200087B1837D87B988B18C6288B985E090E013
:100830006F9364E06A95F1F76F910197C9F7089596
:1008400087B1837D87B988B18C6288B985E090E0F3
:100850006F9364E06A95F1F76F910197C9F7089576
:10086000282F80911F01882391F481E080931F013C
:1008700087B1837D87B988B18C6288B985E090E0C3
:100880006F9364E06A95F1F76F910197C9F786B1AC
:100890008095822308950F931F93082F16B10E940D
:1008A000D706AB01BC0180911F01882391F481E040
:1008B00080931F0187B1837D87B988B18C6288B925
:1008C00085E090E06F9364E06A95F1F76F9101978E
:1008D000C9F780912501813011F1813038F08230E3
:1008E00009F443C0833009F089C065C0202F30E08F
:1008F000812F90E08095909528233923232B09F4AC
:100900007DC0109510231093200140932101509336
:100910002201609323017093240181E06DC08091D6
:10092000210190912201A0912301B0912401481B43
:10093000590B6A0B7B0B4F3051056105710508F4AB
:100940005DC040912001812F90E080959095242FEB
:1009500030E082239323892B59F182E08093250193
:10096000109514231093200149C0E0912001AE2F6F
:10097000B0E0212F30E0CD0182239323892B79F041
:1009800083E080932501E123E0932001409321013E
:100990005093220160932301709324012FC0802F74
:1009A00090E02095309582239323A817B90731F161
:1009B0001092250123C08091210190912201A091E4
:1009C0002301B0912401481B590B6A0B7B0B4F305C
:1009D00051056105710590F040912001842F90E050
:1009E000212F30E082239323892B29F010922501B7
:1009F000842F812304C082E08093250180E01F9131
:100A00000F9108950E944B0408950F931F93082F90
:100A100016B110950E94D706AB01BC0180911F0151
:100A2000882391F481E080931F0187B1837D87B98A
:100A300088B18C6288B985E090E06F9364E06A9534
:100A4000F1F76F910197C9F780912B01813011F176
:100A5000813038F0823009F443C0833009F089C016
:100A600065C0202F30E0812F90E08095909528235D
:100A70003923232B09F47DC01095102310932601F0
:100A800040932701509328016093290170932A0114
:100A900081E06DC08091270190912801A0912901EA
:100AA000B0912A01481B590B6A0B7B0B4F30510543
:100AB0006105710508F45DC040912601812F90E029
:100AC00080959095242F30E082239323892B59F130
:100AD00082E080932B01109514231093260149C0C6
:100AE000A0912601212F30E0EA2FF0E0C9018E23EA
:100AF0009F23892B79F083E080932B011A23109395
:100B00002601409327015093280160932901709397
:100B10002A012FC0802F90E02095309582239323C7
:100B2000E817F90731F110922B0123C080912701BA
:100B300090912801A0912901B0912A01481B590BDD
:100B40006A0B7B0B4F3051056105710590F04091A8
:100B50002601812F90E0242F30E082239323892BDC
:100B600029F010922B01812F842304C082E080930E
:100B70002B0180E01F910F9108950E9405050895B3
:100B80001F93CF93DF93182F80911F01882391F437
:100B900081E080931F0187B1837D87B988B18C6222
:100BA00088B985E090E06F9364E06A95F1F76F9102
:100BB0000197C9F7C12FD0E086B190E08C239D2327
:100BC000892BD1F38AE090E00E94A60686B190E0DE
:100BD0008C239D23892B81F386B18123DF91CF91D3
:100BE0001F9108950E94C00508951F93CF93DF932E
:100BF000182F80911F01882391F481E080931F01B9
:100C000087B1837D87B988B18C6288B985E090E02F
:100C10006F9364E06A95F1F76F910197C9F7C12F5F
:100C2000D0E086B190E0809590958C239D23892B10
:100C3000C1F38AE090E00E94A60686B190E080951C
:100C400090958C239D23892B61F386B18095812318
:100C5000DF91CF911F9108951F930E94F505182FE2
:100C60000E94C005812F1F9108950E942C060895AF
:100C70000E94F50508952F928F939F932FB6809130
:100C80002D0190912E01019680932D0190932E01BC
:100C900090E080912F01891F80932F019091350161
:100CA0009C5F909335018091340180519742C0F050
:100CB00090933501809334018091300190913101FE
:100CC0000196809330019093310190E08091320140
:100CD000891F8093320180913301891F80933301F2
:100CE0002FBE9F918F912F9018956F5F7F4F8F4FE1
:100CF0009F4F660F771F881F991F25E030E040E067
:100D000050E00E942609CA01B901089528EE33E097
:100D100009C0F9016F9364E06A95F1F76F9131971B
:100D2000C9F701970097A9F708956F5F7F4F8F4F1D
:100D30009F4F660F771F881F991F25E030E040E026
:100D400050E00E942609CA01B901089528EE33E057
:100D500009C0F9016F9364E06A95F1F76F913197DB
:100D6000C9F701970097A9F70895A0E7B0E08C9123
:100D70008E7F8C93E0EBF0E0808183608083E1EBF9
:100D8000F0E08081807F8083808182608083B89A58
:100D90008C9181608C93789408958091360188239A
:100DA00029F481E0809336010E94B50608950E94DF
:100DB000CD06E0E7F0E080818E7F808320913001D6
:100DC0003091310140913201509133018081816035
:100DD0008083B901CA0108950E94D70608950E9430
:100DE000CD06809170008E7F809370006091B2007C
:100DF00080912C0190912D01A0912E01B0912F0195
:100E0000B89905C0262F30E040E050E011C0809135
:100E1000B20020912C0130912D0140912E01509172
:100E20002F0120503F4F4F4F5F4F90E0A0E0B0E0C8
:100E3000282B392B4A2B5B2B80917000816080938B
:100E40007000B901CA0108950E94EF0608950E943A
:100E5000CD06E0E7F0E080818E7F80831092300144
:100E6000109231011092320110923301109235012B
:100E70001092340180818160808308950E94270749
:100E80000895982F80914D01891739F090934D0165
:100E9000892F806C65E00E94A90808950E9441078F
:100EA00008951F93182F881F8827881F8C5765E087
:100EB0000E94A908812F8F7765E00E94A9081F91E1
:100EC00008958FEF64E00E94A9080895CF93DF93FF
:100ED0000E94D70620911201309113014091140114
:100EE000509115016217730784079507B9F081E8DF
:100EF00067E00E94A908C0E4D1E00E9461078993DD
:100F000081E0CD34D807C9F70E94D706609312015B
:100F1000709313018093140190931501DF91CF9189
:100F200008950E9466078091400108950E949107EC
:100F300008950E94660780914701909148010895A5
:100F40000E946607809145019091460108950E9494
:100F50006607809143019091440108950E946607BD
:100F6000809141019091420108950E94660780910D
:100F70004B0190914C0108950E94660780914901B0
:100F800090914A01089583E867E00E94A9080E94B1
:100F900061070895A5E0B0E0E0EDF7E00C94570993
:100FA00082E866E00E94A9080E94610780933B01E5
:100FB0000E94610780933C010E94610780933D017C
:100FC0000E94610780933E0110913F010E946107DA
:100FD000182B10933F01DE011196EBE3F1E085E061
:100FE00001900D928150E1F729813A814B815C811A
:100FF0006D8170E090E02596E3E00C9473090E9407
:10100000D70620910E0130910F01409110015091AF
:101010001101621773078407950761F00E94CA07E0
:101020000E94D70660930E0170930F018093100108
:101030009093110108950E94FF0780913F0181FD67
:1010400002C080E008958D7F80933F0181E0089584
:101050000E941B0808950E94FF0780913F0180FDB8
:1010600002C080E008958E7F80933F0181E0089563
:101070000E942B0808950E94FF0720913D013091A6
:101080003E018091390190913A01281B390BC90129
:1010900008950E943B0820913D0130913E0130931C
:1010A0003A012093390108950E94490808950E9449
:1010B0003B0808950E94FF0720913B0130913C01BD
:1010C0008091370190913801281B390BC90108958F
:1010D0000E945A0820913B0130913C013093380125
:1010E0002093370108950E94680808950E945A08C5
:1010F000089580E865E00E94A9080E9461070895AC
:101100000E9479080895982F24990CC02C990AC040
:101110002C9AEEE1F0E06F9364E06A95F1F76F913D
:101120003197C9F784B1806A84B92698892F837072
:1011300080656C7A862B8CBD892F90E0969587957B
:101140009695879581708DBD81E090E00E94A606FE
:1011500008950F931F93082F162F0CB406FC04C09C
:1011600080E064E00E9483080CB404FC03C08CB5EA
:1011700080618CBD0EBD05C00CB404FC02C080E0D3
:101180000FC00DB407FEF8CF112349F0812F90E076
:101190006F9364E06A95F1F76F910197C9F78EB587
:1011A0001F910F91089560E00E94A90808950E9480
:1011B000D30808950E94A90808950E9483080895FD
:1011C000629FD001739FF001829FE00DF11D649F2B
:1011D000E00DF11D929FF00D839FF00D749FF00DB7
:1011E000659FF00D9927729FB00DE11DF91F639F58
:1011F000B00DE11DF91FBD01CF0111240895AA1BF7
:10120000BB1B51E107C0AA1FBB1FA617B70710F0F1
:10121000A61BB70B881F991F5A95A9F78095909523
:10122000BC01CD01089597FB092E07260AD077FD52
:1012300004D0E5DF06D000201AF4709561957F4F49
:101240000895F6F7909581959F4F0895A1E21A2E83
:10125000AA1BBB1BFD010DC0AA1FBB1FEE1FFF1F5A
:10126000A217B307E407F50720F0A21BB30BE40BAA
:10127000F50B661F771F881F991F1A9469F76095F1
:101280007095809590959B01AC01BD01CF010895AB
:101290002F923F924F925F926F927F928F929F9286
:1012A000AF92BF92CF92DF92EF92FF920F931F9374
:1012B000CF93DF93CDB7DEB7CA1BDB0B0FB6F89425
:1012C000DEBF0FBECDBF09942A88398848885F8465
:1012D0006E847D848C849B84AA84B984C884DF80D6
:1012E000EE80FD800C811B81AA81B981CE0FD11DBA
:1012F0000FB6F894DEBF0FBECDBFED010895CF93BA
:10130000DF93BC018230910510F462E070E0A0919F
:101310005001B0915101ED01E0E0F0E040E050E01B
:1013200021C0888199818617970769F48A819B81FA
:10133000309719F09383828304C090935101809376
:101340005001FE0134C06817790738F44115510582
:1013500019F08417950708F4AC01FE018A819B817E
:101360009C01E9012097E9F641155105A9F1CA014F
:10137000861B970B049708F4BA01E0E0F0E02AC05E
:101380008D919C91119784179507F9F4641775074F
:1013900081F412968D919C911397309719F0938355
:1013A000828304C09093510180935001FD013296D5
:1013B0004FC0CA01861B970BFD01E80FF91F61930F
:1013C000719302978D939C9343C0FD018281938119
:1013D0009C01D9011097A1F680914E0190914F0187
:1013E000892B41F4809118019091190190934F013C
:1013F00080934E0140911A0150911B0141155105F6
:1014000041F44DB75EB78091160190911701481BCA
:10141000590B20914E0130914F0124173507B0F43C
:10142000CA01821B930B8617970780F0AB014E5FB2
:101430005F4F8417950750F0420F531F50934F0191
:1014400040934E01F9016193719302C0E0E0F0E036
:10145000CF01DF91CF910895CF93DF93009709F4E7
:1014600050C0EC0122971B821A82A0915001B091CA
:101470005101109709F140E050E0AC17BD0708F1A9
:10148000BB83AA83FE0121913191E20FF31FAE17B6
:10149000BF0779F48D919C911197280F391F2E5F0A
:1014A0003F4F3983288312968D919C9113979B838C
:1014B0008A834115510571F4D0935101C0935001B5
:1014C00020C012968D919C911397AD01009711F059
:1014D000DC01D3CFFA01D383C28321913191E20F92
:1014E000F31FCE17DF0769F488819981280F391F10
:1014F0002E5F3F4FFA01318320838A819B81938342
:0C1500008283DF91CF910895F894FFCF13
:10150C000100020003000400050006008813FFFF21
:0C151C00FFFFFFFFFFFF20005201000056
:00000001FF
