:100000000C9404010C9423010C9423010C942301FF
:100010000C9423010C9423010C9423010C942301D0
:100020000C9423010C9423010C9423010C94121EB4
:100030000C9423010C9423010C9423010C942301B0
:100040000C9423010C9423010C9423010C942301A0
:100050000C9423010C9423010C9423010C94230190
:100060000C9423010C9423010C9423010C94230180
:100070000C9423010C9423010C9423010C94230170
:100080000C9423010C9423010C9423016805790539
:100090009105A405B805CB05DF05F405080616068D
:1000A0001C062A062E063C0640064E06520661062F
:1000B00065067306760685068906A8069906AC06C7
:1000C000B006BE06C106D006D406E206E806FE0665
:1000D0000A072707330750075C0779078507A20738
:1000E000AE07CE07920ABD0AE00A2C0BED0AFA0A07
:1000F000050B0F0B1A0B250B400B2C0B300B7E0B3B
:10010000400BE80BE80BE80BE80BE80BE80BE80BFF
:10011000E80B490B580B5E0B690B6D0B780B7E0BD4
:10012000880B960BA20BB00BC50BD20B390E610ED0
:10013000840E910E950EA20EAD0E990F990F990F88
:10014000990F990F990F990F990FB70EBE0E090FBE
:10015000CD0ED80EE30E2E0FF70E090F130FD80E8B
:10016000190F1D0F280F2E0F380F460F520F600F5B
:10017000750F820F72129A12BD120D13CA12D71286
:10018000E212E612F112FC122B130D1311132113BC
:100190002B1334133B134A1354135F136A137E1348
:1001A00088134A139A135F13A013A413AF137E137B
:1001B000B513C313CF13DD13F213FF13EC1612178D
:1001C00035177F1742174F175A175E17691774179D
:1001D0009D177F17831793179D17A617AD17BC1789
:1001E000C617D117DC17F017FA170C181618D11705
:1001F0001C18271832183C1846185D1862186D181C
:10020000781882189918E51611241FBECFEFD0E494
:10021000DEBFCDBF13E0A0E0B1E0EAE5F2E400E02C
:100220000BBF02C007900D92AC3CB107D9F713E0A9
:10023000ACECB3E001C01D92A43FB107E1F70E940E
:1002400092020C942B210C940000482F883058F413
:1002500081E090E002C0880F991F4A95E2F7982F3D
:10026000E9E2F0E036C0803178F4282F30E0285001
:10027000304081E090E002C0880F991F2A95E2F794
:10028000982FE3E2F0E025C0883178F4282F30E0A1
:100290002051304081E090E002C0880F991F2A95DC
:1002A000E2F7982FE6E2F0E014C0803220F090E010
:1002B000E0E0F0E00EC02FE130E0281B310981E0E2
:1002C00090E002C0880F991F2A95E2F7982FE0E28C
:1002D000F0E0808189230895FC0120E030E08081F6
:1002E000882311F421E030E0C9010895FC0181E088
:1002F00080830895089508950F931F93CF93DF93FC
:100300008C01EB0188819981892B69F480E00E943E
:100310002501882341F01093D5030093D40381E095
:1003200090E099838883888199810197F9F480917D
:10033000D4039091D5039801281B390B2031310546
:1003400074F080E00E942501882381F41093D30388
:100350000093D20382E090E09983888307C080E015
:100360000E942501882311F41982188288819981BD
:100370000297D9F480E00E942501882349F081E0AA
:1003800090E0998388831093D5030093D4030DC024
:100390008091D2039091D303081B190B00311105F2
:1003A00024F01982188281E001C080E0DF91CF91B2
:1003B0001F910F9108952F923F924F925F926F92EB
:1003C0007F928F929F92AF92BF92CF92DF92EF92E5
:1003D000FF920F931F93DF93CF93CDB7DEB72C011E
:1003E0001A013901FC01E61BF70BCF01B4010E9491
:1003F000371F2D8D3E8D8217930734F4672821F027
:100400008091CC03816003C08091CC038E7F809368
:10041000CC03CF016D897E890E94371F2F8D38A1B3
:100420008217930734F4012B21F08091CC0388606C
:1004300003C08091CC03877F8093CC03CF016F8969
:10044000788D0E94371F29A13AA18217930734F4AF
:10045000EF2821F08091CC03806403C08091CC030D
:100460008F7B8093CC03CF01698D7A8D0E94371FDB
:100470002BA13CA18217930734F4CD2821F0809161
:10048000CD03826003C08091CD038D7F8093CD0327
:10049000C201821993096B8D7C8D0E94371F2DA19B
:1004A0003EA18217930734F4AB2821F08091CD034D
:1004B000806103C08091CD038F7E8093CD0380E463
:1004C0000E943D1982E00E9496198091CC030E94FF
:1004D00096198091CD030E9496190E948E1982E48C
:1004E0000E943D1982E00E9496198091CE030E94DD
:1004F00096198091CF030E9496190E948E19CF9170
:10050000DF911F910F91FF90EF90DF90CF90BF9000
:10051000AF909F908F907F906F905F904F903F90A3
:100520002F9008952F923F924F925F926F927F92F9
:100530008F929F92AF92BF92CF92DF92EF92FF92F3
:100540000F931F93DF93CF93CDB7DEB7CE54D04038
:100550000FB6F894DEBF0FBECDBF1A82198210927B
:10056000CC031092CD038FEF8093CE038093CF0303
:100570001092D0031092D1030E94881B80E091E07A
:100580000E94941C80E061E00E94661B81E191E082
:100590000E94941C80ED97E00E947D1E0E94881BA3
:1005A0008BE191E00E94941C88EE93E00E947D1EF6
:1005B0000E94371982E291E00E94941C80E40E941C
:1005C0003D19C82E0E948E1982E40E943D19082F01
:1005D0000E948E1984E40E943D19E82E0E948E1913
:1005E0000E94881B88E291E00E94941C10E0DD24A8
:1005F0000C291D29FF240E291F29012B61F08FE2F0
:1006000091E00E94941C0E948E1988E391E00E9460
:10061000941C0C94FF188EE391E00E94941C86E4D5
:1006200091E00E94941C80E40E943D1986E00E94A3
:10063000961980E00E94961980E00E9496190E9407
:100640008E1980E40E943D1982E00E9496198091E3
:10065000CC030E9496198091CD030E9496190E94A6
:100660008E1982E40E943D1986E00E94961980E06E
:100670000E94961980E00E9496190E948E1980911E
:10068000CD038F778093CD0382E40E943D1982E0F1
:100690000E9496198091CE030E9496198091CF03F3
:1006A0000E9496190E948E1988EE93E00E947D1E8A
:1006B0000E94881B8DE491E00E94941CEE24FF248C
:1006C000C701BE016F5F7F4F0E947C01182F089405
:1006D000E11CF11C81E090E00E947D1E112381F35A
:1006E0000E94881B83E00E942501882309F4DBC453
:1006F0008DE591E00E94941C88EE93E00E947D1E9F
:100700000E94881B83E691E00E94941CEE24FF2443
:10071000C701BE016F5F7F4F0E947C01182F0894B4
:10072000E11CF11C81E090E00E947D1E112381F309
:100730000E94881B27961FAE1EAE2797442455247F
:100740002F961FAE1EAE2F972FEF3FEF3CAF2BAF74
:100750002B961FAE1EAE2B9729961FAE1EAE299765
:10076000188E1F8A2D961FAE1EAE2D97222433247D
:100770006624772484E40E943D1980E00E94961943
:1007800085E40E943D190E94A8198093D0030E941D
:10079000B2198093D1030E948E19C101BE016F5F0F
:1007A0007F4F0E947C01082F81E00E942501882351
:1007B00011F00C94051982E00E942501882311F0A4
:1007C0000C9405194BAD5CAD452B11F40C94051937
:1007D0000E94881B8EE691E00E94941C80E061E0FC
:1007E0000E94661B4424552411E01CAE1BAE6624F7
:1007F000772481E00E9425018823E9F082E00E94AD
:1008000025018823C1F48BAD9CAD0197A1F00E9416
:10081000881B86E791E00E94941C80E061E00E94C2
:10082000661B38E0432E512C11E0A1E0B0E0BCAFD4
:10083000ABAF6624772481E00E942501882319F557
:1008400082E00E9425018823F1F02BAD3CAD2230DF
:100850003105C9F00E94881B8EE791E00E94941C2C
:1008600080E061E00E94661B8091CC0384608093ED
:10087000CC0320E2422E512C11E042E050E05CAF6C
:100880004BAF6624772481E00E942501882311F470
:100890000C94081982E00E942501882311F40C941D
:1008A00008198BAD9CAD039711F40C9408190E94A4
:1008B000881B86E891E00E94941C80E061E00E9421
:1008C000661B9AE2492E512CA3E0B0E0BCAFABAF5F
:1008D000662477248FEF8093CE038093CF0310920A
:1008E000CC031092CD0327961FAE1EAE27972F96EE
:1008F0001FAE1EAE2F972B961FAE1EAE2B972996BE
:100900001FAE1EAE29972D961FAE1EAE2D9700234B
:1009100009F4D1C0B8E04B1651046CF480E061E0FA
:100920000E94661B0894411C511C28E04216510489
:1009300009F0BDC01BC030E243165104DCF440FC9A
:1009400009C08DE061E00E94661B82E991E00E948F
:10095000941C04C080E061E00E94661B0894411C66
:10096000511C40E24416510409F0A1C00E94881BAA
:100970000C94281982010F5F1F4F5AE2451651044B
:100980000CF065C040FC09C08BE061E00E94661B72
:1009900086E991E00E94941C13C00632110581F192
:1009A000073211053CF40232110561F004321105E1
:1009B00039F415C00832110581F10A321105D1F15F
:1009C000280175C080E061E00E94661B8091CC0325
:1009D0008B7F80628093CC03388E2F8A1EC280E08A
:1009E00061E00E94661B8091CC038F7D8093CC03D5
:1009F0008091CD0381608093CD03388E2F8A36C2DB
:100A000080E061E00E94661B8091CD038E7F88604C
:100A10008093CD03388E2F8A52C280E061E00E941D
:100A2000661B8091CD03877F80648093CD03388ED1
:100A30002F8A6EC20E94881B8091CD038F7B80938A
:100A4000CD0327961FAE1EAE27970C9428192801B8
:100A50000B32110521F00C32110549F512C080E06E
:100A600061E00E94661B9091CD039E7F8091CC0334
:100A700080628093CC0398609093CD03388E2F8A48
:100A80009FC20E94881B8091CC038F7D8093CC03F2
:100A90008091CD03877F8093CD0329961FAE1EAE34
:100AA00029972D961FAE1EAE2D970C942819388EBF
:100AB0002F8A66247724F201EC32F10508F098C2FF
:100AC000EA5BFF4FEE0FFF1F0590F491E02D0994B4
:100AD0006114710439F48CE991E00E94941C81E066
:100AE000682E712C8FE061E00E94661B6091D0033C
:100AF00011C06114710439F485EA91E00E94941CDC
:100B000001E0602E712C8FE061E00E94661B609115
:100B1000D0036695617070E080E090E00E94011C57
:100B200067C26114710439F48EEA91E00E94941C4A
:100B300011E0612E712C8FE061E00E94661B6091D4
:100B4000D00366956695E6CF6114710439F487EB9E
:100B500091E00E94941CB1E06B2E712C8FE061E05B
:100B60000E94661B6091D003669566956695D2CF0C
:100B70006114710439F480EC91E00E94941CA1E0AE
:100B80006A2E712C8FE061E00E94661B6091D00399
:100B900062956F70BFCF6114710439F489EC91E0F4
:100BA0000E94941CF1E06F2E712C8FE061E00E9496
:100BB000661B6091D003629566956770ABCF611438
:100BC000710439F482ED91E00E94941CE1E06E2EF4
:100BD000712C8FE061E00E94661B6091D0036295EA
:100BE00066956695637096CF6114710439F48BED48
:100BF00091E00E94941C71E0672E712C8FE061E0FF
:100C00000E94661B6091D003661F6627661F83CF14
:100C10006114710439F484EE91E00E94941C61E047
:100C2000662E712C8091CE038E7F03C08091CE03FF
:100C300081608093CE03DCC16114710439F485EFC7
:100C400091E00E94941C51E0652E712C8091CE039E
:100C50008D7FEFCF8091CE038260EBCF6114710462
:100C600039F487E092E00E94941C41E0642E712CDC
:100C70008091CE038B7FDDCF8091CE038460D9CF6E
:100C80006114710439F488E192E00E94941C31E00F
:100C9000632E712C8091CE03877F15C08091CE0387
:100CA0008860C7CF6114710439F489E292E00E9430
:100CB000941C21E0622E712C8091CE0388608F7E7F
:100CC000B8CF8091CE038061B4CF6114710439F440
:100CD0008AE392E00E94941C91E0692E712C80912D
:100CE000CE038F7D14C08091CE030DC061147104BA
:100CF00039F48BE492E00E94941C81E0682E712C00
:100D00008091CE038F7B806294CF8091CE038064EC
:100D100090CF6114710439F48CE592E00E94941C28
:100D200001E0602E712C8091CE038F778093CE03EB
:100D300013C06114710439F48DE692E00E94941C92
:100D400011E0612E712C8091CF038E7F8093CF03B1
:100D50008091CE0380686DCF8091CF03816035C0D4
:100D60006114710439F48EE792E00E94941CB1E0A2
:100D70006B2E712C8091CF038D7F14C08091CF0397
:100D80000DC06114710439F48FE892E00E94941C44
:100D9000A1E06A2E712C8091CF038B7F826015C0F9
:100DA0008091CF03846011C06114710439F480EA2A
:100DB00092E00E94941CF1E06F2E712C8091CF0381
:100DC000877F03C08091CF0388608093CF0310C1D9
:100DD0006114710439F481EB92E00E94941CE1E00B
:100DE0006E2E712C8091CC038D7F8093CC03A1E07B
:100DF000B0E02F96BFAFAEAF2F97FAC08091CC0373
:100E000082608093CC0321E030E02F963FAF2EAF7D
:100E10002F97EEC06114710439F482EC92E00E94C5
:100E2000941C71E0672E712C8091CC038F7E80938F
:100E3000CC032F961FAE1EAE2F9741E050E02D96AB
:100E40005FAF4EAF2D9762E2462E512CD1C08091FC
:100E5000CC0380618093CC0381E090E02D969FAF1E
:100E60008EAF2D97C5C06114710439F483ED92E003
:100E70000E94941C51E0652E712C8091CC038F77D9
:100E80008093CC03A1E0B0E02B96BFAFAEAF2B9721
:100E90002D961FAE1EAE2D9744E2442E512CA8C0B5
:100EA0008091CC0380688093CC0321E030E02B96C6
:100EB0003FAF2EAF2B979CC06114710439F484EEC0
:100EC00092E00E94941C31E0632E712C8091CD033E
:100ED0008B7F8093CD032B961FAE1EAE2B9741E0E8
:100EE00050E029965FAF4EAF299726E2422E512C53
:100EF0007FC08091CD0384608093CD0381E090E03A
:100F000029969FAF8EAF299773C06114710439F48D
:100F100085EF92E00E94941C91E0692E712C8091E3
:100F2000CD038F7D8093CD03A1E0B0E02796BFAFC6
:100F3000AEAF279729961FAE1EAE299788E2482E9E
:100F4000512C56C08091CD0380628093CD0321E067
:100F500030E027963FAF2EAF27974AC06114710447
:100F600059F041E050E02B965FAF4EAF2B972D9696
:100F70005FAF4EAF2D973CC086E093E00E94941C7B
:100F800081E090E02B969FAF8EAF2B972D969FAF71
:100F90008EAF2D9701E0602E712C2AC06114710470
:100FA00079F02B961FAE1EAE2B97A1E0B0E02996EC
:100FB000BFAFAEAF29972D96BFAFAEAF2D9718C07C
:100FC00085E193E00E94941C2B961FAE1EAE2B97DA
:100FD00021E030E029963FAF2EAF29972D963FAF05
:100FE0002EAF2D9711E0612E712CBBE24B2E512CB0
:100FF0004DB75EB7425150400FB6F8945EBF0FBE7A
:101000004DBFEDB7FEB7319682E090E0ADB7BEB709
:1010100012969C938E9311979383828395838483F6
:101020009783868381E090E091878087938782878A
:101030009587848797878687918B808BC1016F897D
:10104000788D40E050E02F962EAD3FAD2F972D9636
:101050000EAD1FAD2D972B96EEACFFAC2B972996BE
:10106000CEACDFAC29972796AEACBFAC2797A2E0F9
:101070008A2E912C0E94DB012DB73EB72E5E3F4F8A
:101080000FB6F8943EBF0FBE2DBF81E090E00E94E6
:101090007D1E3CE24316510411F40C94E5180894AB
:1010A000211C311C67CB84E293E00E94941C88EEE3
:1010B00093E00E947D1E0E94881B8BE293E00E94B9
:1010C000941CEE24FF24C701BE016F5F7F4F0E9476
:1010D0007C01182F0894E11CF11C81E090E00E9433
:1010E0007D1E112381F30E94881B88E393E00E94F8
:1010F000941C8091CC0380628093CC0381E00E9499
:101100002501882311F00C940E1982E00E9425011C
:10111000882311F00C940E1987E060E00E94661B92
:101120008FE393E00E94941C8DE591E00E94941C53
:101130008091CC0380628093CC031AAE19AE6624F2
:1011400077241E821D8241E050E021965FAF4EAFB2
:1011500021971CA61BA61CA21BA2222433245E8B53
:101160004D8B442455245EAF4DAF84E40E943D195D
:1011700080E00E94961985E40E943D190E94A819FA
:101180008093D0030E94B2198093D1030E948E19DC
:101190006114710479F080E061E00E94661B87E4CD
:1011A00093E00E94941CB301882777FD8095982FC7
:1011B0000E94641CC201BE016F5F7F4F0E947C01D0
:1011C0006114710429F4882309F443C0120104C096
:1011D00051E06516710449F4C20182199309815ADC
:1011E0009F400CF443C0120104C0B2E06B167104BE
:1011F00049F4C20182199309853691050CF446C061
:10120000120104C023E06216710449F4C20182197C
:101210009309815A9F400CF449C0120104C044E074
:101220006416710449F4C20182199309895E9340DE
:101230000CF44CC0120104C085E06816710449F436
:10124000C20182199309853691050CF44DC0120133
:1012500004C096E06916710461F4C2018219930911
:10126000815A9F400CF450C0120107C0F1E06F2E6C
:10127000712CB7E06B16710461F4C20182199309F5
:10128000853691050CF450C0120107C0E2E06E2EC5
:10129000712C28E06216710461F4C201821993096D
:1012A000853691050CF44EC0120107C073E0672E1D
:1012B000712C39E06316710461F4C201821993093B
:1012C000815D97400CF44EC0120107C064E0662EA9
:1012D000712C5AE06516710451F4C2018219930908
:1012E0008536910544F44EC055E0652E712C8BE097
:1012F0006816710461F4C20182199309815D9740F7
:101300000CF450C0120107C046E0642E712CBCE002
:101310006B16710461F4C201821993098536910537
:101320000CF44EC0120107C037E0632E712C2DE083
:101330006216710451F4C20182199309815D9740CC
:1013400044F44FC028E0622E712C4EE06416710404
:1013500061F4C20182199309853691050CF453C0DA
:10136000120107C099E0692E712C57E165167104CE
:1013700061F4C20182199309815A9F400CF453C051
:10138000120107C08AE0682E712CB8E16B16710457
:1013900061F4C20182199309853691050CF451C09C
:1013A000120107C00BE0602E712C29E16216710456
:1013B00051F4C20182199309815A9F4044F451C0EB
:1013C0001CE0612E712C4AE16416710469F4C201BB
:1013D00082199309815A9F400CF453C05E824D825A
:1013E00007C0BDE06B2E712C8BE16816710471F49F
:1013F000C201AD81BE818A1B9B0B853691050CF421
:1014000050C0120107C0AEE06A2E712CBCE16B1611
:10141000710461F4C20182199309853691050CF4B7
:1014200050C0120107C0F7E16F2E712C2DE162163A
:10143000710451F4C20182199309815A9F4044F406
:1014400050C0E8E16E2E712C4EE16416710461F417
:10145000C20182199309815A9F400CF453C01201B2
:1014600007C079E1672E712C8FE16816710461F471
:10147000C20182199309895E93400CF457C112018D
:1014800007C06AE1662E712CB0E26B16710461F43C
:10149000C20182199309815A9F400CF453C1120171
:1014A00007C05BE1652E712C31E26316710461F4B3
:1014B000C20182199309853691050CF451C11201BC
:1014C00007C04CE1642E712C42E26416710461F491
:1014D000C20182199309815A9F400CF453C1120131
:1014E00007C03DE1632E712C83E26816710469F434
:1014F000C201821993090B970CF451C124E2622EA8
:10150000712C66C19EE1692E712CF301E432F10564
:1015100008F05EC1EE58FF4FEE0FFF1F0590F491EB
:10152000E02D09948091D0039091CC032091CE03BB
:1015300082FF08C09F7E277F2093CE039062909306
:10154000CC0346C19F7D9093CC032F7E28602093CF
:10155000CE032196AEADBFAD2197119709F047C0DC
:1015600080E061E00E94661B8EE493E00E94941C80
:1015700021961FAE1EAE21973AC02091CE03322F86
:101580003E7FC20168EC70E00E94371F84369105EF
:1015900024F42C7F2093CE0303C032603093CE031B
:1015A0008091CC038D7F84608093CC038091CE03A7
:1015B0008B7F8093CE0321E030E03CA72BA708C1AE
:1015C0008091CE03817E86618093CE038091CC038F
:1015D00080628B7F8093CC03EEC08091CC038F7DA3
:1015E0008093CC038091CE0388608093CE031E8AC3
:1015F0001D8AEEC08091CE038F7E8093CE038091B2
:10160000CC0380628093CC03E3C08091CC038063E1
:101610008093CC0381E090E09E8B8D8BD9C080912C
:10162000CD0381608093CD038091CC038F7780932D
:10163000CC03DDCF8091CE0380648F7D8093CE0379
:10164000A1E0B0E0BCA3ABA3C3C08091CC03806297
:101650008F7E8093CC0327C08091CC03806332C0FF
:101660008091CC038F778093CC038091CE038064EC
:101670008F7D8093CE0381E090E09CA38BA3B7CFB6
:101680008091CE038F7B80628093CE031CA21BA22D
:10169000AECF8091CC0380638093CC038091CD0347
:1016A0008E7F8093CD0321E030E03E8B2D8B90C068
:1016B0008091CF03877F8093CF0399CF8091CC0314
:1016C0008F7E80628093CC0341E050E05E8B4D8B37
:1016D0007FC08091CF0388600EC08091CD0380646D
:1016E0008F7D8093CD0381E090E09AAF89AF7FCF6B
:1016F0008091CF038D7F8093CF036AC08091CC030C
:1017000080628093CC03A1E0B0E0BE8BAD8B60C063
:101710008091CD038F7B8093CD038091CF03826036
:101720008B7F8093CF031AAE19AE52C08091CE0347
:10173000877F80618093CE031E8A1D8A8FE1682E89
:10174000712C46C08091CC038F7E80628093CC0345
:1017500021E030E03E8B2D8B00E2602E712C38C0F2
:101760008091CC038F7D84608093CC038091CE03E5
:1017700088608F7E8093CE031E8A1D8A11E2612EBF
:10178000712C26C0B2E26B2E712C8091CC038D7F20
:101790008093CC0341E050E05CA74BA719C0A3E2C3
:1017A0006A2E712C8091CC038B7F8093CC038DADFE
:1017B0009EAD019719F01CA61BA60AC00E94881BAB
:1017C0008CE593E00E94941C1CA61BA61EAE1DAEC9
:1017D000ADB7BEB752970FB6F894BEBF0FBEADBF40
:1017E000EDB7FEB7319682E090E012969C938E930F
:1017F000119793838283958384839783868321E0E3
:1018000030E03187208733872287358724873787E1
:101810002687318B208BC201B1014D815E812BA5C2
:101820003CA50D891E89EBA0FCA0CC24DD24A9AC2D
:10183000BAACF2E08F2E912C0E94DB014DB75EB75F
:101840004E5E5F4F0FB6F8945EBF0FBE4DBF81E096
:1018500090E00E947D1E54E26516710411F40C9410
:10186000E5180894411C511C80CC82E00E9425019F
:10187000882311F00C94151987E060E00E94661B24
:1018800089E693E00E94941C8DE591E00E94941CEF
:101890008091CC0380628093CC0318AE1FAA66248B
:1018A000772423961FAE1EAE239781E090E09AAB7B
:1018B00089AB1AA619A61E8E1D8E222433249C8B5A
:1018C0008B8B442455249E878D8784E40E943D1988
:1018D00080E00E94961985E40E943D190E94A81993
:1018E0008093D0030E94B2198093D1030E948E1975
:1018F0006114710479F080E061E00E94661B87E466
:1019000093E00E94941CB301882777FD8095982F5F
:101910000E94641CC201BE016F5F7F4F0E947C0168
:101920006114710421F48823E1F1120104C091E0F3
:101930006916710441F4C20182199309815A9F40CA
:10194000ECF1120104C0B2E06B16710449F4C2015B
:1019500082199309853691050CF440C0120104C028
:1019600023E06216710431F48091D00381FD46C0FA
:10197000120104C034E06316710431F48091D00385
:1019800083FD4CC0120104C045E06416710449F4A3
:10199000C20182199309853691050CF44FC01201DA
:1019A00004C056E06516710461F4C20182199309FE
:1019B000815A9F400CF452C0120107C0E1E06E2E24
:1019C000712CBFE06B16710461F4C2018219930996
:1019D000853691050CF452C0120107C072E0672EE3
:1019E000712C20E16216710461F4C201821993091D
:1019F000853691050CF452C0120107C063E0662ED3
:101A0000712C31E16316710461F4C20182199309EA
:101A1000815D97400CF452C0120107C054E0652E5E
:101A2000712C52E16516710461F4C20182199309A7
:101A3000853691050CF452C0120107C045E0642EB2
:101A4000712C83E16816710461F4C2018219930953
:101A5000815D97400CF452C0120107C036E0632E3E
:101A6000712CB4E16B16710461F4C20182199309FF
:101A7000853691050CF450C0120107C02FE0622E8C
:101A8000712C25E16216710461F4C2018219930977
:101A9000815D97400CF453C0120107C090E1692E9C
:101AA000712C46E16416710461F4C2018219930934
:101AB000853691050CF457C0120107C081E1682EEC
:101AC000712C57E16516710461F4C2018219930902
:101AD000815A9F400CF457C0120107C002E1602EEA
:101AE000712CB8E16B16710461F4C201821993097B
:101AF000853691050CF455C0120107C013E1612E23
:101B0000712C29E16216710451F4C2018219930902
:101B1000815A9F4044F452C0B4E16B2E712C4AE1CB
:101B20006416710479F4C20182199309815A9F40A5
:101B30000CF451C023965FAE4EAE239707C0A5E1CB
:101B40006A2E712C8BE16816710481F4C201239610
:101B5000AEADBFAD23978A1B9B0B853691050CF468
:101B600047C0120107C0F6E16F2E712CBCE16B1665
:101B7000710461F4C20182199309853691050CF450
:101B800047C0120107C0E7E16E2E712C2DE16216ED
:101B9000710451F4C20182199309815A9F4044F49F
:101BA00047C078E1672E712C4EE16416710449F448
:101BB0008091D00383FD4DC0120107C069E1662EFC
:101BC000712C5FE16516710449F48091D00381FDA9
:101BD0005DC1120107C05AE1652E712C80E26816C2
:101BE000710449F48091D00382FD5CC1120107C0E9
:101BF0004BE1642E712C91E26916710461F4C2010B
:101C000082199309853691050CF45AC1120107C057
:101C10003CE1632E712CA2E26A16710461F4C201E8
:101C200082199309815A9F400CF45CC1120107C0CC
:101C30002DE1622E712C23E26216710469F4C20157
:101C4000821993090B970CF45AC194E2692E712CF6
:101C500070C18EE1682E712CF301E432F10508F0B9
:101C600068C1EA56FF4FEE0FFF1F0590F491E02D7B
:101C700009948091D0039091CC032091CE0382FFF0
:101C800008C09F7E277F2093CE0390629093CC0361
:101C900050C19F7D9093CC032F7E28602093CE036C
:101CA00049A95AA94130510509F049C080E061E0D5
:101CB0000E94661B8EE493E00E94941C1AAA19AA43
:101CC0003EC02091CE03322F3E7FC20168EC70E00F
:101CD0000E94371F8436910524F42C7F2093CE0375
:101CE00003C032603093CE038091CC038D7F84603B
:101CF0008093CC038091CE038B7F8093CE0381E0D1
:101D000090E09AA789A715C18091CE03817E866154
:101D10008093CE038091CC0380628B7F8093CC0331
:101D2000FBC08091CC03806347C08091CC038F7D42
:101D30008093CC038091CE0388608093CE031C8A6D
:101D40001B8AF7C08091CE038F7E8093CE03809153
:101D5000CC0380628093CC03ECC08091CC03806381
:101D60008093CC0321E030E03C8B2B8BE2C0809150
:101D7000CD0388608B7F8093CD03E1CF8091CF032B
:101D800081608093CF038091CE038F778093CE03C1
:101D900041E050E05E8F4D8FCCC08091CF038E7FAD
:101DA0008093CF038091CE0380688093CE032EC0B2
:101DB0008091CC038F7E80628093CC03A1E0B0E061
:101DC000BC8BAB8BB6C08091CD038B7F8093CD0352
:101DD0008091CF0381608093CF038091CE038F7772
:101DE0008093CE0321E030E03E8F2D8FA8CF8091ED
:101DF000CF038E7F8093CF038091CE038068809342
:101E0000CE038091CD03877F8093CD031E8E1D8EE0
:101E100096CF8091CC0380628093CC0381E090E0E8
:101E20009C8B8B8B86C08091CF03877F8093CF0361
:101E300086CF8091CF0388600EC08091CD038064EF
:101E40008F7D8093CD0321E030E038AF2FAB77CF8B
:101E50008091CF038D7F8093CF036BC08091CC03A3
:101E600080628093CC0341E050E05C8B4B8B61C07F
:101E70008091CD038F7B8093CD038091CF038260CF
:101E80008B7F8093CF0318AE1FAA53C08091CE03DF
:101E9000877F80618093CE031C8A1B8A0FE1602EAE
:101EA000712C47C08091CC038F7E80628093CC03DD
:101EB00081E090E09C8B8B8B10E2612E712C39C0FD
:101EC0008091CC038F7D84608093CC038091CE037E
:101ED00088608F7E8093CE031C8A1B8AB1E26B2EB2
:101EE000712C27C0A2E26A2E712C8091CC038D7FC9
:101EF0008093CC03A1E0B0E0BAA7A9A71AC0F3E28F
:101F00006F2E712C8091CC038B7F8093CC032D8519
:101F10003E852130310519F01AA619A60AC00E9483
:101F2000881B8CE593E00E94941C1AA619A61E86B5
:101F30001D864DB75EB7425150400FB6F8945EBF54
:101F40000FBE4DBFEDB7FEB7319682E090E0ADB762
:101F5000BEB712969C938E93119793838283958339
:101F600084839783868321E030E03187208733871D
:101F700022873587248737872687318B208BC201BC
:101F8000B10123964EAD5FAD239729A53AA50B89E4
:101F90001C89EE24FF24CD8CDE8CAFA8B8ACE2E027
:101FA0008E2E912C0E94DB014DB75EB74E5E5F4FC7
:101FB0000FB6F8945EBF0FBE4DBF81E090E00E9467
:101FC0007D1E54E26516710411F40C94E518089412
:101FD000411C511C7ACC82E00E942501882311F417
:101FE0000C941C1987E060E00E94661B82E793E076
:101FF0000E94941C8DE591E00E94941C8091CC037A
:1020000080628093CC031EAA1DAA662477241886BA
:102010001F8281E090E098AB8FA718A61FA21AA29A
:1020200019A21C8E1B8E222433249A8B898B442464
:1020300055249C878B8784E40E943D1980E00E9490
:10204000961985E40E943D190E94A8198093D00337
:102050000E94B2198093D1030E948E1961147104F9
:10206000B9F086E061E00E94661B89E793E00E9478
:10207000941C80E061E00E94661B87E493E00E946C
:10208000941CB301882777FD8095982F0E94641CCB
:10209000C201BE016F5F7F4F0E947C016114710419
:1020A00021F48823E1F1120104C091E06916710462
:1020B00041F4C20182199309815A9F40ECF1120147
:1020C00004C0B2E06B16710449F4C201821993098D
:1020D000853691050CF440C0120104C023E062165D
:1020E000710431F48091D00381FD46C0120104C017
:1020F00034E06316710431F48091D00383FD4CC049
:10210000120104C045E06416710449F4C201821949
:102110009309853691050CF44DC0120104C056E0B8
:102120006516710461F4C20182199309815A9F40B6
:102130000CF450C0120107C021E0622E712CB7E0F0
:102140006B16710461F4C2018219930985369105F9
:102150000CF450C0120107C092E0692E712C28E0E7
:102160006216710461F4C2018219930985369105E2
:102170000CF44EC0120107C083E0682E712C39E0C8
:102180006316710461F4C20182199309815D97405D
:102190000CF44EC0120107C004E0602E712C5AE00E
:1021A0006516710451F4C2018219930985369105AF
:1021B00044F44EC015E0612E712C8BE0681671045A
:1021C00061F4C20182199309815D97400CF450C0FB
:1021D000120107C0B6E06B2E712CBCE06B167104C7
:1021E00061F4C20182199309853691050CF450C03F
:1021F000120107C0A7E06A2E712C2DE0621671044F
:1022000051F4C20182199309815D974044F450C092
:10221000F8E06F2E712C4EE06416710461F4C20177
:1022200082199309815A9F400CF452C0120107C0D1
:10223000E9E06E2E712C8FE06816710461F4C20122
:1022400082199309853691050CF452C0120107C01A
:102250007AE0672E712C90E16916710461F4C20175
:1022600082199309853691050CF452C0120107C0FA
:102270006BE0662E712CA1E16A16710461F4C20153
:1022800082199309815D97400CF452C0120107C076
:102290005CE0652E712C22E16216710461F4C201CA
:1022A00082199309853691050CF452C0120107C0BA
:1022B0004DE0642E712C33E16316710461F4C201A8
:1022C00082199309815D97400CF452C0120107C036
:1022D0003EE0632E712C54E16516710461F4C20175
:1022E00082199309853691050CF450C0120107C07C
:1022F0002FE0622E712C85E16816710461F4C20131
:1023000082199309815D97400CF451C0120107C0F6
:1023100090E1692E712CB6E16B16710461F4C20173
:1023200082199309853691050CF453C0120107C038
:1023300081E1682E712C27E16216710461F4C201FB
:1023400082199309815A9F400CF453C0120107C0AF
:1023500002E1602E712C48E16416710461F4C2013F
:1023600082199309853691050CF451C0120107C0FA
:1023700013E1612E712C59E16516710451F4C2010B
:1023800082199309815A9F4044F44EC0B4E16B2EE8
:10239000712CBAE16B16710469F4C20182199309B8
:1023A000815A9F400CF450C058864F8207C0A5E167
:1023B0006A2E712C3BE16316710471F4C2014F81E6
:1023C0005885841B950B853691050CF44AC0120183
:1023D00007C0F6E16F2E712C5CE16516710461F4A3
:1023E000C20182199309853691050CF44AC0120185
:1023F00007C0E7E16E2E712C8DE16816710451F46F
:10240000C20182199309815A9F4044F44AC078E17D
:10241000672E712CBEE16B16710449F48091D003D4
:1024200083FD50C0120107C069E1662E712C2FE1B7
:102430006216710461F4C20182199309895E9340A6
:102440000CF4A1C1120107C05AE1652E712C40E2C3
:102450006416710449F48091D00382FDA0C1120179
:1024600007C04BE1642E712C51E26516710461F4D2
:10247000C20182199309853691050CF49EC112019F
:1024800007C03CE1632E712C82E26816710461F48E
:10249000C20182199309815A9F400CF4A0C1120114
:1024A00007C02DE1622E712CB3E26B16710469F442
:1024B000C201821993090B970CF49EC194E2692E14
:1024C000712CB4C18EE1682E712CF301E432F10558
:1024D00008F0ACC1E654FF4FEE0FFF1F0590F491DA
:1024E000E02D09948091D0039091CC032091CE03EC
:1024F00082FF08C09F7E277F2093CE039062909337
:10250000CC0394C19F7D9093CC032F7E28602093B1
:10251000CE032FA538A92130310509F045C080E050
:1025200061E00E94661B8EE493E00E94941C18AA4E
:102530001FA63AC02091CE03322F3E7FC20168EC25
:1025400070E00E94371F8436910524F42C7F20937D
:10255000CE0303C032603093CE038091CC038D7FD5
:1025600084608093CC038091CE038B7F8093CE03D5
:1025700041E050E058A74FA359C18091CE03817E1E
:1025800086618093CE038091CC0380628B7F8093A1
:10259000CC033FC18091CC038F7D8093CC0380918D
:1025A000CE0388608093CE031A8A198A3FC1809136
:1025B000CE038F7E8093CE038091CC038062809384
:1025C000CC0334C18091CC0380637DC08091CD0366
:1025D00081608093CD038091CC038F778093CC036F
:1025E000E3CF8091CE0380648F7D8093CE0321E082
:1025F00030E03AA329A31AC18091CC038062809372
:10260000CC0380E061E00E94661B81E893E00E94B9
:10261000941C8091CC038F7E74C08091CC03806326
:102620003CC08091CC038F778093CC038091CE0304
:1026300080648F7D8093CE03A1E0B0E0BAA3A9A30C
:10264000B3CF8091CC0380628093CC0321E030E053
:102650003A8B298BEBC08091CE038F7B8062809375
:10266000CE031AA219A2A0CF8091CD0388608B7FE0
:102670008093CD0399CF8091CF0381608093CF0366
:102680008091CE038F778093CE0341E050E05C8F42
:102690004B8FCCC08091CC0380628093CC0381E0CF
:1026A00090E09A8B898BC2C08091CF038E7F8093FC
:1026B000CF038091CE0380688093CE0338C0809191
:1026C000CC038F7E80628093CC03A1E0B0E0BA8B14
:1026D000A98BACC08091CD038B7F8093CD0380917B
:1026E000CF0381608093CF038091CE038F77809357
:1026F000CE0321E030E03C8F2B8F56CF8091CC036E
:1027000080628093CC0341E050E05A8B498B8EC0AD
:102710008091CF038E7F8093CF038091CE0380681A
:102720008093CE038091CD03877F8093CD031C8E51
:102730001B8E3ACF8091CF03877F8093CF0334CF16
:102740008091CF0388600EC08091CD0380648F7D1F
:102750008093CD0321E030E03EAB2DAB25CF8091BF
:10276000CF038D7F8093CF0361C08091CD038F7B9A
:102770008093CD038091CF0382608B7F8093CF03C2
:102780001EAA1DAA53C08091CE03877F80618093CB
:10279000CE031A8A198A0FE1602E712C47C08091EE
:1027A000CC038F7E80628093CC0381E090E09A8B93
:1027B000898B10E2612E712C39C08091CC038F7D02
:1027C00084608093CC038091CE0388608F7E809359
:1027D000CE031A8A198AB1E26B2E712C27C0A2E2AD
:1027E0006A2E712C8091CC038D7F8093CC03A1E065
:1027F000B0E0B8A7AFA31AC0F3E26F2E712C80919E
:10280000CC038B7F8093CC032B853C852130310515
:1028100019F018A61FA20AC00E94881B8CE593E03D
:102820000E94941C18A61FA21C861B864DB75EB77B
:10283000425150400FB6F8945EBF0FBE4DBFEDB78A
:10284000FEB7319682E090E0ADB7BEB712969C938A
:102850008E93119793838283958384839783868352
:1028600021E030E03187208733872287358724872E
:1028700037872687318B208BC201B1014F81588564
:102880002FA138A509891A89E9A0FAA0CB8CDC8C84
:10289000ADA8BEA8E2E08E2E912C0E94DB014DB7C0
:1028A0005EB74E5E5F4F0FB6F8945EBF0FBE4DBF72
:1028B00081E090E00E947D1E54E26516710409F4E7
:1028C00084C40894411C511CB6CB82E00E942501AF
:1028D000882309F47AC487E060E00E94661B8DE5D6
:1028E00091E00E94941C8091CC0380628093CC0381
:1028F0001CAA1BAA662477241C821B8281E090E01C
:102900009EA78DA71EA21DA218A21F8E1A8E198E19
:1029100025961FAE1EAE259722243324988B8F87D1
:10292000442455249A87898784E40E943D1980E0D5
:102930000E94961985E40E943D190E94A81980936F
:10294000D0030E94B2198093D1030E948E196114A2
:10295000710479F080E061E00E94661B87E493E0F7
:102960000E94941CB301882777FD8095982F0E94C0
:10297000641CC201BE016F5F7F4F0E947C01282F43
:102980006114710421F4882309F05CC45FC491E0F0
:102990006916710459F4C20182199309815A9F4042
:1029A000A4F0120145E2642E712C0FC0B2E06B1648
:1029B000710459F4C201821993098536910594F086
:1029C000120135E2632E712C0DC033E063167104E1
:1029D00049F48091D00381FD12C0120195E2692E65
:1029E000712C0DC044E06416710449F48091D00349
:1029F00083FD14C0120185E2682E712C0FC055E0D2
:102A00006516710459F4C20182199309853691053E
:102A1000A4F0120105E2602E712C0FC086E068164A
:102A2000710459F4C20182199309815A9F40A4F09C
:102A3000120115E2612E712C0FC0B7E06B16710404
:102A400059F4C2018219930985369105A4F0120147
:102A5000B5E26B2E712C0FC038E06316710459F487
:102A6000C2018219930985369105A4F01201A5E2ED
:102A70006A2E712C0FC049E06416710459F4C2012A
:102A800082199309815D97409CF01201F5E26F2E47
:102A9000712C0EC08AE06816710451F4C2018219CB
:102AA0009309853691059CF0E5E26E2E712C0FC0DE
:102AB0009BE06916710459F4C20182199309815D82
:102AC0009740A4F0120175E2672E712C0FC0BCE094
:102AD0006B16710459F4C201821993098536910568
:102AE0009CF0120165E2662E712C0EC03DE063166B
:102AF000710451F4C20182199309815D97409CF0E1
:102B000055E2652E712C0FC05EE06516710459F414
:102B1000C20182199309815A9F40A4F0120145E233
:102B2000642E712C0FC0BFE06B16710459F4C20102
:102B30008219930985369105A4F0120135E2632EBE
:102B4000712C0FC030E16316710459F4C20182196F
:102B5000930985369105A4F0120195E2692E712C36
:102B60000FC041E16416710459F4C201821993093E
:102B7000815D9740A4F0120185E2682E712C0FC090
:102B800082E16816710459F4C201821993098536ED
:102B90009105A4F0120105E2602E712C0FC093E1A3
:102BA0006916710459F4C20182199309815D974035
:102BB000A4F0120115E2612E712C0FC0B4E16B1666
:102BC000710459F4C2018219930985369105A4F064
:102BD0001201B5E26B2E712C0FC035E16316710442
:102BE00059F4C20182199309815D9740A4F0120142
:102BF000A5E26A2E712C0FC056E16516710459F4D6
:102C0000C2018219930985369105A4F01201F5E2FB
:102C10006F2E712C0FC087E16816710459F4C20140
:102C200082199309815A9F40A4F01201E5E26E2EA9
:102C3000712C0FC0B8E16B16710459F4C2018219EE
:102C40009309853691059CF0120175E2672E712C6F
:102C50000EC039E16316710451F4C201821993095F
:102C6000815A9F40A4F065E2662E712C10C05AE193
:102C70006516710461F4C20182199309815A9F405B
:102C8000BCF05C824B8255E2652E712C11C0BBE119
:102C90006B16710469F4C2014B815C81841B950B36
:102CA00085369105A4F0120145E2642E712C0FC007
:102CB0005CE16516710459F4C201821993098536E5
:102CC00091059CF0120135E2632E712C0EC08DE14E
:102CD0006816710451F4C20182199309815A9F4008
:102CE0008CF095E2692E712C0DC0BEE16B1671045B
:102CF00049F48091D00383FD12C0120185E2682E51
:102D0000712C0DC03FE16316710449F48091D0032A
:102D100081FD12C0120105E2602E712C0DC040E24F
:102D20006416710449F48091D00382FD14C012012D
:102D300015E2612E712C0FC051E26516710459F431
:102D4000C2018219930985369105A4F01201B5E2FA
:102D50006B2E712C0FC082E26816710459F4C20107
:102D600082199309815A9F4094F01201A5E26A2EBC
:102D7000712C0DC0B3E26B16710449F4C2018219C3
:102D800093090B97ACF0F4E26F2E712C11C035E271
:102D90006316710469F42223C1F025964EAD5FAD30
:102DA00025974F5F5F4F25965FAF4EAF25973A014E
:102DB000F301E632F10508F0BCC1E252FF4FEE0F1D
:102DC000FF1F0590F491E02D09941CAA1BAA1EA2D6
:102DD0001DA218A21F8E1DC18091D0039091CC031B
:102DE0002091CE0382FF07C09F7E9093CC03277F64
:102DF0002093CE039EC19F7D9093CC032F7E2860AD
:102E00002093CE038DA59EA5019709F045C080E0D3
:102E100061E00E94661B8EE493E00E94941C1EA653
:102E20001DA63AC02091CE03322F3E7FC20168EC2E
:102E300070E00E94371F8436910524F42C7F209384
:102E4000CE0303C032603093CE038091CC038D7FDC
:102E500084608093CC038091CE038B7F8093CE03DC
:102E6000A1E0B0E0BEA3ADA364C18091CE03817E9A
:102E700086618093CE038091CC0380628B7F8093A8
:102E8000CC034AC18091CC038F7D8093CC03809189
:102E9000CE0388608093CE03188A1F864AC1809132
:102EA000CE038F7E8093CE038091CC03806280938B
:102EB000CC033FC18091CC03806377C08091CD0368
:102EC00081608093CD038091CC038F778093CC0376
:102ED000E3CF8091CE0380648F7D8093CE0381E029
:102EE00090E098A38F8F25C18091CC0380628F7E64
:102EF0008093CC03A1E0B0E0B8A3AF8FEBC080918A
:102F0000CC0380638CC08091CC038F778093CC03FB
:102F10008091CE0380648F7D8093CE0341E050E0AA
:102F200058A34F8FB9CF8091CC0380628093CC039C
:102F300081E090E098A38F8FBDC08091CE038F7BFE
:102F400080628093CE0318A21F8EA6CF8091CD03FE
:102F500088608B7F8093CD039FCF8091CF0381606A
:102F60008093CF038091CE038F778093CE03A1E02F
:102F7000B0E0BA8FA98FDDC08091CC0380628093CE
:102F8000CC0321E030E03A8F298F4DC08091CF03F0
:102F90008E7F8093CF038091CE0380688093CE0391
:102FA00038C08091CC038F7E80628093CC0341E057
:102FB00050E0588B4F87BDC08091CD038B7F8093AD
:102FC000CD038091CF0381608093CF038091CE03A6
:102FD0008F778093CE0381E090E09A8F898F5CCFCA
:102FE0008091CC0380628093CC03A1E0B0E0BA8FE3
:102FF000A98F70C08091CF038E7F8093CF03809183
:10300000CE0380688093CE038091CD03877F809329
:10301000CD031A8E198E40CF8091CC0380628093AD
:10302000CC0321E030E0388B2F8783C08091CF0321
:10303000877F8093CF0330CF8091CC0380628093D1
:10304000CC038091CF0388608093CF0331C08091FF
:10305000CD0380648F7D8093CD03A1E0B0E0BCAB55
:10306000ABAB1ACF8091CF038D7F8093CF0321E04C
:1030700030E03CAB2BAB5DC08091CC038062809391
:10308000CC0341E050E05CAB4BAB93CF8091CC03E1
:1030900080628093CC038091CD038F7B8093CD039E
:1030A0008091CF0382608B7F8093CF031CAA1BAAE1
:1030B00081E090E0988B8F873CC08091CE03877F22
:1030C0008061E8CE8091CC038F7E80628093CC03B8
:1030D000A1E0B0E0B88BAF872CC08091CC038F7D8E
:1030E00084608093CC038091CE0388608F7ED2CEA3
:1030F0008091CC038D7F8093CC0321E030E03EA310
:103100002DA317C08091CC038B7F8093CC0349857E
:103110005A854130510519F01EA21DA20AC00E9415
:10312000881B8CE593E00E94941C1EA21DA21A86A7
:1031300019868DB79EB742970FB6F8949EBF0FBE03
:103140008DBFEDB7FEB7319622E030E0ADB7BEB728
:1031500012963C932E9311973383228335832483D5
:103160003783268341E050E0518740875387428769
:103170005587448757874687518B408BC201B101E1
:103180004B815C812DA13EA10F851889EF8CF8A0A1
:10319000C98CDA8CABA8BCA8E2E08E2E912C0E94E0
:1031A000DB018DB79EB742960FB6F8949EBF0FBE57
:1031B0008DBF81E090E00E947D1E94E2691671044B
:1031C00021F00894411C511CAFCB8091CC038B7D26
:1031D0008093CC038091CD03867B8093CD0380E4E4
:1031E0000E943D1982E00E9496198091CC030E94B2
:1031F00096198091CD030E9496190E948E1980E93C
:1032000093E00E94941C0C94AD0210E00C94F9031E
:10321000112311F40C9487040C946A0481E00E9439
:103220002501882311F00C94350C81E00E942501C2
:10323000882311F40C94EB0F81E00E942501882370
:1032400021F243CB120195E2692E712C20E0AECB26
:10325000388E2F8A662477248CE2482E512C0C94C9
:10326000F8070E94642008950E94B71F08951092E5
:10327000B9008CE08093B8000895982F84EA809379
:10328000BC008091BC0087FFFCCF8091B900887F93
:10329000883021F0803111F081E008959093BB00D7
:1032A00084E88093BC008091BC0087FFFCCF9091A4
:1032B000B900987F983111F480E0089580E090344F
:1032C00009F081E00895982F44EA34E824E9409316
:1032D000BC008091BC0087FFFCCF8091B900887F43
:1032E000883011F0803199F79093BB003093BC0087
:1032F0008091BC0087FFFCCF8091B900887F80322D
:1033000011F0883539F42093BC008091BC0084FD15
:10331000FCCFDDCF08950E943D19089584E9809384
:10332000BC008091BC0084FDFCCF08958093BB005D
:1033300084E88093BC008091BC0087FFFCCF809123
:10334000B90090E0887F883209F091E0892F0895D4
:1033500084EC8093BC008091BC0087FFFCCF8091FF
:10336000BB00089584E88093BC008091BC0087FF77
:10337000FCCF8091BB0008950895089580E090E00F
:103380000895EF92FF920F931F9367B13D9828988D
:10339000299AE090DA03F090DB030091DC031091AE
:1033A000DD0320E030E041E050E0CA016F9364E0CB
:1033B0006A95F1F76F910197C9F72A9ACA016F933D
:1033C00064E06A95F1F76F910197C9F786B12A9881
:1033D000FA016F9364E06A95F1F76F913197C9F73D
:1033E0002A9AFA016F9364E06A95F1F76F91319729
:1033F000C9F72A982C5F3F4F85FF09C0C901A0E09B
:10340000B0E08E159F05A007B10708F4CECFC90123
:10341000A0E0B0E08E159F05A007B10728F082E379
:1034200090E0A0E0B0E004C080E395E7A0E0B0E069
:103430008093DA039093DB03A093DC03B093DD0366
:1034400067B91F910F91FF90EF90089528B190E018
:103450008F709070880F991F880F991F237C282BDD
:1034600028B92A9A81E090E0FC016F9364E06A95A4
:10347000F1F76F913197C9F72A986F9364E06A95D5
:10348000F1F76F910197C9F708958091D603909154
:10349000D703009711F00E9464208091C40390E04C
:1034A00001972091C50330E0AC01429FC001439FCA
:1034B000900D529F900D11240E94B71F9093D70337
:1034C0008093D603009729F160E070E208C0E09194
:1034D000D603F091D703E40FF51F70836F5F462F7B
:1034E00050E08091C40390E001972091C50330E043
:1034F000FC01E29FC001E39F900DF29F900D11240B
:103500004817590724F38AEA9CE16EEB79E10E949F
:10351000BC2008958093C5036093C4030E94451A9C
:1035200008958093C5036093C4030E94451A0895CB
:103530000E94451A08953D98459A80E395E7A0E0DA
:10354000B0E08093DA039093DB03A093DC03B093A5
:10355000DD03209A219A229A8EE190E00E947D1E3E
:1035600083E00E94F01D86E090E00E947D1E83E0D3
:103570000E94F01D82E090E00E947D1E83E00E9488
:10358000F01D82E090E00E947D1E82E00E94F01D0E
:1035900082E090E00E947D1E88E20E943A1B88E053
:1035A0000E943A1B81E00E943A1B86E00E943A1B6F
:1035B0008CE00E943A1B08958091DE03882329F451
:1035C00081E08093DE030E949B1A0895FF920F937F
:1035D0001F93082F162FF42E0E94DC1A0E94C11987
:1035E00037B128B12998112311F0289A01C02898E1
:1035F00087B18C6387B981E0F816E1F088B1902F2C
:1036000092959F70990F990F837C982B98B92A9A5D
:1036100081E090E0FC016F9364E06A95F1F76F91AF
:103620003197C9F72A986F9364E06A95F1F76F9123
:103630000197C9F788B10F70000F000F837C802BB2
:1036400088B92A9A81E090E0FC016F9364E06A9562
:10365000F1F76F913197C9F72A986F9364E06A95F3
:10366000F1F76F910197C9F737B928B91F910F91F9
:10367000FF90089560E042E00E94E61A08950F93DB
:103680001F93082F162F08C0002311F480E101C0FA
:1036900084E10E943A1B11501123B1F71F910F9141
:1036A00008950E943F1B08958CE00E943A1B0895E4
:1036B0000E94541B0895813011F48FE001C08EE008
:1036C0000E943A1B08950E945B1B0895A4E0B0E09D
:1036D000ECE6FBE10C947A1F182F062F80E8898313
:1036E00080EC8A8384E98B8384ED8C83FE01E60F72
:1036F000F11D8181810F0E943A1B1093D903009321
:10370000D8032496E4E00C94961F0E94661B08954B
:1037100081E00E943A1B8091D6039091D703892BB8
:1037200019F160E070E208C0E091D603F091D70390
:10373000E40FF51F70836F5F462F50E08091C40344
:1037400090E001972091C50330E0FC01E29FC001A9
:10375000E39F900DF29F900D11244817590724F311
:103760001092D9031092D80308950E94881B0895DF
:1037700061E042E00E94E61A08950F931F93CF93F1
:10378000DF9300E010E8C82FD0E0812F90E08C2379
:103790009D23892B11F081E301C080E30E94B81BB7
:1037A0000F5F083011F01695F0CFDF91CF911F9188
:1037B0000F9108950E94BD1B08958A3010F4805D1A
:1037C00001C0895C0E94B81B08951F93182F829531
:1037D0008F700E94DD1B812F8F700E94DD1B1F9157
:1037E00008951F93182F892F0E94E51B812F0E9497
:1037F000E51B1F9108950E94F11B08950E94E51B8F
:1038000008956F927F928F929F92AF92BF92CF92C4
:10381000DF92FF920F93DF93CF93CDB7DEB72A9756
:103820000FB6F894DEBF0FBECDBF5B016C010AE09E
:103830003E010894611C711CFA2CC601B5012AE0F6
:1038400030E040E050E00E944A1FC901DA015C010B
:103850006D0101504301800E911C80E3F80EC601FA
:10386000B5012AE030E040E050E00E94181FF61A4F
:10387000F401F082A114B104C104D104E9F608C036
:10388000F601E00FF11D80810E94B81B0F5F04C09C
:103890006E010894C11CD11C0A3090F32A960FB611
:1038A000F894DEBF0FBECDBFCF91DF910F91FF9097
:1038B000DF90CF90BF90AF909F908F907F906F9050
:1038C00008950E94011C0895EF92FF920F931F9399
:1038D0007B018C0197FF0BC010950095F094E0944C
:1038E000E11CF11C011D111D8DE20E94B81BC801D5
:1038F000B7010E94011C1F910F91FF90EF90089556
:103900000E94641C0895CF93DF93EC0103C00E94D2
:10391000B81B2196FE0184918823C9F7DF91CF91CE
:1039200008950E94831C0895CF93DF93EC0103C098
:1039300021960E94B81B88818823D1F7DF91CF910F
:1039400008950E94941C08950E94B81B08950E9437
:10395000B81B0895A0E0B0E0E0EBFCE10C94761F0A
:10396000E82E8091D6039091D703892B09F405C1E5
:103970002AE0E21609F446C038E0E316C9F4809163
:10398000D90381508093D9038F3F51F48091D8039C
:1039900081508093D8038091C50381508093D903CF
:1039A0008091D8038F3F09F0E2C01092D803DDC0A8
:1039B0008E2D0E94B81B2091D8032223C9F030E03D
:1039C000215030408091C50390E0AC01249FC0019C
:1039D000259F900D349F900D11242091D903E091E3
:1039E000D603F091D703E80FF91FE20FF11DE08233
:1039F0008091D9038F5F8093D9039091C503891774
:103A000009F0BBC04091D803242F30E08091C4035B
:103A100090E001972817390709F0A4C0C0E0D0E072
:103A200044C080E06C2F0E94661BFF246E01089446
:103A3000C11CD11C35C00F2D10E090E09C01C29F2D
:103A4000C001C39F900DD29F900D1124E091D60329
:103A5000F091D703E00FF11FE80FF91F80810E945A
:103A6000B81BE091D603F091D7038091C50390E095
:103A7000C89FD001C99FB00DD89FB00D1124E00F91
:103A8000F11FAE0FBF1FAC01C49EC001C59E900DBB
:103A9000D49E900D1124E80FF91F80818C93F3942C
:103AA0008091C503F81638F2E6016091C403862FB1
:103AB00090E00297C817D9070CF4B3CF623008F42E
:103AC00040C0625080E00E94661BFF2440E2D42E7A
:103AD00034C00F2D10E08091C40390E0029730E0D5
:103AE000AC01429FC001439F900D529F900D112445
:103AF000E091D603F091D703E00FF11FE80FF91F13
:103B000080810E94B81B2091C40330E022503040D5
:103B10008091C50390E0AC01249FC001259F900DCA
:103B2000349F900D1124E091D603F091D703E00F5C
:103B3000F11FE80FF91FD082F3942091C503F2160C
:103B400040F26091C403615080E00E94661B00E077
:103B500004C080E20E94B81B0F5F8091C503081764
:103B6000C0F303C04F5F4093D8031092D9038091F4
:103B7000D9036091D8030E94661B2E2D332727FDA1
:103B80003095C901CDB7DEB7E8E00C94921FEF92F3
:103B9000FF920F931F93CF93DF937C01062F10E0CA
:103BA00053E0000F111F5A95E1F7C0E0D0E09E01ED
:103BB000200F822F80640E943A1BF701EC0FFD1F3B
:103BC000E4918E2F0E94B81B2196C830D10579F759
:103BD000CDB7DEB7E6E00C94941F0E94C71D089590
:103BE00060E041E00E94E61A08950F931F93CF937F
:103BF000DF93082F162FEA010BC0002311F488E190
:103C000001C08CE10E943A1BCE010E947D1E115022
:103C1000112399F7DF91CF911F910F9108950E9481
:103C2000F51D08952F928F939F932FB68091E003F7
:103C30009091E10301968093E0039093E10390E07B
:103C40008091E203891F8093E2039091E8039C5FD7
:103C50009093E8038091E70380519742C0F09093DE
:103C6000E8038093E7038091E3039091E4030196D6
:103C70008093E3039093E40390E08091E503891F30
:103C80008093E5038091E603891F8093E6032FBEAE
:103C90009F918F912F9018956F5F7F4F8F4F9F4F00
:103CA000660F771F881F991F25E030E040E050E045
:103CB0000E944A1FCA01B901089528EE33E009C0E5
:103CC000F9016F9364E06A95F1F76F913197C9F745
:103CD00001970097A9F708956F5F7F4F8F4F9F4F10
:103CE000660F771F881F991F25E030E040E050E005
:103CF0000E944A1FCA01B901089528EE33E009C0A5
:103D0000F9016F9364E06A95F1F76F913197C9F704
:103D100001970097A9F70895A0E7B0E08C918E7FF6
:103D20008C93E0EBF0E0808183608083E1EBF0E056
:103D30008081807F8083808182608083B89A8C912B
:103D400081608C93789408958091E903882329F405
:103D500081E08093E9030E948C1E08950E94A41EB6
:103D6000E0E7F0E080818E7F80832091E303309153
:103D7000E4034091E5035091E603808181608083F4
:103D8000B901CA0108950E94AE1E08950E94A41EA2
:103D9000809170008E7F809370006091B20080915E
:103DA000DF039091E003A091E103B091E203B899A1
:103DB00005C0262F30E040E050E011C08091B200F5
:103DC0002091DF033091E0034091E1035091E20341
:103DD00020503F4F4F4F5F4F90E0A0E0B0E0282BC6
:103DE000392B4A2B5B2B809170008160809370008F
:103DF000B901CA0108950E94C61E08950E94A41E1A
:103E0000E0E7F0E080818E7F80831092E3031092E0
:103E1000E4031092E5031092E6031092E803109277
:103E2000E70380818160808308950E94FE1E0895CB
:103E3000629FD001739FF001829FE00DF11D649F8E
:103E4000E00DF11D929FF00D839FF00D749FF00D1A
:103E5000659FF00D9927729FB00DE11DF91F639FBB
:103E6000B00DE11DF91FBD01CF011124089597FB8D
:103E7000092E07260AD077FD04D065D006D0002091
:103E80001AF4709561957F4F0895F6F79095819596
:103E90009F4F0895A1E21A2EAA1BBB1BFD010DC066
:103EA000AA1FBB1FEE1FFF1FA217B307E407F507EA
:103EB00020F0A21BB30BE40BF50B661F771F881FC6
:103EC000991F1A9469F760957095809590959B015C
:103ED000AC01BD01CF0108952F923F924F925F92A6
:103EE0006F927F928F929F92AF92BF92CF92DF920A
:103EF000EF92FF920F931F93CF93DF93CDB7DEB76F
:103F0000CA1BDB0B0FB6F894DEBF0FBECDBF099402
:103F10002A88398848885F846E847D848C849B8459
:103F2000AA84B984C884DF80EE80FD800C811B8167
:103F3000AA81B981CE0FD11D0FB6F894DEBF0FBE96
:103F4000CDBFED010895AA1BBB1B51E107C0AA1FFD
:103F5000BB1FA617B70710F0A61BB70B881F991F2A
:103F60005A95A9F780959095BC01CD010895CF93FE
:103F7000DF93BC018230910510F462E070E0A09103
:103F8000EC03B091ED03ED01E0E0F0E040E050E043
:103F900021C0888199818617970769F48A819B815E
:103FA000309719F09383828304C09093ED0380933C
:103FB000EC03FE0134C06817790738F44115510548
:103FC00019F08417950708F4AC01FE018A819B81E2
:103FD0009C01E9012097E9F641155105A9F1CA01B3
:103FE000861B970B049708F4BA01E0E0F0E02AC0C2
:103FF0008D919C91119784179507F9F464177507B3
:1040000081F412968D919C911397309719F09383B8
:10401000828304C09093ED038093EC03FD013296FC
:104020004FC0CA01861B970BFD01E80FF91F619372
:10403000719302978D939C9343C0FD01828193817C
:104040009C01D9011097A1F68091EA039091EB03AE
:10405000892B41F48091C8039091C9039093EB039D
:104060008093EA034091CA035091CB034115510557
:1040700041F44DB75EB78091C6039091C703481BCA
:10408000590B2091EA033091EB0324173507B0F464
:10409000CA01821B930B8617970780F0AB014E5F16
:1040A0005F4F8417950750F0420F531F5093EB0357
:1040B0004093EA03F9016193719302C0E0E0F0E0FC
:1040C000CF01DF91CF910895CF93DF93009709F44B
:1040D00050C0EC0122971B821A82A091EC03B09190
:1040E000ED03109709F140E050E0AC17BD0708F16F
:1040F000BB83AA83FE0121913191E20FF31FAE171A
:10410000BF0779F48D919C911197280F391F2E5F6D
:104110003F4F3983288312968D919C9113979B83EF
:104120008A834115510571F4D093ED03C093EC03DC
:1041300020C012968D919C911397AD01009711F0BC
:10414000DC01D3CFFA01D383C28321913191E20FF5
:10415000F31FCE17DF0769F488819981280F391F73
:104160002E5F3F4FFA01318320838A819B819383A5
:104170008283DF91CF9108950F931F93CF93DF93A5
:104180008C01EB01009731F46115710519F420E001
:1041900030E038C081E090E06EE070E00E940821DD
:1041A000FC019C01009771F180E88383209771F0F6
:1041B000D387C28781E883838091EE039091EF03D8
:1041C000892B21F4F093EF03E093EE030115110521
:1041D000C9F0118700878381826083838091F00317
:1041E0009091F103892B71F4F093F103E093F003C4
:1041F0008091F2039091F303892B21F4F093F30360
:10420000E093F203C901DF91CF911F910F910895BF
:104210000F931F93CF93DF93689F8001699F100DC9
:10422000789F100D1124C8010E94B71FEC01009760
:1042300029F060E070E0A8010E942421CE01DF9106
:10424000CF911F910F910895DC0101C06D934150F2
:0A4250005040E0F70895F894FFCF06
:10425A00444153434820434C45414E455220326322
:10426A00005245563A2032392D3100424547494ECF
:10427A002000494E495420005354415254200049C9
:10428A00324320424144200053544F5020004932C7
:10429A0043204F4B200042494E49542000494E507A
:1042AA0055542052554E2F444542554700444542E5
:1042BA00554700494E5055545F4D4F444500494EAD
:1042CA005055545320004F555450555453004D4F98
:1042DA00544F525320004D554C5449204D4F544F82
:1042EA0052004F4646004241434B200053454E532D
:1042FA004F5220300053454E534F52203100534500
:10430A004E534F5220320053454E534F52203300E2
:10431A0053454E534F5220340053454E534F52206B
:10432A00350053454E534F5220360053454E534F96
:10433A0052203700414320504F5745522020202019
:10434A00204F4E2000424C4F57455220202020201B
:10435A0020204F4E202000504C4154452053544FAA
:10436A00502020204F4E2000504C415445205241AD
:10437A0049534520204F4E2000504C415445204C73
:10438A004F57455220204F4E200042525553483134
:10439A00205241495345204F4E200042525553481E
:1043AA0031204C4F574552204F4E20004252555310
:1043BA004832205241495345204F4E20004252551F
:1043CA00534832204C4F574552204F4E20005041FF
:1043DA0050455220524149534520204F4E2000500B
:1043EA0041504552204C4F57455220204F4E2000F5
:1043FA00414952204B4E494645202020204F4E200D
:10440A00004C4F4144494E472020202046524F4EEF
:10441A005400445249564520202020202046524F1D
:10442A004E540042525553483120202020204652F3
:10443A004F4E5400425255534832202020202046E5
:10444A00524F4E54005041504552202020202020E7
:10445A0046524F4E540046495854555245264252E8
:10446A0055534831004649585455524526425255EB
:10447A00534832004E4F524D414C0053454C454330
:10448A0054204359434C45004359434C453A00464E
:10449A004952535420420053544154452000505528
:1044AA00534820544F20535441525400454E4420FF
:1044BA004F46204359434C45005345434F4E4420F1
:1044CA004200424F54482042002020202020202031
:1044DA0000534554204D4F544F52204849474800F5
:1044EA00454E4400640064006400010001000100BC
:1044FA000100010002000200020002000200E803BB
:10450A00D007D007D007D007D007D007D007D007E9
:0C451A00D007D00702102000F4030000BE
:00000001FF
