:100000000C94DC000C94FB000C94FB000C94FB00A3
:100010000C94FB000C94FB000C94FB000C94FB0074
:100020000C94FB000C94FB000C94FB000C945D17EB
:100030000C94FB000C94FB000C94FB000C94FB0054
:100040000C94FB000C94FB000C94FB000C94FB0044
:100050000C94FB000C94FB000C94FB000C94FB0034
:100060000C94FB000C94FB000C94FB000C94FB0024
:100070000C94FB000C94FB000C94FB000C94FB0014
:100080000C94FB000C94FB000C94FB00B104C8041E
:10009000E004F90413052B0544055E057705890581
:1000A0008E059D05A205B105B605C605CB05DB0588
:1000B000E005F005F50505060A061E0623063706C7
:1000C0003C064C0651066106660675067A068906E8
:1000D0008E069D06A206B106B606C506CA06D90654
:1000E0007D09A109BE09CA09CF09D909E309E809AF
:1000F000F209F809FD09030A080A130A130A760A25
:10010000760A760A760A760A760A760A760A190A4C
:10011000230A280A2D0A320A380A3D0A3D0A480AEB
:100120004E0A530A5F0A640AD70CFC0C190D250D00
:100130002A0D340D3E0DE10DE10DE10DE10DE10D56
:10014000E10DE10DE10D430D490D530D580D620D0B
:10015000670D760D760D850D8F0D940D990D9E0D05
:10016000A40DA90DA90DB40DBA0DBF0DCB0DD00D69
:10017000BC10E010FD1009110E11181122112711E9
:10018000311137113C1142114711521152115811BE
:100190005E1168116D1177117C118B118B119A1101
:1001A000A411A911AE11B311B911BE11BE11C9111B
:1001B000CF11D411E011E51111241FBECFEFD0E40F
:1001C000DEBFCDBF13E0A0E0B1E0E0EFF4E300E07C
:1001D0000BBF02C007900D92A833B107D9F713E007
:1001E000A8E3B3E001C01D92AC35B107E1F70E946E
:1001F00070020C94761A0C940000482F883058F442
:1002000081E090E002C0880F991F4A95E2F7982F8D
:10021000E9E2F0E036C0803178F4282F30E0285051
:10022000304081E090E002C0880F991F2A95E2F7E4
:10023000982FE3E2F0E025C0883178F4282F30E0F1
:100240002051304081E090E002C0880F991F2A952C
:10025000E2F7982FE6E2F0E014C0803220F090E060
:10026000E0E0F0E00EC02FE130E0281B310981E032
:1002700090E002C0880F991F2A95E2F7982FE0E2DC
:10028000F0E0808189230895FC0120E030E0808146
:10029000882311F421E030E0C9010895FC0181E0D8
:1002A0008083089508950895CF92DF92EF92FF9290
:1002B0000F931F93CF93DF938C017B016A01E901B8
:1002C00088819981892B61F480E00E94FD00882358
:1002D00039F0F7011183008381E090E099838883EE
:1002E000888199810197E9F4F701808191819801D2
:1002F000281B390B203131056CF080E00E94FD0095
:10030000882379F4F6011183008382E090E09983D9
:10031000888307C080E00E94FD00882311F41982C1
:100320001882888199810297D1F480E00E94FD00B3
:10033000882341F081E090E099838883F70111835D
:1003400000830DC0F60180819181081B190B0031DB
:1003500011052CF01982188220E030E002C021E063
:1003600030E0C901DF91CF911F910F91FF90EF9085
:10037000DF90CF9008952F923F924F925F926F92AD
:100380007F928F929F92AF92BF92CF92DF92EF9225
:10039000FF920F931F93DF93CF93CDB7DEB72C015E
:1003A0001A013901FC01E61BF70BCF01B4010E94D1
:1003B00082182D8D3E8D8217930734F4672821F023
:1003C00080913803816003C0809138038E7F8093D1
:1003D0003803CF016D897E890E9482182F8D38A144
:1003E0008217930734F4012B21F080913803886041
:1003F00003C080913803877F80933803CF016F89D2
:10040000788D0E94821829A13AA18217930734F4AB
:10041000EF2821F080913803806403C08091380375
:100420008F7B80933803CF01698D7A8D0E9482186B
:100430002BA13CA18217930734F4CD2821F08091A1
:100440003903826003C0809139038D7F8093390323
:10045000C201821993096B8D7C8D0E9482182DA197
:100460003EA18217930734F4AB2821F08091390321
:10047000806103C0809139038F7E8093390380E4CB
:100480000E94881282E00E94E112809138030E944B
:10049000E112809139030E94E1120E94D91282E494
:1004A0000E94881282E00E94E11280913A030E9429
:1004B000E11280913B030E94E112CF91DF911F91E5
:1004C0000F91FF90EF90DF90CF90BF90AF909F90F3
:1004D0008F907F906F905F904F903F902F900895F6
:1004E0002F923F924F925F926F927F928F929F9244
:1004F000AF92BF92CF92DF92EF92FF920F931F9332
:10050000DF93CF93CDB7DEB76E970FB6F894DEBF0B
:100510000FBECDBF10923803109239038FEF809336
:100520003A0380933B0310923C0310923D030E94D8
:10053000D31480E091E00E94DF1588EE93E00E94E2
:10054000C8170E94821287E091E00E94DF1580E4C4
:100550000E948812C82E0E94D91282E40E9488123A
:10056000082F0E94D91284E40E948812E82E0E946B
:10057000D9120E94D3148DE091E00E94DF1510E0A3
:10058000DD240C291D29FF240E291F29012B61F0D0
:1005900084E191E00E94DF150E94D91289E191E087
:1005A0000E94DF150C945F128FE191E00E94DF152D
:1005B00084E291E00E94DF1580E40E94881286E0C8
:1005C0000E94E11280E00E94E11280E00E94E112AC
:1005D0000E94D91282E40E94881286E00E94E112F1
:1005E00080E00E94E11280E00E94E1120E94D91294
:1005F00088EE93E00E94C8170E94D3141A821982D1
:100600001C821B821E821D8283E00E94FD008823C3
:1006100009F42CC48BE291E00E94DF1588EE93E090
:100620000E94C8170E94D31487E391E00E94DF154F
:10063000EE24FF24C701BE016F5F7F4FAE014D5F07
:100640005F4F9E012B5F3F4F0E9454018C01089425
:10065000E11CF11C81E090E00E94C817012B51F7CA
:100660000E94D3146624772422242A94322C1E8ECE
:100670001D8E442455241C861B861C8E1B8E84E4F0
:100680000E94881280E00E94E11285E40E94881294
:100690000E94F31280933C030E94FD1280933D035D
:1006A0000E94D9128B859C85BE016F5F7F4FAE0182
:1006B0004D5F5F4F9E012B5F3F4F0E9454018C01A5
:1006C00081E00E94FD008823C1F482E00E94FD00C9
:1006D000882399F42114310481F00E94D31483E417
:1006E00091E00E94DF1580E061E00E94B114662471
:1006F0007724222433244424552481E00E94FD00E1
:100700008823D9F082E00E94FD008823B1F421E023
:100710002216310491F00E94D3148BE491E00E94E0
:10072000DF1580E061E00E94B11466247724B1E017
:100730002B2E312CA8E04A2E512C81E00E94FD0086
:100740008823D9F482E00E94FD008823B1F032E0D2
:100750002316310491F00E94D31483E591E00E94A6
:10076000DF1580E061E00E94B11466247724F2E096
:100770002F2E312CE0E24E2E512C81E00E94FD0004
:100780008823D1F082E00E94FD008823A9F083E055
:100790002816310489F00E94D31483E491E00E946A
:1007A000DF1580E061E00E94B1146624772473E0D5
:1007B000272E312C44245524012B09F0C5C098E084
:1007C0004916510404F580E061E00E94B1140894D8
:1007D000411C511CA8E04A16510409F0AFC00E9408
:1007E000D3142114310411F40C9471128BE491E0B0
:1007F0000E94DF1580E061E00E94B1142B853C85EA
:100800003C8F2B8F77C1C2018170907030E243160C
:1008100051048CF5892B49F48DE061E00E94B114FC
:100820008BE591E00E94DF1504C080E061E00E944A
:10083000B1140894411C511C80E24816510409F07F
:100840007DC00E94D31491E02916310411F40C9458
:100850007112809138038460809338038FE591E0B2
:100860000E94DF1580E061E00E94B114AB85BC8579
:10087000BC8FAB8F42C282010F5F1F4F892B71F477
:100880008BE061E00E94B11486E691E00E94DF15E2
:1008900028012B853C853C8F2B8F54C006321105D7
:1008A00071F1073211053CF40232110581F0043276
:1008B000110539F416C00832110559F10A32110533
:1008C00091F128018B859C859C8F8B8F3BC080E0AC
:1008D00061E00E94B114809138038B7F8062809325
:1008E000380380E061E00E94B114809138038F7D6D
:1008F000809338038091390381608093390380E0CD
:1009000061E00E94B114809139038E7F88608093EA
:10091000390380E061E00E94B11480913903877F40
:100920008064809339030E94D314809139038F7BB4
:10093000809339031E8E1D8E0C947112AB85BC857D
:10094000BC8FAB8F66247724F201EA32F10508F000
:1009500039C2EA5BFF4FEE0FFF1F0590F491E02DC7
:1009600009946114710439F48CE691E00E94DF155A
:1009700061E0662E712C8FE061E00E94B1146091FD
:100980003C03617070E080E090E00E944C150AC06A
:100990006114710439F485E791E00E94DF1551E09C
:1009A000652E712C8FE061E00E94B11460913C03D0
:1009B0006695617070E080E090E00E944C150AC07E
:1009C0006114710439F48EE791E00E94DF1541E073
:1009D000642E712C8FE061E00E94B11460913C03A1
:1009E00066956695617070E080E090E00E944C151D
:1009F0000AC06114710439F487E891E00E94DF15A0
:100A000031E0632E712C8FE061E00E94B11460919F
:100A10003C03669566956695617070E080E090E0B5
:100A20000E944C150AC06114710439F480E991E008
:100A30000E94DF1521E0622E712C8FE061E00E94A0
:100A4000B11460913C036295617070E080E090E0C9
:100A50000E944C150AC06114710439F489E991E0CF
:100A60000E94DF1591E0692E712C8FE061E00E94F9
:100A7000B11460913C0362956695617070E080E00E
:100A800090E00E944C150AC06114710439F482EAA6
:100A900091E00E94DF1581E0682E712C8FE061E00B
:100AA0000E94B11460913C036295669566956170F1
:100AB00070E080E090E00E944C150AC0611471045F
:100AC00039F48BEA91E00E94DF1501E0602E712C71
:100AD0008FE061E00E94B11460913C03661F6627BD
:100AE000661F70E080E090E00E944C150DC061141C
:100AF000710451F484EB91E00E94DF1511E0612E46
:100B0000712CB8E04B2E512C80913A038E7F80934C
:100B10003A0380913A03816080933A03611471042F
:100B200039F485EC91E00E94DF15A1E06A2E712C6A
:100B300080913A038D7F80933A0380913A038260DB
:100B400080933A036114710439F487ED91E00E94B7
:100B5000DF15F1E06F2E712C80913A038B7F80932B
:100B60003A0380913A03846080933A0361147104DC
:100B700039F488EE91E00E94DF15E1E06E2E712CD1
:100B800080913A03877F806180933A0380913A0392
:100B9000886080933A036114710439F489EF91E01D
:100BA0000E94DF1571E0672E712C80913A038860F6
:100BB0008F7E80933A0380913A03806180933A0359
:100BC0006114710439F48AE092E00E94DF1561E05B
:100BD000662E712C80913A038F7D806480933A0356
:100BE00080913A03806280933A036114710439F46E
:100BF0008BE192E00E94DF1551E0652E712C80910F
:100C00003A038F7B806280933A0380913A03806439
:100C100080933A036114710439F48CE292E00E94EB
:100C2000DF1541E0642E712C80913A038F77809319
:100C30003A0380913B03816080933B0380913A03A8
:100C4000806880933A036114710439F48DE392E073
:100C50000E94DF1531E0632E712C80913B038E7F63
:100C600080933B0380913A03806880933A0380919C
:100C70003B03816080933B036114710439F48EE47B
:100C800092E00E94DF1521E0622E712C80913B03DF
:100C90008D7F846080933B0380913B0382608093CF
:100CA0003B036114710439F48FE592E00E94DF1573
:100CB00091E0692E712C80913B038B7F8260809341
:100CC0003B0380913B03846080933B036114710478
:100CD00039F480E792E00E94DF1581E0682E712CE4
:100CE00080913B03877F80933B0380913B03886027
:100CF00080933B036114710439F481E892E00E940F
:100D0000DF1501E0602E712C809138038D7F809378
:100D10003803809138038260809338036114710432
:100D200039F482E992E00E94DF1511E0612E712C06
:100D3000809138038F7E80933803809138038061DF
:100D4000809338036114710439F483EA92E00E94BD
:100D5000DF15B1E06B2E712C809138038F77809373
:100D600038038091380380688093380361147104DC
:100D700039F484EB92E00E94DF15A1E06A2E712C19
:100D8000809139038B7F809339038091390384608C
:100D9000809339036114710439F485EC92E00E9468
:100DA000DF15F1E06F2E712C809139038F7D8093D8
:100DB00039038091390380628093390321E030E068
:100DC0003E8F2D8F8DB79EB742970FB6F8949EBF7A
:100DD0000FBE8DBFEDB7FEB7319682E090E0ADB7A4
:100DE000BEB712969C938E931197938382839583BB
:100DF00084839783868381E090E0918780879387BF
:100E000082879587848797878687918B808B8B8550
:100E10009C856B8D7C8D40E050E020E030E000E070
:100E200010E0EE24FF24CC24DD24AD8CBE8CE2E067
:100E30008E2E912C0E94BB012DB73EB72E5E3F4FE8
:100E40000FB6F8943EBF0FBE2DBF81E090E00E9428
:100E5000C8173FEF43163FEF530611F40C944512A9
:100E60008B859C8501969C878B8709CC86ED92E0CB
:100E70000E94DF1588EE93E00E94C8170E94D314E9
:100E80008DED92E00E94DF15EE24FF24C701BE0124
:100E90006F5F7F4FAE014D5F5F4F9E012B5F3F4FF6
:100EA0000E9454018C010894E11CF11C81E090E047
:100EB0000E94C817012B51F70E94D3148AEE92E0CA
:100EC0000E94DF158091380380628093380381E0AF
:100ED0000E94FD00882311F00C94651282E00E94AC
:100EE000FD00882311F00C94651287E060E00E94F9
:100EF000B11481EF92E00E94DF15A1E0B0E0B88F5D
:100F0000AF8BBE8BAD8B66247724442455242224DA
:100F100033241A8E198E84E40E94881280E00E9485
:100F2000E11285E40E9488120E94F31280933C0330
:100F30000E94FD1280933D030E94D9126114710436
:100F400079F080E061E00E94B11489EF92E00E94A4
:100F5000DF15B301882777FD8095982F0E94AF1584
:100F6000C201BE016F5F7F4FAE014D5F5F4F9E01BB
:100F70002B5F3F4F0E9454016114710429F4892BA7
:100F800009F043C0120104C0B1E06B16710449F4CA
:100F9000C20182199309815A9F400CF443C0120187
:100FA00004C032E06316710449F4C2018219930946
:100FB000853691050CF446C0120104C083E0681622
:100FC000710449F4C20182199309815A9F400CF4BB
:100FD00049C0120104C0B4E06B16710449F4C201A7
:100FE00082199309895E93400CF44CC0120104C02D
:100FF00035E06316710449F4C201821993098536FC
:1010000091050CF44DC0120104C086E0681671040D
:1010100061F4C20182199309815A9F400CF450C0B7
:10102000120107C071E0672E712CB7E06B167104D6
:1010300061F4C20182199309853691050CF450C000
:10104000120107C062E0662E712C28E0621671045E
:1010500061F4C20182199309853691050CF44EC0E2
:10106000120107C053E0652E712C39E0631671043C
:1010700061F4C20182199309815A9F400CF44EC059
:10108000120107C044E0642E712CBAE06B167104A3
:1010900051F4C201821993098536910544F44EC07A
:1010A00035E0632E712C2BE06216710461F4C201ED
:1010B00082199309815A9F400CF450C0120107C055
:1010C00026E0622E712C8CE06816710461F4C20176
:1010D00082199309853691050CF44EC0120107C0A0
:1010E00097E0692E712C9DE06916710451F4C201DC
:1010F00082199309815A9F4044F44FC088E0682EBA
:10110000712CBEE06B16710461F4C201821993095F
:10111000853691050CF453C0120107C009E0602E1A
:10112000712C27E16216710461F4C20182199309DE
:10113000815A9F400CF453C0120107C01AE0612E7F
:10114000712C88E16816710461F4C2018219930957
:10115000853691050CF451C0120107C0BBE06B2E1F
:10116000712C99E16916710451F4C2018219930935
:10117000815A9F4044F451C0ACE06A2E712CBAE110
:101180006B16710469F4C20182199309815A9F4058
:101190000CF456C05A8E498E07C0FDE06F2E712C9C
:1011A0003BE16316710471F4C201A98DBA8D8A1BEB
:1011B0009B0B853691050CF456C0120107C0EEE07A
:1011C0006E2E712CBCE16B16710461F4C2018219A0
:1011D0009309853691050CF459C0120107C077E1D7
:1011E000672E712C2DE16216710451F4C20182192F
:1011F0009309815A9F4044F45CC068E1662E712CCB
:101200008EE16816710461F4C20182199309815A52
:101210009F400CF462C0120107C059E1652E712C89
:10122000BFE16B16710479F4C20182199309895EDA
:10123000934024F44FE1642E712C2AC1120107C09F
:101240003AE1632E712C30E26316710479F4C20125
:1012500082199309815A9F4024F420E2622E712C56
:101260001DC1120107C09BE1692E712CB1E26B1602
:10127000710479F4C201821993098536910524F429
:1012800081E2682E712C0FC1120107C00CE1602EA3
:10129000712C22E26216710479F4C2018219930959
:1012A000815A9F4024F412E2612E712C08C1120170
:1012B00007C0BDE16B2E712C83E26816710481F4C6
:1012C000C201821993090B9724F066246A94762C44
:1012D0000DC1A3E26A2E712CF7C0FEE16F2E712CB6
:1012E000F301E432F10508F001C1E059FF4FEE0FC0
:1012F000FF1F0590F491E02D099480913C0390919B
:10130000380320913A0382FF07C09F7E90933803F1
:10131000277F20933A0315C09F7D909338032F7E3B
:10132000286020933A03AF89B88D119751F480E07B
:1013300061E00E94B11480E093E00E94DF15188EF6
:101340001F8A20913A03322F3E7FC20168EC70E081
:101350000E9482188436910524F42C7F20933A034E
:1013600003C0326030933A038091380386608093E3
:10137000380380913A038B7F80933A0380913A033C
:10138000817E866180933A038091380380628B7FEF
:101390008093380380913803806180933803809173
:1013A00038038F7D8093380380913A03886080935F
:1013B0003A0380913A038F7E80933A0380913803F9
:1013C0008062809338038091380380618093380372
:1013D00080913903816080933903809138038F773E
:1013E0008093380380913A0380648F7D80933A0321
:1013F000809138038F7E8093380380913A038F7BEE
:10140000806280933A03809138038061809338032F
:10141000809138038F778093380380913A038064FA
:101420008F7D80933A0380913A038F7B8062809313
:101430003A038091380380618093380380913903A7
:101440008E7F8093390380913B03877F80933B039A
:10145000809138038F7E8093380380913B038860AE
:1014600080933B038091390380648F7D809339039F
:1014700080913B038D7F80933B03809139038F7B69
:101480008093390380913B0382608B7F80933B0381
:1014900080913A03877F806180933A03809138037B
:1014A0008F7E80933803809138038F7D8460809392
:1014B000380380913A0388608F7E80933A0380914D
:1014C00038038D7F80933803809138038B7F80931E
:1014D00038032D893E892130310531F40E94D3141F
:1014E0008EE093E00E94DF151E8A1D8A8DB79EB79D
:1014F00042970FB6F8949EBF0FBE8DBFEDB7FEB7F3
:10150000319682E090E0ADB7BEB712969C938E9371
:10151000119793838283958384839783868381E065
:1015200090E09187808793878287958784879787C4
:101530008687918B808BC201B101498D5A8D20E045
:1015400030E000E010E0EE24FF24CC24DD24AA24C7
:10155000BB24E2E08E2E912C0E94BB012DB73EB73A
:101560002E5E3F4F0FB6F8943EBF0FBE2DBF81E0F9
:1015700090E00E94C8173FEF63163FEF730609F42F
:1015800084C70894411C511CC6CC82E00E94FD0017
:10159000882309F0A0C787E060E00E94B1148BE1C6
:1015A00093E00E94DF1581E090E09C8B8B8B988B01
:1015B0008F876624772444245524222433241A86D2
:1015C000198684E40E94881280E00E94E11285E47A
:1015D0000E9488120E94F31280933C030E94FD1225
:1015E00080933D030E94D9126114710479F080E068
:1015F00061E00E94B11489EF92E00E94DF15B3010F
:10160000882777FD8095982F0E94AF15C201BE01F3
:101610006F5F7F4FAE014D5F5F4F9E012B5F3F4F6E
:101620000E9454016114710429F4892B09F043C00C
:10163000120104C091E06916710449F4C2018219D3
:101640009309815A9F400CF443C0120104C0B2E0D8
:101650006B16710449F4C20182199309853691050C
:101660000CF446C0120104C023E06216710449F470
:10167000C20182199309815A9F400CF449C012019A
:1016800004C084E06816710449F4C2018219930908
:10169000895E93400CF44CC0120104C0B5E06B1697
:1016A000710449F4C20182199309853691050CF43D
:1016B0004FC0120104C026E06216710461F4C20139
:1016C00082199309815A9F400CF452C0120107C03D
:1016D00071E0672E712C8FE06816710461F4C2010D
:1016E00082199309853691050CF452C0120107C086
:1016F00062E0662E712C90E16916710461F4C201FA
:1017000082199309853691050CF452C0120107C065
:1017100053E0652E712CA1E16A16710461F4C201D7
:1017200082199309815A9F400CF452C0120107C0DC
:1017300044E0642E712C22E16216710461F4C2014E
:1017400082199309853691050CF452C0120107C025
:1017500035E0632E712C33E16316710461F4C2012C
:1017600082199309815A9F400CF452C0120107C09C
:1017700026E0622E712CB4E16B16710461F4C20193
:1017800082199309853691050CF450C0120107C0E7
:101790009FE0692E712C25E16216710461F4C2018B
:1017A00082199309815A9F400CF451C0120107C05D
:1017B00080E1682E712C86E16816710461F4C20123
:1017C00082199309853691050CF453C0120107C0A4
:1017D00001E1602E712C97E16916710461F4C20178
:1017E00082199309815A9F400CF453C0120107C01B
:1017F00012E1612E712CB8E16B16710461F4C20123
:1018000082199309853691050CF451C0120107C065
:10181000B3E16B2E712C29E16216710451F4C201FF
:1018200082199309815A9F4044F451C0A4E16A2E61
:10183000712C8AE16816710469F4C2018219930956
:10184000815A9F400CF456C05A86498607C0F5E17C
:101850006F2E712CBBE16B16710471F4C2012985E6
:101860003A85821B930B853691050CF456C0120104
:1018700007C0E6E16E2E712C3CE16316710461F441
:10188000C20182199309853691050CF459C01201E1
:1018900007C077E1672E712C8DE16816710451F451
:1018A000C20182199309815A9F4044F45CC068E1E7
:1018B000662E712CBEE16B16710461F4C2018219AF
:1018C0009309815A9F400CF462C0120107C059E18C
:1018D000652E712C3FE16316710479F4C2018219FF
:1018E0009309895E934024F44FE1642E712C3CC12E
:1018F000120107C03AE1632E712CB0E26B1671043D
:1019000079F4C20182199309815A9F4024F420E29C
:10191000622E712C2FC1120107C09BE1692E712C20
:1019200031E26316710479F4C20182199309853694
:10193000910524F481E2682E712C21C1120107C0A7
:101940000CE1602E712C82E26816710479F4C201F8
:1019500082199309815A9F4024F412E2612E712C5E
:101960001AC1120107C0BDE16B2E712CB3E26B16D8
:10197000710481F4C201821993090B9724F0662443
:101980006A94762C1EC1A3E26A2E712C09C1FEE175
:101990006F2E712CF301E432F10508F012C1EC5600
:1019A000FF4FEE0FFF1F0590F491E02D09948091F9
:1019B0003C039091380320913A0382FF07C09F7E39
:1019C00090933803277F20933A0316C09F7D90930E
:1019D00038032F7E286020933A032B893C892130DD
:1019E000310551F480E061E00E94B11480E093E0A1
:1019F0000E94DF151C8A1B8A20913A03322F3E7FFA
:101A0000C20168EC70E00E9482188436910524F4CB
:101A10002C7F20933A0303C0326030933A038091C5
:101A2000380386608093380380913A038B7F8093DC
:101A30003A0380913A03817E866180933A038091D4
:101A4000380380628B7F80933803809138038061F4
:101A500080933803809138038F7D80933803809181
:101A60003A03886080933A0380913A038F7E809393
:101A70003A03809138038062809338038091380361
:101A80008061809338038091390388608B7F8093D5
:101A9000390380913B03816080933B0380913A033B
:101AA0008F7780933A03809138038F7E8093380339
:101AB00080913B038E7F80933B0380913A03806843
:101AC00080933A038091380380618093380380913A
:101AD00039038B7F8093390380913B03816080932E
:101AE0003B0380913A038F7780933A0380913B03C5
:101AF0008E7F80933B0380913A03806880933A0302
:101B000080913903877F8093390380913803806106
:101B100080933803809139038E7F809339038091BD
:101B20003B03877F80933B03809138038F7E8093B4
:101B3000380380913B03886080933B038091390395
:101B400080648F7D8093390380913B038D7F8093E8
:101B50003B03809139038F7B8093390380913B0352
:101B600082608B7F80933B0380913A03877F806103
:101B700080933A03809138038F7E8093380380915D
:101B800038038F7D84608093380380913A038860A6
:101B90008F7E80933A03809138038D7F8093380342
:101BA000809138038B7F809338038F8598890197C4
:101BB00031F40E94D3148EE093E00E94DF15188A5E
:101BC0001F86ADB7BEB752970FB6F894BEBF0FBE13
:101BD000ADBFEDB7FEB7319682E090E012969C93D0
:101BE0008E931197938382839583848397838683CF
:101BF00081E090E0918780879387828795878487AB
:101C000097878687918B808BC201B10149855A8560
:101C100020E030E000E010E0EE24FF24CC24DD24BE
:101C2000AA24BB24E2E08E2E912C0E94BB012DB78A
:101C30003EB72E5E3F4F0FB6F8943EBF0FBE2DBF8E
:101C400081E090E00E94C8173FEF63163FEF7306F4
:101C500009F41BC40894411C511CB3CC82E00E94BF
:101C6000FD00882309F411C487E060E00E94B114EC
:101C700084E293E00E94DF1581E090E09A8B898BEB
:101C80009E878D8766247724442455242224332478
:101C900018861F8284E40E94881280E00E94E1126C
:101CA00085E40E9488120E94F31280933C030E94F4
:101CB000FD1280933D030E94D9126114710479F0E2
:101CC00080E061E00E94B11489EF92E00E94DF158C
:101CD000B301882777FD8095982F0E94AF15C20128
:101CE000BE016F5F7F4FAE014D5F5F4F9E012B5F67
:101CF0003F4F0E9454016114710429F4892B09F0AB
:101D000043C0120104C091E06916710449F4C20194
:101D100082199309815A9F400CF443C0120104C0F8
:101D2000B2E06B16710449F4C20182199309853639
:101D300091050CF446C0120104C023E06216710440
:101D400049F4C20182199309815A9F400CF449C099
:101D5000120104C084E06816710449F4C2018219BA
:101D60009309895E93400CF44CC0120104C0B5E0A5
:101D70006B16710449F4C2018219930985369105E5
:101D80000CF44DC0120104C026E06216710461F427
:101D9000C20182199309815A9F400CF450C012016C
:101DA00007C091E0692E712C87E06816710461F418
:101DB000C20182199309853691050CF450C01201B5
:101DC00007C082E0682E712C98E06916710461F4F6
:101DD000C20182199309853691050CF44EC0120197
:101DE00007C003E0602E712CA9E06A16710461F44B
:101DF000C20182199309815A9F400CF44EC012010E
:101E000007C014E0612E712C2AE06216710451F4AF
:101E1000C201821993098536910544F44EC0B5E09C
:101E20006B2E712C3BE06316710461F4C2018219C0
:101E30009309815A9F400CF450C0120107C0A6E0DC
:101E40006A2E712CBCE06B16710461F4C201821918
:101E50009309853691050CF450C0120107C0F7E0D4
:101E60006F2E712C2DE06216710451F4C20182199B
:101E70009309815A9F4044F450C0E8E06E2E712CC3
:101E80008EE06816710461F4C20182199309815AC7
:101E90009F400CF452C0120107C079E0672E712CEC
:101EA000BFE06B16710461F4C20182199309853693
:101EB00091050CF452C0120107C06AE0662E712C25
:101EC00020E16216710461F4C2018219930985361A
:101ED00091050CF452C0120107C05BE0652E712C15
:101EE00031E16316710461F4C20182199309815AC8
:101EF0009F400CF452C0120107C04CE0642E712CBC
:101F0000B2E16B16710461F4C2018219930985363E
:101F100091050CF452C0120107C03DE0632E712CF4
:101F200023E16216710461F4C20182199309815A96
:101F30009F400CF452C0120107C02EE0622E712C9B
:101F400084E16816710461F4C2018219930985362F
:101F500091050CF450C0120107C09FE0692E712C4E
:101F600095E16916710461F4C20182199309815ADD
:101F70009F400CF451C0120107C080E1682E712C03
:101F8000B6E16B16710461F4C201821993098536BA
:101F900091050CF453C0120107C001E1602E712CB1
:101FA00027E16216710461F4C20182199309815A12
:101FB0009F400CF453C0120107C012E1612E712C36
:101FC00088E16816710461F4C201821993098536AB
:101FD00091050CF451C0120107C0B3E16B2E712CB6
:101FE00099E16916710451F4C20182199309815A69
:101FF0009F4044F451C0A4E16A2E712CBAE16B16E3
:10200000710469F4C20182199309815A9F400CF44A
:1020100056C058864F8207C0F5E16F2E712C3BE108
:102020006316710471F4C201AF81B8858A1B9B0BE2
:10203000853691050CF456C0120107C0E6E16E2EFC
:10204000712CBCE16B16710461F4C2018219930911
:10205000853691050CF459C0120107C077E1672E4F
:10206000712C2DE16216710451F4C2018219930999
:10207000815A9F4044F45CC068E1662E712C8EE169
:102080006816710461F4C20182199309815A9F4054
:102090000CF462C0120107C059E1652E712CBFE13A
:1020A0006B16710479F4C20182199309895E934019
:1020B00024F44FE1642E712C6CC1120107C03AE187
:1020C000632E712C30E26316710479F4C201821917
:1020D0009309815A9F4024F420E2622E712C5FC143
:1020E000120107C09BE1692E712CB1E26B167104DD
:1020F00079F4C201821993098536910524F481E2AD
:10210000682E712C51C1120107C00CE1602E712C98
:1021100022E26216710479F4C20182199309815A8C
:102120009F4024F412E2612E712C4AC1120107C0B3
:10213000BDE16B2E712C83E26816710481F4C2013B
:10214000821993090B9724F066246A94762C4FC168
:10215000A3E26A2E712C39C1FEE16F2E712CF301BE
:10216000E432F10508F043C1E854FF4FEE0FFF1FC2
:102170000590F491E02D099480913C0390913803EF
:1021800020913A0382FF07C09F7E90933803277FF8
:1021900020933A0315C09F7D909338032F7E2860CB
:1021A00020933A03A989BA89119751F480E061E03C
:1021B0000E94B11480E093E00E94DF151A8A198A08
:1021C00020913A03322F3E7FC20168EC70E00E94FA
:1021D00082188436910524F42C7F20933A0303C09F
:1021E000326030933A0380913803866080933803DD
:1021F00080913A038B7F80933A0380913A03817EEA
:10220000866180933A038091380380628B7F80934C
:1022100038038091380380618093380380913803BC
:102220008F7D8093380380913A03886080933A03CE
:1022300080913A038F7E80933A03809138038062C5
:1022400080933803809138038061809338038091B4
:102250003903816080933903809138038F778093AD
:10226000380380913A0380648F7D80933A03809194
:1022700038038F7E8093380380913A038F7B80628E
:1022800080933A0380913803806180933803809172
:1022900038038F778093380380913A0380648F7D71
:1022A00080933A0380913A038F7B806280933A0354
:1022B0008091390388608B7F8093390380913B0341
:1022C000816080933B0380913A038F7780933A0338
:1022D000809138038F7E8093380380913B038E7FFB
:1022E00080933B0380913A03806880933A03809106
:1022F0003803806180933803809139038B7F80930A
:10230000390380913B03816080933B0380913A03C2
:102310008F7780933A0380913B038E7F80933B03BA
:1023200080913A03806880933A0380913903877FD4
:1023300080933903809138038061809338038091C2
:1023400039038E7F8093390380913B03877F80938D
:102350003B03809138038F7E8093380380913B0349
:10236000886080933B038091390380648F7D8093E4
:10237000390380913B038D7F80933B038091390328
:102380008F7B8093390380913B0382608B7F8093A6
:102390003B0380913A03877F806180933A03809169
:1023A00038038F7E80933803809138038F7D84605B
:1023B0008093380380913A0388608F7E80933A033C
:1023C000809138038D7F80933803809138038B7F11
:1023D000809338032D853E852130310531F40E94EC
:1023E000D3148EE093E00E94DF151E861D868DB704
:1023F0009EB742970FB6F8949EBF0FBE8DBFEDB744
:10240000FEB7319682E090E0ADB7BEB712969C93CE
:102410008E93119793838283958384839783868396
:1024200081E090E091878087938782879587848772
:1024300097878687918B808BC201B1014F81588528
:1024400020E030E000E010E0EE24FF24CC24DD2486
:10245000AA24BB24E2E08E2E912C0E94BB012DB752
:102460003EB72E5E3F4F0FB6F8943EBF0FBE2DBF56
:1024700081E090E00E94C8173FEF63163FEF7306BC
:1024800021F00894411C511C05CC809138038B7DB0
:102490008093380380913903867B8093390380E4ED
:1024A0000E94881282E00E94E112809138030E940B
:1024B000E112809139030E94E1120E94D9128BE24D
:1024C00093E00E94DF150C948A0281E00E94FD00D7
:1024D000882309F05AC881E00E94FD008823A9F6EC
:1024E000BDCB8B859C859C8F8B8F66247724442461
:1024F0004A94542C0C94E2060E94AF1908950E944D
:10250000021908951092B9008CE08093B8000895E4
:10251000982F84EA8093BC008091BC0087FFFCCF99
:102520008091B900887F883021F0803111F081E0FE
:1025300008959093BB0084E88093BC008091BC0018
:1025400087FFFCCF9091B900987F983111F480E01B
:10255000089580E0903409F081E00895982F44EACE
:1025600034E824E94093BC008091BC0087FFFCCF95
:102570008091B900887F883011F0803199F790936D
:10258000BB003093BC008091BC0087FFFCCF8091E2
:10259000B900887F803211F0883539F42093BC006F
:1025A0008091BC0084FDFCCFDDCF08950E9488128D
:1025B000089584E98093BC008091BC0084FDFCCF29
:1025C00008958093BB0084E88093BC008091BC0098
:1025D00087FFFCCF8091B90090E0887F883209F0B6
:1025E00091E0892F089584EC8093BC008091BC0019
:1025F00087FFFCCF8091BB00089584E88093BC00E6
:102600008091BC0087FFFCCF8091BB0008950895A6
:10261000089580E090E00895EF92FF920F931F934A
:1026200067B13D982898299AE0904203F0904303BF
:10263000009144031091450320E030E041E050E078
:10264000CA016F9364E06A95F1F76F910197C9F73A
:102650002A9ACA016F9364E06A95F1F76F91019726
:10266000C9F786B12A98FA016F9364E06A95F1F789
:102670006F913197C9F72A9AFA016F9364E06A95CE
:10268000F1F76F913197C9F72A982C5F3F4F85FF7B
:1026900009C0C901A0E0B0E08E159F05A007B107F1
:1026A00008F4CECFC901A0E0B0E08E159F05A007C9
:1026B000B10728F082E390E0A0E0B0E004C080E33E
:1026C00095E7A0E0B0E08093420390934303A0938A
:1026D0004403B093450367B91F910F91FF90EF90AA
:1026E000089528B190E08F709070880F991F880F1F
:1026F000991F237C282B28B92A9A81E090E0FC01BD
:102700006F9364E06A95F1F76F913197C9F72A9852
:102710006F9364E06A95F1F76F910197C9F7089597
:1027200080913E0390913F03009711F00E94AF19F2
:1027300080912F0390E001972091300330E0AC01AD
:10274000429FC001439F900D529F900D11240E9403
:10275000021990933F0380933E03009729F160E0B4
:1027600070E208C0E0913E03F0913F03E40FF51FD3
:1027700070836F5F462F50E080912F0390E00197A8
:102780002091300330E0FC01E29FC001E39F900DF7
:10279000F29F900D11244817590724F385EF95E116
:1027A00069E073E10E94071A0895809330036093F3
:1027B0002F030E94901308958093300360932F039A
:1027C0000E94901308950E94901308953D98459A91
:1027D00080E395E7A0E0B0E0809342039093430349
:1027E000A0934403B0934503209A219A229A8EE144
:1027F00090E00E94C81783E00E943B1786E090E0BB
:102800000E94C81783E00E943B1782E090E00E947C
:10281000C81783E00E943B1782E090E00E94C8172F
:1028200082E00E943B1782E090E00E94C81788E295
:102830000E94851488E00E94851481E00E9485141E
:1028400086E00E9485148CE00E9485140895809192
:102850004603882329F481E0809346030E94E6130F
:102860000895FF920F931F93082F162FF42E0E94A6
:1028700027140E940C1337B128B12998112311F0A5
:10288000289A01C0289887B18C6387B981E0F8162F
:10289000E1F088B1902F92959F70990F990F837CEA
:1028A000982B98B92A9A81E090E0FC016F9364E03C
:1028B0006A95F1F76F913197C9F72A986F9364E0A1
:1028C0006A95F1F76F910197C9F788B10F70000F02
:1028D000000F837C802B88B92A9A81E090E0FC016C
:1028E0006F9364E06A95F1F76F913197C9F72A9871
:1028F0006F9364E06A95F1F76F910197C9F737B963
:1029000028B91F910F91FF90089560E042E00E9466
:10291000311408950F931F93082F162F08C000231A
:1029200011F480E101C084E10E948514115011234B
:10293000B1F71F910F9108950E948A1408958CE0B9
:102940000E94851408950E949F140895813011F407
:102950008FE001C08EE00E94851408950E94A614A5
:102960000895A4E0B0E0E7EBF4E10C94C518182F4B
:10297000062F80E8898380EC8A8384E98B8384ED49
:102980008C83FE01E60FF11D8181810F0E94851469
:1029900010934103009340032496E4E00C94E11863
:1029A0000E94B114089581E00E94851480913E0335
:1029B00090913F03892B19F160E070E208C0E0912B
:1029C0003E03F0913F03E40FF51F70836F5F462FC6
:1029D00050E080912F0390E001972091300330E088
:1029E000FC01E29FC001E39F900DF29F900D112426
:1029F0004817590724F31092410310924003089599
:102A00000E94D314089561E042E00E9431140895B9
:102A10000F931F93CF93DF9300E010E8C82FD0E00F
:102A2000812F90E08C239D23892B11F081E301C03D
:102A300080E30E9403150F5F083011F01695F0CF68
:102A4000DF91CF911F910F9108950E94081508956D
:102A50008A3010F4805D01C0895C0E9403150895DE
:102A60001F93182F82958F700E942815812F8F70C9
:102A70000E9428151F9108951F93182F892F0E94D7
:102A80003015812F0E9430151F9108950E943C152A
:102A900008950E94301508956F927F928F929F92B1
:102AA000AF92BF92CF92DF92FF920F93DF93CF93BB
:102AB000CDB7DEB72A970FB6F894DEBF0FBECDBFF5
:102AC0005B016C010AE03E010894611C711CFA2C48
:102AD000C601B5012AE030E040E050E00E949518C0
:102AE000C901DA015C016D0101504301800E911CA6
:102AF00080E3F80EC601B5012AE030E040E050E086
:102B00000E946318F61AF401F082A114B104C10402
:102B1000D104E9F608C0F601E00FF11D80810E94A2
:102B200003150F5F04C06E010894C11CD11C0A304C
:102B300090F32A960FB6F894DEBF0FBECDBFCF91AB
:102B4000DF910F91FF90DF90CF90BF90AF909F905B
:102B50008F907F906F9008950E944C150895EF928A
:102B6000FF920F931F937B018C0197FF0BC0109571
:102B70000095F094E094E11CF11C011D111D8DE203
:102B80000E940315C801B7010E944C151F910F91B7
:102B9000FF90EF9008950E94AF150895CF93DF93B3
:102BA000EC0103C00E9403152196FE018491882345
:102BB000C9F7DF91CF9108950E94CE150895CF9364
:102BC000DF93EC0103C021960E94031588818823BE
:102BD000D1F7DF91CF9108950E94DF1508950E94EB
:102BE000031508950E9403150895A0E0B0E0EBEFEF
:102BF000F5E10C94C118E82E80913E0390913F03BB
:102C0000892B09F405C12AE0E21609F446C038E030
:102C1000E316C9F4809141038150809341038F3FB3
:102C200051F48091400381508093400380913003A0
:102C3000815080934103809140038F3F09F0E2C0AF
:102C400010924003DDC08E2D0E9403152091400399
:102C50002223C9F030E0215030408091300390E0D1
:102C6000AC01249FC001259F900D349F900D11242D
:102C700020914103E0913E03F0913F03E80FF91FDB
:102C8000E20FF11DE082809141038F5F8093410349
:102C900090913003891709F0BBC040914003242F65
:102CA00030E080912F0390E001972817390709F051
:102CB000A4C0C0E0D0E044C080E06C2F0E94B114FA
:102CC000FF246E010894C11CD11C35C00F2D10E0EB
:102CD00090E09C01C29FC001C39F900DD29F900DB8
:102CE0001124E0913E03F0913F03E00FF11FE80F44
:102CF000F91F80810E940315E0913E03F0913F038C
:102D00008091300390E0C89FD001C99FB00DD89F3B
:102D1000B00D1124E00FF11FAE0FBF1FAC01C49E18
:102D2000C001C59E900DD49E900D1124E80FF91F8F
:102D300080818C93F39480913003F81638F2E60189
:102D400060912F03862F90E00297C817D9070CF4E3
:102D5000B3CF623008F440C0625080E00E94B114EA
:102D6000FF2440E2D42E34C00F2D10E080912F03B9
:102D700090E0029730E0AC01429FC001439F900D6C
:102D8000529F900D1124E0913E03F0913F03E00F1C
:102D9000F11FE80FF91F80810E94031520912F0376
:102DA00030E0225030408091300390E0AC01249F0D
:102DB000C001259F900D349F900D1124E0913E039A
:102DC000F0913F03E00FF11FE80FF91FD082F39459
:102DD00020913003F21640F260912F03615080E0A1
:102DE0000E94B11400E004C080E20E9403150F5F4E
:102DF000809130030817C0F303C04F5F4093400336
:102E00001092410380914103609140030E94B114EC
:102E10002E2D332727FD3095C901CDB7DEB7E8E069
:102E20000C94DD18EF92FF920F931F93CF93DF93D3
:102E30007C01062F10E053E0000F111F5A95E1F7B7
:102E4000C0E0D0E09E01200F822F80640E94851494
:102E5000F701EC0FFD1FE4918E2F0E9403152196C0
:102E6000C830D10579F7CDB7DEB7E6E00C94DF18AE
:102E70000E941217089560E041E00E943114089505
:102E80000F931F93CF93DF93082F162FEA010BC0E8
:102E9000002311F488E101C08CE10E948514CE0169
:102EA0000E94C8171150112399F7DF91CF911F91FC
:102EB0000F9108950E94401708952F928F939F932A
:102EC0002FB680914803909149030196809348035F
:102ED0009093490390E080914A03891F80934A03AD
:102EE000909150039C5F9093500380914F038051C9
:102EF0009742C0F09093500380934F0380914B030F
:102F000090914C03019680934B0390934C0390E077
:102F100080914D03891F80934D0380914E03891F3B
:102F200080934E032FBE9F918F912F9018956F5FC6
:102F30007F4F8F4F9F4F660F771F881F991F25E088
:102F400030E040E050E00E949518CA01B9010895B0
:102F500028EE33E009C0F9016F9364E06A95F1F758
:102F60006F913197C9F701970097A9F708956F5F9F
:102F70007F4F8F4F9F4F660F771F881F991F25E048
:102F800030E040E050E00E949518CA01B901089570
:102F900028EE33E009C0F9016F9364E06A95F1F718
:102FA0006F913197C9F701970097A9F70895A0E7A6
:102FB000B0E08C918E7F8C93E0EBF0E080818360B9
:102FC0008083E1EBF0E08081807F8083808182607C
:102FD0008083B89A8C9181608C93789408958091C5
:102FE0005103882329F481E0809351030E94D7176D
:102FF00008950E94EF17E0E7F0E080818E7F8083E4
:1030000020914B0330914C0340914D0350914E035E
:10301000808181608083B901CA0108950E94F917F7
:1030200008950E94EF17809170008E7F809370004A
:103030006091B2008091470390914803A0914903A9
:10304000B0914A03B89905C0262F30E040E050E027
:1030500011C08091B2002091470330914803409104
:10306000490350914A0320503F4F4F4F5F4F90E02C
:10307000A0E0B0E0282B392B4A2B5B2B809170000D
:10308000816080937000B901CA0108950E941118EF
:1030900008950E94EF17E0E7F0E080818E7F808343
:1030A00010924B0310924C0310924D0310924E035A
:1030B0001092500310924F038081816080830895A5
:1030C0000E9449180895629FD001739FF001829F6A
:1030D000E00DF11D649FE00DF11D929FF00D839FA7
:1030E000F00D749FF00D659FF00D9927729FB00D44
:1030F000E11DF91F639FB00DE11DF91FBD01CF0157
:103100001124089597FB092E07260AD077FD04D0D5
:1031100065D006D000201AF4709561957F4F089510
:10312000F6F7909581959F4F0895A1E21A2EAA1B5C
:10313000BB1BFD010DC0AA1FBB1FEE1FFF1FA21767
:10314000B307E407F50720F0A21BB30BE40BF50B64
:10315000661F771F881F991F1A9469F760957095ED
:10316000809590959B01AC01BD01CF0108952F92F0
:103170003F924F925F926F927F928F929F92AF9207
:10318000BF92CF92DF92EF92FF920F931F93CF9354
:10319000DF93CDB7DEB7CA1BDB0B0FB6F894DEBFEB
:1031A0000FBECDBF09942A88398848885F846E8411
:1031B0007D848C849B84AA84B984C884DF80EE805B
:1031C000FD800C811B81AA81B981CE0FD11D0FB664
:1031D000F894DEBF0FBECDBFED010895AA1BBB1B47
:1031E00051E107C0AA1FBB1FA617B70710F0A61B07
:1031F000B70B881F991F5A95A9F780959095BC0128
:10320000CD010895CF93DF93BC018230910510F476
:1032100062E070E0A0915403B0915503ED01E0E04D
:10322000F0E040E050E021C088819981861797073F
:1032300069F48A819B81309719F09383828304C05B
:103240009093550380935403FE0134C068177907A7
:1032500038F44115510519F08417950708F4AC01AD
:10326000FE018A819B819C01E9012097E9F64115C5
:103270005105A9F1CA01861B970B049708F4BA01FE
:10328000E0E0F0E02AC08D919C911197841795079A
:10329000F9F46417750781F412968D919C91139738
:1032A000309719F09383828304C0909355038093E1
:1032B0005403FD0132964FC0CA01861B970BFD01D6
:1032C000E80FF91F6193719302978D939C9343C00C
:1032D000FD01828193819C01D9011097A1F6809113
:1032E000520390915303892B41F4809133039091C1
:1032F00034039093530380935203409135035091CC
:1033000036034115510541F44DB75EB78091310345
:1033100090913203481B590B209152033091530373
:1033200024173507B0F4CA01821B930B8617970741
:1033300080F0AB014E5F5F4F8417950750F0420F4E
:10334000531F5093530340935203F90161937193B8
:1033500002C0E0E0F0E0CF01DF91CF910895CF937C
:10336000DF93009709F450C0EC0122971B821A8268
:10337000A0915403B0915503109709F140E050E03B
:10338000AC17BD0708F1BB83AA83FE0121913191DF
:10339000E20FF31FAE17BF0779F48D919C9111973F
:1033A000280F391F2E5F3F4F3983288312968D9146
:1033B0009C9113979B838A834115510571F4D09397
:1033C0005503C093540320C012968D919C9113977E
:1033D000AD01009711F0DC01D3CFFA01D383C28392
:1033E00021913191E20FF31FCE17DF0769F4888135
:1033F0009981280F391F2E5F3F4FFA0131832083B7
:103400008A819B8193838283DF91CF9108950F936B
:103410001F93CF93DF938C01EB01009731F461157B
:10342000710519F420E030E038C081E090E06EE0F2
:1034300070E00E94531AFC019C01009771F180E832
:103440008383209771F0D387C28781E8838380913B
:10345000560390915703892B21F4F0935703E0937F
:10346000560301151105C9F0118700878381826019
:1034700083838091580390915903892B71F4F093C1
:103480005903E093580380915A0390915B03892B71
:1034900021F4F0935B03E0935A03C901DF91CF91CC
:1034A0001F910F9108950F931F93CF93DF93689F00
:1034B0008001699F100D789F100D1124C8010E9492
:1034C0000219EC01009729F060E070E0A8010E9469
:1034D0006F1ACE01DF91CF911F910F910895DC01FA
:1034E00001C06D9341505040E0F70895F894FFCF2C
:1034F000424547494E2000494E495420005354410B
:10350000525420004E414B200053544F5020004154
:10351000434B200042494E495420004D41494E54EE
:10352000454E414E43450053454C454354204D4F75
:10353000444500494E5055545320004F5554505562
:103540005453004D4F544F525320004F4646004DA8
:103550004F544F5253004241434B200053454E536A
:103560004F5220300053454E534F522031005345A7
:103570004E534F5220320053454E534F522033008A
:1035800053454E534F5220340053454E534F522013
:10359000350053454E534F5220360053454E534F3E
:1035A00052203700414320504F57455220202020C1
:1035B000204F4E2000424C4F5745522020202020C3
:1035C00020204F4E202000504C4154452053544F52
:1035D000502020204F4E2000504C41544520524155
:1035E00049534520204F4E2000504C415445204C1B
:1035F0004F57455220204F4E2000425255534831DC
:10360000205241495345204F4E20004252555348C5
:1036100031204C4F574552204F4E200042525553B7
:103620004832205241495345204F4E2000425255C6
:10363000534832204C4F574552204F4E20005041A6
:1036400050455220524149534520204F4E200050B2
:1036500041504552204C4F57455220204F4E20009C
:10366000414952204B4E494645202020204F4E20B4
:10367000004C4F4144494E472020202046524F4E97
:103680005400445249564520202020202046524FC5
:103690004E5400425255534831202020202046529B
:1036A0004F4E54004252555348322020202020468D
:1036B000524F4E540050415045522020202020208F
:1036C00046524F4E54004E4F524D414C0053454CC4
:1036D000454354204359434C45004359434C453AD4
:1036E000004649525354204200535441544520004F
:1036F0005055534820544F20535441525400454E86
:1037000044204F46204359434C45005345434F4EB8
:1037100044204200424F5448204200454E4400029B
:083720001020005C0300000012
:00000001FF
