:100000000C9446000C9465000C9465000C946500FB
:100010000C9465000C9465000C9465000C946500CC
:100020000C9465000C9465000C9465000C94A60675
:100030000C9465000C9465000C9465000C946500AC
:100040000C9465000C9465000C9465000C9465009C
:100050000C9465000C9465000C9465000C9465008C
:100060000C9465000C9465000C9465000C9465007C
:100070000C9465000C9465000C9465000C9465006C
:100080000C9465000C9465000C94650011241FBE4F
:10009000CFEFD0E4DEBFCDBF11E0A0E0B1E0EAE9F0
:1000A000F6E100E00BBF02C007900D92A231B1074C
:1000B000D9F711E0A2E1B1E001C01D92AA34B10765
:1000C000E1F70E9477000C944B0B0C940000FC01AC
:1000D00020E030E08081882311F421E030E0C90184
:1000E0000895FC0181E0808308950895089580E0DB
:1000F0000E94AB010E941C0480E00E94AB01AA2771
:1001000097FDA095BA2FBC01CD010E94F80484E6AA
:1001100090E00E941107EBCF0E94840A08950E948C
:10012000D7090895909301018093000108950895DF
:100130000895EF92FF920F931F93CF93DF938091D7
:100140001201882309F455C0809113019091140184
:1001500020917C00C0910001D0910101BC0180E0A0
:1001600090E025FF21C07E01F694E79400E010E0C6
:100170002FEF30E040E050E00E944B09E60EF71E02
:10018000081F191F9E0140E050E0C801B7010E94FE
:100190007E09C901DA018F3F9105A105B10539F149
:1001A00030F12FEF30E032C07E01F694E79400E0AA
:1001B00010E02FEF33E040E050E00E944B09E60EE4
:1001C000F71E081F191F9E0140E050E0C801B7014B
:1001D0000E947E09C901DA01803020E0920721E007
:1001E000A20720E0B20718F02FEF3FEF0FC09C01ED
:1001F0000DC080917C0085FF05C080917900282F7B
:1002000030E004C02091780030917900C901CDB769
:10021000DEB7E6E00C94C8090E9499000895909317
:100220000101809300010895A0E0B0E02091000159
:100230003091010140E050E0BC01CD010E944B092A
:100240009B01AC0180917C0085FF0BC0B901CA0104
:1002500061587F4F8F4F9F4F2FEF30E040E050E0CD
:100260000AC0B901CA0161507E4F8F4F9F4F2FEFD7
:1002700033E040E050E00E947E09C901089580917A
:100280001201882329F0809113019091140108959F
:1002900080917C0085FF06C08091790090E00E94EB
:1002A0001401089580917800909179000E941401C2
:1002B00008950E943F0108950E94140108950E942C
:1002C00027080895982F803200F181E08093120171
:1002D000903819F40E94270813C0913819F40E942D
:1002E00019080EC0923819F40E94120809C09338F8
:1002F00019F40E940B0804C09438F9F40E94040811
:10030000909314018093130108951092120187E8CD
:1003100080937A0080917C00282F2064662311F05E
:10032000806C02C0822F8F77807E892B80937C0027
:1003300080917A00806480937A00089560E00E9442
:10034000620180917A0086FDFCCF0E943F010895F2
:100350000E949E01089560E00E94620180917A00EF
:1003600086FDFCCF0E94990008950E94AB0108957C
:10037000A0E0B0E0EEEBF1E00C94AA096B01803252
:1003800020F00E94AB019C013AC060E00E94620133
:1003900080917A0086FDFCCFE601EE24FF248701E0
:1003A00080917A00806480937A0080917A0086FD43
:1003B000FCCF0E949900A0E0B0E0E80EF91E0A1FF1
:1003C0001B1F219769F7C6019695879520E4C216F1
:1003D000D10440F48E0D9F1D6C2D70E00E946A09BF
:1003E0009B010DC0A0E0B0E0E80EF91E0A1F1B1F24
:1003F000960140E050E0C801B7010E947E09C901A2
:10040000CDB7DEB7E8E00C94C6091F9310917C00CD
:1004100080917C008F7D80937C008EE164E170E0B0
:100420000E94B8018EE164E170E00E94B8019C0175
:1004300015FD04C080917C008F7D03C080917C00FD
:10044000806280937C00B9017695679580E090E0AA
:100450006C54744D8E4E9F4F40E050E00E947E09D8
:10046000C9011F9108950E940502089580E864E182
:1004700070E00E94B8010895803218F00E949E0139
:1004800008950E94B8010E94140108950E94B801C5
:10049000089560E00E94620108950E942008089576
:1004A0000895089580E090E00895EF92FF920F93F1
:1004B0001F9367B13D982898299AE0901901F09010
:1004C0001A0100911B0110911C0120E030E041E075
:1004D00050E0CA016F9364E06A95F1F76F9101975C
:1004E000C9F72A9ACA016F9364E06A95F1F76F9190
:1004F0000197C9F786B12A98FA016F9364E06A956B
:10050000F1F76F913197C9F72A9AFA016F9364E076
:100510006A95F1F76F913197C9F72A982C5F3F4F91
:1005200085FF09C0C901A0E0B0E08E159F05A007B6
:10053000B10708F4CECFC901A0E0B0E08E159F0549
:10054000A007B10728F082E390E0A0E0B0E004C08B
:1005500080E395E7A0E0B0E08093190190931A0141
:10056000A0931B01B0931C0167B91F910F91FF90DD
:10057000EF90089528B190E08F709070880F991FC8
:10058000880F991F237C282B28B92A9A81E090E0B4
:10059000FC016F9364E06A95F1F76F913197C9F7A9
:1005A0002A986F9364E06A95F1F76F910197C9F704
:1005B00008958091150190911601009711F00E9405
:1005C000840A8091020190E001972091030130E0BC
:1005D000AC01429FC001439F900D529F900D11248A
:1005E0000E94D7099093160180931501009729F175
:1005F00060E070E208C0E0911501F0911601E40F8F
:10060000F51F70836F5F462F50E08091020190E0EC
:1006100001972091030130E0FC01E29FC001E39FBC
:10062000900DF29F900D11244817590724F38EE383
:1006300095E062E572E00E94DC0A08958093030170
:10064000609302010E94D902089580930301609390
:1006500002010E94D90208950E94D90208953D988E
:10066000459A80E395E7A0E0B0E08093190190936C
:100670001A01A0931B01B0931C01209A219A229A7F
:100680008EE190E00E94110783E00E94840686E0DC
:1006900090E00E94110783E00E94840682E090E0CF
:1006A0000E94110783E00E94840682E090E00E948D
:1006B000110782E00E94840682E090E00E94110708
:1006C00088E20E94CE0388E00E94CE0381E00E946F
:1006D000CE0386E00E94CE038CE00E94CE030895F4
:1006E00080911D01882329F481E080931D010E94DF
:1006F0002F030895FF920F931F93082F162FF42EA8
:100700000E9470030E94550237B128B12998112325
:1007100011F0289A01C0289887B18C6387B981E0CD
:10072000F816E1F088B1902F92959F70990F990F6C
:10073000837C982B98B92A9A81E090E0FC016F9312
:1007400064E06A95F1F76F913197C9F72A986F9332
:1007500064E06A95F1F76F910197C9F788B10F705E
:10076000000F000F837C802B88B92A9A81E090E0EB
:10077000FC016F9364E06A95F1F76F913197C9F7C7
:100780002A986F9364E06A95F1F76F910197C9F722
:1007900037B928B91F910F91FF90089560E042E0AA
:1007A0000E947A0308950F931F93082F162F08C0F5
:1007B000002311F480E101C084E10E94CE031150B6
:1007C0001123B1F71F910F9108950E94D30308954B
:1007D0008CE00E94CE0308950E94E80308958130C2
:1007E00011F48FE001C08EE00E94CE0308950E94B4
:1007F000EF030895A4E0B0E0E0E0F4E00C94AE096B
:10080000182F062F80E8898380EC8A8384E98B8304
:1008100084ED8C83FE01E60FF11D8181810F0E9422
:10082000CE0310931801009317012496E4E00C9472
:10083000CA090E94FA03089581E00E94CE038091C4
:10084000150190911601892B19F160E070E208C042
:10085000E0911501F0911601E40FF51F70836F5FB1
:10086000462F50E08091020190E001972091030112
:1008700030E0FC01E29FC001E39F900DF29F900DDC
:1008800011244817590724F31092180110921701E8
:1008900008950E941C04089561E042E00E947A03DA
:1008A00008950F931F93CF93DF9300E010E8C82FB4
:1008B000D0E0812F90E08C239D23892B11F081E3E0
:1008C00001C080E30E944C040F5F083011F01695C0
:1008D000F0CFDF91CF911F910F9108950E945104A5
:1008E00008958A3010F4805D01C0895C0E944C0438
:1008F00008951F93182F82958F700E947104812F85
:100900008F700E9471041F9108951F93182F892FD3
:100910000E947904812F0E9479041F9108950E94FA
:10092000850408950E94790408956F927F928F92B2
:100930009F92AF92BF92CF92DF92FF920F93DF937D
:10094000CF93CDB7DEB72A970FB6F894DEBF0FBEB0
:10095000CDBF5B016C010AE03E010894611C711C73
:10096000FA2CC601B5012AE030E040E050E00E94D8
:100970007E09C901DA015C016D0101504301800E5D
:10098000911C80E3F80EC601B5012AE030E040E09A
:1009900050E00E944B09F61AF401F082A114B10450
:1009A000C104D104E9F608C0F601E00FF11D808111
:1009B0000E944C040F5F04C06E010894C11CD11C3E
:1009C0000A3090F32A960FB6F894DEBF0FBECDBF63
:1009D000CF91DF910F91FF90DF90CF90BF90AF90BC
:1009E0009F908F907F906F9008950E949504089536
:1009F000EF92FF920F931F937B018C0197FF0BC027
:100A000010950095F094E094E11CF11C011D111D5E
:100A10008DE20E944C04C801B7010E9495041F9109
:100A20000F91FF90EF9008950E94F8040895CF93DE
:100A3000DF93EC0103C00E944C042196FE018491D7
:100A40008823C9F7DF91CF9108950E941705089573
:100A5000CF93DF93EC0103C021960E944C04888160
:100A60008823D1F7DF91CF9108950E94280508953A
:100A70000E944C0408950E944C040895A0E0B0E048
:100A8000E4E4F5E00C94AA09E82E80911501909118
:100A90001601892B09F405C12AE0E21609F446C0C3
:100AA00038E0E316C9F48091180181508093180151
:100AB0008F3F51F4809117018150809317018091ED
:100AC0000301815080931801809117018F3F09F035
:100AD000E2C010921701DDC08E2D0E944C042091BF
:100AE00017012223C9F030E02150304080910301EA
:100AF00090E0AC01249FC001259F900D349F900D84
:100B0000112420911801E0911501F0911601E80FD0
:100B1000F91FE20FF11DE082809118018F5F809331
:100B2000180190910301891709F0BBC0409117018A
:100B3000242F30E08091020190E0019728173907B7
:100B400009F0A4C0C0E0D0E044C080E06C2F0E9457
:100B5000FA03FF246E010894C11CD11C35C00F2D6F
:100B600010E090E09C01C29FC001C39F900DD29FF6
:100B7000900D1124E0911501F0911601E00FF11F85
:100B8000E80FF91F80810E944C04E0911501F0915B
:100B900016018091030190E0C89FD001C99FB00D5C
:100BA000D89FB00D1124E00FF11FAE0FBF1FAC0195
:100BB000C49EC001C59E900DD49E900D1124E80FD7
:100BC000F91F80818C93F39480910301F81638F219
:100BD000E60160910201862F90E00297C817D907BD
:100BE0000CF4B3CF623008F440C0625080E00E9441
:100BF000FA03FF2440E2D42E34C00F2D10E0809180
:100C0000020190E0029730E0AC01429FC001439F97
:100C1000900D529F900D1124E0911501F091160155
:100C2000E00FF11FE80FF91F80810E944C04209112
:100C3000020130E0225030408091030190E0AC018D
:100C4000249FC001259F900D349F900D1124E091A9
:100C50001501F0911601E00FF11FE80FF91FD08286
:100C6000F39420910301F21640F260910201615069
:100C700080E00E94FA0300E004C080E20E944C047D
:100C80000F5F809103010817C0F303C04F5F4093CB
:100C900017011092180180911801609117010E94AC
:100CA000FA032E2D332727FD3095C901CDB7DEB7C6
:100CB000E8E00C94C609EF92FF920F931F93CF9335
:100CC000DF937C01062F10E053E0000F111F5A95AF
:100CD000E1F7C0E0D0E09E01200F822F80640E94E7
:100CE000CE03F701EC0FFD1FE4918E2F0E944C0400
:100CF0002196C830D10579F7CDB7DEB7E6E00C9480
:100D0000C8090E945B06089560E041E00E947A03F2
:100D100008950F931F93CF93DF93082F162FEA01A7
:100D20000BC0002311F488E101C08CE10E94CE03C6
:100D3000CE010E9411071150112399F7DF91CF9135
:100D40001F910F9108950E94890608952F928F9305
:100D50009F932FB680911F0190912001019680935F
:100D60001F019093200190E080912101891F8093C1
:100D70002101909127019C5F90932701809126018A
:100D800080519742C0F09093270180932601809173
:100D900022019091230101968093220190932301D7
:100DA00090E080912401891F809324018091250186
:100DB000891F809325012FBE9F918F912F901895A9
:100DC0006F5F7F4F8F4F9F4F660F771F881F991F51
:100DD00025E030E040E050E00E947E09CA01B90100
:100DE000089528EE33E009C0F9016F9364E06A9535
:100DF000F1F76F913197C9F701970097A9F7089517
:100E00006F5F7F4F8F4F9F4F660F771F881F991F10
:100E100025E030E040E050E00E947E09CA01B901BF
:100E2000089528EE33E009C0F9016F9364E06A95F4
:100E3000F1F76F913197C9F701970097A9F70895D6
:100E4000A0E7B0E08C918E7F8C93E0EBF0E08081A6
:100E500083608083E1EBF0E08081807F808380810C
:100E600082608083B89A8C9181608C937894089585
:100E700080912801882329F481E0809328010E9431
:100E8000200708950E943807E0E7F0E080818E7F18
:100E900080832091220130912301409124015091BF
:100EA0002501808181608083B901CA0108950E9473
:100EB000420708950E943807809170008E7F8093CA
:100EC00070006091B20080911E0190911F01A0916D
:100ED0002001B0912101B89905C0262F30E040E0F3
:100EE00050E011C08091B20020911E0130911F018D
:100EF000409120015091210120503F4F4F4F5F4FB3
:100F000090E0A0E0B0E0282B392B4A2B5B2B80919E
:100F10007000816080937000B901CA0108950E9439
:100F20005A0708950E943807E0E7F0E080818E7F3D
:100F300080831092220110922301109224011092BA
:100F40002501109227011092260180818160808303
:100F500008950E9492070895982F80913F01891764
:100F600039F090933F01892F806C65E00E9414094D
:100F700008950E94AC0708951F93182F881F882793
:100F8000881F8C5765E00E941409812F8F7765E0D8
:100F90000E9414091F9108958FEF64E00E941409C4
:100FA0000895CF93DF930E9442072091080130916A
:100FB000090140910A0150910B01621773078407E0
:100FC0009507B9F081E867E00E941409C2E3D1E017
:100FD0000E94CC07899381E0CF33D807C9F70E94DC
:100FE0004207609308017093090180930A0190936E
:100FF0000B01DF91CF9108950E94D10780913201BA
:1010000008950E94FC0708950E94D107809139013C
:1010100090913A0108950E94D107809137019091F3
:10102000380108950E94D1078091350190913601D1
:1010300008950E94D1078091330190913401089561
:101040000E94D10780913D0190913E0108950E9438
:10105000D10780913B0190913C01089583E867E0BE
:101060000E9414090E94CC070895A5E0B0E0EBE3CC
:10107000F8E00C94AF0982E866E00E9414090E942F
:10108000CC0780932D010E94CC0780932E010E94F3
:10109000CC0780932F010E94CC07809330011091E0
:1010A00031010E94CC07182B10933101DE011196FB
:1010B000EDE2F1E085E001900D928150E1F72981A8
:1010C0003A814B815C816D8170E090E02596E3E090
:1010D0000C94CB090E944207209104013091050134
:1010E0004091060150910701621773078407950725
:1010F00061F00E9435080E944207609304017093DA
:101100000501809306019093070108950E946A08E3
:101110008091310181FD02C080E008958D7F809330
:10112000310181E008950E94860808950E946A08AE
:101130008091310180FD02C080E008958E7F809310
:10114000310181E008950E94960808950E946A087E
:1011500020912F013091300180912B0190912C0131
:10116000281B390BC90108950E94A60820912F0160
:101170003091300130932C0120932B0108950E946F
:10118000B40808950E94A60808950E946A08209154
:101190002D0130912E018091290190912A01281B67
:1011A000390BC90108950E94C50820912D01309185
:1011B0002E0130932A012093290108950E94D3081B
:1011C00008950E94C508089580E865E00E9414090A
:1011D0000E94CC0708950E94E4080895982F24994E
:1011E0000CC02C990AC02C9AEEE1F0E06F9364E0F9
:1011F0006A95F1F76F913197C9F784B1806A84B924
:101200002698892F837080656C7A862B8CBD892FF8
:1012100090E0969587959695879581708DBD81E034
:1012200090E00E94110708950F931F93082F162F27
:101230000CB406FC04C080E064E00E94EE080CB42C
:1012400004FC03C08CB580618CBD0EBD05C00CB420
:1012500004FC02C080E00FC00DB407FEF8CF1123DC
:1012600049F0812F90E06F9364E06A95F1F76F91F8
:101270000197C9F78EB51F910F91089560E00E9404
:10128000140908950E943E0908950E9414090895C2
:101290000E94EE080895629FD001739FF001829F23
:1012A000E00DF11D649FE00DF11D929FF00D839FF5
:1012B000F00D749FF00D659FF00D9927729FB00D92
:1012C000E11DF91F639FB00DE11DF91FBD01CF01A5
:1012D00011240895AA1BBB1B51E107C0AA1FBB1F05
:1012E000A617B70710F0A61BB70B881F991F5A95B2
:1012F000A9F780959095BC01CD010895A1E21A2E21
:10130000AA1BBB1BFD010DC0AA1FBB1FEE1FFF1FA9
:10131000A217B307E407F50720F0A21BB30BE40BF9
:10132000F50B661F771F881F991F1A9469F7609540
:101330007095809590959B01AC01BD01CF010895FA
:101340002F923F924F925F926F927F928F929F92D5
:10135000AF92BF92CF92DF92EF92FF920F931F93C3
:10136000CF93DF93CDB7DEB7CA1BDB0B0FB6F89474
:10137000DEBF0FBECDBF09942A88398848885F84B4
:101380006E847D848C849B84AA84B984C884DF8025
:10139000EE80FD800C811B81AA81B981CE0FD11D09
:1013A0000FB6F894DEBF0FBECDBFED010895CF9309
:1013B000DF93BC018230910510F462E070E0A091EF
:1013C0004201B0914301ED01E0E0F0E040E050E087
:1013D00021C0888199818617970769F48A819B814A
:1013E000309719F09383828304C0909343018093D4
:1013F0004201FE0134C06817790738F441155105E0
:1014000019F08417950708F4AC01FE018A819B81CD
:101410009C01E9012097E9F641155105A9F1CA019E
:10142000861B970B049708F4BA01E0E0F0E02AC0AD
:101430008D919C91119784179507F9F4641775079E
:1014400081F412968D919C911397309719F09383A4
:10145000828304C09093430180934201FD01329640
:101460004FC0CA01861B970BFD01E80FF91F61935E
:10147000719302978D939C9343C0FD018281938168
:101480009C01D9011097A1F68091400190914101F2
:10149000892B41F480910E0190910F0190934101AD
:1014A0008093400140911001509111014115510567
:1014B00041F44DB75EB780910C0190910D01481B2E
:1014C000590B209140013091410124173507B0F4A8
:1014D000CA01821B930B8617970780F0AB014E5F02
:1014E0005F4F8417950750F0420F531F50934101EF
:1014F00040934001F9016193719302C0E0E0F0E094
:10150000CF01DF91CF910895CF93DF93009709F436
:1015100050C0EC0122971B821A82A0914201B09127
:101520004301109709F140E050E0AC17BD0708F106
:10153000BB83AA83FE0121913191E20FF31FAE1705
:10154000BF0779F48D919C911197280F391F2E5F59
:101550003F4F3983288312968D919C9113979B83DB
:101560008A834115510571F4D0934301C093420120
:1015700020C012968D919C911397AD01009711F0A8
:10158000DC01D3CFFA01D383C28321913191E20FE1
:10159000F31FCE17DF0769F488819981280F391F5F
:1015A0002E5F3F4FFA01318320838A819B81938391
:1015B0008283DF91CF9108950F931F93CF93DF9391
:1015C0008C01EB01009731F46115710519F420E0ED
:1015D00030E038C081E090E06EE070E00E94280BBF
:1015E000FC019C01009771F180E88383209771F0E2
:1015F000D387C28781E8838380914401909145011C
:10160000892B21F4F0934501E09344010115110564
:10161000C9F01187008783818260838380914601AE
:1016200090914701892B71F4F0934701E0934601B3
:101630008091480190914901892B21F4F09349014F
:10164000E0934801C901DF91CF911F910F91089557
:101650000F931F93CF93DF93689F8001699F100DB5
:10166000789F100D1124C8010E94D709EC01009742
:1016700029F060E070E0A8010E94440BCE01DF91E8
:10168000CF911F910F910895DC0101C06D934150DE
:0A1690005040E0F70895F894FFCFF2
:10169A0088130210FFFFFFFFFFFFFFFF20004A0130
:0216AA0000003E
:00000001FF
