:100000000C9446000C945D000C945D000C945D0013
:100010000C945D000C945D000C945D000C945D00EC
:100020000C945D000C945D000C945D000C945D00DC
:100030000C945D000C945D000C945D000C945D00CC
:100040000C945D000C945D000C945D000C945D00BC
:100050000C945D000C945D000C945D000C945D00AC
:100060000C945D000C945D000C945D000C945D009C
:100070000C945D000C945D000C945D000C945D008C
:100080000C945D000C945D000C945D0011241FBE67
:10009000CFEFD0E4DEBFCDBF11E0A0E0B1E0EAE6F3
:1000A000F2E000E00BBF02C007900D92A030B10754
:1000B000D9F70E94FD000C9433010C940000FC0160
:1000C0001182108213821282158214821682683085
:1000D000A0F489E290E0918380838BE290E09383A7
:1000E00082838AE290E09583848381E090E002C07D
:1000F000880F991F6A95E2F72CC0603188F483E27B
:1001000090E09183808385E290E09383828384E210
:1001100090E095838483262F30E02850304012C031
:100120006831C8F486E290E09183808388E290E0B1
:100130009383828387E290E095838483262F30E047
:100140002051304081E090E002C0880F991F2A952D
:10015000E2F7868308956032C0F480E290E09183F4
:10016000808382E290E09383828381E290E09583B2
:1001700084832FE130E0261B310981E090E002C04A
:10018000880F991F2A95E2F7868308951F93DF93BE
:10019000CF93CDB7DEB727970FB6F894DEBF0FBE6B
:1001A000CDBF282F162FCE010196622F0E945F002F
:1001B0001F3F31F4EB81FC8180819F81892707C03B
:1001C000EB81FC819F81112321F08081892B808329
:1001D00004C08081909598239083ED81FE81808179
:1001E0009F81892B808327960FB6F894DEBF0FBEC0
:1001F000CDBFCF91DF911F910895FF920F931F9371
:10020000DF93CF93CDB7DEB727970FB6F894DEBF55
:100210000FBECDBF8E010F5F1F4FC80161E10E946D
:100220005F00ED81FE8190818F818095892380839D
:10023000EB81FC8180819F81892B8083F02E012FAF
:100240008F2D902F61E10E945F00E981FA8180810A
:100250009F81892319F081E061E002C081E060E0C4
:0A0260000E94C600EDCFF894FFCF16
:00000001FF
