:100000000C9446000C9465000C9465000C946500FB
:100010000C9465000C9465000C9465000C946500CC
:100020000C9465000C9465000C9465000C944906D2
:100030000C9465000C9465000C9465000C946500AC
:100040000C9465000C9465000C9465000C9465009C
:100050000C9465000C9465000C9465000C9465008C
:100060000C9465000C9465000C9465000C9465007C
:100070000C9465000C9465000C9465000C9465006C
:100080000C9465000C9465000C94650011241FBE4F
:10009000CFEFD0E4DEBFCDBF11E0A0E0B1E0E8ECEF
:1000A000F2E100E00BBF02C007900D92A833B10748
:1000B000D9F711E0A8E3B1E001C01D92A835B1075E
:1000C000E1F70E94F0000C9462090C940000FC011E
:1000D00020E030E08081882311F421E030E0C90184
:1000E0000895FC0181E080830895089508956F923A
:1000F0007F928F929F92AF92BF92CF92DF92EF92B8
:10010000FF920F931F93CF93DF93E4E6F0E08E9F6F
:10011000E0018F9FD00D9E9FD00D11246E9F300166
:100120006F9F700C7E9F700C11244E9F40014F9F5B
:10013000900C5E9F900C11242E9F50012F9FB00CAD
:100140003E9FB00C11240E9F60010F9FD00C1E9F8C
:10015000D00C1124EE9E8001EF9E100DFE9E100D1E
:100160001124E1E0F0E022E030E027C0CE01B90147
:100170000E946E07892BF9F4C301B9010E946E0732
:10018000892BC9F4C401B9010E946E07892B99F427
:10019000C501B9010E946E07892B69F4C601B90136
:1001A0000E946E07892B39F4C801B9010E946E07BD
:1001B000892B09F4F9012F5F3F4FC217D307B4F61B
:1001C000CF01DF91CF911F910F91FF90EF90DF90C2
:1001D000CF90BF90AF909F908F907F906F90089539
:1001E0001F93CF93DF9310923801109239010E9430
:1001F000BF0380E091E00E94CB0488EE93E00E9470
:10020000B4060E946E0187E091E00E94CB0480E476
:100210000E947401182F0E94BF038DE091E00E949C
:10022000CB04112359F084E191E00E94CB040E9499
:10023000C5018AE191E00E94CB0445C080E291E0D3
:100240000E94CB0485E291E00E94CB0488EE93E00B
:100250000E94B4060E94BF03C0E0D0E0CE0165E07A
:1002600070E00E946E0720913801029714F421601B
:1002700001C02E7F20933801CE0160E27EE40E940F
:100280006E07209138018051974214F4226001C01A
:100290002D7F20933801809138010E94CD018091FB
:1002A00039010E94CD010E94C50181E090E00E94C9
:1002B000B40680E40E94740121968EE4C032D8070F
:1002C00069F60E94C5018CE291E00E94CB04FFCF49
:1002D0000E949B0808950E94EE0708951092B900AD
:1002E0008CE08093B8000895982F84EA8093BC0036
:1002F0008091BC0087FFFCCF8091B900887F883057
:1003000021F0803111F081E008959093BB0084E8E2
:100310008093BC008091BC0087FFFCCF9091B90016
:10032000987F983111F480E0089580E0903409F0CE
:1003300081E00895982F44EA34E824E94093BC0012
:100340008091BC0087FFFCCF8091B900887F883006
:1003500011F0803199F79093BB003093BC008091ED
:10036000BC0087FFFCCF8091B900887F803211F0FC
:10037000883539F42093BC008091BC0084FDFCCF0B
:10038000DDCF08950E947401089584E98093BC0034
:100390008091BC0084FDFCCF08958093BB0084E86D
:1003A0008093BC008091BC0087FFFCCF8091B90096
:1003B00090E0887F883209F091E0892F089584ECDD
:1003C0008093BC008091BC0087FFFCCF8091BB0074
:1003D000089584E88093BC008091BC0087FFFCCF27
:1003E0008091BB0008950895089580E090E00895FD
:1003F000EF92FF920F931F9367B13D982898299A27
:10040000E0903E01F0903F010091400110914101C8
:1004100020E030E041E050E0CA016F9364E06A956B
:10042000F1F76F910197C9F72A9ACA016F9364E0B7
:100430006A95F1F76F910197C9F786B12A98FA0189
:100440006F9364E06A95F1F76F913197C9F72A9A33
:10045000FA016F9364E06A95F1F76F913197C9F7EC
:100460002A982C5F3F4F85FF09C0C901A0E0B0E08A
:100470008E159F05A007B10708F4CECFC901A0E0F3
:10048000B0E08E159F05A007B10728F082E390E049
:10049000A0E0B0E004C080E395E7A0E0B0E0809386
:1004A0003E0190933F01A0934001B093410167B991
:1004B0001F910F91FF90EF90089528B190E08F70F9
:1004C0009070880F991F880F991F237C282B28B9BB
:1004D0002A9A81E090E0FC016F9364E06A95F1F75D
:1004E0006F913197C9F72A986F9364E06A95F1F795
:1004F0006F910197C9F7089580913A0190913B015E
:10050000009711F00E949B088091300190E00197C4
:100510002091310130E0AC01429FC001439F900D1A
:10052000529F900D11240E94EE0790933B018093FF
:100530003A01009729F160E070E208C0E0913A01C9
:10054000F0913B01E40FF51F70836F5F462F50E081
:100550008091300190E001972091310130E0FC0161
:10056000E29FC001E39F900DF29F900D1124481768
:10057000590724F381EE94E065EF71E00E94F308DF
:10058000089580933101609330010E947C020895A8
:1005900080933101609330010E947C0208950E9493
:1005A0007C0208953D98459A80E395E7A0E0B0E08D
:1005B00080933E0190933F01A0934001B09341018D
:1005C000209A219A229A8EE190E00E94B40683E05C
:1005D0000E94270686E090E00E94B40683E00E9415
:1005E000270682E090E00E94B40683E00E9427067E
:1005F00082E090E00E94B40682E00E94270682E03A
:1006000090E00E94B40688E20E94710388E00E9494
:10061000710381E00E94710386E00E9471038CE007
:100620000E947103089580914201882329F481E09A
:10063000809342010E94D2020895FF920F931F936C
:10064000082F162FF42E0E9413030E94F80137B1D1
:1006500028B12998112311F0289A01C0289887B150
:100660008C6387B981E0F816E1F088B1902F9295FC
:100670009F70990F990F837C982B98B92A9A81E0E3
:1006800090E0FC016F9364E06A95F1F76F91319708
:10069000C9F72A986F9364E06A95F1F76F91019713
:1006A000C9F788B10F70000F000F837C802B88B9C9
:1006B0002A9A81E090E0FC016F9364E06A95F1F77B
:1006C0006F913197C9F72A986F9364E06A95F1F7B3
:1006D0006F910197C9F737B928B91F910F91FF9012
:1006E000089560E042E00E941D0308950F931F9358
:1006F000082F162F08C0002311F480E101C084E107
:100700000E94710311501123B1F71F910F910895A9
:100710000E94760308958CE00E94710308950E9460
:100720008B030895813011F48FE001C08EE00E94A8
:10073000710308950E9492030895A4E0B0E0E3EAF3
:10074000F3E00C94B107182F062F80E8898380EC22
:100750008A8384E98B8384ED8C83FE01E60FF11D8F
:100760008181810F0E94710310933D0100933C0130
:100770002496E4E00C94CD070E949D03089581E047
:100780000E94710380913A0190913B01892B19F1EC
:1007900060E070E208C0E0913A01F0913B01E40FA3
:1007A000F51F70836F5F462F50E08091300190E01D
:1007B00001972091310130E0FC01E29FC001E39FED
:1007C000900DF29F900D11244817590724F31092B1
:1007D0003D0110923C0108950E94BF03089561E01D
:1007E00042E00E941D0308950F931F93CF93DF9360
:1007F00000E010E8C82FD0E0812F90E08C239D23EB
:10080000892B11F081E301C080E30E94EF030F5FA9
:10081000083011F01695F0CFDF91CF911F910F9115
:1008200008950E94F40308958A3010F4805D01C099
:10083000895C0E94EF0308951F93182F82958F7093
:100840000E941404812F8F700E9414041F91089538
:100850001F93182F892F0E941C04812F0E941C04B3
:100860001F9108950E94280408950E941C04089571
:100870006F927F928F929F92AF92BF92CF92DF92B0
:10088000FF920F93DF93CF93CDB7DEB72A970FB6C2
:10089000F894DEBF0FBECDBF5B016C010AE03E01E4
:1008A0000894611C711CFA2CC601B5012AE030E0E5
:1008B00040E050E00E948107C901DA015C016D014E
:1008C00001504301800E911C80E3F80EC601B50172
:1008D0002AE030E040E050E00E944F07F61AF401B1
:1008E000F082A114B104C104D104E9F608C0F601F4
:1008F000E00FF11D80810E94EF030F5F04C06E01C5
:100900000894C11CD11C0A3090F32A960FB6F894B3
:10091000DEBF0FBECDBFCF91DF910F91FF90DF9073
:10092000CF90BF90AF909F908F907F906F900895E1
:100930000E9438040895EF92FF920F931F937B015A
:100940008C0197FF0BC010950095F094E094E11C8A
:10095000F11C011D111D8DE20E94EF03C801B701BA
:100960000E9438041F910F91FF90EF9008950E940C
:100970009B040895CF93DF93EC0103C00E94EF0323
:100980002196FE0184918823C9F7DF91CF910895C4
:100990000E94BA040895CF93DF93EC0103C021961F
:1009A0000E94EF0388818823D1F7DF91CF910895CA
:1009B0000E94CB0408950E94EF0308950E94EF0364
:1009C0000895A0E0B0E0E7EEF4E00C94AD07E82E67
:1009D00080913A0190913B01892B09F405C12AE0ED
:1009E000E21609F446C038E0E316C9F480913D01EF
:1009F000815080933D018F3F51F480913C018150A3
:100A000080933C0180913101815080933D01809120
:100A10003C018F3F09F0E2C010923C01DDC08E2DF9
:100A20000E94EF0320913C012223C9F030E02150C5
:100A300030408091310190E0AC01249FC001259F9E
:100A4000900D349F900D112420913D01E0913A01C9
:100A5000F0913B01E80FF91FE20FF11DE082809158
:100A60003D018F5F80933D0190913101891709F01D
:100A7000BBC040913C01242F30E08091300190E0D8
:100A800001972817390709F0A4C0C0E0D0E044C09E
:100A900080E06C2F0E949D03FF246E010894C11C0E
:100AA000D11C35C00F2D10E090E09C01C29FC00109
:100AB000C39F900DD29F900D1124E0913A01F091C7
:100AC0003B01E00FF11FE80FF91F80810E94EF0347
:100AD000E0913A01F0913B018091310190E0C89F93
:100AE000D001C99FB00DD89FB00D1124E00FF11FA8
:100AF000AE0FBF1FAC01C49EC001C59E900DD49E19
:100B0000900D1124E80FF91F80818C93F39480914C
:100B10003101F81638F2E60160913001862F90E03D
:100B20000297C817D9070CF4B3CF623008F440C05D
:100B3000625080E00E949D03FF2440E2D42E34C026
:100B40000F2D10E08091300190E0029730E0AC0171
:100B5000429FC001439F900D529F900D1124E09140
:100B60003A01F0913B01E00FF11FE80FF91F80817E
:100B70000E94EF032091300130E0225030408091FC
:100B8000310190E0AC01249FC001259F900D349F5E
:100B9000900D1124E0913A01F0913B01E00FF11F1B
:100BA000E80FF91FD082F39420913101F21640F240
:100BB00060913001615080E00E949D0300E004C01C
:100BC00080E20E94EF030F5F809131010817C0F3AC
:100BD00003C04F5F40933C0110923D0180913D0165
:100BE00060913C010E949D032E2D332727FD3095F7
:100BF000C901CDB7DEB7E8E00C94C907EF92FF92C8
:100C00000F931F93CF93DF937C01062F10E053E0E7
:100C1000000F111F5A95E1F7C0E0D0E09E01200FB0
:100C2000822F80640E947103F701EC0FFD1FE49195
:100C30008E2F0E94EF032196C830D10579F7CDB7EA
:100C4000DEB7E6E00C94CB070E94FE05089560E055
:100C500041E00E941D0308950F931F93CF93DF93EC
:100C6000082F162FEA010BC0002311F488E101C000
:100C70008CE10E947103CE010E94B4061150112331
:100C800099F7DF91CF911F910F9108950E942C0643
:100C900008952F928F939F932FB680914401909146
:100CA00045010196809344019093450190E0809125
:100CB0004601891F8093460190914C019C5F90935F
:100CC0004C0180914B0180519742C0F090934C01B0
:100CD00080934B0180914701909148010196809348
:100CE00047019093480190E080914901891F8093CA
:100CF000490180914A01891F80934A012FBE9F912B
:100D00008F912F9018956F5F7F4F8F4F9F4F660F7A
:100D1000771F881F991F25E030E040E050E00E94D7
:100D20008107CA01B901089528EE33E009C0F9012D
:100D30006F9364E06A95F1F76F913197C9F7019766
:100D40000097A9F708956F5F7F4F8F4F9F4F660FF2
:100D5000771F881F991F25E030E040E050E00E9497
:100D60008107CA01B901089528EE33E009C0F901ED
:100D70006F9364E06A95F1F76F913197C9F7019726
:100D80000097A9F70895A0E7B0E08C918E7F8C932F
:100D9000E0EBF0E0808183608083E1EBF0E0808134
:100DA000807F8083808182608083B89A8C9181600B
:100DB0008C937894089580914D01882329F481E0E3
:100DC00080934D010E94C30608950E94DB06E0E770
:100DD000F0E080818E7F808320914701309148012F
:100DE0004091490150914A01808181608083B9011D
:100DF000CA0108950E94E50608950E94DB068091CD
:100E000070008E7F809370006091B20080914301EA
:100E100090914401A0914501B0914601B89905C057
:100E2000262F30E040E050E011C08091B2002091C8
:100E300043013091440140914501509146012050B9
:100E40003F4F4F4F5F4F90E0A0E0B0E0282B392B91
:100E50004A2B5B2B80917000816080937000B901F8
:100E6000CA0108950E94FD0608950E94DB06E0E78E
:100E7000F0E080818E7F80831092470110924801BC
:100E80001092490110924A0110924C0110924B01AC
:100E900080818160808308950E9435070895629F54
:100EA000D001739FF001829FE00DF11D649FE00D62
:100EB000F11D929FF00D839FF00D749FF00D659FC3
:100EC000F00D9927729FB00DE11DF91F639FB00DC2
:100ED000E11DF91FBD01CF011124089597FB092ED3
:100EE00007260AD077FD04D065D006D000201AF47A
:100EF000709561957F4F0895F6F7909581959F4F76
:100F00000895A1E21A2EAA1BBB1BFD010DC0AA1F4A
:100F1000BB1FEE1FFF1FA217B307E407F50720F062
:100F2000A21BB30BE40BF50B661F771F881F991FDD
:100F30001A9469F760957095809590959B01AC0126
:100F4000BD01CF0108952F923F924F925F926F9211
:100F50007F928F929F92AF92BF92CF92DF92EF9249
:100F6000FF920F931F93CF93DF93CDB7DEB7CA1BCA
:100F7000DB0B0FB6F894DEBF0FBECDBF09942A88F5
:100F8000398848885F846E847D848C849B84AA849D
:100F9000B984C884DF80EE80FD800C811B81AA812A
:100FA000B981CE0FD11D0FB6F894DEBF0FBECDBFF5
:100FB000ED010895AA1BBB1B51E107C0AA1FBB1F6F
:100FC000A617B70710F0A61BB70B881F991F5A95D5
:100FD000A9F780959095BC01CD010895CF93DF933B
:100FE000BC018230910510F462E070E0A0915001E4
:100FF000B0915101ED01E0E0F0E040E050E021C0AF
:10100000888199818617970769F48A819B81309737
:1010100019F09383828304C090935101809350010F
:10102000FE0134C06817790738F44115510519F0ED
:101030008417950708F4AC01FE018A819B819C010D
:10104000E9012097E9F641155105A9F1CA01861B6E
:10105000970B049708F4BA01E0E0F0E02AC08D9104
:101060009C91119784179507F9F46417750781F41B
:1010700012968D919C911397309719F093838283E8
:1010800004C09093510180935001FD0132964FC0EE
:10109000CA01861B970BFD01E80FF91F619371933D
:1010A00002978D939C9343C0FD01828193819C01A3
:1010B000D9011097A1F680914E0190914F01892B93
:1010C00041F4809134019091350190934F018093C8
:1010D0004E0140913601509137014115510541F4BF
:1010E0004DB75EB78091320190913301481B590B87
:1010F00020914E0130914F0124173507B0F4CA01F9
:10110000821B930B8617970780F0AB014E5F5F4FF2
:101110008417950750F0420F531F50934F0140938F
:101120004E01F9016193719302C0E0E0F0E0CF015C
:10113000DF91CF910895CF93DF93009709F450C0CA
:10114000EC0122971B821A82A0915001B0915101AB
:10115000109709F140E050E0AC17BD0708F1BB83E0
:10116000AA83FE0121913191E20FF31FAE17BF0751
:1011700079F48D919C911197280F391F2E5F3F4F65
:101180003983288312968D919C9113979B838A8330
:101190004115510571F4D0935101C093500120C005
:1011A00012968D919C911397AD01009711F0DC017F
:1011B000D3CFFA01D383C28321913191E20FF31F80
:1011C000CE17DF0769F488819981280F391F2E5FB8
:1011D0003F4FFA01318320838A819B8193838283ED
:1011E000DF91CF9108950F931F93CF93DF938C01DD
:1011F000EB01009731F46115710519F420E030E03E
:1012000038C081E090E06EE070E00E943F09FC0190
:101210009C01009771F180E88383209771F0D38758
:10122000C28781E883838091520190915301892B79
:1012300021F4F0935301E093520101151105C9F017
:10124000118700878381826083838091540190910C
:101250005501892B71F4F0935501E093540180916D
:10126000560190915701892B21F4F0935701E09397
:101270005601C901DF91CF911F910F9108950F93EE
:101280001F93CF93DF93689F8001699F100D789F14
:10129000100D1124C8010E94EE07EC01009729F0FF
:1012A00060E070E0A8010E945B09CE01DF91CF9160
:1012B0001F910F910895DC0101C06D934150504082
:0812C000E0F70895F894FFCF58
:1012C800424547494E2000494E4954200053544155
:1012D800525420004E41434B200053544F5020009D
:1012E80041434B200042494E49542000454E44009A
:0812F800021020005801000063
:00000001FF
