:100000000C9446000C9465000C9465000C946500FB
:100010000C9465000C9465000C9465000C946500CC
:100020000C9465000C9465000C9465000C948C078E
:100030000C9465000C9465000C9465000C946500AC
:100040000C9465000C9465000C9465000C9465009C
:100050000C9465000C9465000C9465000C9465008C
:100060000C9465000C9465000C9465000C9465007C
:100070000C9465000C9465000C9465000C9465006C
:100080000C9465000C9465000C94650011241FBE4F
:10009000CFEFD0E4DEBFCDBF11E0A0E0B1E0E2E6FB
:1000A000F3E200E00BBF02C007900D92AA35B10742
:1000B000D9F711E0AAE5B1E001C01D92A938B10756
:1000C000E1F70E9467000C94AF110C940000CF92EE
:1000D000DF92EF92FF920F931F93DF93CF93CDB7F1
:1000E000DEB7A6970FB6F894DEBF0FBECDBF0E9455
:1000F000E00280E091E00E94CC03DE011196ECE486
:10010000F1E086E001900D928150E1F7CE01019679
:1001100063E04AE02EE00E944E0F0E94E0028EE073
:1001200091E00E94CC0380E20E9489070E94E002D5
:1001300085E291E00E94CC0300E010E081E00E94A3
:10014000460F84E190E00E94D7070F5F1F4F0A3FE0
:100150001105A1F70E94E0028EE091E00E94CC031D
:1001600080E20E94890797E0C92ED12CCC0EDD1EBB
:1001700087E1E82EF12CEC0EFD1E0E94E00288E3E0
:1001800091E00E94CC03C60161E00E94DC0DC70132
:1001900061E00E94D20D00E010E0F601E00FF11FD7
:1001A000808191810E94CC03F701E00FF11F8081D3
:1001B00091810E94CC0388EC90E00E94D7070E94B6
:1001C000E0020E5F1F4F0031110539F7D6CF0895B9
:1001D000089580E090E00895EF92FF920F931F93AF
:1001E00067B13D982898299AE0905E01F0905F01F0
:1001F000009160011091610120E030E041E050E0A9
:10020000CA016F9364E06A95F1F76F910197C9F79E
:100210002A9ACA016F9364E06A95F1F76F9101978A
:10022000C9F786B12A98FA016F9364E06A95F1F7ED
:100230006F913197C9F72A9AFA016F9364E06A9532
:10024000F1F76F913197C9F72A982C5F3F4F85FFDF
:1002500009C0C901A0E0B0E08E159F05A007B10755
:1002600008F4CECFC901A0E0B0E08E159F05A0072D
:10027000B10728F082E390E0A0E0B0E004C080E3A2
:1002800095E7A0E0B0E080935E0190935F01A093BA
:100290006001B093610167B91F910F91FF90EF90DA
:1002A000089528B190E08F709070880F991F880F83
:1002B000991F237C282B28B92A9A81E090E0FC0121
:1002C0006F9364E06A95F1F76F913197C9F72A98B7
:1002D0006F9364E06A95F1F76F910197C9F70895FC
:1002E00080915A0190915B01009711F00E94E810F3
:1002F0008091520190E001972091530130E0AC01D0
:10030000429FC001439F900D529F900D11240E9467
:100310003B1090935B0180935A01009729F160E0B4
:1003200070E208C0E0915A01F0915B01E40FF51F03
:1003300070836F5F462F50E08091520190E00197EB
:100340002091530130E0FC01E29FC001E39F900D3A
:10035000F29F900D11244817590724F385ED93E07F
:1003600069EE70E00E9440110895809353016093FC
:1003700052010E94700108958093530160935201CD
:100380000E94700108950E94700108953D98459A59
:1003900080E395E7A0E0B0E080935E0190935F0179
:1003A000A0936001B0936101209A219A229A8EE174
:1003B00090E00E94F70783E00E941B0586E090E032
:1003C0000E94F70783E00E941B0582E090E00E94F4
:1003D000F70783E00E941B0582E090E00E94F70788
:1003E00082E00E941B0582E090E00E94F70788E20D
:1003F0000E94650288E00E94650281E00E94650219
:1004000086E00E9465028CE00E946502089580915A
:100410006201882329F481E0809362010E94C60171
:100420000895FF920F931F93082F162FF42E0E940A
:1004300007020E94EC0037B128B12998112311F06E
:10044000289A01C0289887B18C6387B981E0F81693
:10045000E1F088B1902F92959F70990F990F837C4E
:10046000982B98B92A9A81E090E0FC016F9364E0A0
:100470006A95F1F76F913197C9F72A986F9364E005
:100480006A95F1F76F910197C9F788B10F70000F66
:10049000000F837C802B88B92A9A81E090E0FC01D0
:1004A0006F9364E06A95F1F76F913197C9F72A98D5
:1004B0006F9364E06A95F1F76F910197C9F737B9C7
:1004C00028B91F910F91FF90089560E042E00E94CB
:1004D000110208950F931F93082F162F08C00023B1
:1004E00011F480E101C084E10E94650211501123E2
:1004F000B1F71F910F9108950E946A0208958CE050
:100500000E94650208950E947F020895813011F4CF
:100510008FE001C08EE00E94650208950E9486026D
:100520000895A4E0B0E0E7E9F2E00C941210182F6F
:10053000062F80E8898380EC8A8384E98B8384EDAD
:100540008C83FE01E60FF11D8181810F0E946502FF
:1005500010935D0100935C012496E4E00C942E104E
:100560000E949102089581E00E94650280915A01E3
:1005700090915B01892B19F160E070E208C0E09175
:100580005A01F0915B01E40FF51F70836F5F462FF6
:1005900050E08091520190E001972091530130E0AA
:1005A000FC01E29FC001E39F900DF29F900D11248A
:1005B0004817590724F310925D0110925C010895C9
:1005C0000E94B302089561E042E00E941102089582
:1005D0000F931F93CF93DF9300E010E8C82FD0E074
:1005E000812F90E08C239D23892B11F081E301C0A2
:1005F00080E30E94E3020F5F083011F01695F0CF00
:10060000DF91CF911F910F9108950E94E802089504
:100610008A3010F4805D01C0895C0E94E302089575
:100620001F93182F82958F700E940803812F8F705F
:100630000E9408031F9108951F93182F892F0E946D
:100640001003812F0E9410031F9108950E941C0324
:1006500008950E94100308956F927F928F929F9247
:10066000AF92BF92CF92DF92FF920F93DF93CF931F
:10067000CDB7DEB72A970FB6F894DEBF0FBECDBF59
:100680005B016C010AE03E010894611C711CFA2CAC
:10069000C601B5012AE030E040E050E00E94C70FFB
:1006A000C901DA015C016D0101504301800E911C0A
:1006B00080E3F80EC601B5012AE030E040E050E0EA
:1006C0000E94940FF61AF401F082A114B104C1043F
:1006D000D104E9F608C0F601E00FF11D80810E9407
:1006E000E3020F5F04C06E010894C11CD11C0A30E4
:1006F00090F32A960FB6F894DEBF0FBECDBFCF9110
:10070000DF910F91FF90DF90CF90BF90AF909F90BF
:100710008F907F906F9008950E942C030895EF9220
:10072000FF920F931F937B018C0197FF0BC01095D5
:100730000095F094E094E11CF11C011D111D8DE267
:100740000E94E302C801B7010E942C031F910F9180
:10075000FF90EF9008950E948F030895CF93DF9349
:10076000EC0103C00E94E3022196FE0184918823DC
:10077000C9F7DF91CF9108950E94AE030895CF93FA
:10078000DF93EC0103C021960E94E3028881882355
:10079000D1F7DF91CF9108950E94BF0308950E9481
:1007A000E30208950E94E3020895A0E0B0E0EBEDBB
:1007B000F3E00C940E10E82E80915A0190915B01A9
:1007C000892B09F405C12AE0E21609F446C038E095
:1007D000E316C9F480915D01815080935D018F3FE4
:1007E00051F480915C01815080935C0180915301B0
:1007F000815080935D0180915C018F3F09F0E2C0E0
:1008000010925C01DDC08E2D0E94E30220915C01FC
:100810002223C9F030E0215030408091530190E014
:10082000AC01249FC001259F900D349F900D112491
:1008300020915D01E0915A01F0915B01E80FF91FF1
:10084000E20FF11DE08280915D018F5F80935D0179
:1008500090915301891709F0BBC040915C01242F8E
:1008600030E08091520190E001972817390709F094
:10087000A4C0C0E0D0E044C080E06C2F0E94910290
:10088000FF246E010894C11CD11C35C00F2D10E04F
:1008900090E09C01C29FC001C39F900DD29F900D1C
:1008A0001124E0915A01F0915B01E00FF11FE80F74
:1008B000F91F80810E94E302E0915A01F0915B01EF
:1008C0008091530190E0C89FD001C99FB00DD89F7F
:1008D000B00D1124E00FF11FAE0FBF1FAC01C49E7D
:1008E000C001C59E900DD49E900D1124E80FF91FF4
:1008F00080818C93F39480915301F81638F2E601CD
:1009000060915201862F90E00297C817D9070CF426
:10091000B3CF623008F440C0625080E00E94910280
:10092000FF2440E2D42E34C00F2D10E080915201FC
:1009300090E0029730E0AC01429FC001439F900DD0
:10094000529F900D1124E0915A01F0915B01E00F4C
:10095000F11FE80FF91F80810E94E30220915201EC
:1009600030E0225030408091530190E0AC01249F50
:10097000C001259F900D349F900D1124E0915A01E4
:10098000F0915B01E00FF11FE80FF91FD082F394A3
:1009900020915301F21640F260915201615080E0C3
:1009A0000E94910200E004C080E20E94E3020F5F17
:1009B000809153010817C0F303C04F5F40935C015F
:1009C00010925D0180915D0160915C010E94910235
:1009D0002E2D332727FD3095C901CDB7DEB7E8E0CE
:1009E0000C942A10EF92FF920F931F93CF93DF93F3
:1009F0007C01062F10E053E0000F111F5A95E1F71C
:100A0000C0E0D0E09E01200F822F80640E9465022A
:100A1000F701EC0FFD1FE4918E2F0E94E302219657
:100A2000C830D10579F7CDB7DEB7E6E00C942C10CD
:100A30000E94F204089560E041E00E9411020895CE
:100A40000F931F93CF93DF93082F162FEA010BC04C
:100A5000002311F488E101C08CE10E946502CE01FF
:100A60000E94F7071150112399F7DF91CF911F9141
:100A70000F9108950E942005089508950895282F44
:100A800080916301882391F481E08093630187B1B1
:100A9000837D87B988B18C6288B985E090E06F93D7
:100AA00064E06A95F1F76F910197C9F786B1809577
:100AB0008223089580916301882391F481E08093DB
:100AC000630187B1837D87B988B18C6288B985E07D
:100AD00090E06F9364E06A95F1F76F910197C9F721
:100AE000089587B1837D87B988B18C6288B985E024
:100AF00090E06F9364E06A95F1F76F910197C9F701
:100B00000895282F80916301882391F481E08093D8
:100B1000630187B1837D87B988B18C6288B985E02C
:100B200090E06F9364E06A95F1F76F910197C9F7D0
:100B300086B18095822308950F931F93082F16B1D5
:100B40000E942808AB01BC0180916301882391F4C5
:100B500081E08093630187B1837D87B988B18C621E
:100B600088B985E090E06F9364E06A95F1F76F9142
:100B70000197C9F780916901813011F1813038F016
:100B8000823009F443C0833009F089C065C0202F4A
:100B900030E0812F90E08095909528233923232BF6
:100BA00009F47DC0109510231093640140936501F2
:100BB00050936601609367017093680181E06DC096
:100BC0008091650190916601A0916701B0916801E3
:100BD000481B590B6A0B7B0B4F30510561057105A2
:100BE00008F45DC040916401812F90E0809590955C
:100BF000242F30E082239323892B59F182E08093C4
:100C00006901109514231093640149C0E0916401B7
:100C1000AE2FB0E0212F30E0CD0182239323892B2A
:100C200079F083E080936901E123E09364014093CC
:100C300065015093660160936701709368012FC04E
:100C4000802F90E02095309582239323A817B90731
:100C500031F11092690123C0809165019091660184
:100C6000A0916701B0916801481B590B6A0B7B0B7F
:100C70004F3051056105710590F040916401842F5A
:100C800090E0212F30E082239323892B29F01092CA
:100C90006901842F812304C082E08093690180E090
:100CA0001F910F9108950E949C0508950F931F9323
:100CB000082F16B110950E942808AB01BC01809145
:100CC0006301882391F481E08093630187B1837D80
:100CD00087B988B18C6288B985E090E06F9364E051
:100CE0006A95F1F76F910197C9F780916F01813093
:100CF00011F1813038F0823009F443C0833009F0BB
:100D000089C065C0202F30E0812F90E080959095BC
:100D100028233923232B09F47DC010951023109329
:100D20006A0140936B0150936C0160936D01709365
:100D30006E0181E06DC080916B0190916C01A0917A
:100D40006D01B0916E01481B590B6A0B7B0B4F3044
:100D500051056105710508F45DC040916A01812F5C
:100D600090E080959095242F30E082239323892B67
:100D700059F182E080936F011095142310936A015A
:100D800049C0A0916A01212F30E0EA2FF0E0C901AB
:100D90008E239F23892B79F083E080936F011A23A0
:100DA00010936A0140936B0150936C0160936D0145
:100DB00070936E012FC0802F90E020953095822394
:100DC0009323E817F90731F110926F0123C0809146
:100DD0006B0190916C01A0916D01B0916E01481B67
:100DE000590B6A0B7B0B4F3051056105710590F073
:100DF00040916A01812F90E0242F30E082239323D9
:100E0000892B29F010926F01812F842304C082E086
:100E100080936F0180E01F910F9108950E94560604
:100E200008951F93CF93DF93182F80916301882338
:100E300091F481E08093630187B1837D87B988B1A4
:100E40008C6288B985E090E06F9364E06A95F1F771
:100E50006F910197C9F7C12FD0E086B190E08C2344
:100E60009D23892BD1F38AE090E00E94F70786B199
:100E700090E08C239D23892B81F386B18123DF9120
:100E8000CF911F9108950E94110708951F93CF934A
:100E9000DF93182F80916301882391F481E0809380
:100EA000630187B1837D87B988B18C6288B985E099
:100EB00090E06F9364E06A95F1F76F910197C9F73D
:100EC000C12FD0E086B190E0809590958C239D2332
:100ED000892BC1F38AE090E00E94F70786B190E089
:100EE000809590958C239D23892B61F386B1809505
:100EF0008123DF91CF911F9108951F930E94460790
:100F0000182F0E941107812F1F9108950E947D07BD
:100F100008950E94460708952F928F939F932FB6AE
:100F2000809171019091720101968093710190936B
:100F3000720190E080917301891F809373019091F9
:100F400079019C5F9093790180917801805197425B
:100F5000C0F0909379018093780180917401909111
:100F600075010196809374019093750190E08091D2
:100F70007601891F8093760180917701891F809384
:100F800077012FBE9F918F912F9018956F5F7F4FA4
:100F90008F4F9F4F660F771F881F991F25E030E006
:100FA00040E050E00E94C70FCA01B901089528EE41
:100FB00033E009C0F9016F9364E06A95F1F76F912E
:100FC0003197C9F701970097A9F708956F5F7F4F91
:100FD0008F4F9F4F660F771F881F991F25E030E0C6
:100FE00040E050E00E94C70FCA01B901089528EE01
:100FF00033E009C0F9016F9364E06A95F1F76F91EE
:101000003197C9F701970097A9F70895A0E7B0E0D5
:101010008C918E7F8C93E0EBF0E080818360808305
:10102000E1EBF0E08081807F80838081826080833B
:10103000B89A8C9181608C937894089580917A010C
:10104000882329F481E080937A010E94060808959C
:101050000E941E08E0E7F0E080818E7F808320916F
:101060007401309175014091760150917701808132
:1010700081608083B901CA0108950E9428080895FB
:101080000E941E08809170008E7F80937000609196
:10109000B2008091700190917101A0917201B091A4
:1010A0007301B89905C0262F30E040E050E011C030
:1010B0008091B200209170013091710140917201D4
:1010C0005091730120503F4F4F4F5F4F90E0A0E091
:1010D000B0E0282B392B4A2B5B2B8091700081606C
:1010E00080937000B901CA0108950E9440080895D4
:1010F0000E941E08E0E7F0E080818E7F80831092DE
:10110000740110927501109276011092770110927D
:1011100079011092780180818160808308950E9416
:1011200078080895A0917D01B0917E011C96ED9103
:10113000FC911D97309779F0808119969C911997B1
:10114000892B80831A96ED91FC911B9780811996CB
:101150009C91892B80830895A0917D01B0917E019F
:101160001C96ED91FC911D97309781F08081199626
:101170009C911997892B80831A96ED91FC911B976E
:10118000908119968C918095892380830895E091B0
:101190007D01F0917E01808191810895E0917D0132
:1011A000F0917E01828193810895E0917D01F0911B
:1011B0007E01848195810895E0917D01F0917E0109
:1011C000868197810895FC01118210821382128218
:1011D0001582148217821682613118F080E18087AF
:1011E00001C06087208B483078F481E090E002C035
:1011F000880F991F4A95E2F781878BE290E09387E9
:1012000082878AE290E029C04E3098F4242F30E0A3
:101210002850304081E090E002C0880F991F2A9545
:10122000E2F7818785E290E09387828784E290E00D
:1012300014C04431A8F4242F30E02E50304081E017
:1012400090E002C0880F991F2A95E2F7818788E213
:1012500090E09387828787E290E09587848708955E
:1012600015861486138612860895DC011C96ED916E
:10127000FC911D97309781F0808119969C91199768
:10128000892B80831A96ED91FC911B97908119967A
:101290008C918095892380830895DC011C96ED91C3
:1012A000FC911D97309779F0808119969C91199740
:1012B000892B80831A96ED91FC911B97808119965A
:1012C0009C91892B80830895DC0120E040C0ED9142
:1012D000FC911197309761F0822F90E0880F991F51
:1012E000E80FF91F1E968D919C911F979183808323
:1012F0001496ED91FC911597309761F0822F90E054
:10130000880F991FE80FF91F1E968D919C911F97CA
:10131000918380831296ED91FC911397309741F061
:10132000822F90E0880F991FE80FF91F1182108219
:101330001696ED91FC911797309741F0822F90E02F
:10134000880F991FE80FF91F118210822F5F1896DE
:101350008C911897281708F4BACF089580917D01D1
:1013600090917E010E9464090895A0E0B0E0EBEB4B
:10137000F9E00C940810EC016B01642F7901402F07
:1013800020E00E94E308CE018F5B9F4FFC0110829A
:10139000FE01EE5BFF4F1082DE01AD5BBF4F1C9282
:1013A000FF86EE8630E041E050E07F0166E2662E87
:1013B000712C8C0123E2822E912CBD0199E2A92E81
:1013C000B12C58C0A32FB0E0F601EA0FFB1F8081BB
:1013D0008830C0F4FA0102C0EE0FFF1F8A95E2F7D1
:1013E000CF01FE01EA0FFB1F818BFB012081282B1F
:1013F0002083AA0FBB1FAC0FBD1F9296BC92AE926A
:10140000919737C08E30D0F490E00897FA0102C06F
:10141000EE0FFF1F8A95E2F7CF01FE01EA0FFB1FD7
:10142000818BF8012081282B2083AA0FBB1FAC0FD2
:10143000BD1F92969C928E9291971BC08431C8F4E6
:1014400090E00E97FA0102C0EE0FFF1F8A95E2F7B7
:10145000CF01FE01EA0FFB1F818BF7012081282BB2
:101460002083AA0FBB1FAC0FBD1F92967C926E9279
:1014700091973F5F8885381708F4A4CFCDB7DEB7C2
:10148000EEE00C9424100F930E94B5090F9108957B
:101490000F930E94B5090F910895A0E0B0E0E3E535
:1014A000FAE00C940A10EC015B01CF5BDF4F49912D
:1014B000A9918880C354D04090E009C0E92FF0E0A2
:1014C000EE0FFF1FEA0DFB1D118210829F5F8885C2
:1014D0009817A0F384B1CF5BDF4F3991832B84B988
:1014E00087B12991822B87B98AB19881C354D040A2
:1014F000892B8AB985B1832B85B988B1822B88B9AC
:101500008BB1892B8BB9EAE0F0E06F9364E06A95C8
:10151000F1F76F913197C9F784B13095832384B97E
:1015200087B12095822387B98AB1909589238AB99A
:1015300085B1382335B988B1282328B98BB19823D0
:101540009BB99090B000C090B1008091B0008360D2
:101550008093B00082E08093B100D090B20060E050
:1015600070E03AC05091B2005D19650F711DE3B093
:10157000E41609F04FC0F6B0FA1609F04BC089B175
:10158000881509F047C025C0A42FB0E09D01220FA7
:10159000331F8501020F131FF80180819181892B70
:1015A000A1F42C0F3D1FF90181A192A1FC01208122
:1015B00030E0AC0FBD1F51968C9190E02823392369
:1015C000232B19F4F801718360834F5F88854817D6
:1015D000D8F2D50E4E2DAF2D8E859F8568177907D1
:1015E00008F29092B000C092B10020E00FC0E22F4C
:1015F000F0E0EE0FFF1FEA0DFB1D80819181892B2A
:1016000021F48E859F85918380832F5F888528179D
:1016100070F305C0E3B0F6B089B040E0D7CFCDB7E6
:10162000DEB7ECE00C942610EF92FF920F931F931D
:10163000CF93DF93EC017B01122F642F402F21E029
:101640000E94E30819A31AA290E041E050E016C0FE
:10165000E92FF0E0D701AE0FBF1FEC0FFD1F8C91FB
:10166000818BAC91A63048F49A0102C0220F331F3F
:10167000AA95E2F78AA1822B8AA39F5F8885981793
:1016800038F38FEF93E09F878E87CDB7DEB7E6E024
:101690000C942C100F930E94140B0F9108950F932C
:1016A0000E94140B0F910895A0E0B0E0EAE5FBE082
:1016B0000C940E10EC018B01D0907C00E0907A002D
:1016C000C7B0F8B080917A0086FDFCCF90E009C0E9
:1016D000E92FF0E0EE0FFF1FE00FF11F11821082E3
:1016E0009F5F88859817A0F397B18AA1809598236A
:1016F00097B998B1892388B987E880937A0050E038
:1017000024C0FE01E40FF11D818980937C0080914B
:101710007A00806480937A0080917A0086FDFCCF05
:10172000E42FF0E0EE0FFF1FE00FF11F2091780093
:101730003091790080819181820F931F9183808302
:101740004F5F88854817E8F25F5F89A1581710F04E
:1017500040E017C040E0F5CFE42FF0E0EE0FFF1FB0
:10176000E00FF11F69A1862F90E095958795208164
:101770003181820F931F70E00E94B30F71836083E9
:101780004F5F8885481740F3D0927C00E0927A0042
:10179000F8B8C7B8CDB7DEB7E8E00C942A10A0E2DD
:1017A000B0E0E5EDFBE00C940D108C017B01D42E34
:1017B000842F81508230B0F4D8011C96ED91FC91B9
:1017C0001D97309779F0808119969C911997892BF4
:1017D00080831A96ED91FC911B97808119969C91BC
:1017E000892B8083F8018089882349F5C02EB12E8A
:1017F000C801B7010E944D0AD8011C96ED91FC91D9
:101800001D97309781F0808119969C911997892BAB
:1018100080831A96ED91FC911B97908119968C917B
:10182000809589238083B2E0DB1609F053C08C2DAC
:101830009B2DBE016F5F7F4F0E944D0A27C0C02EB7
:10184000B12EC801B7010E94540BD8011C96ED912E
:10185000FC911D97309781F0808119969C91199782
:10186000892B80831A96ED91FC911B979081199694
:101870008C91809589238083B2E0DB1659F58C2DFD
:101880009B2DBE016F5F7F4F0E94540B40E0BE0155
:101890006F5F7F4F1AC0E42FF0E0EE0FFF1F67016C
:1018A000CE0EDF1EE60FF71FD8011E962D913C913C
:1018B0001F9780819181281B390BF60180819181CE
:1018C000820F931F918380834F5FD80118968C916C
:1018D000481708F3A096E9E00C942910A0E0B0E0C6
:1018E000E4E7FCE00C940B10EC01162F072F942E6C
:1018F00022E0421711F0442351F48C819D81892B01
:1019000009F4A4C08E819F81892B09F49FC0892D81
:101910008150823050F488819981892B09F496C0D6
:101920008A819B81892B09F491C0CE01612F702F90
:10193000492D0E94CF0B812F902F9C015901CC245F
:10194000DD2400E010E07CC081E0981669F4EA81B3
:10195000FB81E00FF11F20813181E881F981E00FE7
:10196000F11F408151813DC0AC81BD81992059F466
:10197000EE81FF81E00FF11F20813181A00FB11FA7
:101980004D915C912EC0A00FB11F8D919C91E8816B
:10199000F981E00FF11F20813181EE85FF858217EB
:1019A000930710F4AF0105C0A9014E0F5F1F481B3C
:1019B000590BEE81FF81E00FF11F60817181EA8197
:1019C000FB81E00FF11F80819181EE85FF85681713
:1019D000790710F49F0105C09C012E0F3F1F261BA5
:1019E000370B7901E41AF50A01F1F5016081718183
:1019F00080E090E09A0140E050E0621B730B840BA2
:101A0000950B28EE33E040E050E00E94940F9701E0
:101A100040E050E00E94E90FC901F3E0293E3F0792
:101A200014F088EE93E097FF02C080E090E0F501AB
:101A3000819391935F010894C11CD11C0E5F1F4FCD
:101A4000888590E0C816D9060CF47ECFCDB7DEB7F6
:101A5000EBE00C942710A4E0B0E0E1E3FDE00C948F
:101A600004108C01F62EE72E2A830E946E0CD801FA
:101A70001896BC91B9832F2D3E2DC9018C01552498
:101A800044246624772443011C821B82AA24BB249D
:101A90006501B8EE2B2EB3E03B2E32C0F801E0809A
:101AA000F180FA81FF2321F091012E193F0979017C
:101AB00039ECE316F10414F04424439483E3E8166C
:101AC000F1049CF0B701882777FD8095982FA60137
:101AD00095010E94940F660E771E881E991EAB8199
:101AE000BC81AE0DBF1DBC83AB83539488EE93E0E5
:101AF000A0E0B0E0A80EB91ECA1EDB1E0E5F1F4F8D
:101B00009981591658F2442021F5692F70E084EF2D
:101B100091E0DC016A9FC0016B9F900D7A9F900D50
:101B20001124845F914020917B0130917C01281722
:101B300039071CF440E050E01AC088EE93E0689F3B
:101B4000A001699F500D789F500D1124485E5340AD
:101B50000EC0EB81FC819F0140E050E0C401B30165
:101B60000E94C70FA90130937C0120937B01CA0119
:101B70002496E2E10C9420109C01462F80917D0177
:101B800090917E01B90121E00E942B0D08959C01E6
:101B9000462F80917D0190917E01B90120E00E9445
:101BA0002B0D08959C01462F80917D0190917E011F
:101BB000B9010E946E0C08959C01462F80917D0111
:101BC00090917E01B9010E94CF0B0895CF93DF93CE
:101BD000EC018A819B81009711F00E94E8108E81B0
:101BE0009F81009711F00E94E810888199810097E9
:101BF00011F00E94E8108C819D81009711F00E94E5
:101C0000E810DF91CF910895CF93DF93EC018A81A3
:101C10009B81009711F00E94E8108E819F810097B0
:101C200011F00E94E81088819981009711F00E94BC
:101C3000E8108C819D81009711F00E94E810DF91DF
:101C4000CF910895A3E6B0E0E8E2FEE00C94041022
:101C50007C015B016A01A2962FAFA297DA018D91F8
:101C60009C91892B11F5F701808590E0880F991FD1
:101C70000E943B10D6018D939C93009709F4DFC01E
:101C800020E030E00CC0C901880F991FD601ED910A
:101C9000FC91E80FF91F118210822F5F3F4FF7016F
:101CA000808590E02817390774F3D5018D919C91B8
:101CB000892B89F000E010E03E010894611C711C42
:101CC00041E4242E312C2C0E3D1E31E2432E512CAA
:101CD0004C0E5D1E28C0F701808590E0880F991F8B
:101CE0000E943B10D5018D939C93009709F4A7C0E7
:101CF00020E030E011C0C901880F991FD501ED9196
:101D0000FC91E80FF91FD7011E968D919C911F97AA
:101D1000918380832F5F3F4FF701808590E02817E4
:101D200039074CF3C7CFC701B301A2964FADA297B5
:101D30000E94CF0BD70118968C91882E9924A1016F
:101D4000F301A4965FAE4EAEA49760E070E034C09D
:101D50000115110559F0A496AEADBFADA4972D9114
:101D60003C91808191812817390758F480819181B5
:101D7000A496AEADBFADA4978D939C9301151105AC
:101D800041F0DA012D913C91808191818217930776
:101D900028F480819181DA018D939C936F5F7F4F4E
:101DA0004E5F5F4F3296A4968EAD9FADA49702967C
:101DB000A4969FAF8EAFA497681579054CF20F5F7C
:101DC0001F4F0A30110509F0AECF40E050E020E08F
:101DD00030E08E010F5B1F4FBE016F5D7F4F28C04B
:101DE000F801E20FF31F80809180F601A081B1819C
:101DF000A20FB31F8D919C9111978815990510F42E
:101E00008D929C92FB01E20FF31F80809180F5017F
:101E1000A081B181A20FB31F8D919C91119788165B
:101E2000990610F48D929C924F5F5F4F2E5F3F4F4B
:101E3000D70118968C9190E0481759078CF2CD592C
:101E4000DF4FE2E10C9420101F93CF93DF93EC015E
:101E5000162F862F8150823040F4AE014E5F5F4FC7
:101E6000CE01BE0121E00E94220E123011F011239A
:101E700049F4AE014A5F5F4FCE012496BE0120E0D7
:101E80000E94220EDF91CF911F910895682F8091BB
:101E90007D0190917E010E94240F0895A0E0B0E0A2
:101EA000E4E5FFE00C940F108C01F62EE42ED22E08
:101EB00083E290E00E943B10EC01009711F480E077
:101EC0000BC0B8014F2D2E2D0D2D0E94140BD09359
:101ED0007E01C0937D0181E0CDB7DEB7E7E00C94D1
:101EE0002B10A0E0B0E0E7E7FFE00C940E108C01AF
:101EF000D62E7A01C22E84E490E00E943B10EC01C1
:101F0000009711F480E00BC0B8014D2D97010C2D06
:101F10000E94B509D0937E01C0937D0181E0CDB7C9
:101F2000DEB7E8E00C942A10629FD001739FF001A5
:101F3000829FE00DF11D649FE00DF11D929FF00D59
:101F4000839FF00D749FF00D659FF00D9927729F90
:101F5000B00DE11DF91F639FB00DE11DF91FBD011B
:101F6000CF0111240895AA1BBB1B51E107C0AA1F72
:101F7000BB1FA617B70710F0A61BB70B881F991F2A
:101F80005A95A9F780959095BC01CD010895A1E2DD
:101F90001A2EAA1BBB1BFD010DC0AA1FBB1FEE1FE3
:101FA000FF1FA217B307E407F50720F0A21BB30B2E
:101FB000E40BF50B661F771F881F991F1A9469F7AA
:101FC00060957095809590959B01AC01BD01CF0106
:101FD000089597FB092E05260ED057FD04D0D7DFB4
:101FE0000AD0001C38F450954095309521953F4F0C
:101FF0004F4F5F4F0895F6F79095809570956195D6
:102000007F4F8F4F9F4F08952F923F924F925F9235
:102010006F927F928F929F92AF92BF92CF92DF92F8
:10202000EF92FF920F931F93CF93DF93CDB7DEB75D
:10203000CA1BDB0B0FB6F894DEBF0FBECDBF0994F1
:102040002A88398848885F846E847D848C849B8448
:10205000AA84B984C884DF80EE80FD800C811B8156
:10206000AA81B981CE0FD11D0FB6F894DEBF0FBE85
:10207000CDBFED010895CF93DF93BC018230910570
:1020800010F462E070E0A0918101B0918201ED0155
:10209000E0E0F0E040E050E021C0888199818617BF
:1020A000970769F48A819B81309719F09383828323
:1020B00004C09093820180938101FE0134C06817AF
:1020C000790738F44115510519F08417950708F47C
:1020D000AC01FE018A819B819C01E9012097E9F610
:1020E00041155105A9F1CA01861B970B049708F405
:1020F000BA01E0E0F0E02AC08D919C91119784171D
:102100009507F9F46417750781F412968D919C91E7
:102110001397309719F09383828304C090938201C0
:1021200080938101FD0132964FC0CA01861B970B37
:10213000FD01E80FF91F6193719302978D939C93B2
:1021400043C0FD01828193819C01D9011097A1F6C2
:1021500080917F0190918001892B41F480915601FB
:10216000909157019093800180937F014091580195
:10217000509159014115510541F44DB75EB7809119
:10218000540190915501481B590B20917F013091CA
:10219000800124173507B0F4CA01821B930B861700
:1021A000970780F0AB014E5F5F4F8417950750F0A3
:1021B000420F531F5093800140937F01F9016193B7
:1021C000719302C0E0E0F0E0CF01DF91CF9108957C
:1021D000CF93DF93009709F450C0EC0122971B8244
:1021E0001A82A0918101B0918201109709F140E01B
:1021F00050E0AC17BD0708F1BB83AA83FE01219113
:102200003191E20FF31FAE17BF0779F48D919C91C6
:102210001197280F391F2E5F3F4F3983288312965D
:102220008D919C9113979B838A834115510571F47D
:10223000D0938201C093810120C012968D919C9110
:102240001397AD01009711F0DC01D3CFFA01D383CE
:10225000C28321913191E20FF31FCE17DF0769F49A
:1022600088819981280F391F2E5F3F4FFA013183F2
:1022700020838A819B8193838283DF91CF9108950C
:102280000F931F93CF93DF938C01EB01009731F4F1
:102290006115710519F420E030E038C081E090E06C
:1022A0006EE070E00E948C11FC019C01009771F1BE
:1022B00080E88383209771F0D387C28781E8838386
:1022C0008091830190918401892B21F4F093840102
:1022D000E093830101151105C9F0118700878381FF
:1022E000826083838091850190918601892B71F4AE
:1022F000F0938601E0938501809187019091880198
:10230000892B21F4F0938801E0938701C901DF91C3
:10231000CF911F910F9108950F931F93CF93DF9348
:10232000689F8001699F100D789F100D1124C801CE
:102330000E943B10EC01009729F060E070E0A801DA
:102340000E94A811CE01DF91CF911F910F910895A6
:10235000DC0101C06D9341505040E0F70895F894BE
:02236000FFCFAD
:1023620041626F757420746F20696E6974007761C1
:102372006974696E6720666F7220746F702062756F
:1023820074746F6E0061626F757420746F20636184
:102392006C6962726174650067657474696E672046
:1023A20073656E736F722076616C730000000100BA
:0A23B2000200021020008901000063
:00000001FF
