:100000000C9446000C9465000C9465000C946500FB
:100010000C9465000C9465000C9465000C946500CC
:100020000C9465000C9465000C9465000C94FB0323
:100030000C9465000C9465000C9465000C946500AC
:100040000C9465000C9465000C9465000C9465009C
:100050000C9485000C944C020C9465000C94650083
:100060000C9465000C9465000C9465000C9465007C
:100070000C94C1000C9475020C9465000C946500FE
:100080000C9465000C9465000C94650011241FBE4F
:10009000CFEFD0E4DEBFCDBF11E0A0E0B1E0E4E6F9
:1000A000F9E000E00BBF02C007900D92A832B10743
:1000B000D9F711E0A8E2B1E001C01D92AC33B1075D
:1000C000E1F70E947E000C94B0040C940000682FAD
:1000D000E82FF92FDF010D900020E9F7AD01415025
:1000E00050404E1B5F0B82E0792F0E94F80382E0A4
:1000F00060E071E042E00E94F803089583E091E03F
:100100000E94670080E090E008951F920F920FB662
:100110000F920BB60F9211242F938F939F93EF930F
:10012000FF932091C600E0911101F09112013097E8
:1001300081F090910B0180910D01981750F48091FE
:100140000B01E80FF11D208380910B018F5F8093DD
:100150000B0190910B0180910D01981731F4809162
:100160000E01882311F010920B01FF91EF919F91E6
:100170008F912F910F900BBE0F900FBE0F901F907D
:1001800018951F920F920FB60F920BB60F92112473
:100190002F938F939F93EF93FF932091CE00E09145
:1001A0001B01F0911C01309781F090911501809115
:1001B0001701981750F480911501E80FF11D208365
:1001C000809115018F5F80931501909115018091A9
:1001D0001701981731F480911801882311F01092BB
:1001E0001501FF91EF919F918F912F910F900BBE71
:1001F0000F900FBE0F901F901895CF93DF93382F5D
:1002000090E0FC0153E0EE0FFF1F5A95E1F7880FD5
:10021000991FE80FF91FE75FFE4FA681B78110977E
:1002200009F464C0832F90E0FC0123E0EE0FFF1F70
:100230002A95E1F7880F991FE80FF91FE75FFE4F36
:100240002181832F90E0FC0163E0EE0FFF1F6A9590
:10025000E1F7880F991FE80FF91FE75FFE4F8381D1
:10026000281708F043C0332319F0E8ECF0E002C08F
:10027000E0ECF0E0808185FF39C0332319F0CEEC4B
:10028000D0E002C0C6ECD0E0832F90E0FC0143E058
:10029000EE0FFF1F4A95E1F7880F991FE80FF91F2E
:1002A000E75FFE4F8181A80FB11D8C918883832F5A
:1002B00090E0FC0173E0EE0FFF1F7A95E1F7880FE5
:1002C000991FE80FF91FE75FFE4F21812F5F832FF2
:1002D00090E0FC0153E0EE0FFF1F5A95E1F7880F05
:1002E000991FE80FF91FE75FFE4F2183832F90E0EE
:1002F000FC01B3E0EE0FFF1FBA95E1F7880F991FDD
:10030000E80FF91FE75FFE4F86819781892B09F47B
:1003100043C0832F90E0FC0173E0EE0FFF1F7A953E
:10032000E1F7880F991FE80FF91FE75FFE4F218162
:10033000832F90E0FC0153E0EE0FFF1F5A95E1F789
:10034000880F991FE80FF91FE75FFE4F8381281779
:1003500018F5832F90E0FC01B3E0EE0FFF1FBA9574
:10036000E1F7880F991FE80FF91FE75FFE4F8081C3
:10037000882391F4332319F0E9ECF0E002C0E1ECBA
:10038000F0E08081806204C0E9ECF0E080818F7D44
:100390008083DF91CF9108953323B1F7E1ECF0E052
:1003A000F5CF282F90E0FC0153E0EE0FFF1F5A9588
:1003B000E1F7880F991FE80FF91FE75FFE4F77837A
:1003C0006683822F90E0FC01B3E0EE0FFF1FBA9529
:1003D000E1F7880F991FE80FF91FE75FFE4F1182C1
:1003E000822F90E0FC0173E0EE0FFF1F7A95E1F79A
:1003F000880F991FE80FF91FE75FFE4F43832230F4
:1004000009F449C0822F90E0FC0153E0EE0FFF1F7A
:100410005A95E1F7880F991FE80FF91FE75FFE4F24
:1004200086819781892B91F1822F90E0FC01B3E0C6
:10043000EE0FFF1FBA95E1F7880F991FE80FF91F1C
:10044000E75FFE4F8181841708F5822F90E0FC0161
:1004500073E0EE0FFF1F7A95E1F7880F991FE80F01
:10046000F91FE75FFE4F8081882381F4222319F072
:10047000E9ECF0E002C0E1ECF0E08081806204C0D1
:10048000E9ECF0E080818F7D808308952223C1F71D
:10049000E1ECF0E0F7CF08951F920F920FB60F92A4
:1004A0000BB60F9211242F933F934F935F936F934B
:1004B0007F938F939F93AF93BF93EF93FF9380E0CE
:1004C0000E94FD00FF91EF91BF91AF919F918F919D
:1004D0007F916F915F914F913F912F910F900BBE44
:1004E0000F900FBE0F901F9018951F920F920FB68E
:1004F0000F920BB60F9211242F933F934F935F935C
:100500006F937F938F939F93AF93BF93EF93FF93DB
:1005100081E00E94FD00FF91EF91BF91AF919F910B
:100520008F917F916F915F914F913F912F910F909C
:100530000BBE0F900FBE0F901F901895982F823012
:1005400071F0882319F0E9ECF0E002C0E1ECF0E092
:1005500080818F7D8083892F0E94FD000895E09126
:100560002301F09124013097B1F090911E01809108
:100570002001981780F406C080911E018F5F809340
:100580001E01EDCF80911E01E80FF11D80810E94B8
:100590004404882389F708950F931F93CF93DF9323
:1005A000682F823009F49CC0882319F0E9ECF0E050
:1005B00002C0E1ECF0E080818F778083462F50E02D
:1005C000DA01AA0FBB1FCA0123E0880F991F2A95E1
:1005D000E1F7A80FB91FA75FBE4F1896CD91DC9128
:1005E0001997209709F45AC0FA01EE0FFF1FEE0F7A
:1005F000FF1FE40FF51FEE0FFF1FE55FFE4F808129
:1006000014962C91821708F049C0662319F0E8EC83
:10061000F0E002C0E0ECF0E0808187FF3FC066239D
:1006200019F4E6ECF0E002C0EEECF0E09081FA01A3
:10063000EE0FFF1FEE0FFF1FE40FF51FEE0FFF1F62
:10064000E55FFE4F8081821738F48081C80FD11D8D
:10065000988380818F5F8083FA01EE0FFF1FEE0F7A
:10066000FF1FE40FF51FEE0FFF1FE55FFE4F8081B8
:10067000DA01AA0FBB1F9A0113E0220F331F1A954C
:10068000E1F7A20FB31FA75FBE4F14969C9114977A
:10069000891721F415968C9181111082FA01A3E03B
:1006A000EE0FFF1FAA95E1F7440F551FE40FF51F4A
:1006B000E75FFE4F8081882309F059C0662319F057
:1006C000E9ECF0E002C0E1ECF0E08081806880833A
:1006D0004EC080912201882319F010921F0147C05B
:1006E0008091250190912601892B09F440C09091B9
:1006F0001F01809121019817D0F58091280188234E
:10070000A9F40E9459048093280110E00BC00E94B4
:100710005404E02FF0E03197E11BF109E75DFE4F53
:1007200080831F5F00912801101788F3E091280152
:10073000EE23E9F080911F01A0912501B0912601DF
:10074000A80FB11DE150E0932801F0E0E75DFE4FF6
:1007500080818C9380911F018F5F80931F01909106
:100760001F0180912101981709F0BACFB2CFDF9114
:10077000CF911F910F91089580E00E949E0281E029
:100780000E949E0282E00E949E0280E00E94CC02B3
:1007900081E00E94CC0282E00E94CC0208951F9367
:1007A000182F0E94D10102C00E94BC03812F90E04B
:1007B000FC0173E0EE0FFF1F7A95E1F7880F991F98
:1007C000E80FF91FE75FFE4F2181812F90E0FC01C8
:1007D00053E0EE0FFF1F5A95E1F7880F991FE80FBE
:1007E000F91FE75FFE4F83812817F1F61F910895E7
:1007F0000E94CF0308952F928F939F932FB68091DD
:10080000320190913301019680933201909333012C
:1008100090E080913401891F8093340190913A01D6
:100820009C5F90933A018091390180519742C0F0CA
:1008300090933A018093390180913501909136016E
:100840000196809335019093360190E080913701B5
:10085000891F8093370180913801891F8093380167
:100860002FBE9F918F912F90189528EE33E009C0ED
:10087000F9016F9364E06A95F1F76F913197C9F7C9
:1008800001970097A9F708951F93182F881F8827AD
:10089000881F8C5765E00E948604812F8F7765E062
:1008A0000E9486041F9108958FEF64E00E948604E1
:1008B000089583E867E00E9486040E945404089526
:1008C000982F24990CC02C990AC02C9AEEE1F0E0E4
:1008D0006F9364E06A95F1F76F913197C9F784B12E
:1008E000806A84B92698892F837080656C7A862BFC
:1008F0008CBD892F90E09695879596958795817008
:100900008DBD81E090E00E94350408950F931F9300
:10091000082F162F0CB406FC04C080E064E00E948F
:1009200060040CB404FC03C08CB580618CBD0EBDAA
:1009300005C00CB404FC02C080E00FC00DB407FE7B
:10094000F8CF112349F0812F90E06F9364E06A950E
:10095000F1F76F910197C9F78EB51F910F91089527
:04096000F894FFCF39
:100964000D0A00484552524F0000000000000000EC
:100974000000000000000000000000000001000072
:0809840000000000000000006B
:00000001FF
