:100000000C9446000C9465000C9465000C946500FB
:100010000C9465000C9465000C9465000C946500CC
:100020000C9465000C9465000C9465000C946405B8
:100030000C9465000C9465000C9465000C946500AC
:100040000C9465000C9465000C9465000C9465009C
:100050000C9465000C9465000C9465000C9465008C
:100060000C9465000C9465000C9465000C9465007C
:100070000C9465000C9465000C9465000C9465006C
:100080000C9465000C9465000C94650011241FBE4F
:10009000CFEFD0E4DEBFCDBF11E0A0E0B1E0E0EBF8
:1000A000F0E100E00BBF02C007900D92A232B10751
:1000B000D9F711E0A2E2B1E001C01D92A034B1076E
:1000C000E1F70E94D8000C9456080C940000482FC9
:1000D000883068F481E090E002C0880F991F4A954B
:1000E000E2F7282FAAE2B0E0EBE2F0E03EC0803178
:1000F00088F4282F30E02850304081E090E002C0A2
:10010000880F991F2A95E2F7282FA4E2B0E0E5E2D4
:10011000F0E02BC0883188F4282F30E020513040A7
:1001200081E090E002C0880F991F2A95E2F7282FFE
:10013000A7E2B0E0E8E2F0E018C0803230F020E062
:10014000A0E0B0E0E0E0F0E010C02FE130E0281BDC
:10015000310981E090E002C0880F991F2A95E2F7EB
:10016000282FA1E2B0E0E2E2F0E06F3F19F48081D5
:10017000822709C0662319F08081822B04C09081F8
:10018000822F8095892380838C91822B8C93089574
:10019000FC0120E030E08081882311F421E030E090
:1001A000C9010895FC0181E08083089508950895B0
:1001B000CF93DF9381E160E00E94670080E091E0EF
:1001C0000E94E60380EA9FE00E94CF050E94DA02C7
:1001D0008DE091E00E94E603C0E0D0E080E161E0C4
:1001E0000E94670082E090E00E94CF0580E160E01D
:1001F0000E94670082E090E00E94CF05219689E18D
:10020000C030D80759F780E090E0DF91CF91089592
:100210000E948F0708950E94E206089508950895A8
:1002200080E090E00895EF92FF920F931F9367B1E3
:100230003D982898299AE0902601F0902701009196
:1002400028011091290120E030E041E050E0CA018E
:100250006F9364E06A95F1F76F910197C9F72A9A55
:10026000CA016F9364E06A95F1F76F910197C9F73E
:1002700086B12A98FA016F9364E06A95F1F76F915D
:100280003197C9F72A9AFA016F9364E06A95F1F7FA
:100290006F913197C9F72A982C5F3F4F85FF09C0AE
:1002A000C901A0E0B0E08E159F05A007B10708F4D2
:1002B000CECFC901A0E0B0E08E159F05A007B10721
:1002C00028F082E390E0A0E0B0E004C080E395E78E
:1002D000A0E0B0E08093260190932701A09328012D
:1002E000B093290167B91F910F91FF90EF90089586
:1002F00028B190E08F709070880F991F880F991F18
:10030000237C282B28B92A9A81E090E0FC016F9386
:1003100064E06A95F1F76F913197C9F72A986F9366
:1003200064E06A95F1F76F910197C9F7089580919C
:10033000220190912301009711F00E948F07809174
:10034000190190E0019720911A0130E0AC01429F21
:10035000C001439F900D529F900D11240E94E20610
:100360009093230180932201009729F160E070E2CD
:1003700008C0E0912201F0912301E40FF51F708382
:100380006F5F462F50E08091190190E00197209116
:100390001A0130E0FC01E29FC001E39F900DF29F43
:1003A000900D11244817590724F38CEF93E060E176
:1003B00071E00E94E707089580931A016093190184
:1003C0000E949701089580931A01609319010E9479
:1003D000970108950E94970108953D98459A80E3FA
:1003E00095E7A0E0B0E08093260190932701A093C9
:1003F0002801B0932901209A219A229A8EE190E057
:100400000E94CF0583E00E94420586E090E00E94B2
:10041000CF0583E00E94420582E090E00E94CF0574
:1004200083E00E94420582E090E00E94CF0582E0D6
:100430000E94420582E090E00E94CF0588E20E947F
:100440008C0288E00E948C0281E00E948C0286E08F
:100450000E948C028CE00E948C02089580912A01F7
:10046000882329F481E080932A010E94ED010895F8
:10047000FF920F931F93082F162FF42E0E942E0227
:100480000E94130137B128B12998112311F0289A3D
:1004900001C0289887B18C6387B981E0F816E1F034
:1004A00088B1902F92959F70990F990F837C982B0C
:1004B00098B92A9A81E090E0FC016F9364E06A9514
:1004C000F1F76F913197C9F72A986F9364E06A95B5
:1004D000F1F76F910197C9F788B10F70000F000F06
:1004E000837C802B88B92A9A81E090E0FC016F938D
:1004F00064E06A95F1F76F913197C9F72A986F9385
:1005000064E06A95F1F76F910197C9F737B928B997
:100510001F910F91FF90089560E042E00E94380221
:1005200008950F931F93082F162F08C0002311F46E
:1005300080E101C084E10E948C0211501123B1F7C7
:100540001F910F9108950E94910208958CE00E94DE
:100550008C0208950E94A6020895813011F48FE064
:1005600001C08EE00E948C0208950E94AD020895A1
:10057000A4E0B0E0EEEBF2E00C94B906182F062FE1
:1005800080E8898380EC8A8384E98B8384ED8C8383
:10059000FE01E60FF11D8181810F0E948C021093F4
:1005A0002501009324012496E4E00C94D5060E94D2
:1005B000B802089581E00E948C02809122019091FE
:1005C0002301892B19F160E070E208C0E09122015B
:1005D000F0912301E40FF51F70836F5F462F50E009
:1005E0008091190190E0019720911A0130E0FC01FF
:1005F000E29FC001E39F900DF29F900D11244817D8
:10060000590724F3109225011092240108950E94A5
:10061000DA02089561E042E00E94380208950F93E3
:100620001F93CF93DF9300E010E8C82FD0E0812F15
:1006300090E08C239D23892B11F081E301C080E39E
:100640000E940A030F5F083011F01695F0CFDF917A
:10065000CF911F910F9108950E940F0308958A3042
:1006600010F4805D01C0895C0E940A0308951F9305
:10067000182F82958F700E942F03812F8F700E94F8
:100680002F031F9108951F93182F892F0E9437035E
:10069000812F0E9437031F9108950E9443030895FC
:1006A0000E94370308956F927F928F929F92AF922C
:1006B000BF92CF92DF92FF920F93DF93CF93CDB78C
:1006C000DEB72A970FB6F894DEBF0FBECDBF5B0131
:1006D0006C010AE03E010894611C711CFA2CC601F1
:1006E000B5012AE030E040E050E00E948906C901EF
:1006F000DA015C016D0101504301800E911C80E321
:10070000F80EC601B5012AE030E040E050E00E945A
:100710006A06F61AF401F082A114B104C104D104EE
:10072000E9F608C0F601E00FF11D80810E940A037E
:100730000F5F04C06E010894C11CD11C0A3090F3F5
:100740002A960FB6F894DEBF0FBECDBFCF91DF91D2
:100750000F91FF90DF90CF90BF90AF909F908F90C0
:100760007F906F9008950E9453030895EF92FF9237
:100770000F931F937B018C0197FF0BC01095009581
:10078000F094E094E11CF11C011D111D8DE20E940A
:100790000A03C801B7010E9453031F910F91FF90F4
:1007A000EF9008950E94B6030895CF93DF93EC0174
:1007B00003C00E940A032196FE0184918823C9F791
:1007C000DF91CF9108950E94D5030895CF93DF93D1
:1007D000EC0103C021960E940A0388818823D1F787
:1007E000DF91CF9108950E94E60308950E940A03C5
:1007F00008950E940A030895A0E0B0E0E2E0F4E06A
:100800000C94B506E82E8091220190912301892B4A
:1008100009F405C12AE0E21609F446C038E0E316FF
:10082000C9F4809125018150809325018F3F51F4B7
:100830008091240181508093240180911A0181507C
:1008400080932501809124018F3F09F0E2C010922E
:100850002401DDC08E2D0E940A0320912401222351
:10086000C9F030E02150304080911A0190E0AC0195
:10087000249FC001259F900D349F900D112420913D
:100880002501E0912201F0912301E80FF91FE20F09
:10089000F11DE082809125018F5F80932501909169
:1008A0001A01891709F0BBC040912401242F30E0C0
:1008B0008091190190E001972817390709F0A4C029
:1008C000C0E0D0E044C080E06C2F0E94B802FF245A
:1008D0006E010894C11CD11C35C00F2D10E090E0B2
:1008E0009C01C29FC001C39F900DD29F900D112407
:1008F000E0912201F0912301E00FF11FE80FF91FB1
:1009000080810E940A03E0912201F09123018091ED
:100910001A0190E0C89FD001C99FB00DD89FB00DBB
:100920001124E00FF11FAE0FBF1FAC01C49EC00128
:10093000C59E900DD49E900D1124E80FF91F808163
:100940008C93F39480911A01F81638F2E6016091C5
:100950001901862F90E00297C817D9070CF4B3CF7E
:10096000623008F440C0625080E00E94B802FF2468
:1009700040E2D42E34C00F2D10E08091190190E098
:10098000029730E0AC01429FC001439F900D529FFF
:10099000900D1124E0912201F0912301E00FF11F4D
:1009A000E80FF91F80810E940A032091190130E0AD
:1009B0002250304080911A0190E0AC01249FC00188
:1009C000259F900D349F900D1124E0912201F0910C
:1009D0002301E00FF11FE80FF91FD082F39420915B
:1009E0001A01F21640F260911901615080E00E94F4
:1009F000B80200E004C080E20E940A030F5F809109
:100A00001A010817C0F303C04F5F409324011092EE
:100A1000250180912501609124010E94B8022E2DAC
:100A2000332727FD3095C901CDB7DEB7E8E00C9438
:100A3000D106EF92FF920F931F93CF93DF937C0128
:100A4000062F10E053E0000F111F5A95E1F7C0E0A8
:100A5000D0E09E01200F822F80640E948C02F7015B
:100A6000EC0FFD1FE4918E2F0E940A032196C830DF
:100A7000D10579F7CDB7DEB7E6E00C94D3060E9436
:100A80001905089560E041E00E94380208950F932F
:100A90001F93CF93DF93082F162FEA010BC000237B
:100AA00011F488E101C08CE10E948C02CE010E9409
:100AB000CF051150112399F7DF91CF911F910F911D
:100AC00008950E94470508952F928F939F932FB604
:100AD00080912C0190912D01019680932C0190938F
:100AE0002D0190E080912E01891F80932E0190911D
:100AF00034019C5F9093340180913301805197427F
:100B0000C0F0909334018093330180912F01909134
:100B10003001019680932F019093300190E08091F5
:100B20003101891F8093310180913201891F8093A7
:100B300032012FBE9F918F912F9018956F5F7F4F3D
:100B40008F4F9F4F660F771F881F991F25E030E05A
:100B500040E050E00E948906CA01B901089528EEDC
:100B600033E009C0F9016F9364E06A95F1F76F9182
:100B70003197C9F701970097A9F708956F5F7F4FE5
:100B80008F4F9F4F660F771F881F991F25E030E01A
:100B900040E050E00E948906CA01B901089528EE9C
:100BA00033E009C0F9016F9364E06A95F1F76F9142
:100BB0003197C9F701970097A9F70895A0E7B0E02A
:100BC0008C918E7F8C93E0EBF0E08081836080835A
:100BD000E1EBF0E08081807F808380818260808390
:100BE000B89A8C9181608C937894089580913501A6
:100BF000882329F481E0809335010E94DE05089561
:100C00000E94F605E0E7F0E080818E7F80832091EE
:100C10002F0130913001409131015091320180819A
:100C200081608083B901CA0108950E940006089579
:100C30000E94F605809170008E7F80937000609115
:100C4000B20080912B0190912C01A0912D01B091C7
:100C50002E01B89905C0262F30E040E050E011C0C9
:100C60008091B20020912B0130912C0140912D01F7
:100C700050912E0120503F4F4F4F5F4F90E0A0E02A
:100C8000B0E0282B392B4A2B5B2B809170008160C0
:100C900080937000B901CA0108950E941806089552
:100CA0000E94F605E0E7F0E080818E7F808310925D
:100CB0002F011092300110923101109232011092E6
:100CC00034011092330180818160808308950E94F5
:100CD00050060895629FD001739FF001829FE00D3E
:100CE000F11D649FE00DF11D929FF00D839FF00DAB
:100CF000749FF00D659FF00D9927729FB00DE11D57
:100D0000F91F639FB00DE11DF91FBD01CF01112433
:100D10000895A1E21A2EAA1BBB1BFD010DC0AA1F3C
:100D2000BB1FEE1FFF1FA217B307E407F50720F054
:100D3000A21BB30BE40BF50B661F771F881F991FCF
:100D40001A9469F760957095809590959B01AC0118
:100D5000BD01CF0108952F923F924F925F926F9203
:100D60007F928F929F92AF92BF92CF92DF92EF923B
:100D7000FF920F931F93CF93DF93CDB7DEB7CA1BBC
:100D8000DB0B0FB6F894DEBF0FBECDBF09942A88E7
:100D9000398848885F846E847D848C849B84AA848F
:100DA000B984C884DF80EE80FD800C811B81AA811C
:100DB000B981CE0FD11D0FB6F894DEBF0FBECDBFE7
:100DC000ED010895CF93DF93BC018230910510F4BB
:100DD00062E070E0A0913801B0913901ED01E0E0EE
:100DE000F0E040E050E021C08881998186179707A4
:100DF00069F48A819B81309719F09383828304C0C0
:100E00009093390180933801FE0134C06817790747
:100E100038F44115510519F08417950708F4AC0111
:100E2000FE018A819B819C01E9012097E9F6411529
:100E30005105A9F1CA01861B970B049708F4BA0162
:100E4000E0E0F0E02AC08D919C91119784179507FE
:100E5000F9F46417750781F412968D919C9113979C
:100E6000309719F09383828304C090933901809363
:100E70003801FD0132964FC0CA01861B970BFD0158
:100E8000E80FF91F6193719302978D939C9343C070
:100E9000FD01828193819C01D9011097A1F6809177
:100EA000360190913701892B41F480911D01909179
:100EB0001E01909337018093360140911F0150919C
:100EC00020014115510541F44DB75EB780911B01DA
:100ED00090911C01481B590B20913601309137012C
:100EE00024173507B0F4CA01821B930B86179707A6
:100EF00080F0AB014E5F5F4F8417950750F0420FB3
:100F0000531F5093370140933601F9016193719358
:100F100002C0E0E0F0E0CF01DF91CF910895CF93E0
:100F2000DF93009709F450C0EC0122971B821A82CC
:100F3000A0913801B0913901109709F140E050E0DB
:100F4000AC17BD0708F1BB83AA83FE012191319143
:100F5000E20FF31FAE17BF0779F48D919C911197A3
:100F6000280F391F2E5F3F4F3983288312968D91AA
:100F70009C9113979B838A834115510571F4D093FB
:100F80003901C093380120C012968D919C9113971E
:100F9000AD01009711F0DC01D3CFFA01D383C283F6
:100FA00021913191E20FF31FCE17DF0769F4888199
:100FB0009981280F391F2E5F3F4FFA01318320831B
:100FC0008A819B8193838283DF91CF9108950F93D0
:100FD0001F93CF93DF938C01EB01009731F46115E0
:100FE000710519F420E030E038C081E090E06EE057
:100FF00070E00E943308FC019C01009771F180E8C9
:101000008383209771F0D387C28781E8838380919F
:101010003A0190913B01892B21F4F0933B01E0933D
:101020003A0101151105C9F011870087838182609B
:10103000838380913C0190913D01892B71F4F09361
:101040003D01E0933C0180913E0190913F01892B4D
:1010500021F4F0933F01E0933E01C901DF91CF916C
:101060001F910F9108950F931F93CF93DF93689F64
:101070008001699F100D789F100D1124C8010E94F6
:10108000E206EC01009729F060E070E0A8010E9400
:101090004F08CE01DF91CF911F910F910895DC0190
:1010A00001C06D9341505040E0F70895F894FFCF90
:1010B000537461727420776169742E2000537461D7
:1010C0007274206D6F746F72000210200040010076
:0210D00000001E
:00000001FF
