:100000000C9446000C9465000C9465000C946500FB
:100010000C9465000C9465000C9465000C946500CC
:100020000C9465000C9465000C9465000C94DD053F
:100030000C9465000C9465000C9465000C946500AC
:100040000C9465000C9465000C9465000C9465009C
:100050000C9465000C9465000C9465000C9465008C
:100060000C9465000C9465000C9465000C9465007C
:100070000C9465000C9465000C9465000C9465006C
:100080000C9465000C9465000C94650011241FBE4F
:10009000CFEFD0E4DEBFCDBF11E0A0E0B1E0E2EAF7
:1000A000F1E100E00BBF02C007900D92A833B10749
:1000B000D9F711E0A8E3B1E001C01D92A835B1075E
:1000C000E1F70E9477000C94CF080C940000FC012B
:1000D00020E030E08081882311F421E030E0C90184
:1000E0000895FC0181E080830895089508951F9389
:1000F000CF93DF9310923801109239010E9453037D
:1001000080E091E00E945F0488EE93E00E94480640
:100110000E94020187E091E00E945F0482E40E9455
:100120000801182F0E9453038DE091E00E945F04A4
:10013000112359F084E191E00E945F040E9459016B
:100140008AE191E00E945F0452C080E291E00E9447
:100150005F0485E291E00E945F0486E00E946101F5
:1001600080E00E94610180E00E9461010E945901CB
:1001700082E40E94080185E580933801809139016D
:10018000887F85608093390188EE93E00E9448065D
:100190000E945303C0E0D0E090913901C0FD06C039
:1001A00085E580933801987F956005C08AEA809341
:1001B0003801987F92609093390182E00E9461013A
:1001C000809138010E946101809139010E94610192
:1001D0000E94590188E893E10E94480682E40E9447
:1001E00008012196C630D105B9F60E9459018CE26A
:1001F00091E00E945F04FFCF0E94080808950E94CA
:100200005B0708951092B9008CE08093B8000895C0
:10021000982F84EA8093BC008091BC0087FFFCCFBC
:100220008091B900887F883021F0803111F081E021
:1002300008959093BB0084E88093BC008091BC003B
:1002400087FFFCCF9091B900987F983111F480E03E
:10025000089580E0903409F081E00895982F44EAF1
:1002600034E824E94093BC008091BC0087FFFCCFB8
:100270008091B900887F883011F0803199F7909390
:10028000BB003093BC008091BC0087FFFCCF809105
:10029000B900887F803211F0883539F42093BC0092
:1002A0008091BC0084FDFCCFDDCF08950E94080141
:1002B000089584E98093BC008091BC0084FDFCCF4C
:1002C00008958093BB0084E88093BC008091BC00BB
:1002D00087FFFCCF8091B90090E0887F883209F0D9
:1002E00091E0892F089584EC8093BC008091BC003C
:1002F00087FFFCCF8091BB00089584E88093BC0009
:100300008091BC0087FFFCCF8091BB0008950895C9
:10031000089580E090E00895EF92FF920F931F936D
:1003200067B13D982898299AE0903E01F0903F01EE
:10033000009140011091410120E030E041E050E0A7
:10034000CA016F9364E06A95F1F76F910197C9F75D
:100350002A9ACA016F9364E06A95F1F76F91019749
:10036000C9F786B12A98FA016F9364E06A95F1F7AC
:100370006F913197C9F72A9AFA016F9364E06A95F1
:10038000F1F76F913197C9F72A982C5F3F4F85FF9E
:1003900009C0C901A0E0B0E08E159F05A007B10714
:1003A00008F4CECFC901A0E0B0E08E159F05A007EC
:1003B000B10728F082E390E0A0E0B0E004C080E361
:1003C00095E7A0E0B0E080933E0190933F01A093B9
:1003D0004001B093410167B91F910F91FF90EF90D9
:1003E000089528B190E08F709070880F991F880F42
:1003F000991F237C282B28B92A9A81E090E0FC01E0
:100400006F9364E06A95F1F76F913197C9F72A9875
:100410006F9364E06A95F1F76F910197C9F70895BA
:1004200080913A0190913B01009711F00E940808D9
:100430008091300190E001972091310130E0AC01D2
:10044000429FC001439F900D529F900D11240E9426
:100450005B0790933B0180933A01009729F160E09C
:1004600070E208C0E0913A01F0913B01E40FF51F02
:1004700070836F5F462F50E08091300190E00197CC
:100480002091310130E0FC01E29FC001E39F900D1B
:10049000F29F900D11244817590724F385E794E043
:1004A00069E871E00E9460080895809331016093CB
:1004B00030010E9410020895809331016093300151
:1004C0000E94100208950E94100208953D98459AD6
:1004D00080E395E7A0E0B0E080933E0190933F0178
:1004E000A0934001B0934101209A219A229A8EE173
:1004F00090E00E94480683E00E94BB0586E090E001
:100500000E94480683E00E94BB0582E090E00E94C2
:10051000480683E00E94BB0582E090E00E94480606
:1005200082E00E94BB0582E090E00E94480688E2DB
:100530000E94050388E00E94050381E00E940503F4
:1005400086E00E9405038CE00E94050308958091D7
:100550004201882329F481E0809342010E946602CF
:100560000895FF920F931F93082F162FF42E0E94C9
:10057000A7020E948C0137B128B12998112311F0EC
:10058000289A01C0289887B18C6387B981E0F81652
:10059000E1F088B1902F92959F70990F990F837C0D
:1005A000982B98B92A9A81E090E0FC016F9364E05F
:1005B0006A95F1F76F913197C9F72A986F9364E0C4
:1005C0006A95F1F76F910197C9F788B10F70000F25
:1005D000000F837C802B88B92A9A81E090E0FC018F
:1005E0006F9364E06A95F1F76F913197C9F72A9894
:1005F0006F9364E06A95F1F76F910197C9F737B986
:1006000028B91F910F91FF90089560E042E00E9489
:10061000B10208950F931F93082F162F08C00023CF
:1006200011F480E101C084E10E94050311501123FF
:10063000B1F71F910F9108950E940A0308958CE06D
:100640000E94050308950E941F030895813011F44C
:100650008FE001C08EE00E94050308950E942603EA
:100660000895A4E0B0E0E7E3F3E00C943207182F1C
:10067000062F80E8898380EC8A8384E98B8384ED6C
:100680008C83FE01E60FF11D8181810F0E9405031D
:1006900010933D0100933C012496E4E00C944E0736
:1006A0000E943103089581E00E94050380913A0180
:1006B00090913B01892B19F160E070E208C0E09154
:1006C0003A01F0913B01E40FF51F70836F5F462FF5
:1006D00050E08091300190E001972091310130E0AD
:1006E000FC01E29FC001E39F900DF29F900D112449
:1006F0004817590724F310923D0110923C010895C8
:100700000E945303089561E042E00E94B1020895FF
:100710000F931F93CF93DF9300E010E8C82FD0E032
:10072000812F90E08C239D23892B11F081E301C060
:1007300080E30E9483030F5F083011F01695F0CF1D
:10074000DF91CF911F910F9108950E948803089522
:100750008A3010F4805D01C0895C0E948303089593
:100760001F93182F82958F700E94A803812F8F707E
:100770000E94A8031F9108951F93182F892F0E948C
:10078000B003812F0E94B0031F9108950E94BC0303
:1007900008950E94B00308956F927F928F929F9266
:1007A000AF92BF92CF92DF92FF920F93DF93CF93DE
:1007B000CDB7DEB72A970FB6F894DEBF0FBECDBF18
:1007C0005B016C010AE03E010894611C711CFA2C6B
:1007D000C601B5012AE030E040E050E00E94020787
:1007E000C901DA015C016D0101504301800E911CC9
:1007F00080E3F80EC601B5012AE030E040E050E0A9
:100800000E94E306F61AF401F082A114B104C104B7
:10081000D104E9F608C0F601E00FF11D80810E94C5
:1008200083030F5F04C06E010894C11CD11C0A3001
:1008300090F32A960FB6F894DEBF0FBECDBFCF91CE
:10084000DF910F91FF90DF90CF90BF90AF909F907E
:100850008F907F906F9008950E94CC030895EF923F
:10086000FF920F931F937B018C0197FF0BC0109594
:100870000095F094E094E11CF11C011D111D8DE226
:100880000E948303C801B7010E94CC031F910F91FE
:10089000FF90EF9008950E942F040895CF93DF9367
:1008A000EC0103C00E9483032196FE0184918823FA
:1008B000C9F7DF91CF9108950E944E040895CF9318
:1008C000DF93EC0103C021960E9483038881882373
:1008D000D1F7DF91CF9108950E945F0408950E949F
:1008E000830308950E9483030895A0E0B0E0EBE73E
:1008F000F4E00C942E07E82E80913A0190913B0190
:10090000892B09F405C12AE0E21609F446C038E053
:10091000E316C9F480913D01815080933D018F3FE2
:1009200051F480913C01815080933C0180913101D0
:10093000815080933D0180913C018F3F09F0E2C0DE
:1009400010923C01DDC08E2D0E94830320913C015A
:100950002223C9F030E0215030408091310190E0F5
:10096000AC01249FC001259F900D349F900D112450
:1009700020913D01E0913A01F0913B01E80FF91F10
:10098000E20FF11DE08280913D018F5F80933D0178
:1009900090913101891709F0BBC040913C01242F8F
:1009A00030E08091300190E001972817390709F075
:1009B000A4C0C0E0D0E044C080E06C2F0E943103AE
:1009C000FF246E010894C11CD11C35C00F2D10E00E
:1009D00090E09C01C29FC001C39F900DD29F900DDB
:1009E0001124E0913A01F0913B01E00FF11FE80F73
:1009F000F91F80810E948303E0913A01F0913B014D
:100A00008091310190E0C89FD001C99FB00DD89F5F
:100A1000B00D1124E00FF11FAE0FBF1FAC01C49E3B
:100A2000C001C59E900DD49E900D1124E80FF91FB2
:100A300080818C93F39480913101F81638F2E601AD
:100A400060913001862F90E00297C817D9070CF407
:100A5000B3CF623008F440C0625080E00E9431039E
:100A6000FF2440E2D42E34C00F2D10E080913001DD
:100A700090E0029730E0AC01429FC001439F900D8F
:100A8000529F900D1124E0913A01F0913B01E00F4B
:100A9000F11FE80FF91F80810E948303209130012C
:100AA00030E0225030408091310190E0AC01249F31
:100AB000C001259F900D349F900D1124E0913A01C3
:100AC000F0913B01E00FF11FE80FF91FD082F39482
:100AD00020913101F21640F260913001615080E0C6
:100AE0000E94310300E004C080E20E9483030F5F94
:100AF000809131010817C0F303C04F5F40933C0160
:100B000010923D0180913D0160913C010E943103B2
:100B10002E2D332727FD3095C901CDB7DEB7E8E08C
:100B20000C944A07EF92FF920F931F93CF93DF939A
:100B30007C01062F10E053E0000F111F5A95E1F7DA
:100B4000C0E0D0E09E01200F822F80640E94050348
:100B5000F701EC0FFD1FE4918E2F0E948303219675
:100B6000C830D10579F7CDB7DEB7E6E00C944C0775
:100B70000E949205089560E041E00E94B10208954C
:100B80000F931F93CF93DF93082F162FEA010BC00B
:100B9000002311F488E101C08CE10E940503CE011D
:100BA0000E9448061150112399F7DF91CF911F91B0
:100BB0000F9108950E94C00508952F928F939F93DF
:100BC0002FB6809144019091450101968093440194
:100BD0009093450190E080914601891F80934601E2
:100BE00090914C019C5F90934C0180914B018051FE
:100BF0009742C0F090934C0180934B018091470144
:100C0000909148010196809347019093480190E0AC
:100C100080914901891F8093490180914A01891F70
:100C200080934A012FBE9F918F912F9018956F5FEF
:100C30007F4F8F4F9F4F660F771F881F991F25E0AB
:100C400030E040E050E00E940207CA01B901089577
:100C500028EE33E009C0F9016F9364E06A95F1F77B
:100C60006F913197C9F701970097A9F708956F5FC2
:100C70007F4F8F4F9F4F660F771F881F991F25E06B
:100C800030E040E050E00E940207CA01B901089537
:100C900028EE33E009C0F9016F9364E06A95F1F73B
:100CA0006F913197C9F701970097A9F70895A0E7C9
:100CB000B0E08C918E7F8C93E0EBF0E080818360DC
:100CC0008083E1EBF0E08081807F8083808182609F
:100CD0008083B89A8C9181608C93789408958091E8
:100CE0004D01882329F481E080934D010E9457062D
:100CF00008950E946F06E0E7F0E080818E7F808398
:100D000020914701309148014091490150914A0199
:100D1000808181608083B901CA0108950E947906AB
:100D200008950E946F06809170008E7F80937000FE
:100D30006091B2008091430190914401A0914501DE
:100D4000B0914601B89905C0262F30E040E050E050
:100D500011C08091B2002091430130914401409133
:100D600045015091460120503F4F4F4F5F4F90E05B
:100D7000A0E0B0E0282B392B4A2B5B2B8091700030
:100D8000816080937000B901CA0108950E949106A4
:100D900008950E946F06E0E7F0E080818E7F8083F7
:100DA00010924701109248011092490110924A0195
:100DB00010924C0110924B018081816080830895D4
:100DC0000E94C9060895629FD001739FF001829F1F
:100DD000E00DF11D649FE00DF11D929FF00D839FCA
:100DE000F00D749FF00D659FF00D9927729FB00D67
:100DF000E11DF91F639FB00DE11DF91FBD01CF017A
:100E000011240895A1E21A2EAA1BBB1BFD010DC0DF
:100E1000AA1FBB1FEE1FFF1FA217B307E407F507AA
:100E200020F0A21BB30BE40BF50B661F771F881F86
:100E3000991F1A9469F760957095809590959B011C
:100E4000AC01BD01CF0108952F923F924F925F9266
:100E50006F927F928F929F92AF92BF92CF92DF92CA
:100E6000EF92FF920F931F93CF93DF93CDB7DEB72F
:100E7000CA1BDB0B0FB6F894DEBF0FBECDBF0994C3
:100E80002A88398848885F846E847D848C849B841A
:100E9000AA84B984C884DF80EE80FD800C811B8128
:100EA000AA81B981CE0FD11D0FB6F894DEBF0FBE57
:100EB000CDBFED010895CF93DF93BC018230910542
:100EC00010F462E070E0A0915001B0915101ED0189
:100ED000E0E0F0E040E050E021C088819981861791
:100EE000970769F48A819B81309719F093838283F5
:100EF00004C09093510180935001FE0134C06817E3
:100F0000790738F44115510519F08417950708F44D
:100F1000AC01FE018A819B819C01E9012097E9F6E1
:100F200041155105A9F1CA01861B970B049708F4D6
:100F3000BA01E0E0F0E02AC08D919C9111978417EE
:100F40009507F9F46417750781F412968D919C91B9
:100F50001397309719F09383828304C090935101C3
:100F600080935001FD0132964FC0CA01861B970B3A
:100F7000FD01E80FF91F6193719302978D939C9384
:100F800043C0FD01828193819C01D9011097A1F694
:100F900080914E0190914F01892B41F48091340151
:100FA0009091350190934F0180934E01409136010D
:100FB000509137014115510541F44DB75EB780910D
:100FC000320190913301481B590B20914E01309111
:100FD0004F0124173507B0F4CA01821B930B861703
:100FE000970780F0AB014E5F5F4F8417950750F075
:100FF000420F531F50934F0140934E01F9016193EB
:10100000719302C0E0E0F0E0CF01DF91CF9108954D
:10101000CF93DF93009709F450C0EC0122971B8215
:101020001A82A0915001B0915101109709F140E04E
:1010300050E0AC17BD0708F1BB83AA83FE012191E4
:101040003191E20FF31FAE17BF0779F48D919C9198
:101050001197280F391F2E5F3F4F3983288312962F
:101060008D919C9113979B838A834115510571F44F
:10107000D0935101C093500120C012968D919C9144
:101080001397AD01009711F0DC01D3CFFA01D383A0
:10109000C28321913191E20FF31FCE17DF0769F46C
:1010A00088819981280F391F2E5F3F4FFA013183C4
:1010B00020838A819B8193838283DF91CF910895DE
:1010C0000F931F93CF93DF938C01EB01009731F4C3
:1010D0006115710519F420E030E038C081E090E03E
:1010E0006EE070E00E94AC08FC019C01009771F179
:1010F00080E88383209771F0D387C28781E8838358
:101100008091520190915301892B21F4F093530166
:10111000E093520101151105C9F011870087838101
:10112000826083838091540190915501892B71F4E1
:10113000F0935501E093540180915601909157012D
:10114000892B21F4F0935701E0935601C901DF91F7
:10115000CF911F910F9108950F931F93CF93DF931A
:10116000689F8001699F100D789F100D1124C801A0
:101170000E945B07EC01009729F060E070E0A80195
:101180000E94C808CE01DF91CF911F910F91089561
:10119000DC0101C06D9341505040E0F70895F89490
:0211A000FFCF7F
:1011A200424547494E2000494E495420005354417C
:1011B200525420004E41434B200053544F502000C4
:1011C20041434B200042494E49542000454E4400C1
:0811D20002102000580100008A
:00000001FF
