:100000000C9446000C9465000C9465000C946500FB
:100010000C9465000C9465000C9465000C946500CC
:100020000C9465000C9465000C9465000C94E60536
:100030000C9465000C9465000C9465000C946500AC
:100040000C9465000C9465000C9465000C9465009C
:100050000C9465000C9465000C9465000C9465008C
:100060000C9465000C9465000C9465000C9465007C
:100070000C9465000C9465000C9465000C9465006C
:100080000C9465000C9465000C94650011241FBE4F
:10009000CFEFD0E4DEBFCDBF11E0A0E0B1E0E2E001
:1000A000F2E100E00BBF02C007900D92AC30B10747
:1000B000D9F711E0ACE0B1E001C01D92AB32B1075D
:1000C000E1F70E941A010C94FF080C940000482FDD
:1000D000883068F481E090E002C0880F991F4A954B
:1000E000E2F7282FAAE2B0E0EBE2F0E03EC0803178
:1000F00088F4282F30E02850304081E090E002C0A2
:10010000880F991F2A95E2F7282FA4E2B0E0E5E2D4
:10011000F0E02BC0883188F4282F30E020513040A7
:1001200081E090E002C0880F991F2A95E2F7282FFE
:10013000A7E2B0E0E8E2F0E018C0803230F020E062
:10014000A0E0B0E0E0E0F0E010C02FE130E0281BDC
:10015000310981E090E002C0880F991F2A95E2F7EB
:10016000282FA1E2B0E0E2E2F0E06F3F19F48081D5
:10017000822709C0662319F08081822B04C09081F8
:10018000822F8095892380838C91822B8C93089574
:10019000FC0120E030E08081882311F421E030E090
:1001A000C9010895FC0181E08083089508950895B0
:1001B000EF92FF920F931F93CF93DF9324E630E0EB
:1001C000829FE001839FD00D929FD00D1124629FEA
:1001D0007001639FF00C729FF00C1124429F80010C
:1001E000439F100D529F100D1124E1E0F0E022E03A
:1001F00030E015C0CE01B9010E940B07892B69F4CC
:10020000C701B9010E940B07892B39F4C801B90154
:100210000E940B07892B09F4F9012F5F3F4FC2178A
:10022000D30744F7CF01DF91CF911F910F91FF903A
:10023000EF900895CF92DF92EF92FF920F931F936A
:10024000CF93DF9380E091E00E94680482E1809385
:100250000C0160E47FE180E090E00E94380460914E
:100260000C0170E0882777FD8095982F0E94380454
:1002700085E090E066E070E042E050E00E94D80047
:1002800064E670E00E940B076B0180E49FE10E942E
:100290000B077B0100E010E02FC082E090E0B60188
:1002A0000E940B07EB01C80165E070E00E940B079C
:1002B000B6010E940B076C177D071CF480E061E01B
:1002C00002C080E060E00E946700C80166E070E064
:1002D0000E940B07B6010E940B076C177D071CF4E8
:1002E00081E061E002C081E060E00E946700C60139
:1002F0000E9451060F5F1F4F0E151F0574F280E01C
:1003000090E0DF91CF911F910F91FF90EF90DF90E0
:10031000CF9008950E94380808950E948B07089591
:100320000895089580E090E00895EF92FF920F9372
:100330001F9367B13D982898299AE0901101F09099
:100340001201009113011091140120E030E041E00E
:1003500050E0CA016F9364E06A95F1F76F910197DD
:10036000C9F72A9ACA016F9364E06A95F1F76F9111
:100370000197C9F786B12A98FA016F9364E06A95EC
:10038000F1F76F913197C9F72A9AFA016F9364E0F8
:100390006A95F1F76F913197C9F72A982C5F3F4F13
:1003A00085FF09C0C901A0E0B0E08E159F05A00738
:1003B000B10708F4CECFC901A0E0B0E08E159F05CB
:1003C000A007B10728F082E390E0A0E0B0E004C00D
:1003D00080E395E7A0E0B0E08093110190931201D3
:1003E000A0931301B093140167B91F910F91FF906F
:1003F000EF90089528B190E08F709070880F991F4A
:10040000880F991F237C282B28B92A9A81E090E035
:10041000FC016F9364E06A95F1F76F913197C9F72A
:100420002A986F9364E06A95F1F76F910197C9F785
:10043000089580910D0190910E01009711F00E9496
:1004400038088091030190E001972091040130E089
:10045000AC01429FC001439F900D529F900D11240B
:100460000E948B0790930E0180930D01009729F154
:1004700060E070E208C0E0910D01F0910E01E40F20
:10048000F51F70836F5F462F50E08091030190E06D
:1004900001972091040130E0FC01E29FC001E39F3D
:1004A000900DF29F900D11244817590724F38EE701
:1004B00094E062E971E00E9490080895809304013D
:1004C000609303010E9419020895809304016093D0
:1004D00003010E94190208950E94190208953D988F
:1004E000459A80E395E7A0E0B0E0809311019093F6
:1004F0001201A0931301B0931401209A219A229A19
:100500008EE190E00E94510683E00E94C40586E0DF
:1005100090E00E94510683E00E94C40582E090E0D2
:100520000E94510683E00E94C40582E090E00E9490
:10053000510682E00E94C40582E090E00E945106CC
:1005400088E20E940E0388E00E940E0381E00E9470
:100550000E0386E00E940E038CE00E940E030895B5
:1005600080911501882329F481E0809315010E9470
:100570006F020895FF920F931F93082F162FF42EEA
:100580000E94B0020E94950137B128B12998112329
:1005900011F0289A01C0289887B18C6387B981E04F
:1005A000F816E1F088B1902F92959F70990F990FEE
:1005B000837C982B98B92A9A81E090E0FC016F9394
:1005C00064E06A95F1F76F913197C9F72A986F93B4
:1005D00064E06A95F1F76F910197C9F788B10F70E0
:1005E000000F000F837C802B88B92A9A81E090E06D
:1005F000FC016F9364E06A95F1F76F913197C9F749
:100600002A986F9364E06A95F1F76F910197C9F7A3
:1006100037B928B91F910F91FF90089560E042E02B
:100620000E94BA0208950F931F93082F162F08C037
:10063000002311F480E101C084E10E940E031150F7
:100640001123B1F71F910F9108950E94130308958C
:100650008CE00E940E0308950E94280308958130C3
:1006600011F48FE001C08EE00E940E0308950E94F5
:100670002F030895A4E0B0E0E0E4F3E00C944E070B
:10068000182F062F80E8898380EC8A8384E98B8386
:1006900084ED8C83FE01E60FF11D8181810F0E94A4
:1006A0000E031093100100930F012496E4E00C94C4
:1006B0006A070E943A03089581E00E940E03809128
:1006C0000D0190910E01892B19F160E070E208C0D4
:1006D000E0910D01F0910E01E40FF51F70836F5F43
:1006E000462F50E08091030190E001972091040192
:1006F00030E0FC01E29FC001E39F900DF29F900D5E
:1007000011244817590724F31092100110920F0179
:1007100008950E945C03089561E042E00E94BA02DD
:1007200008950F931F93CF93DF9300E010E8C82F35
:10073000D0E0812F90E08C239D23892B11F081E361
:1007400001C080E30E948C030F5F083011F0169502
:10075000F0CFDF91CF911F910F9108950E949103E7
:1007600008958A3010F4805D01C0895C0E948C037A
:1007700008951F93182F82958F700E94B103812FC7
:100780008F700E94B1031F9108951F93182F892F16
:100790000E94B903812F0E94B9031F9108950E94FE
:1007A000C50308950E94B90308956F927F928F92B6
:1007B0009F92AF92BF92CF92DF92FF920F93DF93FF
:1007C000CF93CDB7DEB72A970FB6F894DEBF0FBE32
:1007D000CDBF5B016C010AE03E010894611C711CF5
:1007E000FA2CC601B5012AE030E040E050E00E945A
:1007F0001E07C901DA015C016D0101504301800E41
:10080000911C80E3F80EC601B5012AE030E040E01B
:1008100050E00E94EC06F61AF401F082A114B10433
:10082000C104D104E9F608C0F601E00FF11D808192
:100830000E948C030F5F04C06E010894C11CD11C80
:100840000A3090F32A960FB6F894DEBF0FBECDBFE4
:10085000CF91DF910F91FF90DF90CF90BF90AF903D
:100860009F908F907F906F9008950E94D503089578
:10087000EF92FF920F931F937B018C0197FF0BC0A8
:1008800010950095F094E094E11CF11C011D111DE0
:100890008DE20E948C03C801B7010E94D5031F910D
:1008A0000F91FF90EF9008950E9438040895CF9320
:1008B000DF93EC0103C00E948C032196FE0184911A
:1008C0008823C9F7DF91CF9108950E9457040895B6
:1008D000CF93DF93EC0103C021960E948C038881A3
:1008E0008823D1F7DF91CF9108950E94680408957D
:1008F0000E948C0308950E948C030895A0E0B0E04C
:10090000E4E8F4E00C944A07E82E80910D01909100
:100910000E01892B09F405C12AE0E21609F446C04C
:1009200038E0E316C9F480911001815080931001E2
:100930008F3F51F480910F01815080930F0180917E
:10094000040181508093100180910F018F3F09F0C5
:10095000E2C010920F01DDC08E2D0E948C03209109
:100960000F012223C9F030E0215030408091040172
:1009700090E0AC01249FC001259F900D349F900D05
:10098000112420911001E0910D01F0910E01E80F6A
:10099000F91FE20FF11DE082809110018F5F8093BB
:1009A000100190910401891709F0BBC040910F011B
:1009B000242F30E08091030190E001972817390738
:1009C00009F0A4C0C0E0D0E044C080E06C2F0E94D9
:1009D0003A03FF246E010894C11CD11C35C00F2DB1
:1009E00010E090E09C01C29FC001C39F900DD29F78
:1009F000900D1124E0910D01F0910E01E00FF11F17
:100A0000E80FF91F80810E948C03E0910D01F091A5
:100A10000E018091040190E0C89FD001C99FB00DE4
:100A2000D89FB00D1124E00FF11FAE0FBF1FAC0116
:100A3000C49EC001C59E900DD49E900D1124E80F58
:100A4000F91F80818C93F39480910401F81638F299
:100A5000E60160910301862F90E00297C817D9073D
:100A60000CF4B3CF623008F440C0625080E00E94C2
:100A70003A03FF2440E2D42E34C00F2D10E08091C1
:100A8000030190E0029730E0AC01429FC001439F18
:100A9000900D529F900D1124E0910D01F0910E01E7
:100AA000E00FF11FE80FF91F80810E948C03209155
:100AB000030130E0225030408091040190E0AC010D
:100AC000249FC001259F900D349F900D1124E0912B
:100AD0000D01F0910E01E00FF11FE80FF91FD08218
:100AE000F39420910401F21640F2609103016150E9
:100AF00080E00E943A0300E004C080E20E948C0380
:100B00000F5F809104010817C0F303C04F5F40934B
:100B10000F01109210018091100160910F010E944D
:100B20003A032E2D332727FD3095C901CDB7DEB707
:100B3000E8E00C946607EF92FF920F931F93CF9318
:100B4000DF937C01062F10E053E0000F111F5A9530
:100B5000E1F7C0E0D0E09E01200F822F80640E9468
:100B60000E03F701EC0FFD1FE4918E2F0E948C0302
:100B70002196C830D10579F7CDB7DEB7E6E00C9401
:100B800068070E949B05089560E041E00E94BA0258
:100B900008950F931F93CF93DF93082F162FEA0129
:100BA0000BC0002311F488E101C08CE10E940E0308
:100BB000CE010E9451061150112399F7DF91CF9178
:100BC0001F910F9108950E94C90508952F928F9348
:100BD0009F932FB6809117019091180101968093F1
:100BE00017019093180190E080911901891F80935B
:100BF000190190911F019C5F90931F0180911E012C
:100C000080519742C0F090931F0180931E01809104
:100C10001A0190911B01019680931A0190931B0178
:100C200090E080911C01891F80931C0180911D011F
:100C3000891F80931D012FBE9F918F912F90189532
:100C40006F5F7F4F8F4F9F4F660F771F881F991FD2
:100C500025E030E040E050E00E941E07CA01B901E3
:100C6000089528EE33E009C0F9016F9364E06A95B6
:100C7000F1F76F913197C9F701970097A9F7089598
:100C80006F5F7F4F8F4F9F4F660F771F881F991F92
:100C900025E030E040E050E00E941E07CA01B901A3
:100CA000089528EE33E009C0F9016F9364E06A9576
:100CB000F1F76F913197C9F701970097A9F7089558
:100CC000A0E7B0E08C918E7F8C93E0EBF0E0808128
:100CD00083608083E1EBF0E08081807F808380818E
:100CE00082608083B89A8C9181608C937894089507
:100CF00080912001882329F481E0809320010E94C3
:100D0000600608950E947806E0E7F0E080818E7F1B
:100D1000808320911A0130911B0140911C01509158
:100D20001D01808181608083B901CA0108950E94FC
:100D3000820608950E947806809170008E7F8093CD
:100D400070006091B2008091160190911701A091FE
:100D50001801B0911901B89905C0262F30E040E084
:100D600050E011C08091B20020911601309117011E
:100D7000409118015091190120503F4F4F4F5F4F44
:100D800090E0A0E0B0E0282B392B4A2B5B2B809120
:100D90007000816080937000B901CA0108950E94BB
:100DA0009A0608950E947806E0E7F0E080818E7F41
:100DB000808310921A0110921B0110921C01109254
:100DC0001D0110921F0110921E018081816080839D
:100DD00008950E94D2060895629FD001739FF0018A
:100DE000829FE00DF11D649FE00DF11D929FF00DBB
:100DF000839FF00D749FF00D659FF00D9927729FF2
:100E0000B00DE11DF91F639FB00DE11DF91FBD017C
:100E1000CF011124089597FB092E07260AD077FDEC
:100E200004D065D006D000201AF4709561957F4FEC
:100E30000895F6F7909581959F4F0895A1E21A2E97
:100E4000AA1BBB1BFD010DC0AA1FBB1FEE1FFF1F6E
:100E5000A217B307E407F50720F0A21BB30BE40BBE
:100E6000F50B661F771F881F991F1A9469F7609505
:100E70007095809590959B01AC01BD01CF010895BF
:100E80002F923F924F925F926F927F928F929F929A
:100E9000AF92BF92CF92DF92EF92FF920F931F9388
:100EA000CF93DF93CDB7DEB7CA1BDB0B0FB6F89439
:100EB000DEBF0FBECDBF09942A88398848885F8479
:100EC0006E847D848C849B84AA84B984C884DF80EA
:100ED000EE80FD800C811B81AA81B981CE0FD11DCE
:100EE0000FB6F894DEBF0FBECDBFED010895AA1B6B
:100EF000BB1B51E107C0AA1FBB1FA617B70710F005
:100F0000A61BB70B881F991F5A95A9F78095909536
:100F1000BC01CD010895CF93DF93BC0182309105D0
:100F200010F462E070E0A0912301B0912401ED0182
:100F3000E0E0F0E040E050E021C088819981861730
:100F4000970769F48A819B81309719F09383828394
:100F500004C09093240180932301FE0134C06817DC
:100F6000790738F44115510519F08417950708F4ED
:100F7000AC01FE018A819B819C01E9012097E9F681
:100F800041155105A9F1CA01861B970B049708F476
:100F9000BA01E0E0F0E02AC08D919C91119784178E
:100FA0009507F9F46417750781F412968D919C9159
:100FB0001397309719F09383828304C09093240190
:100FC00080932301FD0132964FC0CA01861B970B07
:100FD000FD01E80FF91F6193719302978D939C9324
:100FE00043C0FD01828193819C01D9011097A1F634
:100FF0008091210190912201892B41F48091070178
:101000009091080190932201809321014091090160
:1010100050910A014115510541F44DB75EB78091D9
:10102000050190910601481B590B20912101309137
:10103000220124173507B0F4CA01821B930B8617CF
:10104000970780F0AB014E5F5F4F8417950750F014
:10105000420F531F5093220140932101F9016193E4
:10106000719302C0E0E0F0E0CF01DF91CF910895ED
:10107000CF93DF93009709F450C0EC0122971B82B5
:101080001A82A0912301B0912401109709F140E048
:1010900050E0AC17BD0708F1BB83AA83FE01219184
:1010A0003191E20FF31FAE17BF0779F48D919C9138
:1010B0001197280F391F2E5F3F4F398328831296CF
:1010C0008D919C9113979B838A834115510571F4EF
:1010D000D0932401C093230120C012968D919C913E
:1010E0001397AD01009711F0DC01D3CFFA01D38340
:1010F000C28321913191E20FF31FCE17DF0769F40C
:1011000088819981280F391F2E5F3F4FFA01318363
:1011100020838A819B8193838283DF91CF9108957D
:101120000F931F93CF93DF938C01EB01009731F462
:101130006115710519F420E030E038C081E090E0DD
:101140006EE070E00E94DC08FC019C01009771F1E8
:1011500080E88383209771F0D387C28781E88383F7
:101160008091250190912601892B21F4F09326018D
:10117000E093250101151105C9F0118700878381CE
:10118000826083838091270190912801892B71F4DB
:10119000F0932801E09327018091290190912A0181
:1011A000892B21F4F0932A01E0932901C901DF91F1
:1011B000CF911F910F9108950F931F93CF93DF93BA
:1011C000689F8001699F100D789F100D1124C80140
:1011D0000E948B07EC01009729F060E070E0A80105
:1011E0000E94F808CE01DF91CF911F910F910895D1
:1011F000DC0101C06D9341505040E0F70895F89430
:02120000FFCF1E
:0C120200486900021020002B01000000D1
:00000001FF
